S01B00006275696C642F72656C656173652F7A69676265652E73333714
S21400400008100020657D0000F9C40000194E03006A
S214004010194E030001C5000009C50000194E030033
S214004020194E0300194E0300194E0300194E0300E3
S2140040300DC500001C940400194E0300194E030021
S214004040194E0300194E0300194E03007D78000038
S214004050194E0300194E0300194E0300194E0300B3
S214004060194E0300194E03000DCA0000194E030036
S214004070194E0300194E0300194E0300194E030093
S214004080194E0300194E0300194E0300194E030083
S214004090194E0300194E0300194E0300194E030073
S2140040A0194E03002D81000011810000194E0300F7
S2140040B0194E0300194E0300194E03005D19020045
S2140040C00BAA030007AA0300C110020021AA0300DE
S2140040D00FAA03001D19020013AA030051FD0100D8
S2140040E09D190200194E0300194E0300194E0300D5
S2140040F0194E0300194E0300194E0300194E030013
S214004100194E0300194E0300194E0300194E030002
S214004110194E0300194E0300194E0300194E0300F2
S214004120194E0300194E0300194E0300194E0300E2
S208004130194E03001C
S214004134F0B5114A114C124E00F00105E3695F0711
S21400414413D40DB9334213D103EA00078F4207D1C3
S2140041540B4A1A40002A14BF6FF001000020F0BD7D
S214004164013AEBD16FF00200F9E74FF0FF30F6E7C3
S2140041746FF00100F3E700BF80969800000003503C
S214004184020001000B4B70B5D96911F480310DD1D2
S21400419401244FF48072084E084DF46020462C64C7
S2140041A41A61FFF7C5FF3464EC6070BD6FF0010060
S2140041B4FBE700BF0000035000100350002003502C
S2140041C438B541F6713301220C4C0021E569E363EE
S2140041D40B4B05F48035DA600223606121202361ED
S2140041E4FFF7A6FF10B92120FFF7A2FF0122054B17
S2140041F4DA600DB10023E36338BD00BF000003504E
S214004204001003500020035070B5134C6061E3693E
S2140042145B071ED40E4656F8043B8D18A361AE42C7
S2140042240BD10423002121202361FFF781FF58B915
S214004234BDE870402120FFF77BBF08210846FFF742
S21400424477FF10B10423236170BD56F8043BA361C5
S214004254E5E74FF0FF30F7E7000003502DE9F84399
S214004264154641F67132164B8946DF69DA63012238
S214004274064603F58053DFF8508007F48037DA608B
S21400428455B9284601220F4BDA601FB10022A3F568
S2140042940053DA63BDE8F88306F5005404EA08041C
S2140042A4A41BAC4228BF2C46494622463046FFF79C
S2140042B4ABFF0028E6D12644A1442D1BE0E700BF4F
S2100042C4000003500020035000E0FFFF45
S2140042D02DE9F04F4FF0FD0BC9B09A460DF11B09C2
S2140042E09DF8503108AFCDF80C90CDF808B0019786
S2140042F0059303890446009383790E4690464188C9
S2140043008288407812F048F8054650B10090A3889D
S214004310002062883A4912F083FB284649B0BDE87F
S214004320F08F99F8000033F08EFE38B12846A38847
S2140043306288344912F074FB8D25EEE75A463946FA
S21400434099F8000033F027FE8346002851D0529B90
S2140043501BB1BDF84C3198424BD8002399F8009019
S2140043600793A9F14102012A5FFA8BF123D8384658
S2140043700139254ADFF898C05FFA81FE734513DBE2
S214004380059B04210792C3B907AF18221F489FED6B
S2140043901A7B02FB060420460A460830394684ED9E
S2140043A0027B17F093F811E010F8011F013351401B
S2140043B00CFB01F2E2E7059B33B123464A4638463A
S2140043C000960FF011FFA8E70829DED9B8F1000F14
S2140043D001D088F80090BAF1000F01D0AAF800B01A
S2140043E0529B002B99D05A46184608A917F06EF82B
S2140043F093E7012591E700BF0000000000000000E1
S214004400AF3D0400E43D0400C59D1C8180100020E3
S21400441093010001000000002DE9F04F93B0CDE9B4
S2140044200A32DDE91C530E9353EC102BCDE908013C
S214004430104619468DED060B1E9E16F0D1FA80B179
S214004440DDE906014FF0FF32C54B16F0F1FA40B930
S214004450DDE906014FF0FF326FF4801316F0CAFA5A
S21400446070B1DDE908019DED060B0E9B1E96CDE9A9
S2140044701C53DDE90A3213B0BDE8F04F00F088B9EE
S2140044800022DDE90601002316F0B4FA002800F049
S2140044903381DDE906A303F1004BCBF30A5016F493
S2140044A08063A0F2FF3008BF06250F9315F0C6FF05
S2140044B09BA3D3E9002316F02BF89BA3D3E9002394
S2140044C015F070FECBF31304894644F07F51804606
S2140044D00022A44B504641F4401115F061FE94A30F
S2140044E0D3E9002316F014F802460B464046494628
S2140044F015F058FE16F0A6FA044615F09FFF8EA398
S214004500D3E900238046894616F002F80022964B2F
S21400451015F048FE16F096FA89A3D3E9002307465D
S2140045204946404615F0F4FF80463846894615F061
S21400453085FF85A3D3E9002315F0EAFF02460B4664
S2140045404046494615F02CFE02460B46CDE90C23A4
S21400455015F0DEFFDDE90C23804689461046194635
S21400456015F020FE0022CDE91001804B404649465A
S21400457016F0F8F800227E4B15F014FE02460B46A5
S2140045804046494616F0EEF800227A4B15F00AFE31
S21400459002460B464046494616F0E4F8DDE90C2391
S2140045A08046894600204FF0804115F0F9FD02460E
S2140045B00B464046494615F0F5FD02460B46DDE93A
S2140045C0100116F0CFF807F2FF3700226A4B15F0FD
S2140045D0E9FD00223B0515F09BFF52465B468046F0
S2140045E0894616F025FA002840F08980CDE90C8926
S2140045F004F16303C62B8CBF0527042731051BD5A2
S21400460053A3D3E900235046594616F007FA00286C
S2140046107FD051A3D3E900235046594616F0EAF955
S214004620002876D00027A542C6BF2C1B04F1FF3514
S21400463000253C4646F480660E9B9F422CBF4FF0FA
S2140046400008A3EB070816F0020903D0002F18BFD6
S2140046504FF000083CB1DDE90C235046594616F0F1
S21400466081F882468B46DDE906010022002316F01B
S214004670C1F910B10BF100439B46DDE9080126F4B1
S2140046800063CDE90183DDE90A324BEC10AB0095FF
S21400469000F07EF802465FB3DDE9091316F0200F3E
S2140046A000F10105089E0CBF65204520B047DDE9F6
S2140046B008010523002205930A23002CCDE90232C7
S2140046C007F1FF374FEAD473B8BF64422A46019316
S2140046D004970A9B009435F010FB0246B9F1000FD0
S2140046E006D00B9BC41A0B9B1A190E9BA34245D8E7
S2140046F0104613B0BDE8F08FDDE906ABCDE600222C
S214004700404649461A4B16F02DF8013CCDE90C01FF
S2140047106EE7002D90D00F9B002B8DD0013D8BE7D0
S214004720FB799F501344D33FB3C8608B288AC63F9B
S21400473061436F63A787D23F71A379094F930A40FD
S2140047401655B5BBB16B0240EF39FAFE422EE63F76
S2140047502D431CEBE2361A3F0000000080842E41F9
S214004760FFFFEF7F0000F83F0000E03F00002C4016
S21400477000002440000018400000F03F2020DDE943
S2140047800913089DA8470134ADE700BF00000000EC
S2140047902DE9F04F5BEC10AB97B0CDE90501DDE9F4
S2140047A02058CDE90723504652465B465946229F7D
S2140047B016F016F970B90323CDE902870193AA4BC8
S2140047C00093DDE90501DDE9072335F0C8F917B0E8
S2140047D0BDE8F08F4FF0FF326FF480135046594615
S2140047E016F008F928B10423CDE9028701939F4B00
S2140047F0E6E74FF0FF32504659469D4B16F018F943
S21400480068B19C4A07F00403002B08BF03229A4BAA
S2140048101CBF13460422CDE902870192D0E750461A
S2140048208DA3D3E90023594616F002F938B98CA3B4
S214004830D3E900235046594616F0DCF868B1DDE9A6
S2140048400723DDE905014BEC10ABCDE92187209568
S21400485017B0BDE8F04FFFF7DFBD0022002350463B
S214004860594616F0C7F8002800F091805B4652467D
S2140048700020002115F094FC012382468B46099304
S21400488017F4806400F08580092D40F285800024AE
S21400489030210EABA5F109020134202C03F8011BD0
S2140048A0A5EB040901D09442F6D15946504616F0BD
S2140048B0C9F8724B054603EBC90393ED007B8DEDFB
S2140048C00A7B15F0BBFD02460B465046594615F0CE
S2140048D067FCDDE90A2315F01BFE02460B46CDE910
S2140048E00C2316F0D7F8064615F098FD02460B4640
S2140048F0DDE90C0115F054FC02460B46CDE90C230D
S21400490000225F4B16F094F8002848D00136304657
S21400491015F084FD02460B46DDE90A0116F074F830
S21400492008B100260135B9F1000F45D1284615F02B
S21400493085FD02460B465046594615F031FC0022CE
S2140049404F4B16F057F810B9E90700D501350A2184
S2140049500EAB1A19202C0AD095FBF1F001FB10556E
S214004960303502F8015B013405460028F2D107F025
S2140049700302012A55D1B8F1000F52D0099A12B994
S21400498017F00C0F01D008F1FF38302240E00990F4
S21400499076E74FF0060988E7A946002485E7002257
S2140049A0DDE90C01364B16F025F80028BBD10EB118
S2140049B0F007B8D50136B6E70A210EAB1A19202C37
S2140049C00DD0B6FBF1F001FB1063092E03F13003A6
S2140049D009F1FF3904F1010402F8013B11D8302136
S2140049E0A1440EAA202CB2D04C4504F101030AD1F2
S2140049F004F158020DEB02042E2204F8202C1C466B
S214004A00A5E70646DBE7A1541C46EBE71A5501343A
S214004A10444506D2202CF9D1CDE9028701940EAB8D
S214004A20CEE6202CF8D0099B3BB12D2204F158038A
S214004A306B4403F8202C0134EEE77A0704D504F122
S214004A4058032B226B44F4E73B07E5D504F15803E3
S214004A5020226B44EDE700BF0000000065CDCD418D
S214004A600000000065CDCDC19E5B0400A25B040083
S214004A70FFFFEF7F955B04009A5B040058A30400D9
S214004A800000E03F0000000070B58EB02C22002130
S214004A9003A816F08BFB64234FF002320893CDE98F
S214004AA005230B2301218DF834305B4B8DF8101055
S214004AB01D880D4040F0A980084639F0DDFB0A222B
S214004AC0564B574C1A704FF42873ADF812304FF00F
S214004AD0FF332360534B54491B8820460B82534BAD
S214004AE0534A1B68CD828B61524B0D621B884B82EA
S214004AF0514B1B68CB611CF0C7FF20B14FF41B71F4
S214004B004E483AF0FAFC0521206835F0DFFA20B16D
S214004B1040F27D2149483AF0F0FC206815F0FCFA96
S214004B20474B2068196835F094FB0C253AF00CF8D2
S214004B30684309903AF008F868430DEB05010790C2
S214004B40206817F0F5F920B140F295213B483AF07D
S214004B50D4FC25681FF042FB00220146284635F0AB
S214004B60F0FB20B140F2972134483AF0C6FC40F200
S214004B700353344D344E2B80052396F90000AB705A
S214004B807F2801D11DF076F83378EB7039F0DCFF22
S214004B9000EB80008000A88039F0D6FF0023C0001C
S214004BA04FF0FF31E880AB604FF0FF3018A3D3E939
S214004BB0002339F0B3FC2549206835F07BFB2068DC
S214004BC002A935F097FF20B14FF434711B483AF034
S214004BD094FC042220680DEB020135F00FFB04283C
S214004BE004D040F2D72115483AF087FC01A90120ED
S214004BF034F01AFF07F0C4FC01201DF0CDFC30F0A5
S214004C0003FF1DF0F3FC1CF0CDFF0EB070BD00BF1F
S214004C100A0020FF42030000126000207167002097
S214004C20445800208ABC04002C6E002090BC04006F
S214004C30A1E2030088BC04008CBC0400CD920400F2
S214004C407C6B0020385800204A71002015E30300D2
S214004C500348044B834202D0034B03B11847704706
S214004C607C7100207C71002000000000064B074984
S214004C70C91A891048BF0131491003D0044B0BB143
S214004C8001481847704700BF7C7100207C710020E7
S214004C900000000010B5064C237843B9FFF7D8FF94
S214004CA0044B13B10448AFF300800123237010BDFA
S214004CB0681600200000000030E0040008B5044B31
S214004CC01BB104490448AFF30080BDE80840CDE7B7
S214004CD0000000006C16002030E00400A3F5803AC7
S214004CE0704700BF154B002B08BF114B9D46FFF7C2
S214004CF0F5FF00218B460F461148124A121A16F08D
S214004D0055FA0C4B002B00D098470B4B002B00D0CD
S214004D1098470020002104000D000B4816F08CFD7B
S214004D2016F01CFA200029002FF0BAFD16F072FDCE
S214004D30000008000000000000000000081000202E
S214004D4008100020D4670020A1B8010007B5012193
S214004D5020200DF1070201F097F850B10121202024
S214004D600DF107028DF8071001F09EF803B05DF80C
S214004D7004FB9DF807100129F8D00122084815F019
S214004D8003F901210DF1070220208DF8071001F02C
S214004D908BF82FF0FAFC4FF4FA6000F0BFFEE5E760
S214004DA048F9030038B501F007FA012805D001F0EC
S214004DB003FA022801D001F025FA064D2B783BB9FC
S214004DC001F0FAF90128044602D12FF060FD2C709C
S214004DD038BD00BFFE60002010B5044600882FF0E6
S214004DE0A8FCA37884F84400834202BF0123E37042
S214004DF02371074B04F11C00C4E9073401F09AF84C
S214004E00224620880349BDE8104000F0D7BF00BF07
S214004E109B4403006544030070B5C37804460D4602
S214004E201646002B34D1D1B1214815F0ADF8012338
S214004E30E370E36CA6600BB1E06D9847E368F61A82
S214004E4063699E4221D2217E1A480131C9B2217679
S214004E5015F09AF8A36D13B1217EE06D9847E570C2
S214004E602FF0A6FC15B3237903BBA268238A801A09
S214004E7083421BD801231048237115F085F8236D53
S214004E80A3B1E06DBDE87040184701232376E6E73E
S214004E900029E4D1094815F077F8636DE660E570FF
S214004EA02571002BDBD0E06D9847D8E770BD00BFBA
S214004EB070F9030081F90300AFF903009CF90300C1
S214004EC010B50446054BC0E903300C3001F032F84B
S214004ED02046BDE810402FF038BB00BFE744030073
S214004EE010B501790446B1FA81F1008849092FF01E
S214004EF083FB21796088B1FA81F149092FF07CFBA8
S214004F00034B1A68A24204BF00221A6010BD00BFFD
S214004F108416002070B543790446A3B100880E4E6F
S214004F2004F10805336813B10C4B1B786BB121797B
S214004F302FF062FB64210A4B3460A3602846BDE86C
S214004F4070402FF02CBC4088E9E7064815F01CF8A6
S214004F50054B3221A360F1E784160020FF60002095
S214004F60E14E0000C5F90300154F000010B50446D9
S214004F70E0B10F4815F008F801236371A37953B91F
S214004F80217920882FF038FB236B7BB1606B0121E1
S214004F90BDE8104018472046FFF7A2FF04F10800BE
S214004FA02FF002FC2046FFF7B5FFEDE710BD00BF6F
S214004FB0FBF9030010B50446F8B1104814F0E4FFFE
S214004FC000236371A3796BB921792088B1FA81F146
S214004FD049092FF011FB236B7BB1606B0021BDE804
S214004FE0104018472046FFF77BFF04F108002FF01B
S214004FF0DBFB2046FFF78EFFEDE710BD06FA030049
S21400500010B5044668B1074814F0BEFF6379204621
S2140050101BB1BDE81040FFF7CDBFBDE81040FFF75D
S214005020A5BF10BD12FA030010B50E4C0E4821465F
S21400503014F0AAFF82210D4814F0A6FF8221022058
S214005040A21E00F031FF014630B134F8022C0848A9
S214005050BDE8104014F098BF0648BDE8104014F0B4
S21400506093BF00BF9659002021FA03003CFA0300C4
S21400507047FA03008BFA030038B5124C8221224609
S214005080022000F001FFA51C014698B122880E48B8
S21400509014F07AFF2A460D4B03F1280153F8040B4F
S2140050A08B4242F8040BF9D119889B7811809370D3
S2140050B02A23238035F8021C054A0648BDE83840F6
S2140050C014F062BF9459002096FA030016FB030002
S2140050D096590020F4FA0300034B1B781BB18B4251
S2140050E001D82FF052BB7047EA70002010B5044676
S2140050F001460E4814F048FF012C11D10C4B0D4808
S2140051001A884FF6FF739A421EBF0022094B5A7444
S2140051102FF058FA01F05AFEBDE8104001F02CBD01
S2140051200448BDE810402FF04FBA00BF41FB030013
S2140051309C700020086B002070B500241A4D1B4E92
S2140051403378A3421BDC0024194D1A4E3378A34251
S2140051501BDC0024184D194E3378A3421BDC01F0EB
S2140051602BF8012816481CD12FF02CFA01F02EFE41
S21400517001F002FDBDE87040124801F03DB8284637
S214005180FFF72AFE01346035DAE72846FFF798FE77
S21400519001343435DAE728462FF033FA013438354F
S2140051A0DAE72FF011FAE5E7202500200661002057
S2140051B04029002007610020F02200200561002021
S2140051C0086B0020ED5000002DE9F04F87B0FFF788
S2140051D053FFB34B05A805932FF037FA054615F095
S2140051E0E1FEB04CC2B21F2A627004D9AE4814F079
S2140051F0CBFE00F087FC2946A01C16F067F905A830
S2140052002FF023FA054615F0CDFEC2B21F2A84F809
S214005210212001D9A548EAE7294604F1220016F024
S21400522055F905A82FF011FA3225044600262778EE
S214005230002F40F0B2809E4DFFF77EFF2B789D4CEE
S21400524001932378DFF890A2DFF8A8829A4E0093A5
S2140052509AF8003098F800203178984814F094FEB8
S214005260307898F8002029789AF800508318247827
S2140052702B44934D2344BC462C460B44DBB2B84229
S21400528000F34383002427468E48A14200F3488358
S214005290012B38BF01238C4F02933A4600233C462D
S2140052A04FF482714FF6FF790298013383421370F0
S2140052B05180A2F8049002F10C02F5DB834B824980
S2140052C07848A36001F08AF8E079A36800EB400014
S2140052D003EB800000F022FEE3790133E3717C4BA0
S2140052E01B884B4503D078497A4801F07BF94FF08C
S2140052F00009764C33784B4500F31B8300274FF0AC
S2140053000C09DFF8F4B1704D98F800203178BA42F5
S21400531000F3228302EB01090C2100274FF0940BC7
S21400532001FB09516C4B18786C4AB84200F3318384
S2140053300C214FF000094FF0700B98F800303778CA
S2140053401F44074401FB07515A4B1878644A4845E6
S21400535000F3348398F80030367800271E449AF815
S21400536000304FF068081E440C23064403FB065525
S2140053704F4B1B78BB4200F337830299524800F02C
S2140053805BFE059B46491A468B4240F041835548D2
S21400539007B0BDE8F04F14F0F7BD532F0FD1637878
S2140053A04C2B40F05181A378502B40F04D810122C8
S2140053B04D4B1A7005A82FF048F9044637E7442FDE
S2140053C013D16378303B092BF4D8601C2FF04AF9D0
S2140053D0464B474A1978002385B2994202F160028B
S2140053E0E8DD22F8465C0133F7E7422F0CD16378FC
S2140053F0542B40F08380A01C00F02EFD344B188008
S21400540018462FF00CF8D5E7582F33D8412FD1D9AE
S214005410433F152FCED801A353F827F07D58000040
S214005420B5530000B5530000B5530000B553000057
S214005430B55300009D550000B5530000B55300005D
S2140054405155000087540000B5530000B5530000C6
S214005450B5530000B5530000F7560000495600004B
S214005460B5530000B5530000B5530000B553000017
S2140054707D570000692F9DD1601C2FF0F3F880B295
S2140054802FF07FF996E70C4B0120197800230C4A81
S214005490994202F1A8028DDD02F8A60C0133F7E767
S2140054A0965900201C6A002060FB030077FB03006F
S2140054B003610020006100200461002087FB0300D8
S2140054C044200020A41E0020D81600209817002094
S2140054D09C7000208816002001610020E81B002038
S2140054E0981A0020EAFB0300FF60002006610020F7
S2140054F02025002002610020A41D0020601C00F072
S214005500ABFC0746E01C2FF025F9012104460246B5
S21400551038462FF0DBF86021C748DFF838C302783A
S214005520A4F1030E51430CEB01032CF801704FF469
S214005530FA6119824FF44871DEF100045961BF49DF
S21400554044EB0E0401325D8319659C70027031E7EE
S214005550601C00F081FC00224FF034088146B84FF2
S21400556011462FF0B3F83878B64E08FB00F326F84D
S2140055700390F218E3781046693B18BF0123937036
S214005580FFF79EFC3B78B04A03FB086600211660D6
S21400559001265160167433443B700BE7601C00F024
S2140055A05BFC0022114681462FF090F83422A44F6F
S2140055B0DFF89082387802FB00F328F8039008EBB7
S2140055C00301E3780846693B18BF01238B70FFF799
S2140055D077FC9E4A00231046916B29BB00EB831094
S2140055E034233A7802FB03838363994A00231046E8
S2140055F0D2F8A410F1B9A82202FB030034233A78AB
S21400560002FB0383C0F8A4305EB98F4A33461146C6
S21400561052F8040BA0B93422387800FB028241F815
S21400562023203B780133B7E70133042B02F1400215
S214005630D2D1DAE70133042B02F1A802D8D1E3E78E
S2140056400133042BE4D1ECE7601C00F005FC804637
S214005650E01C2FF07FF801210446024640462FF05A
S21400566035F8602274487B4F0178A4F1030C4A4356
S214005670BB1827F802804FF44872DCF1000444EBB4
S2140056800C049C70A8241A825A61DFF8E4C1724A9E
S2140056905D839A659CF80030DFF8B4E15C430EEB5E
S2140056A004020EF804304FF400745480032414717E
S2140056B0947101EB410401310170682107EB441736
S2140056C0322466480133DBB253718CF8003003781D
S2140056D082F8A0405943624C9760635462180221D6
S2140056E051800521517143F2FF210133DBB2137162
S2140056F0D18003705EE6601C00F0AEFB00224FF027
S214005700380A94F803908346B9F1690918BF4FF038
S2140057100109DFF8608111462EF0D8FF98F80030B6
S214005720504F0AFB03F3FA1827F803B082F80490E8
S214005730E37883B1692B0ED0E01C00F08DFB0022CD
S214005740114604462EF0C2FF012298F800300AFBEC
S21400575003735C809A7144483C4A03789901535419
S21400576098F8001002EB8314C1EBC10207EBC207E6
S2140057704A1C676388F800200133BAE7601C00F013
S2140057806BFB8046E01C00F067FB0746601D2EF0B2
S214005790E1FF04460246012140462EF097FF2246CE
S2140057A0384601212EF092FF4FF0600C4FF4487EF1
S2140057B0DFF88490274A99F800300CFB03F01118A4
S2140057C022F80080E01EDFF8908044424441A1F8B1
S2140057D010E0C1F814E08C704D83C1F85880591C55
S2140057E0C9B20CFB01FC02EB0C008470942422F876
S2140057F00C701E4FA0F810E0C0F814E04583C0F807
S2140058005880981C89F800003878DFF86CC044434C
S21400581003EB430302EB43130CEB040E01EB4101D5
S214005820CEF8043002EB4112CEF808200CF8040043
S21400583001303870BEE500BF066100203546030023
S2140058400761002040290020086B0020A41D0020CE
S2140058504420002020250020D950000003610020AD
S214005860A41E0020F022002002610020016100201A
S2140058700461002005610020E81B0020601C00F089
S214005880EBFA8046E01C00F0E7FA0022647907464F
S214005890693C1146404618BF01242EF017FF00222F
S2140058A0384611462EF012FF3820DFF88CC15D4ACC
S2140058B09CF8003000FB03FE22F80E804FF0000834
S2140058C002EB0E010C7181F80680591CC9B24843E0
S2140058D002EB000E8EF8044070241752524F981CAC
S2140058E08CF800003878DFF854C14443C3EBC30398
S2140058F08EF8068002EBC3030CEB040EC1EBC1016D
S214005900CEF8043002EBC1028EE794F805E00137CA
S214005910964584BF84F804C084F805C0A834AEE475
S21400592090F804C00134944584BFC770077168308E
S214005930ABE4B9F1000F06D017F8053C03EB4303C0
S21400594004EB8304BC603946284601F087FC09F165
S2140059500109A8350C37CDE479180AD04A1E09FB90
S2140059600252D27902EB420204EB820409FB015296
S2140059709460584609FB015101F0BAF931782B487A
S214005980394409FB015101F0DDF801370BF1400BFA
S214005990BAE417EB090F18BF11F8050C03911EBFE8
S2140059A000EB400004EB80048C600BFB072000F04B
S2140059B0E1FF03991E4B01370C31B4E419EB070FD6
S2140059C018BF11F8050C03911EBF00EB400004EB56
S2140059D080048C600BFB092000F0A0FE0399124B9C
S2140059E009F101090C31B0E4F74218BF15F8053C7F
S2140059F029461CBF03EB430304EB83040D4B18BF7F
S214005A00AC6008FB073001F06FFD01370C35AFE4E2
S214005A1013F8011D00297FF4B5AC3B2102F8011CE8
S214005A20B0E400BFF022002000610020E422002045
S214005A3001610020A41E002005610020981A0020A5
S214005A4007B5012121200DF1070200F01DFA18B953
S214005A509DF80720024B1A7003B05DF804FB00BFE8
S214005A60EA70002007B5064B8DF807001870012174
S214005A700DF10702212000F017FA03B05DF804FBD1
S214005A80EA70002007B5022101200DF1060200F0A1
S214005A90FBF938B9044814F077FABDF8060003B0ED
S214005AA05DF804FB0020FAE707FC030007B50221B7
S214005AB0ADF806000DF10602012000F0F5F90146EA
S214005AC010B1034814F060FA03B05DF804FB00BFA1
S214005AD028FC030010B5FFF7D5FF0446014607482B
S214005AE014F052FA0121064814F04EFA24B9BDE823
S214005AF010400120FFF7DABF10BD00BF58FC0300BE
S214005B006AFC030008B5044814F03EFA00F0DCF91D
S214005B102EF03BFE2EF036FE80FC030038B5044621
S214005B20084D094B28462B6000F004FA002C18BFDD
S214005B3021462846BDE8384008BF4FF496712EF03F
S214005B402EBE00BF442A0020834603002DE9F04302
S214005B50384D91B008AC0746894690460FCD0FC425
S214005B6095E80F00002684E80F0001250323324C39
S214005B703248CDE90366CDE905668DF80E30079606
S214005B80029539F063FC2E4839F060FC32462D4908
S214005B9020468DF8176004F08FFD334632462A49BA
S214005BA08DF81900009020468DF82390CDF82C80B3
S214005BB08DF8216004F09AFD0A9020468DF8097051
S214005BC004F0FCFC204608AA05A904F0B5FD02AACC
S214005BD0204603A92FF074FE4FF400721B4B5A6246
S214005BE0194BE560626A920510D46BB94FF40072E7
S214005BF0164B11485A6204F0E1FC114839F029FCB2
S214005C00002011B0BDE8F083013BEBE7002BEDD0A0
S214005C10094908A82FF087FE4FF400720B4B064880
S214005C205A6204F0CBFC064839F013FCBDF820009D
S214005C30E7E700BFD49304000040005A7C960400B7
S214005C407896040080841E0040420F000060005AD0
S214005C500122034B1870034B1980034B1A707047D0
S214005C6009610020A470002008610020F8B5454BAB
S214005C701B780BB90020F8BD434B1B78012B03D1D2
S214005C80BDE8F8402EF000BD404B1C884FF6FF7371
S214005C909C42EFD03E4839F0D9FB0023260AE4B2F6
S214005CA01A462146304604F049FC012E354604F0DB
S214005CB0010335D015D9B51E012DDBD8002B0BBF3F
S214005CC04FF480754FF080754FF470614FF070613F
S214005CD00BBF01274FF480370F204FF470202D4B59
S214005CE011E0002B0BBF4FF480754FF080754FF41A
S214005CF070614FF070610BBF01274FF480370F20A3
S214005D004FF47020244B1A6802401CD0BA421AD0B6
S214005D101A680A4032D11A6822EA01022A4316E0BB
S214005D20002B0BBF4FF480754FF080754FF47061F9
S214005D304FF070610BBF01274FF480370F204FF4F0
S214005D407020164BDFE71A6822EA00023A431A6010
S214005D502EF09AFC054600288CD0083644EA061039
S214005D602A460321C0B2FFF7F1FE40F6FF736843F0
S214005D7000F2FF70B0FBF3F080B27CE795427FF450
S214005D8079AFC8E70861002009610020A4700020F0
S214005D907C96040028C3035020C3035024C303503A
S214005DA010B5044C237823B9034839F04FFB012380
S214005DB0237010BD0B6100207C9604002DE9F04393
S214005DC01F4C85B0074688469146FFF7E9FF2378C3
S214005DD01BB902F063F8012323707BBAADF80C30D0
S214005DE030220023174E02FB03F4315DA51901BBD8
S214005DF0012333554FF0FF3304F1100012493044AD
S214005E00AB606F80C5F80480C5F80C9009F0D8FA2E
S214005E1004F10801042231440C4B009503A802F05B
S214005E2013F9A96802460A4814F0AEF805B0BDE8B2
S214005E30F0830133102BD6D1064814F0A5F8F5E709
S214005E400A6100206C2A0020AD460300BF4603000E
S214005E508DFC0300BBFC030080B10278A2F1410375
S214005E60032B0BD840783038C0B2082806D8054B2C
S214005E70134413F8413C40EA032070474FF6FF7086
S214005E80704700BFF493040008B50B4642B10146C4
S214005E900448006803F01CFABDE808402EF06BBC0E
S214005EA0022008BD746B002008B50B4642B10146BF
S214005EB00448006803F094FBBDE808402EF05BBC85
S214005EC0022008BD746B0020F0B50026124F8DB07E
S214005ED0FF2300930A223346386802A92FF0ADFA52
S214005EE0C0B102AB1D4603EB800404E055F8043B4A
S214005EF0B34228BF5E1CAC423868E9D9296803F073
S214005F00F5FC0028F2D02D28F0D00DB0BDE8F0400A
S214005F102EF031BC0DB0F0BD746B002028B1034BE1
S214005F200360034B4360002383607047190000033F
S214005F301C6B0020FF2307B50021044A009308309D
S214005F4009F0C2F903B05DF804FB00BF99470300EF
S214005F500B460449024608680349097808B12EF042
S214005F602EBC7047782D00200D610020F7B50C463A
S214005F7018B12921194839F0C0FA246823685E79D7
S214005F805F8830463946FFF7E3FFF0B18568E5B134
S214005F90A089227D3946904291BF0020801AA368CE
S214005FA080B294BF03469B18E27C00903046A84718
S214005FB00138032803D8DFE800F0080F0B0D002493
S214005FC0204632F0AAFD204600E0812003B0F0BD56
S214005FD08024F5E79324F3E78724F1E7E3FC030046
S214005FE0F8B515460D4A044610680D4A0B4611785A
S214005FF050B122462EF0E3FB034628B100210C27C1
S214006000C678B14201DB0020F8BD07FB01F45A68F0
S2140060101019125BAA42F7D00131F2E7782D002062
S2140060200D61002008B5034B1B6803B1984700209C
S21400603008BD00BF742D00202DE9F74F04460D461D
S2140060400026454B454F1860454B1970330100211B
S214006050F85C01360FF08EFF0C2EF7D10C2D28BF02
S2140060600C254FF0000901953C4EDFF800A13D4D90
S214006070DFF8FC80019B4B4502DC03B0BDE8F08FE7
S21400608023784FF0000B337063887380A388B38047
S214006090A379C6F80880B371E379C8F8005088F889
S2140060A004304FF00003A768A8F80630E3795B4594
S2140060B00ADC012116F8100B0FF05CFF08F1080847
S2140060C009F101090C34D5E74FF0000338886B81DD
S2140060D02880FB784FF0000C2B81BA78C5F804A016
S2140060E0002A00920CBF802240222A7379680AF1A7
S2140060F00C02634513DC03EB43030AEB830ABB681D
S21400610043B1009A4FF6FF71B2FA82F2164B52096B
S21400611032F093FC14350BF1010B0C37C6E7B1F8DF
S21400612000E00CF1010C22F80CEC91F802E00C32C5
S21400613002F816EC91F804E00C3102F815EC11F8B0
S21400614009ECBEF1010F14BF4FF0100E4FF0110E08
S21400615002F814ECCDE700BF782D0020984400200C
S2140061600D6100207C3300206D5F00007C2D002038
S214006170FC350020014B1860704700BF702D0020D2
S21400618070B5128805460E46FFF72AFF044670B122
S21400619002790499806815F05BF8064B1B680BB90A
S2140061A0002070BD3146284622889847F8E78620AA
S2140061B0F7E700BF702D002008B50EF077FF022825
S2140061C006D0012806D0044B18784000C0B208BD9F
S2140061D00120FCE70220FAE70C610020054B10B511
S2140061E01C682CB1FFF7E8FF2346BDE810401847AF
S2140061F010BD00BF6C2D0020014B1860704700BF1B
S2140062006C2D0020034B1A781AB901221A700AF076
S21400621053BF70470C6100200022024B1A70FFF734
S214006220DDBF00BF0C61002037B50446002836D01D
S2140062300EF03CFF022834D1608932F0EBFFE079A3
S214006240237A003818BF0120012B637A08BF40F07C
S21400625008000BB140F0100063890BB140F0040059
S214006260257CA188A2790DB1E36893B90F4B10F095
S2140062705DFA2178084610F0D5FA32F0D7FA0446CF
S21400628010F08EFA7CB100280CBF0020032003B06B
S21400629030BDCDE90035064B10F048FAE9E702209C
S2140062A0F5E70120F3E72046F1E700BFC84A0400FF
S2140062B0CB1904002DE9F04186B005460E469046FF
S2140062C01F469DF834400EF0F1FE022824D1082C1B
S2140062D016D8ADF80C808DF80E702CB122460C99AD
S2140062E00DF10F0015F0F2F803AB033400930A2209
S2140062F031460820094B019410F018FA18B1032013
S21400630006B0BDE8F0812946284610F08BFA32F038
S2140063108DFA0028F4D0F2E70120F1E7CB1904004B
S21400632008B50DF027F8014630B1044813F02CFEEE
S214006330BDE808400DF0C2BB08BD00BF55FD030018
S214006340034B044A5B7C012103201370FFF7ACBDAE
S214006350086B00200E61002010B50446FFF7F0FF22
S214006360B4F57F4F0BD100240F4B1A8813449C7052
S214006370FEF75AFE2046BDE81040FFF7CFBB4FF6AB
S21400638001739C4204D1BDE8104008482EF002B9C3
S2140063904FF602739C4205D1BDE81040044B1878B6
S2140063A0FFF760BB10BD00BF94590020086B0020AB
S2140063B0EA70002010B5074C012122460320FFF7A3
S2140063C063FD28B92378044A003B18BF01235374A1
S2140063D010BD00BF0E610020086B0020F8B5564BBC
S2140063E0564C1A884FF6FF739A4218BF03234FF095
S2140063F0080218BF2370524B30251A7032225A708A
S214006400DA70DA7135229D705D7137251A724FF495
S21400641000129D714B4D3626C5644B4D4264056592
S2140064204A4D012285654A4D1E71C565494D86183F
S2140064304566494DC6678566484D494E0567494DD0
S21400644080F848204567202580F8785080F88450EA
S21400645000F12105C0F88850434D80F85420C0F85C
S2140064608C5080F8602080F86C20C0F8806080F83F
S2140064709020C0F89440C0F8B8303C4B3C4CC0F874
S214006480BC300223C0F898403A4C80F8C030C0F8C0
S214006490A4400F24384B80F8A840C0F8C430374BCF
S2140064A0374CC0F8C8308223C0F8AC40354C80F872
S2140064B0CC30C0F8B0400924334B344DC0F8D0304F
S2140064C0334B80F8B440C0F8D4302C7C314B80F885
S2140064D09C20C0F8A00080F8D820C0F8DC3044B17A
S2140064E02D4B80F8E420C0F8E03005F11103C0F829
S2140064F0E8304FF0000CCA798E6802EB42039F002A
S214006500443006EB830326F807C0586001200D349C
S2140065109870DC701318CB71FFF792FAFFF74AFFFA
S214006520FFF74AFE012806D12B7C23B1BDE8F840D0
S21400653016482EF02FB8F8BD9C700020EB70002097
S2140065400F6100200D940400010020000C9404004C
S214006550020020000B940400030020000A940400AC
S214006560050042000400420007003000FDFF210045
S21400657012001001004042000894040000FF44018D
S214006580F89304000600420094590020086B00208F
S21400659002FF2001EA70002001FF100113B5044637
S2140065A00E482DF047FF6422C0F30F43637083B29A
S2140065B0B3FBF2F3A07823702022002301212EF0F3
S2140065C039F9A0780023212201212EF033F904495D
S2140065D0201D02B0BDE810402EF0E1B89C700020EF
S2140065E0E09304000B7870B583704CF61E030380AE
S2140065F04FF02013C362012380F8303080F83C301F
S214006600C3180364124B044643640223114A80F8FD
S2140066104830114B8263C3644063CA798D6802EBCD
S214006620420305EB830004F12C0646600B4E45F84A
S214006630236000238360531CCB71094B201DC4E9E3
S2140066400134FFF777FC2046BDE87040FFF7A6BF91
S214006650FDFF2100210020000E940400010001032C
S2140066609D650000437B044A0121137000781130B9
S214006670C0B2FFF719BC00BF1961002038B5044648
S2140066800078054D11302A460121C0B2FFF7FCFB09
S21400669008B92B78637338BD19610020034B53F893
S2140066A0200008B12EF083B9704700BF5C3600208A
S2140066B0012908B506D0022907D049B92EF06EF98F
S2140066C0002008BD2EF06DF9FAE72EF06DF9F7E719
S2140066D0024813F059FC0120F3E700BF82FD0300D7
S2140066E010B4054C114654F820001A46BDF8043084
S2140066F05DF8044BFFF7DCBF5C360020002310B5C6
S214006700044683810364A0F844304830FFF712FC47
S214006710014BC4E9123410BD9549030038B5044650
S2140067200B781A4A43700D4642F82300FFF7E6FF3F
S2140067302046FFF7A3FF4FF4401323610123144ABA
S2140067402375A261134A84F82030E261124A84F865
S2140067502C306262114A84F83830A26204F10C02CE
S21400676022630F4A04F10D036263E363EA79A868C3
S21400677002EB420300EB830110344C60094C40F8F6
S2140067802340094B8B60531CEB7138BD5C360020F0
S2140067901861002008002000EC70002000FF300088
S2140067A001FF100102010104E166000010B470242C
S2140067B0427B0D48013A012904FB020006D002295B
S2140067C008D059B95DF8044B2EF0E8B85DF8044BD4
S2140067D02EF0E7B85DF8044B2EF0E6B803485DF8F7
S2140067E0044B13F0D1BB00BF981A00209EFD030097
S2140067F0B0F85C302DE9F0418B4204460E4639D0A5
S214006800437B077C93B31C4A12789A422ED370259A
S2140068101A4A013B05FB032390F80F801B7B424678
S2140068202EF0D3F8B845054601D1FF2820D13A46C8
S2140068303146204694F890302EF0C7F82F4605468D
S2140068400123552212216078A4F85C602DF0F2FF37
S214006850FF2F03D039462046FFF7A8FFFF2D09D0AB
S21400686029462046BDE8F0412EF0EFB8FF25DEE7CA
S2140068700746E5E7BDE8F08100610020981A002091
S21400688041688268C978D27849B112B10321FFF70E
S214006890AFBF837B002B0CBF01210221F7E72AB193
S2140068A0837B002B0CBF02210121F0E7014813F087
S2140068B06BBB00BFAFFD0300037BD3B14368DA7840
S2140068C012B18268D278A2B91B7933B1837B002BD0
S2140068D00CBF04210521FFF78BBF83681B792BB102
S2140068E0837B002B0CBF05210421F4E7014813F03D
S2140068F04BBB7047E1FD0300084A437B052113703C
S214006900837B5370C37B9370037CD370037B1371BC
S21400691000780E30C0B2FFF7C7BA00BF1A61002079
S21400692038B5044600780C4D0E302A460521C0B214
S214006930FFF7AAFA20B1BDE83840084813F024BB98
S2140069402B7863736B78A373AB78E373EB7823745D
S2140069502B79237338BD00BF1A6100201DFE03008B
S214006960034B53F8200008B12EF0B9B8704700BFAB
S21400697084360020F8B504460B78424A43700D462C
S21400698042F82300404E2EF0CAF8FFF7C9FF6268AF
S214006990A3683E483E49D6641165D4655065C3E990
S2140069A01410DE64DC654FF09873022663610123E1
S2140069B004F10C01E16137491032216204F10D0146
S2140069C0A16235492376E16204F10E016163334921
S2140069D084F82430A16304F10F012164304984F85F
S2140069E03030616404F11001E1642E4984F83C30D3
S2140069F084F84830216584F85460A265E879A9686F
S214006A0000EB400201EB820704F1140CC7F804C047
S214006A104FF4817C244F41F82270C218D2B202EBA8
S214006A20420241F822C001EB820700227A601F4A28
S214006A3084F8703022661E4A84F88830A2661D4AA2
S214006A401D4BE2661D4AC4F88C3062671C4A8319E7
S214006A50A26704F15C02C4F88020DBB2194A03EB9B
S214006A604303C4F8842084F8646084F87C6001EBF7
S214006A70830260345460144A033041F82320E871DE
S214006A80F8BD00BF8436002081680000A14A0300DC
S214006A90B968000001002001020010010300300167
S214006AA0040030010500210101FC01064A00210016
S214006AB01094040051001000129404001394040073
S214006AC0550021006F0018001200010470B50D4635
S214006AD00646144613460A460146164813F054FA6C
S214006AE025B92046BDE87040FFF736BC072D05D116
S214006AF021463046BDE8704000F0C2BC4FF6014368
S214006B009D4205D121463046BDE87040FFF728BFBC
S214006B10062D05D121463046BDE8704000F0A2B8EB
S214006B20B5F5817F05D121463046BDE87040FFF7B8
S214006B30B5BD70BD4CFE03000148FFF71BBB00BF90
S214006B40CD6A00004FF4C01330B503600123037113
S214006B50074B8C688360CA7902EB420304EB83051B
S214006B606860044844F82300531CCB7130BD00BF56
S214006B70149404000400010138B50024044D55F8AF
S214006B80040B08B12DF0DBFF01340A2CF7D138BD19
S214006B90AC360020042908B50AD172B16BB113785F
S214006BA01BB92DF0F8FF002008BD2DF0EAFFFAE72C
S214006BB0034813F0E9F90120F6E70320F4E700BFE5
S214006BC07FFE030010B4054C114654F820001A4608
S214006BD0BDF804305DF8044BFFF7DCBFAC36002090
S214006BE00229024608B50ED004D839B910462DF051
S214006BF0D2FF06E04029F9D0412907D110462DF0F2
S214006C00C0FF002008BD2DF0D0FFFAE7024813F0C1
S214006C10BBF90120F6E700BF9FFE030010B4054C49
S214006C20114654F820001A46BDF804305DF8044BAF
S214006C30FFF7D6BFAC360020426B094B52791A706C
S214006C4082785A70C2789A70826B12B190F83C20A3
S214006C50DA70007804210930014AC0B2FFF724B97F
S214006C601F610020024B53F820002DF0BBBF00BF71
S214006C70AC36002038B504460078084D09302A4660
S214006C800421C0B2FFF700F930B96B78A370AB7877
S214006C90E370EB7884F83C3038BD00BF1F610020FD
S214006CA038B504460078114D09302A460421C0B292
S214006CB0FFF7EAF8C8B9A3782A78022B0CD004D8D4
S214006CC063B920462DF067FF01E0FF2B0AD020466F
S214006CD0BDE838402DF033BF002AF2D120462DF013
S214006CE050FFF4E7002AF9D1EBE738BD1F6100201A
S214006CF0F8B504460B78284A0D4642F82300437040
S214006D00FFF7B8FF636B254A5C631A632046FFF7FC
S214006D10C7FF20462DF013FF4FF480136360012356
S214006D20626BA66B0532E2601D4A23722261A21CCA
S214006D302375A26166B11B4A84F82030E261E21C2A
S214006D406262194A84F82C3004F13C03A262236381
S214006D500627EA79A96802EB4203002E21F8237081
S214006D6001EB83000CBF02230423C370012383704E
S214006D700E4B04348360531C4460DBB20C4C03EBB4
S214006D80430341F8234001EB830000234360094B93
S214006D9002328360EA71F8BDAC360020BF4B0300B8
S214006DA00340300101FF300102FF10011D6C00009E
S214006DB008000100C56B000028B1034B1B78834216
S214006DC034BF0020012070470261002070B5002506
S214006DD00A4C0B4E3378AB4200DC70BDD4F8A420CE
S214006DE042B123791BB16079FFF7E6FF10B9104670
S214006DF02DF0ABFB0135A834ECE700BF44200020A3
S214006E000461002008B5417902460846FFF7D4FF22
S214006E10A8B1D3780A480139042B00EB81100ED8AC
S214006E20012B08D81BB9BDE808402DF0AABEBDE866
S214006E3008402DF0B0BEBDE808402DF0B6BE08BD37
S214006E40A41D002008B5417902460846FFF7B4FFA6
S214006E50A8B1D3780A480139042B00EB81100ED86C
S214006E60012B08D81BB9BDE808402DF094BEBDE83C
S214006E7008402DF086BEBDE808402DF096BE08BD41
S214006E80A41D002070B586B006460C461546FFF7D2
S214006E9093F901282DD1042C2BD8DFE804F012300A
S214006EA0320303002846FFF787FF50B3164B032C28
S214006EB003EB851353F80C3C58791CD1003818BFE7
S214006EC001204FF48273ADF806300623ADF8083083
S214006ED001234FF480728DF80B3000238DF80A00E2
S214006EE001A8CDE903238DF804608DF81430FFF770
S214006EF09BF906B070BDB0FA80F04009E1E70020CB
S214006F00DFE70220DDE700BFA41D00202DE9F041E9
S214006F108AB005460C46FFF74FF9012806462BD1E6
S214006F206B784FF4827800254FF480778DF8003028
S214006F30134B6846CDE90137ADF8028003958DF80E
S214006F401050FFF771F9BCB163796278052B14BF56
S214006F50032307238DF81420082205A8CDE907751A
S214006F60ADF81680ADF818208DF81A308DF81B6035
S214006F708DF82450FFF758F90AB0BDE8F08100BF3D
S214006F800800070110B583780446A3B903790BB14E
S214006F90FFF758FF20462DF07BFE04236078A4F808
S214006FA06C305522012312212DF044FC2046BDE80A
S214006FB010402DF02ABEB0F86C30022B17D00379A3
S214006FC0032B01D1FFF71EFFA379032B04D16279AF
S214006FD0E1786078FFF756FF00236078A4F86C30FD
S214006FE05522BDE81040012312212DF023BC0A4A89
S214006FF0037812789A420DD90279022A0AD0827949
S214007000022A07D06822054903FB02112046FFF733
S2140070107DFFE1E70021F9E703610020A41E0020C0
S21400702070B58AB004460D46FFF7C6F8012843D16E
S2140070306378224E8DF800304FF48273ADF802303C
S2140070404FF4807394F8A02094F8A11072701C4A34
S2140070506846CDE901230223317003968DF810307F
S214007060FFF7E2F80DB3AB79E879FF2B08BF94F889
S214007070A130697833704FF48273ADF81630082368
S214007080ADF8183001238DF81B304FF48073CDE92E
S214007090073602236A79707005A88DF814108DF8EB
S2140070A01A208DF82430FFF7BFF894F8A130013B82
S2140070B018BF012384F8A1300AB070BD23610020F8
S2140070C00800050170B583780446002B48D0254992
S2140070D0027809780379914217D9022B17D0837961
S2140070E0022B1FD06823204D02FB0355EB78022BA2
S2140070F019D12A791046FFF75FFEA0B11B48013A66
S21400710000EB82102DF051FD0DE0022B0AD16279C2
S2140071101046FFF751FE28B11448013A00EB8210E2
S2140071202DF043FD0025A379022B04D16279E17886
S2140071306078FFF7A7FE25B12A79A9786878FFF767
S214007140A1FE29462046FFF76BFF02236078A4F8CD
S2140071506C305522BDE87040012312212DF06ABB29
S21400716070BD00BF03610020A41E0020A41D0020E7
S2140071704388094A082113808388538083681B8AC2
S214007180938090F8A03093718379D371007804309F
S214007190C0B2FEF789BE00BF165A002038B50D46AD
S2140071A004460178114812F0EFFE4FF602739D4236
S2140071B00ED10F4B1B782BB963712046BDE83840C3
S2140071C0FFF7D6BF62790AB19342F6D20123F3E7FE
S2140071D0B5F57F4FF1D120462DF065FDA378022B43
S2140071E00CBF01220022A3689A70E6E7BBFE0300EC
S2140071F00261002038B504460078144D04302A4653
S2140072000821C0B2FEF740FE20B1BDE83840104865
S21400721012F0BABE2B8863806B88E978A380AA88B0
S214007220A3681A82AB7984F8A030EB79A371094B76
S2140072301B780BB9637138BD09B19942FBD9064872
S21400724012F0A2FE23780133F4E700BF165A00209E
S214007250D5FE030002610020FEFE0300F8B50446DA
S2140072600B78474A0D4642F823004370FFF7C2FFEB
S214007270A268444BD465D364434B02265365434B04
S214007280A11C13654FF44013E36001236161E162C2
S2140072903F49103221632265211D3E4AA1633E48C4
S2140072A03E49626504F1A002A061E163E265E01C6C
S2140072B0611D3B4A206261643A483B492266A21D32
S2140072C02374237784F8283084F8343084F84030E8
S2140072D0A16484F84C6084F8583084F864306062A6
S2140072E0A266E879AA6800EB400102EB810704F188
S2140072F00C0CC7F804C04FF0060C2C4F42F8217057
S214007300C118C9B201EB410142F821C002EB810766
S21400731000217960264F84F880302767254F84F84F
S2140073209830A767244F254BE767254F84F874608D
S21400733084F88C60C4F89C3004F16C06831CC4F896
S2140073408470C4F890601F4F1F4EDBB203EB4303FC
S214007350C4F89460C4F8887002EB830670347460D6
S21400736008261A4C42F82340C31CDBB203EB430347
S21400737002EB8304043042F823606160E871F8BDD4
S214007380143700203F4C0300856F0000C5700000D6
S21400739001FF300104FF20011000300102FF200130
S2140073A005FF300100FF300103FF2101070001083F
S2140073B04A0021001694040051001000189404009E
S2140073C019940400550021006F00180012000104F3
S2140073D08378094A06211370C37853700379937033
S2140073E04379D37083791371C3795371007814305D
S2140073F0C0B2FEF759BD00BF2561002038B50D4666
S214007400044601781C4812F0BFFD4FF602739D42F9
S2140074100ED11A4B1B782BB923712046BDE8384095
S214007420FFF7D6BF22790AB19342F6D20123F3E7DB
S2140074304FF601739D4206D1E37813F0FD0FECD0B2
S2140074400023E370E9E74FF609739D4207D163799D
S21400745003F0FB03012BE0D005236371DDE74FF655
S21400746008739D42D9D1A379023BDBB2FC2B9CBFAB
S214007470FF23A371D1E700BF33FF030002610020A2
S214007480064A034652F8200008B1FFF787BE044AB2
S21400749052F8230008B1FFF7B1BF70471437002039
S2140074A0D436002038B5044600780D4D14302A46F0
S2140074B00621C0B2FEF7E8FC20B1BDE83840094816
S2140074C012F062BD2B78A3706B78E370AB782371F3
S2140074D0EB7863712B79A3716B79E37138BD00BFCC
S2140074E02561002054FF030070B5314A0B7804462E
S2140074F042F8230043700D46FFF7D4FF4FF44013C5
S2140075000221A822A36001232078237312FB001215
S214007510284923760A442261274A84F82430626187
S214007520A21CE261254A84F830302262244A84F89C
S2140075303C30A262234A84F84830E262E21C62636E
S214007540214A84F85430A263221D22641F4A84F81C
S21400755060306264621DE2641D4AE31D2265A21D5E
S214007560A2651C4A6366E265E979AA6801EB4103F5
S21400757002EB8300083444601748082642F82300CC
S21400758006204B1CDBB203EB430342F8230000202B
S21400759002EB83048B1CDBB203EB43036060033116
S2140075A002EB830442F823606060E97170BD00BF9F
S2140075B0D4360020442000201000300105FF3000A3
S2140075C01594040001FF300102FF200109FF30017D
S2140075D008FF300104FF20010700010800239B6A12
S2140075E0B3F5804F03D21968064A914203D00023B0
S2140075F0037083607047012202709A689B6942603C
S214007600F7E700BF07B0CD5E024B034A1A602EF0C4
S2140076106FBF00BF0000002002020FF073B53F4BA3
S21400762004461A781AB102221A7002B070BDCDE96B
S21400763000220028F9D001261E7037F069FE384D6A
S214007640384B186017F082FA2B785BB902F0F2F923
S21400765040B935480823354A3549006801F038FEF8
S21400766000B92E70334B5A68E260334A9A601A6E3D
S21400767022605A6E6260D3F87021A2601B6E5C04B2
S2140076802CD52E4AD368D807FCD42D4B1A68531C29
S21400769029D04FF4801393402A4A13660423294CBA
S2140076A04FF0804223664FF48063236610232366E0
S2140076B04FF400536846236601A9226663662DF0E0
S2140076C00BFB009B2366019B63662B78002BACD0DC
S2140076D0164B1A6822665B686366A6E71A4AD36882
S2140076E0D907FCD4D1E7194B1B78002BD6D1184B01
S2140076F05A68144B12B94FF480121A66154A52682B
S21400770012B94FF400121A66134B5B68002BC5D1F2
S2140077104FF480020B4B1A66C0E700BF2C610020B6
S2140077202D61002064370020746B0020683700202D
S214007730007108000080004455CEAC0000000440F4
S214007740406B002000900044000004502B61002095
S2140077500080055000C005500000065038B5224D88
S21400776004462B78012B02D001232B7038BD00284D
S214007770FCD02DF0D6FA013009D02DF0D2FA40F226
S2140077800113984203D0194AD368DB07FCD4226859
S214007790174B1A6662685A66A268C3F87021E268D8
S2140077A0D40744BF00229A60124B1A68013213D1E4
S2140077B0114A127882B911494968C80748BF1A6049
S2140077C00F4A5268D10744BF01221A600D4A526818
S2140077D0D20744BF02221A6017F0C0F90A4B186895
S2140077E037F091FD0023C0E72C6100200000044024
S2140077F000800044406B00202B6100200080055074
S21400780000C00550000006506437002070B5002404
S214007810A36AB3F5804F23D21A68134B9A421FD13E
S214007820124E337813F0FD0518D14FF4803410480B
S214007830FFF7F4FE032004F04FFC0E4B0320DC6041
S21400784004F02EFC0C4B1C61AB6ADB6998470446BF
S2140078500748FFF783FF0CB901233370204670BD3D
S2140078604FF48174FAE700BF07B0CD5E2B610020AD
S2140078705437002000A000440090004413B5204B6D
S2140078801B7803B9FEE700231E4CCDE900336A4699
S21400789008231D49206801F01BFDF8B91B4AD2F8E1
S2140078A04031D2F840211F2B4FF0010311D9203A66
S2140078B09340019A1A43019208236A4612492068A7
S2140078C001F08EFE124B134A1A602EF011FE02B023
S2140078D010BD9340009A1A430092EDE72D28F1D18F
S2140078E00A4AD2F84031D2F840211F2B4FF001034C
S2140078F085BF203A93409340019398BF0093DBE7FF
S2140079002C610020746B0020007108000080004489
S214007910000000200B020FF038B50025AB6A0446C5
S214007920B3F5804F10D21B6BB3F5804F0CD20748CF
S214007930FFF774FEAB6A20461B6B5B689847BDE892
S21400794038400248FFF70ABF38BD00BF7037002036
S21400795013B50024A36A0190B3F5804F13D21B6BB6
S214007960B3F5804F0FD20948FFF758FEA36A0121EE
S2140079701B6B01A89B69984704460448FFF7EEFE78
S214007980204602B010BD4FF48174F9E7703700202E
S21400799070B50026B36A0446B3F5804F0D4612D282
S2140079A01B6BB3F5804F0ED20848FFF737FEB36A5D
S2140079B020461B6B29469B69984704460348FFF7F9
S2140079C0CDFE204670BD4FF48174FAE77037002074
S2140079D070B50026B36A0446B3F5804F0D4612D242
S2140079E01B6BB3F5804F0ED20848FFF717FEB36A3D
S2140079F020461B6B2946DB69984704460348FFF779
S214007A00ADFE204670BD4FF48174FAE77037002053
S214007A10F8B50027BB6A0446B3F5804F0D461646F8
S214007A2011D21B6B7BB10948FFF7F8FDBB6A2046F5
S214007A301B6B324629465B6A984704460348FFF7A5
S214007A408DFE2046F8BD4FF40174FAE7703700202B
S214007A5070B50026B36A0446B3F5804F0D4612D2C1
S214007A601B6BB3F5804F0ED20848FFF7D7FDB36AFD
S214007A7020461B6B29469B6A984704460348FFF737
S214007A806DFE204670BD4FF40174FAE77037002093
S214007A90F0B50027BB6A0446B3F5804F0D46164680
S214007AA0ADF5337D20D21B6BB3F5804F1CD210484A
S214007AB0FFF7B4FDBB6A20461B6B40F2C1225B6A2F
S214007AC001A99847044630B10948FFF747FE20460B
S214007AD00DF5337DF0BD836A32461B6B2946DB6AA3
S214007AE001A898470446EFE74FF40174EFE700BF9C
S214007AF07037002010B50024A36AB3F5804F10D26B
S214007B001B6BB3F5804F0CD20748FFF787FDA36ABF
S214007B101B6B1B6B984704460348FFF71FFE204667
S214007B2010BD0124FBE700BF70370020F0B58FB012
S214007B30044601A80E461546FFF7EEFE9DF80C30EB
S214007B40012B12D1B5F5402F27D8B4F5402F24D8F5
S214007B506319B3F5402F20D821462A46304613F045
S214007B60B5FC002420460FB0F0BD0027BB6AB3F575
S214007B70804F15D21B6BB3F5804F11D20A48FFF722
S214007B804DFDBB6A2A461B6B314620465B6B984709
S214007B9004460548FFF7E2FDE4E740F20244E1E769
S214007BA040F20114DEE700BF70370020F0B58FB05A
S214007BB0044601A80E461546FFF7AEFE9DF80C30AB
S214007BC0012B1FD1B5F5402F06D8B4F5402F03D8AA
S214007BD06319B3F5402F13D940F2024420460FB084
S214007BE0F0BDE258013225D104339D42F9D82A4629
S214007BF0314620462DF0C5F80028EDD00024EDE7EC
S214007C000023F2E70027BB6AB3F5804F15D21B6B43
S214007C10B3F5804F11D20A48FFF700FDBB6A2A462B
S214007C201B6B314620469B6B984704460448FFF77B
S214007C3095FDD3E740F20344D0E740F20114CDE7C8
S214007C407037002070B58EB0044601A80D46FFF7C9
S214007C5063FE9DF80C30012B22D144EA0503C3F3E2
S214007C600C03002B33D1B5F5402F04D940F2024463
S214007C7020460EB070BDB4F5402FF7D82544B5F5B4
S214007C80402FF3D8204604F500542DF073F8AC428C
S214007C9002D00028F6D1E9E70028E7D00024E7E77D
S214007CA00026B36AB3F5804F14D21B6BB3F5804F32
S214007CB010D20A48FFF7B2FCB36A29461B6B20466F
S214007CC0DB6B984704460548FFF748FDD0E740F2CF
S214007CD00444CDE740F20114CAE700BF7037002025
S214007CE0BFF34F8F0549064BCA6802F4E0621343A0
S214007CF0CB60BFF34F8F00BFFDE700BF00ED00E095
S214007D000400FA0570B5D0B1C9B10E4E431E013954
S214007D1013F8014F2046325D02F00302012A11F8E3
S214007D20012F08BF04F12000B55C05F00305012D06
S214007D3008BF2032801A01D1002CE9D170BD012085
S214007D40FCE700BF79BB04000348044A0449121A42
S214007D5092102DF062B800BF34410000D0420000FF
S214007D607068002008B5154B83F30A8800F030F8D9
S214007D70FFF7EAFF124B13498B4212D30020124B37
S214007D8012498B4218D3FCF7ADFF186850F8224012
S214007D90586840F82240013298688242F5D30C3386
S214007DA0EAE70022F8E71C6844F8220001325C6823
S214007DB0A242F8D30833E4E70022F8E708000020E0
S214007DC038E0040044E0040044E0040044E004001A
S214007DD0124B134A70B59A60D3F88820114D42F4BE
S214007DE07002C3F888206FF0010205F50054226681
S214007DF041F2FF7262660222C3F8D020BFF34F8FB3
S214007E00BFF36F8F4FF44036032004F065F903206C
S214007E10E66004F045F92E6170BD00BF00ED00E09D
S214007E200040000000800044014B1860704700BF0F
S214007E30486B0020054B1860054B1B6F03F00703CB
S214007E40032B01D135F016BB704700BF506B0020E6
S214007E50008000502DE9F04104464FF001080C2543
S214007E600D4E0CB9BDE8F08194FAA4F0B0FA80F09B
S214007E700F2808FA00F2C8BF103824EA0204CABF66
S214007E8005FB006205FB0062B4325768002FE8D09D
S214007E909168C0B2B847E4E78037002008B50C48C0
S214007EA037F0D4FA192004F009F928B1192004F0A3
S214007EB013F9192004F0F4F81A2004F0FFF828B19A
S214007EC01A2004F009F91A2004F0EAF8002008BD88
S214007ED07C9604002DE9F0410E461746054618B379
S214007EE00F2923D80378DBB1013BDBB2022B19D86C
S214007EF0104AD35C6A78D340DB0717D50E4BD3F80D
S214007F001043ACB937F004FA80463A462846314664
S214007F1002F042FE404637F0F6F92046BDE8F08112
S214007F207F23E7E70023E5E72224F6E72124F4E7AA
S214007F300224F2E76C94040000C0035010B5044617
S214007F4010B30378E3B1013BDBB2022B1AD8104A18
S214007F50D35C6278D340DB0718D537F0D9F9012215
S214007F60617823788A4030214B4341F2100103F1B7
S214007F70A04303F570335A5037F0C5F9002010BD02
S214007F807F23E6E70023E4E72220F8E72120F6E750
S214007F906C94040010B5044610B30378E3B1013BBB
S214007FA0DBB2022B1AD8104AD35C6278D340DB07C8
S214007FB018D537F0ADF90122617823788A40302150
S214007FC04B4342F2100103F1A04303F570335A50BD
S214007FD037F099F9002010BD7F23E6E70023E4E799
S214007FE02220F8E72120F6E76C94040038B50D4609
S214007FF0044618B311B30378E3B1013BDBB2022B9E
S2140080001AD8104AD35C6278D340DB0718D537F00D
S2140080107FF930222378534303F1A04303F57033EE
S2140080205B696278D34003F001032B7037F06BF97D
S214008030002038BD7F23E6E70023E4E72220F8E7A8
S2140080402120F6E76C9404002DE9F0410D46164613
S2140080509846044600284FD000294DD001780029C4
S21400806040D04B1EDBB2022B3ED8254AD25C63784A
S214008070DA40D20701D4FF2940D1022E01D9042EBE
S2140080803CD137F045F923780746FF2B05D032461A
S2140080902046296802F0C6FD28602B68013309D106
S2140080A02378FF2B06D1174B6078D3F824142DF0D5
S2140080B08FFC286029684B1C18D00C23124A03FB3F
S2140080C00122069BC2F8048093602378FF2B04D01D
S2140080D001230E4A8B40C2F82434384637F013F991
S2140080E0002007E07F22C2E70022C0E7384637F0CC
S2140080F00AF92D20BDE8F0812220FBE72120F9E7D0
S2140081006C94040000C003508037002000D0035059
S21400811008B502F037FD044B00F05530C3F82004D4
S214008120BDE80840FFF796BE00E0035008B502F031
S21400813029FD044B00F0AA30C3F82004BDE808402F
S214008140FFF788BE00E003502DE9F04F14460546C1
S2140081500E469B46C36B87B001225B6902A9606826
S2140081609847EB6B01225B6903A93046984702A843
S2140081702DF052FA074648B10023A37563754FF0F9
S214008180FF33A360002007B0BDE8F08F03A82DF0F2
S21400819050FA0123A375237E04EBC303DE611F841C
S2140081A06368B3420ED1206003A82DF064FA4FF046
S2140081B0FF332075A360237D043B022B26D80023C3
S2140081C0A375DFE723681A1A53425341A37503A821
S2140081D02DF051FA237D834218BFA77503A82DF012
S2140081E02CFA074602A82DF028FA874218BF00236B
S2140081F003A818BFA3752DF028FA074602A82DF08D
S21400820024FA87421CBF0023A375D4E703A82DF0E9
S21400821014FA80B1EB6B022230465B6904A99847DA
S21400822004A82DF019FA0346207D032839D8DFE884
S21400823000F03838040903A8F3E7CC22237E04EBC9
S214008240C3031A8401F06EFC109B187003A8277EE7
S2140082502DF0E7F904EBC70787F82200237E03A872
S21400826004EBC303B3F8209093F822702DF0E5F9E1
S214008270804603A82DF0E9F98246B8F1000F15D024
S214008280EB6B022230465B6904A9984704A82DF0E0
S214008290A8F96075637D6BB90023A3754FF00008DD
S2140082A038E0227E04EBC2021384CBE703A82DF04D
S2140082B083F9EEE794F81680B8F1000FEED0B9F126
S2140082C0000F09D1DFB10123E375637E002B4FD188
S2140082D0012F42D1677614E06B6C06EB0A015A4216
S2140082E086EA010010421CBF0022A2755A1E0A40F0
S2140082F09B1A9945D0D8A37D002BE3D1CEE7E37D2A
S21400830043B94FF000084B465246314628462CF0FB
S214008310CEFEA060A27D12B123694B4423611A49A8
S214008320237E097899422AD901332376BBF1000FC0
S21400833027D032B3E37D23B3B8F1000F21D1032F4A
S2140083401FD0A1684B1C1CD0109B224600932846C9
S2140083500123FFF7F9FEA07513E095F8343063B9F2
S214008360EB6A0133CFD1032FCDD10123A376C8E723
S214008370012FCFD0032FC4D1F7E79846C3E70023D9
S214008380A375A07DFFE600BF909404002DE9F04F92
S2140083900E46984600238BB004464FF0FF31104639
S2140083A017468DF8133001F0A7FBB6F5801F20D2D4
S2140083B0314605AA04F108002DF080F8451C014658
S2140083C003D1237CBBB92D2010E0384601F094FB86
S2140083D00122394620460DF113032CF0BAFE002880
S2140083E0EFD09DF8133088F8003000200BB0BDE8C1
S2140083F0F08FB01CE5D1E56A691C36D12046616A6B
S2140084002CF09BFD0546B31C18BF0123DFF8CC906B
S2140084100193636A626C0293236805A902FB053A1E
S214008420E36B05225B695046984705A82DF08FF947
S2140084302DF0B2F950462DF0BAF94FF0000B8246F7
S21400844001464B1C05D0636C81EA0A025B4213426C
S21400845011D0294620462CF070FD029BAB422CD052
S214008460BBF1000F2CD10546D3E72368ED1A636CE9
S214008470B5FBF3F5C7E7484601F03EFB0DF11303E5
S21400848049462046019A2CF064FE034690B1B21C81
S21400849003D0D9F80020B2420CD19DF813200393E4
S2140084A00D4B88F8002049461A68384613F00EF837
S2140084B0039B9B46D9F80810C3E7BBF1000F82D098
S2140084C0B6F5801F91D2314698F800307A6804F1EC
S2140084D0080001F03FFA88E78C9404005C3F002017
S2140084E02DE9F3410446174698460E46184D816A14
S2140084F0E36A8B4201D04B1C02D102B0BDE8F0818A
S214008500284601F0F9FA0122294620460DF1070314
S2140085102CF01FFE38B14346294620469DF807201A
S214008520B8470028E9D0A9684A1C04D169682046E3
S2140085302CF090FD0146012EDAD16B6881EA030229
S214008540636C5B421A4218BF4FF0FF31D0E700BFA2
S214008550303F00202DE9F04F4FF0FF334FF6FF720B
S2140085600025044600F10806C0E909238BB0C36263
S21400857005620563304688462CF071FF20462CF0D5
S214008580ACFC60BB204641462CF027FD20462CF074
S214008590A4FC60BB5E200BB0BDE8F08F2368E26BE6
S2140085A0606C576900FB0530052205A9B84705A889
S2140085B02DF0CDF8012807460CD1294620462CF090
S2140085C0DDFC012F024600D10132294620462CF060
S2140085D0A3FC03E02DF0E5F80028EED10135E369B1
S2140085E09D42DBD320462CF078FC0028CAD000251C
S2140085F04FF0FF394FF6FF73CA46A846C4E9085342
S214008600E36998450AD3A5EB0905012D2CD84FF64A
S214008610FF72636A93423CD16720BCE72368E26B33
S214008620606C576900FB0830052205A9B84705A805
S2140086302DF08DF8834605A82DF060F807465846BD
S2140086402DF0AAF868B1574538BFC4F82480B9455C
S21400865028BFB946BD4238BF3D46BA46236A0133F5
S214008660236208F10108CBE74FF6FF73002563622B
S214008670E3699D42CBD2676C2068E36B052207FB5B
S21400868005005B6905A9984705A82DF037F8013560
S214008690EEE7E26B676C2068694607FB03005569E6
S2140086A00522A84768462DF029F8626A2368606CA0
S2140086B04B4D00FB02302DF07AF84FF0FF33A062EE
S2140086C0E3622A466FF00101204605ABFFF75EFE27
S2140086D0002846D1AD6829462046E5622CF0D9FB35
S2140086E0206320B92046E16A2CF0B4FCE0622946FB
S2140086F020462CF0AFFC0546A36A9D4233D12046A7
S2140087002CF09AFB00278046B946E36999453CD38E
S214008710B84559D92046616A2CF00FFC002605465C
S21400872004F1400AB74212D8626C2368694602FB1D
S2140087300539E36B05225B694846984768462CF086
S214008740DDFF534602464946E06B2DF032F82946D7
S21400875020462CF0F2FB0136B0450546E2D16420F7
S21400876019E7A56AB7E7294620462CF092FB236B4B
S214008770294603440746236320462CF06BFC054637
S214008780002FB9D1C4E90B07B6E7636C256805224C
S21400879003FB0955E36B05A95B692846984705A8BE
S2140087A02CF0D5FF2CF0F8FF58B128462CF0FFFF30
S2140087B0014620462CF06DFB636C143B984208BFC4
S2140087C0013709F10109A0E730462CF048FE0023E6
S2140087D020461946034AFFF783FE0020DBE600BF6B
S2140087E0883F0020415103002DE9F041036B90467D
S2140087F0826B07689A4288BF8363426C436A90B074
S21400880002FB0377C36B0E46052201A95B6904468B
S2140088103846984701A82CF09AFF01280146307088
S21400882057D0656CE26B2368606AD2F814C005FB0B
S2140088300030052206A9E04706A82CF088FF01288C
S2140088404FF0000523D0D4E90A3201219342CDE946
S2140088500B458DF834800E958DF83C102AD11946BC
S21400886020462CF0F7FB236B626C14339B1AE062F5
S21400887023630C9B53B99DF83C303BB1626A616C34
S2140088802368E06B01FB02312CF019FF0C9DE36BB3
S21400889005225B6901A93846984701A82CF057FFC6
S2140088A030702846236BA26B9A4288BFA36310B031
S2140088B0BDE8F081237C33B91C490BAA04F10800FB
S2140088C001F096F8D5E72046194A0BABFFF708FEED
S2140088D0CFE7237C23BB2246164904F1080001F0AB
S2140088E087F8616A20462CF049FB616A421C2046E4
S2140088F02CF012FB054620B9236B626C1344143B24
S21400890023632046A16A2CF0A5FB2368A062C01A48
S214008910636CB0FBF3F0606220462CF0DEFBB6E73B
S21400892000232046044AFFF7DBFDDAE78D900000BF
S21400893009900000DB5103007751030073B50D4624
S214008940D11E4A421C461B7E4A419A4226D12968BD
S2140089502368994222D3636899421FD8114E0DF1BD
S21400896007033246FFF712FDC0B972686B689A4279
S21400897014D19DF80730DA1E53425341227E9342AB
S2140089800CD1636901336361D4E90323934205D2B2
S2140089902968A26842F8231001332361012002B03F
S2140089A070BD00BF883F00202DE9F04F9B4689B080
S2140089B09DF848309046514A0193136907465B4537
S2140089C00D46C0F09580D94653680093B9F1000F64
S2140089D07BD0FB6B01225B6905A90098984705A828
S2140089E02CF027FE454B1B68984240F0848005A873
S2140089F02CF02BFE0428064615D105A82CF02CFEDC
S214008A00009B04461E44019B002B3ED1804512D994
S214008A101C46A8EB0008384600992CF01BFBA9EB77
S214008A2004090090D2E7FB6B02225B69009806A956
S214008A30984706A8E2E7A0EB08045C4528BF5C461A
S214008A40032C4644ABEB040B1DD9FB6B2946304682
S214008A505B69A208984724F0030304F0030A1E4447
S214008A601D44DDF80480BAF1000FD4D0FB6B012260
S214008A7006A930465B6998475246284606A912F072
S214008A8025FD5544C7E7A246EBE7824600F0030300
S214008A9002932B1803930644039BA6EB0A00A3EB52
S214008AA00A05029B9A4514D1BAF1000FB3D0FB6BAE
S214008AB0012206A95B6998475246284606A912F085
S214008AC0C1FE0028DDD04FF03609484609B0BDE8A3
S214008AD0F08FFB6B012206A95B69984704222846A3
S214008AE006A912F0AFFE0028EDD1AAF1040AD3E7DA
S214008AF04FF06309E9E74FF06F09E6E7B43F00205F
S214008B002DE9F0410F4616469846044688B060B3F5
S214008B1090F83450FDB101212CF0D4F900210E9BC1
S214008B20CDE90511CDE902379DF83C30CDF804803B
S214008B308DF81C30237C04968BB90D4901AA04F1EC
S214008B40080000F055FFDDE90553E06B002E08BF76
S214008B501D462CF050FB284608B0BDE8F0812046A4
S214008B60044A01ABFFF7BCFCEDE70546F3E700BFA0
S214008B70A55103003D8900007FB590F84260044689
S214008B8001920DF10B030A46304611492CF03BFBCF
S214008B90012E0546E36B17D132465B6903A9984759
S214008BA09DF80B10039B019A59B19BB243EA02430E
S214008BB0012228460393E36B03A99B69984704B0F8
S214008BC070BD62F30F03F3E701229B6901A9F5E785
S214008BD0B43F00202DE9F04F99B00E460D920A6979
S214008BE0416C0B931439D31DB3FBF1F3013302EB45
S214008BF0C302036B04469342C0F001820023DFF8F1
S214008C0004940893E36A48461946059300F074FFF7
S214008C10D6E9033707930B9B022B4DD1CC2F40F0A0
S214008C20D7810D9B3BB1314620462CF042FB656C4C
S214008C301490012044E00120079B656C1B68149388
S214008C4000F0010000280CBF04230823782F0E93A1
S214008C5049D8059A6B1E1340ED1A3B1D9D423CD227
S214008C60002F3DD0082D3ED80023042506934FF054
S214008C70040A336806990B98C9F80030C9F81070D2
S214008C802CF0FDFC4FEA9A030F93059B89F814001D
S214008C900393002309930C9304930A93616C039B3C
S214008CA04A1E1A408B1A27B35544AB4223D8236B6F
S214008CB05B1A134423632FE1782F656CB9D8F07DD7
S214008CC00D9B002BBCD0E36B01225B69706816A974
S214008CD0984716A82CF0B1FCB4E700250695C6E721
S214008CE004250697C3E7012300254FF0080A0693DC
S214008CF0BFE75345DBD3A3EB0A029742039BB84674
S214008D0028BF90469742534428D90122D9F810101C
S214008D1089F817208F4226D10399C9F804100492C7
S214008D2099F817200AB399F818100398CA1C09EB8B
S214008D30C202506004980131A2F80880907289F847
S214008D401810B8F1000F07D00B9A022A40F0818065
S214008D50099A72B1012209929B46ABE0049A002A56
S214008D6018BF0322DBE70222D9E7039AC9F80420DA
S214008D70E7E70C9A4244032AEED9E26B1846956957
S214008D8014A901220993A847099B05460028E1D0AB
S214008D903D2D40F01E8104F1080303932368059AD5
S214008DA0606CA2EB030ABAFBF0FA00FB0A302CF068
S214008DB0FEFCE16A804620462CF04CF9A26A82420C
S214008DC000F00F81626CD9F80830511E0B40216B01
S214008DD02768891A0B442363089BE062DF1BB7FBF6
S214008DE0F2F7BA4540F0FA80059BB3EB080A12D0BA
S214008DF0E36B4FEA9A0241469B6998478346E36ACB
S214008E00059A5344E362236B03989B1A43442363F7
S214008E102CF025FBDA462368616CE06B01FB07311A
S214008E202CF03AFC20462CF058F820462CF055F949
S214008E302063BAF1000F00F0D4803269616CD31D54
S214008E401439B3FBF1F3013302EBC3029042A5D20F
S214008E50BFE00D9A002A77D1B8F1030F4FEA9802C7
S214008E606ED9E16B18468D6907991093A847109B39
S214008E700546C0B918F0030515D0079A28F0030B6D
S214008E8002EB0B019B444FF0FF3215A815922A46C1
S214008E90109312F01BFBE26B5846956915A9012248
S214008EA0A8470546109B9B46079A42440792002D0A
S214008EB040F08B80049B16A80193069B009399F8BC
S214008EC014204346316800F0CDFDE36B0F9A9B6992
S214008ED0039816A99847039A051E089B18BF1346C1
S214008EE0089343465246204603992CF0E0F8236B3D
S214008EF008F10302A3EB0A0322F003029B1AC9F847
S214008F0008002363002D7FF443AF0C9BA7EB0807F4
S214008F1043440C93CDF80CB0204603992CF09AF8F5
S214008F2000250390002F7FF4B9AE364A3168936867
S214008F3004F10800E36252680B9B00F00BFD49E069
S214008F409B46454607999EE79B4606F120021092EF
S214008F50F27D7068A2B1002296F818C00A99D5B2C0
S214008F60AC4511D9109D02F1010E35F832508D42F4
S214008F7028D90E9806EBC2020144D069084403E0E3
S214008F800E9A0A990A441044E26B15A95569012203
S214008F901193A847159A0A9B1392E26B04339569BE
S214008FA05846012213A90A93A847119B054603EBCE
S214008FB00802A2EB0B02042A7FF679AF28B90BF160
S214008FC0040BC5E77246491BC9E7CDF820B088E711
S214008FD070252F46384619B0BDE8F08F4FF0000ACE
S214008FE019E73269616CD31D1439B3FBF1F3013311
S214008FF002EBC302236B9342BFF404AEE9E71C27DF
S214009000E8E700BF5C3F0020032A2DE9F34106464F
S2140090100D4617461C4606D1237A012B23D0012085
S21400902002B0BDE8F081DFF86080096842460DF1C5
S2140090300703FFF7ABF960600028EDD19DF8072025
S214009040237A032AE8D0D8F804106A689142E3D15C
S214009050012B2969D4F80CC007D172690CEB010307
S214009060934202D92074207CDAE708316144E1603B
S2140090703B46012229463046FFF7ACFD60600028DB
S214009080CAD00020CCE700BF883F00202DE9F3417E
S214009090089C032A1746266806D1237A012B24D07B
S2140090A0012002B0BDE8F081DFF8908030464246ED
S2140090B00DF10703FFF76AF960600028EDD1256817
S2140090C0D8F80400A96AD5F844C04840CCF100039B
S2140090D01840227AE1D1012A09D1E268D8F8103086
S2140090E013447269934202D92074207CD9E7286819
S2140090F0EB6A1B1A081AB3FBFCF3B0FBFCF08342C6
S2140091000BD1706CF36A421E1340326B121A134472
S214009110284633632BF09EFFE862D8F81020E368F9
S21400912008321344E36001223B4604492068FFF7F7
S21400913051FD60600028B0D00020B2E7883F0020D4
S2140091402DE9F0410025604B0E46D3F8008004461A
S2140091501D6018B921252846BDE8F08190F83470C6
S21400916007B30A6803689A4240F0A3804A684368D7
S2140091709A4240F09E808A6883689A4240F09980BE
S214009180CA68C3689A4240F094800A6943699A4262
S21400919040F08F808A69C36B9A4240F08A804B69A0
S2140091A08361D8E768223946856B11F0FFFFD6E960
S2140091B00212336804F1080023607368A5636360D5
S2140091C0336963617369A3612CF05BF9B36904F1D9
S2140091D04000E3639B68984720B9676C17B16368E3
S2140091E0B3FBF7F794F84330E761002BB2D00023C7
S2140091F0656C2366002D64D0002F62D02368B3FB15
S214009200F5F205FB1233002B55D16668B6FBF5F375
S21400921005FB1363002B4ED120462BF02AFEA369D4
S214009220043303449E4248D340F634726369CC3B11
S214009230934244D8B5F5805F43D3032120462BF0F4
S21400924041FED4E90001E36B1B6898470546E36BD3
S2140092500220DB689847CDB941462046FFF77AF9E9
S2140092606428054604D141462046FFF773F90546B3
S214009270666C5DB9236A2046143E5E432BF0F9FD0A
S214009280A369043303449E4238BF5A25002D0CBF01
S2140092900123002384F8343007D1D4E900010B4AB7
S2140092A01368013313602CF086F9E06B2BF0A3FFF4
S2140092B051E75D254FE759254DE75A254BE75F25D2
S2140092C049E75B2547E700BFEC380020E838002078
S2140092D02DE9FF410C4616461F46054680B390F81A
S2140092E034307BB3B1F5801F2ED2DFF860800121C9
S2140092F02BF0E8FD2146424628460DF10F03FFF706
S21400930045F8044670B99DF80F30012B11D1D8F8F6
S2140093101030BB4212D10246009031462846FFF775
S21400932043FB0446E86B2BF066FF204604B0BDE81E
S214009330F081022B14BF2D246024F3E76324F1E7A9
S2140093402124F2E71124F0E72924EEE7B43F0020B9
S2140093502DE9F04385B00C4617461E460546DDF857
S214009360308098B390F8343093B3B1F5801F31D283
S214009370DFF8649001212BF0A5FD21464A462846D9
S2140093800DF10F03FFF702F8044688B99DF80F3079
S214009390012B14D1D9F8102006EB08039A4213D3F8
S2140093A000904346324639462846FFF7FDFA044603
S2140093B0E86B2BF020FF204605B0BDE8F083022BBB
S2140093C014BF2D246024F3E76324F1E72124F2E799
S2140093D01124F0E72924EEE7B43F002073B50C46CD
S2140093E01646054630B390F834302BB3B1F5801FDF
S2140093F024D201212BF066FD21462846104A0DF1A5
S2140094000703FEF7C3FF044680B99DF80730032B19
S2140094100CD0022B0CD1284609492BF04AFF3060AD
S214009420E86B2BF0E8FE204602B070BD2D24F7E76F
S2140094306124F5E72124F6E71124F4E72924F2E76E
S214009440B43F00202DE9F3411E4600230C46174684
S2140094500546336050B390F834304BB3B1F5801FF7
S21400946028D2DFF8548001212BF02CFD21464246FD
S21400947028460DF10703FEF789FF0446A0B99DF8BC
S2140094800730032B10D0022B03BF01233B600423BD
S214009490D8F8103018BF38603360E86B2BF0ABFE9E
S2140094A0204602B0BDE8F0812D24F6E72124F7E738
S2140094B01124F5E72924F3E7B43F002073B50446EA
S2140094C0056B2BF0D6FC636E03449D422CBF002335
S2140094D00123854294BF00252D1A207C84F8503045
S2140094E0656584F85800A8B100230C4E1A46194644
S2140094F0204600962BF0A1FF002305461A46194683
S214009500204600962BF0A2FFE3682844984294BFBA
S2140095100020C01AE06502B070BD00BFFFFF0F005C
S2140095202DE9F3471E4643690446B342884617466C
S2140095309DF828904ED300258DF8075020462BF036
S21400954098FCD4F830A082450AD2236AB5EB430FC4
S21400955006D2002220460DF10701FFF745F9B8B301
S2140095609DF80730012B05D1002220460DF107019A
S214009570FFF73AF9B9F1030F06D0314620462BF033
S21400958068FC256B854227D3144D4FF0FF312846E3
S21400959000F0B2FA4B46294600222046C5E903767B
S2140095A0C5F80080FFF716FB236E054663B120461C
S2140095B0FFF784FF94F8503013B994F858301BB175
S2140095C0236E04F150009847284602B0BDE8F087A5
S2140095D00135B3E76225F7E71C25F5E7883F00204D
S2140095E02DE9FF410F4690461E46054698B390F873
S2140095F0343093B3B1F5801F31D21A4C02212BF0D0
S21400960061FC2246394628460DF10F03FEF7BEFEE2
S214009610024678B10123424600933946334628462F
S214009620FFF77EFF0446E86B2BF0E5FD204604B00E
S214009630BDE8F0819DF80F30012BEBD12169B142D6
S214009640E8D10093414633462846FFF7ADF9044675
S2140096500028DFD1E7E72124E8E71124E6E72924FC
S214009660E4E700BFB43F00202DE9F04790F8423011
S21400967086B0012B05460391A1EB020740F0AA80B5
S214009680FF2F03D81E464FF0640807E00226012B82
S21400969014BF4FF032084FF06408013600244FF62E
S2140096A0FF79DFF844A195F84230012B14BF32232E
S2140096B064239C4202D35FFA88F40DE005AB224691
S2140096C0514628462BF0D3FD95F84230012B059BDA
S2140096D034D14B452DD1E4B295F84230012B14BF5E
S2140096E032226422121BB24217D3012E39D1002235
S2140096F0012B05978DF8132027D1082205A90DF117
S21400970013002CF070F89DF81330059A42EA0322F5
S21400971021462846FFF730FA40B10223324900932B
S2140097202846CC23096803AAFFF7FAFE06B0BDE870
S214009730F087DBB203B902340134B4E7591CCAD04F
S2140097409BB2002BF8D10134F6E7102205A90DF1E3
S21400975013002CF048F89DF81330059A42EA0342AD
S214009760D6E7039A012B059223D10823202205A9C8
S2140097700DF113008DF813302CF035F89DF81320FA
S214009780120221462846FFF7F7F995F84230611C89
S214009790012BC9B21AD10028BFD12846BDF8142023
S2140097A0FFF7EAF90028B8D10234BDF81620E1B276
S2140097B0AFE71023202205A90DF113008DF8133012
S2140097C02CF011F89DF813201204DAE70028A4D133
S2140097D0059A9EE7B7F5803F4FF00106BFF457AFF6
S2140097E04FF032085AE700BFB43F002070B586B08D
S2140097F00E4605460392A0B390F834309BB3B1F5FD
S214009800801F32D202212BF05DFB31462846184AD3
S2140098100DF11703FEF7BAFD044618B99DF8173088
S214009820032B0ED10223314600932846CC2303AAED
S214009830FFF776FE0446E86B2BF0DDFC204606B00C
S21400984070BD022B0BD10A4928462BF032FD039936
S21400985002468142EFD02846FFF706FFEAE761247A
S214009860E9E72124EAE71124E8E72924E6E700BF30
S214009870B43F0020F7B50C461646054668B390F888
S214009880343063B3B1F5801F2BD202212BF01AFBC4
S21400989021462846144A0DF10703FEF777FDC0B9A6
S2140098A09DF80730032B14D0022B14D10E492846FE
S2140098B02BF0FFFC471C024639462846FFF7D4FE2D
