S01B00006275696C642F72656C656173652F7A69676265652E73333714
S2140040000810002031810000C5C800004F0B0300D7
S2140040104F0B0300CDC80000D5C800004F0B0300AF
S2140040204F0B03004F0B03004F0B03004F0B030017
S214004030D9C80000F44E04004F0B03004F0B0300DA
S2140040404F0B03004F0B03004F0B0300497C00008F
S2140040504F0B03004F0B03004F0B03004F0B0300E7
S2140040604F0B03004F0B0300D9CD00004F0B03008E
S2140040704F0B03004F0B03004F0B03004F0B0300C7
S2140040804F0B03004F0B03004F0B03004F0B0300B7
S2140040904F0B03004F0B03004F0B03004F0B0300A7
S2140040A04F0B0300F9840000DD8400004F0B030073
S2140040B04F0B03004F0B03004F0B0300C121020000
S2140040C0616603005D66030025190200776603003B
S2140040D0656603008121020069660300B5050200DB
S2140040E0012202004F0B03004F0B03004F0B03008F
S2140040F04F0B03004F0B03004F0B03004F0B030047
S2140041004F0B03004F0B03004F0B03004F0B030036
S2140041104F0B03004F0B03004F0B03004F0B030026
S2140041204F0B03004F0B03004F0B03004F0B030016
S2080041304F0B030029
S214004134F0B5114A114C124E00F00105E3695F0711
S21400414413D40DB9334213D103EA00078F4207D1C3
S2140041540B4A1A40002A14BF6FF001000020F0BD7D
S214004164013AEBD16FF00200F9E74FF0FF30F6E7C3
S2140041746FF00100F3E700BF80969800000003503C
S214004184020001000B4B70B5D96911F480310DD1D2
S21400419401244FF48072084E084DF46020462C64C7
S2140041A41A61FFF7C5FF3464EC6070BD6FF0010060
S2140041B4FBE700BF0000035000100350002003502C
S2140041C438B541F6713301220C4C0021E569E363EE
S2140041D40B4B05F48035DA600223606121202361ED
S2140041E4FFF7A6FF10B92120FFF7A2FF0122054B17
S2140041F4DA600DB10023E36338BD00BF000003504E
S214004204001003500020035070B5134C6061E3693E
S2140042145B071ED40E4656F8043B8D18A361AE42C7
S2140042240BD10423002121202361FFF781FF58B915
S214004234BDE870402120FFF77BBF08210846FFF742
S21400424477FF10B10423236170BD56F8043BA361C5
S214004254E5E74FF0FF30F7E7000003502DE9F84399
S214004264154641F67132164B8946DF69DA63012238
S214004274064603F58053DFF8508007F48037DA608B
S21400428455B9284601220F4BDA601FB10022A3F568
S2140042940053DA63BDE8F88306F5005404EA08041C
S2140042A4A41BAC4228BF2C46494622463046FFF79C
S2140042B4ABFF0028E6D12644A1442D1BE0E700BF4F
S2100042C4000003500020035000E0FFFF45
S2140042D02DE9F04F4FF0FD0BC9B09A460DF11B09C2
S2140042E09DF8503108AFCDF80C90CDF808B0019786
S2140042F0059303890446009383790E4690464188C9
S2140043008288407812F0A8FC054650B10090A38839
S214004310002062883A4912F0E3FF284649B0BDE81B
S214004320F08F99F800002FF0EDFC38B12846A388EE
S2140043306288344912F0D4FF8D25EEE75A46394696
S21400434099F800002FF086FC8346002851D0529B37
S2140043501BB1BDF84C3198424BD8002399F8009019
S2140043600793A9F14102012A5FFA8BF123D8384658
S2140043700139254ADFF898C05FFA81FE734513DBE2
S214004380059B04210792C3B907AF18221F489FED6B
S2140043901A7B02FB060420460A460830394684ED9E
S2140043A0027B17F0C5FC11E010F8011F01335140E5
S2140043B00CFB01F2E2E7059B33B123464A4638463A
S2140043C0009610F0CBFBA8E70829DED9B8F1000F5D
S2140043D001D088F80090BAF1000F01D0AAF800B01A
S2140043E0529B002B99D05A46184608A917F0A0FCF5
S2140043F093E7012591E700BF0000000000000000E1
S214004400C8F70300FDF70300C59D1C81801000203F
S21400441093010001000000002DE9F04F93B0CDE9B4
S2140044200A32DDE91C530E9353EC102BCDE908013C
S214004430104619468DED060B1E9E16F003FF80B142
S214004440DDE906014FF0FF32C54B16F023FF40B9F9
S214004450DDE906014FF0FF326FF4801316F0FCFE24
S21400446070B1DDE908019DED060B0E9B1E96CDE9A9
S2140044701C53DDE90A3213B0BDE8F04F00F088B9EE
S2140044800022DDE90601002316F0E6FE002800F013
S2140044903381DDE906A303F1004BCBF30A5016F493
S2140044A08063A0F2FF3008BF06250F9316F0F8FBD6
S2140044B09BA3D3E9002316F05DFC9BA3D3E900235E
S2140044C016F0A2FACBF31304894644F07F518046D7
S2140044D00022A44B504641F4401116F093FA94A3E0
S2140044E0D3E9002316F046FC02460B4640464946F2
S2140044F016F08AFA16F0D8FE044616F0D1FB8EA304
S214004500D3E900238046894616F034FC0022964BF9
S21400451016F07AFA16F0C8FE89A3D3E900230746F8
S2140045204946404616F026FC80463846894616F030
S214004530B7FB85A3D3E9002316F01CFC02460B4606
S2140045404046494616F05EFA02460B46CDE90C2375
S21400455016F010FCDDE90C23804689461046194605
S21400456016F052FA0022CDE91001804B404649462B
S21400457016F02AFD00227E4B16F046FA02460B463F
S2140045804046494616F020FD00227A4B16F03CFACB
S21400459002460B464046494616F016FDDDE90C235A
S2140045A08046894600204FF0804116F02BFA0246DE
S2140045B00B464046494616F027FA02460B46DDE90A
S2140045C0100116F001FD07F2FF3700226A4B16F0C5
S2140045D01BFA00223B0516F0CDFB52465B46804692
S2140045E0894616F057FE002840F08980CDE90C89F0
S2140045F004F16303C62B8CBF0527042731051BD5A2
S21400460053A3D3E900235046594616F039FE002836
S2140046107FD051A3D3E900235046594616F01CFE1E
S214004620002876D00027A542C6BF2C1B04F1FF3514
S21400463000253C4646F480660E9B9F422CBF4FF0FA
S2140046400008A3EB070816F0020903D0002F18BFD6
S2140046504FF000083CB1DDE90C235046594616F0F1
S214004660B3FC82468B46DDE906010022002316F0E5
S214004670F3FD10B10BF100439B46DDE9080126F47B
S2140046800063CDE90183DDE90A324BEC10AB0095FF
S21400469000F07EF802465FB3DDE9091316F0200F3E
S2140046A000F10105089E0CBF65204520B047DDE9F6
S2140046B008010523002205930A23002CCDE90232C7
S2140046C007F1FF374FEAD473B8BF64422A46019316
S2140046D004970A9B009431F031F90246B9F1000FB5
S2140046E006D00B9BC41A0B9B1A190E9BA34245D8E7
S2140046F0104613B0BDE8F08FDDE906ABCDE600222C
S214004700404649461A4B16F05FFC013CCDE90C01C9
S2140047106EE7002D90D00F9B002B8DD0013D8BE7D0
S214004720FB799F501344D33FB3C8608B288AC63F9B
S21400473061436F63A787D23F71A379094F930A40FD
S2140047401655B5BBB16B0240EF39FAFE422EE63F76
S2140047502D431CEBE2361A3F0000000080842E41F9
S214004760FFFFEF7F0000F83F0000E03F00002C4016
S21400477000002440000018400000F03F2020DDE943
S2140047800913089DA8470134ADE700BF00000000EC
S2140047902DE9F04F5BEC10AB97B0CDE90501DDE9F4
S2140047A02058CDE90723504652465B465946229F7D
S2140047B016F048FD70B90323CDE902870193AA4B92
S2140047C00093DDE90501DDE9072330F0E9FF17B0C6
S2140047D0BDE8F08F4FF0FF326FF480135046594615
S2140047E016F03AFD28B10423CDE9028701939F4BCA
S2140047F0E6E74FF0FF32504659469D4B16F04AFD0D
S21400480068B19C4A07F00403002B08BF03229A4BAA
S2140048101CBF13460422CDE902870192D0E750461A
S2140048208DA3D3E90023594616F034FD38B98CA37E
S214004830D3E900235046594616F00EFD68B1DDE96F
S2140048400723DDE905014BEC10ABCDE92187209568
S21400485017B0BDE8F04FFFF7DFBD0022002350463B
S214004860594616F0F9FC002800F091805B46524647
S2140048700020002116F0C6F8012382468B460993D5
S21400488017F4806400F08580092D40F285800024AE
S21400489030210EABA5F109020134202C03F8011BD0
S2140048A0A5EB040901D09442F6D15946504616F0BD
S2140048B0FBFC724B054603EBC90393ED007B8DEDC5
S2140048C00A7B16F0EDF902460B465046594616F09E
S2140048D099F8DDE90A2316F04DFA02460B46CDE9B3
S2140048E00C2316F009FD064616F0CAF902460B46DA
S2140048F0DDE90C0116F086F802460B46CDE90C23DE
S21400490000225F4B16F0C6FC002848D00136304621
S21400491016F0B6F902460B46DDE90A0116F0A6FCCB
S21400492008B100260135B9F1000F45D1284616F02A
S214004930B7F902460B465046594616F063F8002271
S2140049404F4B16F089FC10B9E90700D501350A214E
S2140049500EAB1A19202C0AD095FBF1F001FB10556E
S214004960303502F8015B013405460028F2D107F025
S2140049700302012A55D1B8F1000F52D0099A12B994
S21400498017F00C0F01D008F1FF38302240E00990F4
S21400499076E74FF0060988E7A946002485E7002257
S2140049A0DDE90C01364B16F057FC0028BBD10EB1E2
S2140049B0F007B8D50136B6E70A210EAB1A19202C37
S2140049C00DD0B6FBF1F001FB1063092E03F13003A6
S2140049D009F1FF3904F1010402F8013B11D8302136
S2140049E0A1440EAA202CB2D04C4504F101030AD1F2
S2140049F004F158020DEB02042E2204F8202C1C466B
S214004A00A5E70646DBE7A1541C46EBE71A5501343A
S214004A10444506D2202CF9D1CDE9028701940EAB8D
S214004A20CEE6202CF8D0099B3BB12D2204F158038A
S214004A306B4403F8202C0134EEE77A0704D504F122
S214004A4058032B226B44F4E73B07E5D504F15803E3
S214004A5020226B44EDE700BF0000000065CDCD418D
S214004A600000000065CDCDC1EB140400EF14040077
S214004A70FFFFEF7FE2140400E7140400285E040042
S214004A800000E03F0000000070B58EB02C22002130
S214004A9003A816F0BDFF64234FF002320893CDE959
S214004AA005230B2301218DF834305B4B8DF8101055
S214004AB01D880D4040F0A980084634F09BFF0A226E
S214004AC0564B574C1A704FF42873ADF812304FF00F
S214004AD0FF332360534B54491B8820460B82534BAD
S214004AE0534A1B68CD828B61524B0D621B884B82EA
S214004AF0514B1B68CB611DF0F9FB20B14FF41B71C5
S214004B004E4836F012F80521206831F00AF920B137
S214004B1040F27D21494836F008F8206815F02EFF4F
S214004B20474B2068196831F0BFF90C2535F0CAFBF1
S214004B306843099035F0C6FB68430DEB0501079006
S214004B40206817F027FE20B140F295213B4835F04B
S214004B50ECFF25681FF002FE00220146284631F0D1
S214004B601BFA20B140F29721344835F0DEFF40F2C0
S214004B700353344D344E2B80052396F90000AB705A
S214004B807F2801D11DF0A8FC3378EB7035F09AFB36
S214004B9000EB80008000A88035F094FB0023C00066
S214004BA04FF0FF31E880AB604FF0FF3018A3D3E939
S214004BB0002335F071F82549206831F0A6F9206801
S214004BC002A931F0C2FD20B14FF434711B4835F014
S214004BD0ACFF042220680DEB020131F03AF90428FC
S214004BE004D040F2D721154835F09FFF01A90120D7
S214004BF030F03BFD07F0AAFE01201EF0F1F82CF085
S214004C009EFD1EF017F91DF0FFFB0EB070BD00BF35
S214004C100A0020FF42030000BE5D0020F264002070
S214004C20E4570020D6770400A46B0020DC7704004D
S214004C301D9A0300D4770400D8770400B44D04000E
S214004C40EC680020D85700207A6E0020919A030066
S214004C500348044B834202D0034B03B11847704706
S214004C60A86E0020A86E002000000000064B074932
S214004C70C91A891048BF0131491003D0044B0BB143
S214004C8001481847704700BFA86E0020A86E002095
S214004C900000000010B5064C237843B9FFF7D8FF94
S214004CA0044B13B10448AFF300800123237010BDFA
S214004CB0B0150020000000005C9B040008B5044B03
S214004CC01BB104490448AFF30080BDE80840CDE7B7
S214004CD000000000B41500205C9B0400A3F5803A99
S214004CE0704700BF154B002B08BF114B9D46FFF7C2
S214004CF0F5FF00218B460F461148124A121A16F08D
S214004D0087FE0C4B002B00D098470B4B002B00D097
S214004D1098470020002104000D000B4817F0BEF94C
S214004D2016F04EFE200029002BF042FC17F0A4F9E6
S214004D30000008000000000000000000081000202E
S214004D40081000204865002005C1010007B50121B4
S214004D5020200DF1070201F0A7F858B10223012127
S214004D6020200DF107028DF8073001F0ADF803B0F2
S214004D705DF804FB9DF807100229F8D002220948C6
S214004D8015F034FD022301210DF1070220208DF8D5
S214004D90073001F099F82BF058FB4FF4FA6000F05A
S214004DA0CDFEE4E768AF030038B502F093F801F0F3
S214004DB019FA012805D001F015FA022801D001F0F1
S214004DC037FA064D2B783BB901F00CFA0128044659
S214004DD002D12BF0D0FB2C7038BD00BF9C5E0020AB
S214004DE010B5044600882BF004FBA37884F8440032
S214004DF0834202BF0123E3702371074B04F11C00BA
S214004E00C4E9073401F0A6F8224620880349BDE825
S214004E10104000F0E3BF00BF5B0103002501030064
S214004E2070B5C37804460D461646002B34D1D1B172
S214004E30214815F0DBFC0123E370E36CA6600BB1A0
S214004E40E06D9847E368F61A63699E4221D2217E98
S214004E501A480131C9B2217615F0C8FCA36D13B10A
S214004E60217EE06D9847E5702BF002FB15B32379A1
S214004E7003BBA268238A801A83421BD801231048EA
S214004E80237115F0B3FC236DA3B1E06DBDE870404F
S214004E90184701232376E6E70029E4D1094815F0F0
S214004EA0A5FC636DE660E5702571002BDBD0E06D38
S214004EB09847D8E770BD00BF90AF0300A1AF0300CE
S214004EC0CFAF0300BCAF030010B50446054BC0E9E6
S214004ED003300C3001F03EF82046BDE810402BF0C1
S214004EE094B900BFA701030010B501790446B1FAD2
S214004EF081F1008849092BF0DFF921796088B1FA41
S214004F0081F149092BF0D8F9034B1A68A24204BF75
S214004F1000221A6010BD00BFCC15002070B5437982
S214004F200446A3B100880E4E04F10805336813B199
S214004F300C4B1B786BB121792BF0BEF964210A4B20
S214004F403460A3602846BDE870402BF088BA4088DD
S214004F50E9E7064815F04AFC054B3221A360F1E765
S214004F60CC1500209D5E0020E94E0000E5AF030052
S214004F701D4F000010B50446E0B10F4815F036FC92
S214004F8001236371A37953B9217920882BF094F912
S214004F90236B7BB1606B0121BDE8104018472046AB
S214004FA0FFF7A2FF04F108002BF05EFA2046FFF799
S214004FB0B5FFEDE710BD00BF1BB0030010B50446FB
S214004FC0F8B1104815F012FC00236371A3796BB991
S214004FD021792088B1FA81F149092BF06DF9236B0C
S214004FE07BB1606B0021BDE8104018472046FFF7F4
S214004FF07BFF04F108002BF037FA2046FFF78EFF00
S214005000EDE710BD26B0030010B5044668B10748AA
S21400501015F0ECFB637920461BB1BDE81040FFF7A6
S214005020CDBFBDE81040FFF7A5BF10BD32B00300EE
S21400503010B50E4C0E48214615F0D8FB82210D48BF
S21400504015F0D4FB82210220A21E00F03DFF01468F
S21400505030B134F8022C0848BDE8104015F0C6BB45
S2140050600648BDE8104015F0C1BB00BF2A59002015
S21400507041B003005CB0030067B00300ABB00300B0
S21400508038B5114C82212246022000F00DFFA51CE7
S214005090014688B122880D4815F0A8FB2A460C4B1D
S2140050A003F1240153F8040B8B4242F8040BF9D1A8
S2140050B01B7813702423238035F8021C054A064803
S2140050C0BDE8384015F092BB28590020B6B0030062
S2140050D036B103002A59002014B10300034B1B7895
S2140050E01BB18B4201D82BF0B0B97047206E002060
S2140050F010B5044601460E4815F078FB012C11D178
S2140051000C4B0D481A884FF6FF739A421EBF0022BA
S214005110094B5A742BF0B6F802F03EF8BDE8104082
S21400512001F010BF0448BDE810402BF0ADB800BF3A
S2140051305BB10300D46D00207868002070B50024B1
S2140051401A4D1B4E3378A3421BDC0024194D1A4E11
S2140051503378A3421BDC0024184D194E3378A34243
S2140051601BDC01F03FF8012816481CD12BF08AF80A
S21400517002F012F801F0E6FEBDE87040124801F0B9
S21400518051B82846FFF72CFE01346035DAE728468A
S214005190FFF79AFE01343435DAE728462BF091F80B
S2140051A001343835DAE72BF06FF8E5E7E024002025
S2140051B0A45E002000290020A55E0020B02200206A
S2140051C0A35E002078680020F15000002DE9F04F23
S2140051D087B0FFF755FFB84B05A805932BF095F859
S2140051E0054616F011FBB54CC2B21F2A627004D9F0
S2140051F0B34815F0FBFA00F095FC2946A01C16F003
S21400520097FD05A82BF081F8054616F0FDFAC2B208
S2140052101F2A84F8212001D9AA48EAE7294604F182
S214005220220016F085FD05A82BF06FF832260446FE
S21400523000272578002D40F0BC80A34FFFF77EFFA7
S2140052403B78A24C01932378DFF8A8A2DFF8C0824F
S2140052509F4E00939AF8003098F8002031789D48C9
S21400526015F0C4FA307898F8002039789AF800706B
S214005270831824783B44984F2344AC463C460B4462
S214005280DBB2A84200F35183002425469348A1428E
S21400529000F35683012B38BF0123914D02932A4613
S2140052A000232C464FF482714FF6FF7902980133A3
S2140052B0984213705180A2F8049002F10C02F5DCBB
S2140052C0884B87497D48A36001F09EF8E079A36883
S2140052D000EB400003EB800000F030FEE379013382
S2140052E0E371814C23884B4503D07D497F4801F00C
S2140052F08FF94FF6FF7322887949D21A18BF012218
S2140053007B4801F053FD4FF00009764C33784B454F
S21400531000F31F8300274FF00C09DFF8F8B1704D3B
S21400532098F800203178BA4200F3268302EB010990
S2140053300C2100274FF0940B01FB09516D4B187898
S2140053406D4AB84200F335830C214FF000094FF048
S214005350700B98F8003037781F44074401FB07515C
S2140053605A4B1878654A484500F3388398F8003059
S214005370367800271E449AF800304FF068081E441E
S2140053800C23064403FB06554F4B1B78BB4200F329
S2140053903B830299524800F05FFE059B46491A4639
S2140053A08B4240F04583564807B0BDE8F04F15F0F5
S2140053B01DBA532D0FD163784C2B40F05581A3783E
S2140053C0502B40F0518101224E4B1A7005A82AF04E
S2140053D09CFF04462DE7442D13D16378303B092B00
S2140053E0F4D8601C2AF09EFF474B484A19780023E1
S2140053F086B2994202F16002E8DD22F8466C01337B
S214005400F7E7422D0CD16378542B40F08580A01C22
S21400541000F032FD344B188018462AF060FED5E7BF
S214005420582D33D8412DD1D9433D152DCED801A3C3
S21400543053F825F09D580000CD530000CD530000D2
S214005440CD530000CD530000CD530000BB550000E7
S214005450CD530000CD5300006D5500009F54000052
S214005460CD530000CD530000CD530000CD530000B7
S2140054701757000069560000CD530000CD530000BA
S214005480CD530000CD5300009D570000692D9DD1DF
S214005490601C2AF047FF80B22AF0D3FF96E70C4B39
S2140054A00120197800230C4A994202F1A8028DDDEA
S2140054B002F8A60C0133F7E72A5900208C67002073
S2140054C07AB1030091B10300A15E00209E5E002029
S2140054D0A25E0020A1B1030004200020641E00206C
S2140054E09816002058170020D46D0020481600207B
S2140054F0D01500209F5E0020A81B0020581A002010
S21400550004B203009D5E0020A45E0020E02400207C
S214005510A05E0020641D0020601C00F0ADFC054667
S214005520E01C2AF077FF01210446024628462AF0AE
S2140055302DFF6021C848DFF83CC30278A4F1030EB3
S21400554051430CEB01032CF801504FF4FA61198219
S2140055504FF44871DEF100045961C04944EB0E0473
S21400556001325E8319659C7002702FE7601C00F0A4
S21400557083FC00224FF034088146B94F11462AF0CA
S21400558005FF3878B74D08FB00F325F80390EA18B6
S214005590E3781046693B18BF01239370FFF794FC2D
S2140055A00021B14A3B785160012103FB08550B44AA
S2140055B03B7015600F46117408E7601C00F05CFC39
S2140055C00022114681462AF0E1FE3422A44DDFF87F
S2140055D09482287802FB00F328F8039008EB030176
S2140055E0E3780846693B18BF01238B70FFF76CFC15
S2140055F09E4A00231046916B31BB00EB8310342388
S2140056002A7802FB03838363994A00231046D2F864
S214005610A410F9B9A82202FB030034232A7802FB5F
S2140056200383C0F8A4305FB98F4A3B46114652F850
S214005630040BA8B93422287800FB028241F8232004
S2140056402B7801332B70C1E60133042B02F14002A4
S214005650D1D1D9E70133042B02F1A802D7D1E2E772
S2140056600133042BE3D1EBE7601C00F005FC804619
S214005670E01C2AF0CFFE01210446024640462AF0EE
S21400568085FE602274487B4D0178A4F1030C4A43E2
S214005690AB1825F802804FF44872DCF1000444EBA6
S2140056A00C049C70A8241A825A61DFF8E4C1724A7E
S2140056B05E839A659CF80030DFF8B4E15C430EEB3D
S2140056C004020EF804304FF400745480032414715E
S2140056D0947101EB410401310170682105EB44151A
S2140056E0322466480133DBB253718CF800300378FD
S2140056F082F8A0405943624C9560635462180221B8
S21400570051800521517143F2FF210133DBB2137141
S214005710D18003705AE6601C00F0AEFB00224FF00A
S214005720380A94F803908346B9F1690918BF4FF018
S2140057300109DFF8608111462AF028FE98F800304B
S214005740504D0AFB03F3EA1825F803B082F80490DC
S214005750E37883B1692B0ED0E01C00F08DFB0022AD
S214005760114604462AF012FE012298F800300AFB81
S21400577003535C809A7144483C4A03789901535419
S21400578098F8001002EB8314C1EBC10205EBC205CA
S2140057904A1C656388F800200133BAE7601C00F0F5
S2140057A06BFB8046E01C00F067FB0546601D2AF098
S2140057B031FE04460246012140462AF0E7FD224615
S2140057C0284601212AF0E2FD4FF0600C4FF4487E97
S2140057D0DFF88490274A99F800300CFB03F0111884
S2140057E022F80080E01EDFF8908044424441A1F891
S2140057F010E0C1F814E08C704E83C1F85880591C34
S214005800C9B20CFB01FC02EB0C008470942422F855
S2140058100C501E4DA0F810E0C0F814E04683C0F807
S2140058205880981C89F800002878DFF86CC044433C
S21400583003EB430302EB43130CEB040E01EB4101B5
S214005840CEF8043002EB4112CEF808200CF8040023
S21400585001302870BAE500BFA45E0020F502030000
S214005860A55E00200029002078680020641D002026
S21400587004200020E0240020DD500000A15E00206F
S214005880641E0020B0220020A05E00209F5E002044
S214005890A25E0020A35E0020A81B0020601C00F073
S2140058A0EBFA8046E01C00F0E7FA00226479054631
S2140058B0693C1146404618BF01242AF067FD0022C5
S2140058C0284611462AF062FD3820DFF88CC15D4A72
S2140058D09CF8003000FB03FE22F80E804FF0000814
S2140058E002EB0E010C7181F80680591CC9B24843C0
S2140058F002EB000E8EF8044070241552524D981C90
S2140059008CF800002878DFF854C14443C3EBC30387
S2140059108EF8068002EBC3030CEB040EC1EBC1014C
S214005920CEF8043002EBC1028EE794F805E00135AC
S214005930964584BF84F804C084F805C0A834A0E463
S21400594090F804C00134944584BFC5700571683072
S2140059509DE4B9F1000F06D015F8053C03EB4303B0
S21400596004EB8304AC602946384601F05DFE09F17D
S2140059700109A8370C35C9E479180AD04A1E09FB74
S2140059800252D27902EB420204EB820409FB015276
S2140059909460584609FB015101F090FB31782B4882
S2140059A0394409FB015101F0EBF801370BF1400BCC
S2140059B0B6E417EB090F18BF11F8050C03911EBFCC
S2140059C000EB400004EB80048C600BFB072000F02B
S2140059D0E7FF03991E4B01370C31B0E419EB070FB4
S2140059E018BF11F8050C03911EBF00EB400004EB36
S2140059F080048C600BFB092000F0A6FE0399124B76
S214005A0009F101090C31ACE4F74218BF15F8053C62
S214005A1029461CBF03EB430304EB83040D4B18BF5E
S214005A20AC6008FB073001F045FF01370C35ABE4EE
S214005A3013F8011D00297FF4B1AC3B2102F8011CCC
S214005A40ACE400BFB02200209E5E0020A42200200E
S214005A509F5E0020641E0020A35E0020581A0020CF
S214005A6007B5012121200DF1070200F01DFA18B933
S214005A709DF80720024B1A7003B05DF804FB00BFC8
S214005A80206E002007B5064B8DF807001870012120
S214005A900DF10702212000F017FA03B05DF804FBB1
S214005AA0206E002007B5022101200DF1060200F04D
S214005AB0FBF938B9044814F099FEBDF8060003B0A7
S214005AC05DF804FB0020FAE721B2030007B50221C7
S214005AD0ADF806000DF10602012000F0F5F90146CA
S214005AE010B1034814F082FE03B05DF804FB00BF5B
S214005AF042B2030010B5FFF7D5FF0446014607483B
S214005B0014F074FE0121064814F070FE24B9BDE8B6
S214005B1010400120FFF7DABF10BD00BF72B20300CD
S214005B2084B2030008B5044814F060FE00F0DCF907
S214005B302AF08BFC2AF086FC9AB2030038B504469D
S214005B40084D094B28462B6000F004FA002C18BFBD
S214005B5021462846BDE8384008BF4FF496712AF023
S214005B607EBC00BF042A0020430303002DE9F04357
S214005B70384D91B008AC0746894690460FCD0FC405
S214005B8095E80F00002684E80F0001250323324C19
S214005B903248CDE90366CDE905668DF80E300796E6
S214005BA0029534F06BFF2E4834F068FF32462D49DC
S214005BB020468DF8176004F065FF334632462A49C2
S214005BC08DF81900009020468DF82390CDF82C8093
S214005BD08DF8216004F070FF0A9020468DF8097059
S214005BE004F0D2FE204608AA05A904F08BFF02AAFC
S214005BF0204603A92BF0FFFC4FF400721B4B5A62A1
S214005C00194BE560626A920510D46BB94FF40072C6
S214005C10164B11485A6204F0B7FE114834F031FFB3
S214005C20002011B0BDE8F083013BEBE7002BEDD080
S214005C30094908A82BF012FD4FF400720B4B0648DA
S214005C405A6204F0A1FE064834F01BFFBDF820009F
S214005C50E7E700BFAC4E04000040005A5451040071
S214005C605051040080841E0040420F000060005A1D
S214005C700122034B1870034B1980034B1A707047B0
S214005C80A75E0020DC6D0020A65E0020F8B5454B20
S214005C901B780BB90020F8BD434B1B78012B03D1B2
S214005CA0BDE8F8402AF050BB404B1C884FF6FF7307
S214005CB09C42EFD03E4834F0E1FE0023260AE4B2D0
S214005CC01A462146304604F01FFE012E354604F0E3
S214005CD0010335D015D9B51E012DDBD8002B0BBF1F
S214005CE04FF480754FF080754FF470614FF070611F
S214005CF00BBF01274FF480370F204FF470202D4B39
S214005D0011E0002B0BBF4FF480754FF080754FF4F9
S214005D1070614FF070610BBF01274FF480370F2082
S214005D204FF47020244B1A6802401CD0BA421AD096
S214005D301A680A4032D11A6822EA01022A4316E09B
S214005D40002B0BBF4FF480754FF080754FF47061D9
S214005D504FF070610BBF01274FF480370F204FF4D0
S214005D607020164BDFE71A6822EA00023A431A60F0
S214005D702AF0EAFA054600288CD0083644EA0610CF
S214005D802A460321C0B2FFF7F1FE40F6FF736843D0
S214005D9000F2FF70B0FBF3F080B27CE795427FF430
S214005DA079AFC8E7A65E0020A75E0020DC6D002065
S214005DB05451040028C3035020C3035024C3035087
S214005DC010B5044C237823B9034834F057FE01235A
S214005DD0237010BDA95E0020545104002DE9F04345
S214005DE01F4C85B0074688469146FFF7E9FF2378A3
S214005DF01BB902F039FA012323707BBAADF80C30D8
S214005E0030220023174E02FB03F4315DA51901BBB7
S214005E10012333554FF0FF3304F11000124930448C
S214005E20AB606F80C5F80480C5F80C9009F0AEFC36
S214005E3004F10801042231440C4B009503A802F03B
S214005E40E9FAA96802460A4814F0D0FC05B0BDE895
S214005E50F0830133102BD6D1064814F0C7FCF5E7C3
S214005E60A85E00202C2A00206D0303007F03030099
S214005E70A7B20300D5B2030080B10278A2F14103B5
S214005E80032B0BD840783038C0B2082806D8054B0C
S214005E90134413F8413C40EA032070474FF6FF7066
S214005EA0704700BFCC4E040008B50B4642B1014611
S214005EB00448006803F0F2FBBDE808402AF0BBBACD
S214005EC0022008BDE468002008B50B4642B1014632
S214005ED00448006803F06AFDBDE808402AF0ABBA43
S214005EE0022008BDE4680020F0B50026124F8DB0F1
S214005EF0FF2300930A223346386802A92BF038F9AC
S214005F00C0B102AB1D4603EB800404E055F8043B29
S214005F10B34228BF5E1CAC423868E9D9296803F052
S214005F20CBFE0028F2D02D28F0D00DB0BDE8F04012
S214005F302AF081BA0DB0F0BDE468002028B1034B0A
S214005F400360034B4360002383607047190000031F
S214005F508C680020FF2307B50021044A0093083010
S214005F6009F098FB03B05DF804FB00BF590403007A
S214005F700B460449024608680349097808B12AF026
S214005F8092BA7047382D0020AB5E0020F7B50C465D
S214005F9018B12921194834F0C8FD246823685E79B1
S214005FA05F8830463946FFF7E3FFF0B18568E5B114
S214005FB0A089227D3946904291BF0020801AA368AE
S214005FC080B294BF03469B18E27C00903046A847F8
S214005FD00138032803D8DFE800F0080F0B0D002473
S214005FE020462EF0F7FB204600E0812003B0F0BDEF
S214005FF08024F5E79324F3E78724F1E7FDB2030056
S214006000F8B515460D4A044610680D4A0B46117839
S21400601050B122462AF047FA034628B100210C2741
S214006020C678B14201DB0020F8BD07FB01F45A68D0
S2140060301019125BAA42F7D00131F2E7382D002082
S214006040AB5E002008B5034B1B6803B198470020E1
S21400605008BD00BF342D00202DE9F74F04460D463D
S2140060600026454B454F1860454B197033010021FB
S214006070F85C013610F0DEFB0C2EF7D10C2D28BF95
S2140060800C254FF0000901953C4EDFF800A13D4D70
S214006090DFF8FC80019B4B4502DC03B0BDE8F08FC7
S2140060A023784FF0000B337063887380A388B38027
S2140060B0A379C6F80880B371E379C8F8005088F869
S2140060C004304FF00003A768A8F80630E3795B4574
S2140060D00ADC012116F8100B10F0ACFB08F10808DA
S2140060E009F101090C34D5E74FF0000338886B81BD
S2140060F02880FB784FF0000C2B81BA78C5F804A0F6
S214006100002A00920CBF802240222A7379680AF186
S2140061100C02634513DC03EB43030AEB830ABB68FC
S21400612043B1009A4FF6FF71B2FA82F2164B52094B
S2140061302EF0E0FA14350BF1010B0C37C6E7B1F878
S21400614000E00CF1010C22F80CEC91F802E00C32A5
S21400615002F816EC91F804E00C3102F815EC11F890
S21400616009ECBEF1010F14BF4FF0100E4FF0110EE8
S21400617002F814ECCDE700BF382D0020C8440020FC
S214006180AB5E00203C3300208D5F00003C2D0020DD
S214006190BC350020014B1860704700BF302D002032
S2140061A0014B1860704700BF342D002070B5128870
S2140061B005460E46FFF724FF044670B1027904999F
S2140061C0806815F077FC064B1B680BB9002070BD85
S2140061D03146284622889847F8E78620F7E700BF2A
S2140061E0302D002008B50FF0C1FB022806D001288C
S2140061F006D0044B18784000C0B208BD0120FCE76A
S2140062000220FAE7AA5E0020054B10B51C682CB1E8
S214006210FFF7E8FF2346BDE81040184710BD00BF53
S2140062202C2D0020014B1860704700BF2C2D00203D
S214006230034B1A781AB901221A700BF0F7BB704795
S214006240AA5E00200022024B1A70FFF7DDBF00BFD7
S214006250AA5E002037B50446002836D00FF086FB2D
S214006260022834D160892EF017FEE079237A0038B0
S21400627018BF0120012B637A08BF40F008000BB15D
S21400628040F0100063890BB140F00400257CA18823
S214006290A2790DB1E36893B90F4B10F0A7FE2178F1
S2140062A0084610F01FFF2EF020F9044610F0D8FE26
S2140062B07CB100280CBF0020032003B030BDCDE920
S2140062C00035064B10F092FEE9E70220F5E70120C4
S2140062D0F3E72046F1E700BF15040400DED3030011
S2140062E02DE9F04186B005460E4690461F469DF8BD
S2140062F034400FF03BFB022824D1082C16D8ADF80A
S2140063000C808DF80E702CB122460C990DF10F0002
S21400631015F00EFD03AB033400930A223146082025
S214006320094B019410F062FE18B1032006B0BDE8D8
S214006330F0812946284610F0D5FE2EF0D6F8002823
S214006340F4D0F2E70120F1E7DED3030008B50DF044
S214006350CBFC014630B1044814F048FABDE80840CA
S2140063600EF066B808BD00BF6FB30300034B044AC7
S2140063705B7C012103201370FFF7A6BD7868002020
S214006380AC5E002010B50446FFF7F0FFB4F57F4F73
S2140063900BD100240F4B1A8813449C70FEF748FE5E
S2140063A02046BDE81040FFF7C9BB4FF601739C427C
S2140063B004D1BDE81040084829F04CBF4FF60273E0
S2140063C09C4205D1BDE81040044B1878FFF75ABB35
S2140063D010BD00BF2859002078680020206E0020DD
S2140063E010B5074C012122460320FFF75DFD28B9B2
S2140063F02378044A003B18BF0123537410BD00BF26
S214006400AC5E002078680020F8B5564B564C1A88CB
S2140064104FF6FF739A4218BF03234FF0080218BFC7
S2140064202370524B30251A7032225A70DA70DA71A5
S21400643035229D705D7137251A724FF400129D71DA
S2140064404B4D3626C5644B4D426405654A4D0122C8
S21400645085654A4D1E71C565494D86184566494D88
S214006460C6678566484D494E0567494D80F8482001
S2140064704567202580F8785080F8845000F1210583
S214006480C0F88850434D80F85420C0F88C5080F8EF
S214006490602080F86C20C0F8806080F89020C0F8FB
S2140064A09440C0F8B8303C4B3C4CC0F8BC3002239B
S2140064B0C0F898403A4C80F8C030C0F8A4400F248A
S2140064C0384B80F8A840C0F8C430374B374CC0F87B
S2140064D0C8308223C0F8AC40354C80F8CC30C0F8C9
S2140064E0B0400924334B344DC0F8D030334B80F8DD
S2140064F0B440C0F8D4302C7C314B80F89C20C0F8D7
S214006500A00080F8D820C0F8DC3044B12D4B80F8CD
S214006510E420C0F8E03005F11103C0F8E8304FF091
S214006520000CCA798E6802EB42039F00443006EBEB
S214006530830326F807C0586001200D349870DC707D
S2140065401318CB71FFF78CFAFFF74AFFFFF74AFEE6
S214006550012806D12B7C23B1BDE8F840164829F067
S21400656079BEF8BDD46D0020216E0020AD5E0020FF
S214006570E54E040001002000E44E04000200200066
S214006580E34E040003002000E24E04000500420033
S2140065900400420007003000FDFF21001200100139
S2140065A000404200E04E040000FF4401D04E0400CC
S2140065B006004200285900207868002002FF2001CB
S2140065C0206E002001FF100113B504460E4829F086
S2140065D091FD6422C0F30F43637083B2B3FBF2F302
S2140065E0A078237020220023012129F097FFA078AD
S2140065F000232122012129F091FF0449201D02B029
S214006600BDE8104029F02BBFD46D0020E0930400B5
S2140066100B7870B583704CF61E0303804FF0201382
S214006620C362012380F8303080F83C30C31803641E
S214006630124B044643640223114A80F84830114B3B
S2140066408263C3644063CA798D6802EB420305EB3C
S214006650830004F12C0646600B4E45F823600023A9
S2140066608360531CCB71094B201DC4E90134FFF72E
S21400667071FC2046BDE87040FFF7A6BFFDFF210075
S21400668021002000E64E040001000103C965000059
S214006690437B044A0121137000781130C0B2FFF723
S2140066A013BC00BFB75E002038B504460078054D21
S2140066B011302A460121C0B2FFF7F6FB08B92B7845
S2140066C0637338BDB75E0020034B53F8200008B153
S2140066D029F0F5BF704700BF1C360020012908B519
S2140066E006D0022907D049B929F0E0FF002008BDEE
S2140066F029F0DFFFFAE729F0DFFFF7E7024814F09A
S21400670075F80120F3E700BF9CB3030010B4054CF6
S214006710114654F820001A46BDF804305DF8044BC4
S214006720FFF7DCBF1C360020002310B5044683812B
S2140067300364A0F844304830FFF70CFC014BC4E972
S214006740123410BDA506030038B504460B781A4A65
S21400675043700D4642F82300FFF7E6FF2046FFF79A
S214006760A3FF4FF4401323610123144A2375A2614B
S214006770134A84F82030E261124A84F82C306262B0
S214006780114A84F83830A26204F10C0222630F4AE0
S21400679004F10D036263E363EA79A86802EB42033F
S2140067A000EB830110344C60094C40F82340094B41
S2140067B08B60531CEB7138BD1C360020B65E002083
S2140067C008002000226E002000FF300001FF1001AC
S2140067D0020101040D67000010B47024427B0D48CE
S2140067E0013A012904FB020006D0022908D059B953
S2140067F05DF8044B29F05ABF5DF8044B29F059BFE9
S2140068005DF8044B29F058BF03485DF8044B13F0BD
S214006810EDBF00BF581A0020B8B30300B0F85C30D4
S2140068202DE9F0418B4204460E4639D0437B077C67
S21400683093B31C4A12789A422ED370251A4A013B0B
S21400684005FB032390F80F801B7B424629F045FF8B
S214006850B845054601D1FF2820D13A4631462046A4
S21400686094F8903029F039FF2F460546012355222B
S21400687012216078A4F85C6029F050FEFF2F03D048
S21400688039462046FFF7A8FFFF2D09D029462046A7
S214006890BDE8F04129F061BFFF25DEE70746E5E7E2
S2140068A0BDE8F0819E5E0020581A0020416882688C
S2140068B0C978D27849B112B10321FFF7AFBF837B05
S2140068C0002B0CBF01210221F7E72AB1837B002BA6
S2140068D00CBF02210121F0E7014813F087BF00BF7B
S2140068E0C9B30300037BD3B14368DA7812B1826878
S2140068F0D278A2B91B7933B1837B002B0CBF04215D
S2140069000521FFF78BBF83681B792BB1837B002B98
S2140069100CBF05210421F4E7014813F067BF704758
S214006920FBB30300084A437B05211370837B537037
S214006930C37B9370037CD370037B137100780E3097
S214006940C0B2FFF7C1BA00BFB85E002038B5044633
S21400695000780C4D0E302A460521C0B2FFF7A4FA87
S21400696020B1BDE83840084813F040BF2B78637369
S2140069706B78A373AB78E373EB7823742B7923736C
S21400698038BD00BFB85E002037B40300034B53F891
S214006990200008B129F02BBF704700BF4436002006
S2140069A0F8B504460B78424A43700D4642F8230079
S2140069B0404E29F03CFFFFF7C9FF6268A3683E48D7
S2140069C03E49D6641165D4655065C3E91410DE648B
S2140069D0DC654FF0987302266361012304F10C0115
S2140069E0E16137491032216204F10D01A162354997
S2140069F02376E16204F10E016163334984F82430A2
S214006A00A16304F10F012164304984F830306164D9
S214006A1004F11001E1642E4984F83C3084F84830D3
S214006A20216584F85460A265E879A96800EB400205
S214006A3001EB820704F1140CC7F804C04FF4817C04
S214006A40244F41F82270C218D2B202EB420241F83B
S214006A5022C001EB820700227A601F4A84F8703059
S214006A6022661E4A84F88830A2661D4A1D4BE266DE
S214006A701D4AC4F88C3062671C4A8319A26704F169
S214006A805C02C4F88020DBB2194A03EB4303C4F867
S214006A90842084F8646084F87C6001EB83026034B0
S214006AA05460144A033041F82320E871F8BD00BF53
S214006AB044360020AD680000B1070300E56800001A
S214006AC00100200102001001030030010400300123
S214006AD00500210101FC01064A002100E84E0400E1
S214006AE051001000EA4E0400EB4E04005500210051
S214006AF06F0018001200010470B50D4606461446D5
S214006B0013460A4601461A4813F070FE25B9204679
S214006B10BDE87040FFF736BC072D05D1214630464C
S214006B20BDE8704000F092BE4FF601439D4205D18D
S214006B3021463046BDE87040FFF728BF062D05D138
S214006B4021463046BDE8704000F072BAB5F5817F48
S214006B5005D121463046BDE87040FFF7B5BD202D73
S214006B6004D12046BDE8704000F0ECB870BD00BF10
S214006B7066B403000148FFF70DBB00BFF96A0000CA
S214006B804FF4C01330B5036001230371074B8C68C4
S214006B908360CA7902EB420304EB8305686004480D
S214006BA044F82300531CCB7130BD00BFEC4E0400EC
S214006BB0040001010368064A0C2113604368536011
S214006BC003891381438922205381FFF77DB900BFD3
S214006BD06C36002010B50368044686B0FBB1114839
S214006BE013F004FEA37B104A8DF804304FF4827332
S214006BF0ADF806300123CDE90223002301A8049353
S214006C008DF81430FFF726FB2046618929F01FFE19
S214006C102046FA2150F8143B594329F020FC06B0D0
S214006C2010BD00BF99B403002000000110B5064C4B
S214006C30236843B1054813F0D9FD2068BDE810402D
S214006C40418929F004BE10BD78360020BAB403008E
S214006C5070B5364910460C68BDF81020002C5ED082
S214006C6003285CD8DFE800F0021E2745002B5AD028
S214006C70022A58D91D78B3F80160291E18BF0121D1
S214006C8032462B4813F0B2FD2DB13146204629F08E
S214006C90DEFD002070BDE573FA206368584329F0D6
S214006CA072FCF6E7234813F0A1FDE37B002B38D0F7
S214006CB00023E373F0E7002B35D0032A33D91D6891
S214006CC01D48294613F092FD1C4B2A1F9A4201D9F3
S214006CD00220DFE723680BB19D42F9D823899D4245
S214006CE0F6D3E37B6560B3B9FA20684329F04BFC22
S214006CF011E0002BCED0012ACCD91D881048294699
S214006D0013F074FD002DE3D063689D42E0D8E37B6A
S214006D102581002BE8D12046FFF74CFFB9E701207C
S214006D20B8E70420B6E70320B4E700BF78360020B3
S214006D30DDB4030014B5030033B50300FCFF6D009B
S214006D405DB5030038B5154B1C6834B3F0B921683F
S214006D50134813F04BFD23683BB16268934204D29C
S214006D60104813F043FD6368236004F114052846B9
S214006D7029F07AFB236823B1FA212846594329F0E3
S214006D806EFB2046BDE83840FFF714BF032804D149
S214006D906189054813F02AFDF3E738BD78360020F0
S214006DA088B50300B5B50300EAB5030070B53E4BE1
S214006DB00D46044609781860002A6FD101231A464A
S214006DC0A1730021E1730121A1814FF46151C4E94F
S214006DD000132823354E22810C213246222063815F
S214006DE0FFF762F860B9D6E900230AB19A4207D3E2
S214006DF0318999429FBFC4E9002373892181638149
S214006E002B4B2C4AE363042384F8403084F84C3040
S214006E10E3182365284BA2646365022304F1080285
S214006E20E265264A84F85830226604F10A02A26611
S214006E30234A84F8643084F8703004F10C03E26668
S214006E4063676464EA79A86802EB420300EB830197
S214006E5004F13C064E601B4E40F82360FA261A4B9F
S214006E601A488B60531CEB71FFF79AF9208904F1DE
S214006E701405704329F087FB6189204629F0E7FC5A
S214006E80134B2846C4E90534FFF764F8216849B176
S214006E9028467143BDE8704029F0E1BA4FF4F0731C
S214006EA002228DE770BD00BF783600206C360020C9
S214006EB0000023010100230002002100030021013D
S214006EC0FDFF210020000105516C00002D6C000024
S214006ED0D56B0000194B10B51C686CB3E37B4BB345
S214006EE029F0C6FA2369C01A00280ADBFFF77AF9E8
S214006EF0012814D029F0BCFAFA22638902FB0300A9
S214006F002061E37BB3B12489FA235C4329F046FB76
S214006F10A04211D02046BDE8104029F034BB0848F6
S214006F2013F064FC0023FA20E3736368584329F0E7
S214006F302AFBE6E76468E7E710BD00BF7836002066
S214006F4017B6030038B50024044D55F8040B08B1F5
S214006F5029F090FC01340A2CF7D138BD7C3600208D
S214006F60042908B50AD172B16BB113781BB929F0A0
S214006F70ADFC002008BD29F09FFCFAE7034813F09B
S214006F8035FC0120F6E70320F4E700BF51B6030006
S214006F9010B4054C114654F820001A46BDF80430CB
S214006FA05DF8044BFFF7DCBF7C3600200229024662
S214006FB008B50ED004D839B9104629F087FC06E08B
S214006FC04029F9D0412907D1104629F075FC002048
S214006FD008BD29F085FCFAE7024813F007FC0120FB
S214006FE0F6E700BF71B6030010B4054C114654F81E
S214006FF020001A46BDF804305DF8044BFFF7D6BFF4
S2140070007C360020426B094B52791A7082785A708F
S214007010C2789A70826B12B190F83C20DA700078D1
S21400702004210930014AC0B2FEF74EBFBD5E002003
S214007030024B53F8200029F070BC00BF7C360020BD
S21400704038B504460078084D09302A460421C0B2F7
S214007050FEF72AFF30B96B78A370AB78E370EB7855
S21400706084F83C3038BD00BFBD5E002038B504460D
S2140070700078114D09302A460421C0B2FEF714FFED
S214007080C8B9A3782A78022B0CD004D863B9204656
S21400709029F01CFC01E0FF2B0AD02046BDE8384052
S2140070A029F0E8BB002AF2D1204629F005FCF4E7D7
S2140070B0002AF9D1EBE738BDBD5E0020F8B50446DE
S2140070C00B78284A0D4642F823004370FFF7B8FFB6
S2140070D0636B254A5C631A632046FFF7C7FF2046AA
S2140070E029F0C8FB4FF4801363600123626BA66B24
S2140070F00532E2601D4A23722261A21C2375A2613A
S21400710066B11B4A84F82030E261E21C6262194ACA
S21400711084F82C3004F13C03A26223630627EA7944
S214007120A96802EB4203002E21F8237001EB8300CE
S2140071300CBF02230423C370012383700E4B043458
S2140071408360531C4460DBB20C4C03EB430341F8F2
S214007150234001EB830000234360094B0232836027
S214007160EA71F8BD7C360020F508030003403001C4
S21400717001FF300102FF1001E96F00000800010066
S214007180916F000028B1034B1B78834234BF002068
S21400719001207047A05E002070B500250A4C0B4EFB
S2140071A03378AB4200DC70BDD4F8A42042B123791A
S2140071B01BB16079FFF7E6FF10B9104629F025F8F5
S2140071C00135A834ECE700BF04200020A25E0020B2
S2140071D008B5417902460846FFF7D4FFA8B1D37830
S2140071E00A480139042B00EB81100ED8012B08D871
S2140071F01BB9BDE8084029F05FBBBDE8084029F090
S21400720065BBBDE8084029F06BBB08BD641D0020C7
S21400721008B5417902460846FFF7B4FFA8B1D3780F
S2140072200A480139042B00EB81100ED8012B08D830
S2140072301BB9BDE8084029F049BBBDE8084029F065
S2140072403BBBBDE8084029F04BBB08BD641D0020D1
S21400725070B586B006460C461546FEF7C3FF0128F5
S2140072602DD1042C2BD8DFE804F0123032030300B3
S2140072702846FFF787FF50B3164B032C03EB851306
S21400728053F80C3C58791CD1003818BF01204FF435
S2140072908273ADF806300623ADF8083001234FF4AC
S2140072A080728DF80B3000238DF80A0001A8CDE916
S2140072B003238DF804608DF81430FEF7CBFF06B07C
S2140072C070BDB0FA80F04009E1E70020DFE7022059
S2140072D0DDE700BF641D00202DE9F0418AB00546B9
S2140072E00C46FEF77FFF012806462BD16B784FF43D
S2140072F0827800254FF480778DF80030134B68466F
S214007300CDE90137ADF8028003958DF81050FEF7F1
S214007310A1FFBCB163796278052B14BF0323072352
S2140073208DF81420082205A8CDE90775ADF816805B
S214007330ADF818208DF81A308DF81B608DF82450A3
S214007340FEF788FF0AB0BDE8F08100BF080007011D
S21400735010B583780446A3B903790BB1FFF758FF3D
S214007360204629F030FB04236078A4F86C305522C0
S2140073700123122129F0D2F82046BDE8104029F05A
S214007380DFBAB0F86C30022B17D00379032B01D18B
S214007390FFF71EFFA379032B04D16279E1786078AA
S2140073A0FFF756FF00236078A4F86C305522BDE83E
S2140073B010400123122129F0B1B80A4A0378127846
S2140073C09A420DD90279022A0AD08279022A07D077
S2140073D06822054903FB02112046FFF77DFFE1E71F
S2140073E00021F9E7A15E0020641E002070B58AB077
S2140073F004460D46FEF7F6FE012843D16378224E7A
S2140074008DF800304FF48273ADF802304FF480737D
S21400741094F8A02094F8A11072701C4A6846CDE932
S21400742001230223317003968DF81030FEF712FF09
S2140074300DB3AB79E879FF2B08BF94F8A1306978D3
S21400744033704FF48273ADF816300823ADF8183059
S21400745001238DF81B304FF48073CDE907360223E5
S2140074606A79707005A88DF814108DF81A208DF8BA
S2140074702430FEF7EFFE94F8A130013B18BF01233D
S21400748084F8A1300AB070BDC15E00200800050176
S21400749070B583780446002B48D0254902780978D1
S2140074A00379914217D9022B17D08379022B1FD06C
S2140074B06823204D02FB0355EB78022B19D12A795D
S2140074C01046FFF75FFEA0B11B48013A00EB8210A2
S2140074D029F006FA0DE0022B0AD162791046FFF772
S2140074E051FE28B11448013A00EB821029F0F8F951
S2140074F00025A379022B04D16279E1786078FFF742
S214007500A7FE25B12A79A9786878FFF7A1FE294653
S2140075102046FFF76BFF02236078A4F86C305522F4
S214007520BDE870400123122128F0F8BF70BD00BFEF
S214007530A15E0020641E0020641D00204388094AC6
S214007540082113808388538083681B8A938090F871
S214007550A03093718379D37100780430C0B2FEF7FF
S214007560B3BC00BFAA59002038B50D4604460178C2
S214007570114813F03BF94FF602739D420ED10F4BA4
S2140075801B782BB963712046BDE83840FFF7D6BF9D
S21400759062790AB19342F6D20123F3E7B5F57F4F3D
S2140075A0F1D1204629F01AFAA378022B0CBF01224B
S2140075B00022A3689A70E6E78DB60300A05E00205E
S2140075C038B504460078144D04302A460821C0B267
S2140075D0FEF76AFC20B1BDE83840104813F006B943
S2140075E02B8863806B88E978A380AA88A3681A82B0
S2140075F0AB7984F8A030EB79A371094B1B780BB9F3
S214007600637138BD09B19942FBD9064813F0EEF80C
S21400761023780133F4E700BFAA590020A7B6030079
S214007620A05E0020D0B60300F8B504460B78474AA3
S2140076300D4642F823004370FFF7C2FFA268444B92
S214007640D465D364434B02265365434BA11C136594
S2140076504FF44013E36001236161E1623F49103259
S21400766021632265211D3E4AA1633E483E4962656C
S21400767004F1A002A061E163E265E01C611D3B4AE3
S214007680206261643A483B492266A21D2374237730
S21400769084F8283084F8343084F84030A16484F8C4
S2140076A04C6084F8583084F864306062A266E879EA
S2140076B0AA6800EB400102EB810704F10C0CC7F846
S2140076C004C04FF0060C2C4F42F82170C118C9B206
S2140076D001EB410142F821C002EB810700217960ED
S2140076E0264F84F880302767254F84F89830A767A0
S2140076F0244F254BE767254F84F8746084F88C6028
S214007700C4F89C3004F16C06831CC4F88470C4F87A
S21400771090601F4F1F4EDBB203EB4303C4F8946028
S214007720C4F8887002EB83067034746008261A4C1E
S21400773042F82340C31CDBB203EB430302EB830493
S214007740043042F823606160E871F8BDE43600203A
S21400775075090300517300009174000001FF3001A9
S21400776004FF20011000300102FF200105FF300158
S21400777000FF300103FF2101070001084A00210035
S214007780EE4E040051001000F04E0400F14E0400CE
S214007790550021006F001800120001048378094A82
S2140077A006211370C3785370037993704379D370AE
S2140077B083791371C379537100781430C0B2FEF721
S2140077C083BB00BFC35E002038B50D460446017873
S2140077D01C4813F00BF84FF602739D420ED11A4B5D
S2140077E01B782BB923712046BDE83840FFF7D6BF7B
S2140077F022790AB19342F6D20123F3E74FF60173DA
S2140078009D4206D1E37813F0FD0FECD00023E37021
S214007810E9E74FF609739D4207D1637903F0FB034E
S214007820012BE0D005236371DDE74FF608739D4218
S214007830D9D1A379023BDBB2FC2B9CBFFF23A371FB
S214007840D1E700BF05B70300A05E0020064A034646
S21400785052F8200008B1FFF787BE044A52F823000A
S21400786008B1FFF7B1BF7047E4360020A436002009
S21400787038B5044600780D4D14302A460621C0B2AD
S214007880FEF712FB20B1BDE83840094812F0AEBF43
S2140078902B78A3706B78E370AB782371EB78637109
S2140078A02B79A3716B79E37138BD00BFC35E0020EE
S2140078B026B7030070B5314A0B78044642F8230019
S2140078C043700D46FFF7D4FF4FF440130221A82261
S2140078D0A36001232078237312FB00122849237625
S2140078E00A442261274A84F824306261A21CE261BD
S2140078F0254A84F830302262244A84F83C30A2625A
S214007900234A84F84830E262E21C6263214A84F823
S2140079105430A263221D22641F4A84F860306264D9
S214007920621DE2641D4AE31D2265A21DA2651C4A73
S2140079306366E265E979AA6801EB410302EB83001E
S214007940083444601748082642F8230006204B1CDB
S214007950DBB203EB430342F82300002002EB830470
S2140079608B1CDBB203EB43036060033102EB830442
S21400797042F823606060E97170BD00BFA436002045
S214007980042000201000300105FF3000ED4E0400FA
S21400799001FF300102FF200109FF300108FF30011E
S2140079A004FF20010700010800239B6AB3F5804FFF
S2140079B003D21968064A914203D0002303708360FD
S2140079C07047012202709A689B694260F7E700BF21
S2140079D007B0CD5E024B034A1A602AF024BC00BFF3
S2140079E00000002002020FF073B53F4B04461A78E1
S2140079F01AB102221A7002B070BDCDE9002200282A
S214007A00F9D001261E7032F09BFF384D384B1860B7
S214007A1017F0CEFC2B785BB902F0F2F940B9354886
S214007A200823354A3549006801F038FE00B92E7043
S214007A30334B5A68E260334A9A601A6E22605A6E76
S214007A406260D3F87021A2601B6E5C042CD52E4AAF
S214007A50D368D807FCD42D4B1A68531C29D04FF492
S214007A60801393402A4A13660423294C4FF0804221
S214007A7023664FF480632366102323664FF4005377
S214007A806846236601A92266636628F0C0FF009B4D
S214007A902366019B63662B78002BACD0164B1A68C6
S214007AA022665B686366A6E71A4AD368D907FCD4E1
S214007AB0D1E7194B1B78002BD6D1184B5A68144BBC
S214007AC012B94FF480121A66154A526812B94FF46A
S214007AD000121A66134B5B68002BC5D14FF4800268
S214007AE00B4B1A66C0E700BFCA5E0020CB5E0020C4
S214007AF034370020E4680020383700200071080082
S214007B000080004455CEAC0000000440B068002061
S214007B100090004400000450C95E0020008005501C
S214007B2000C005500000065038B5224D04462B789C
S214007B30012B02D001232B7038BD0028FCD028F082
S214007B408BFF013009D028F087FF40F201139842DE
S214007B5003D0194AD368DB07FCD42268174B1A6691
S214007B6062685A66A268C3F87021E268D40744BF08
S214007B7000229A60124B1A68013213D1114A127809
S214007B8082B911494968C80748BF1A600F4A526847
S214007B90D10744BF01221A600D4A5268D20744BF7B
S214007BA002221A6017F00CFC0A4B186832F0C3FE6B
S214007BB00023C0E7CA5E00200000044000800044A6
S214007BC0B0680020C95E00200080055000C0055047
S214007BD0000006503437002070B50024A36AB3F5C1
S214007BE0804F23D21A68134B9A421FD1124E337815
S214007BF013F0FD0518D14FF480341048FFF7F4FE5B
S214007C00032004F04FFC0E4B0320DC6004F02EFC37
S214007C100C4B1C61AB6ADB69984704460748FFF7C4
S214007C2083FF0CB901233370204670BD4FF4817476
S214007C30FAE700BF07B0CD5EC95E002024370020FB
S214007C4000A000440090004413B5204B1B7803B9F5
S214007C50FEE700231E4CCDE900336A4608231D4983
S214007C60206801F01BFDF8B91B4AD2F84031D2F863
S214007C7040211F2B4FF0010311D9203A9340019A5F
S214007C801A43019208236A461249206801F08EFEC4
S214007C90124B134A1A602AF0C6FA02B010BD93407F
S214007CA0009A1A430092EDE72D28F1D10A4AD2F83D
S214007CB04031D2F840211F2B4FF0010385BF203AF8
S214007CC093409340019398BF0093DBE7CA5E002081
S214007CD0E4680020007108000080004400000020D6
S214007CE00B020FF038B50025AB6A0446B3F5804F9B
S214007CF010D21B6BB3F5804F0CD20748FFF774FE0B
S214007D00AB6A20461B6B5B689847BDE83840024864
S214007D10FFF70ABF38BD00BF4037002013B5002468
S214007D20A36A0190B3F5804F13D21B6BB3F5804F57
S214007D300FD20948FFF758FEA36A01211B6B01A862
S214007D409B69984704460448FFF7EEFE204602B0BB
S214007D5010BD4FF48174F9E74037002070B5002657
S214007D60B36A0446B3F5804F0D4612D21B6BB3F5CB
S214007D70804F0ED20848FFF737FEB36A20461B6BCB
S214007D8029469B69984704460348FFF7CDFE2046E0
S214007D9070BD4FF48174FAE74037002070B50026B6
S214007DA0B36A0446B3F5804F0D4612D21B6BB3F58B
S214007DB0804F0ED20848FFF717FEB36A20461B6BAB
S214007DC02946DB69984704460348FFF7ADFE204680
S214007DD070BD4FF48174FAE740370020F8B50027ED
S214007DE0BB6A0446B3F5804F0D46164611D21B6B90
S214007DF07BB10948FFF7F8FDBB6A20461B6B32468D
S214007E0029465B6A984704460348FFF78DFE2046DE
S214007E10F8BD4FF40174FAE74037002070B500262D
S214007E20B36A0446B3F5804F0D4612D21B6BB3F50A
S214007E30804F0ED20848FFF7D7FDB36A20461B6B6B
S214007E4029469B6A984704460348FFF76DFE20467E
S214007E5070BD4FF40174FAE740370020F0B50027F4
S214007E60BB6A0446B3F5804F0D461646ADF5337D26
S214007E7020D21B6BB3F5804F1CD21048FFF7B4FD21
S214007E80BB6A20461B6B40F2C1225B6A01A9984779
S214007E90044630B10948FFF747FE20460DF5337D0E
S214007EA0F0BD836A32461B6B2946DB6A01A89847F9
S214007EB00446EFE74FF40174EFE700BF40370020B9
S214007EC010B50024A36AB3F5804F10D21B6BB3F530
S214007ED0804F0CD20748FFF787FDA36A1B6B1B6B0E
S214007EE0984704460348FFF71FFE204610BD0124AE
S214007EF0FBE700BF40370020F0B58FB0044601A86E
S214007F000E461546FFF7EEFE9DF80C30012B12D1FB
S214007F10B5F5402F27D8B4F5402F24D86319B3F50C
S214007F20402F20D821462A46304613F001FF002471
S214007F3020460FB0F0BD0027BB6AB3F5804F15D2C0
S214007F401B6BB3F5804F11D20A48FFF74DFDBB6A95
S214007F502A461B6B314620465B6B9847044605480D
S214007F60FFF7E2FDE4E740F20244E1E740F20114E5
S214007F70DEE700BF40370020F0B58FB0044601A80A
S214007F800E461546FFF7AEFE9DF80C30012B1FD1AE
S214007F90B5F5402F06D8B4F5402F03D86319B3F5CE
S214007FA0402F13D940F2024420460FB0F0BDE258ED
S214007FB0013225D104339D42F9D82A46314620465F
S214007FC028F07AFD0028EDD00024EDE70023F2E744
S214007FD00027BB6AB3F5804F15D21B6BB3F5804FF5
S214007FE011D20A48FFF700FDBB6A2A461B6B3146D2
S214007FF020469B6B984704460448FFF795FDD3E759
S21400800040F20344D0E740F20114CDE740370020A9
S21400801070B58EB0044601A80D46FFF763FE9DF8C6
S2140080200C30012B22D144EA0503C3F30C03002BCA
S21400803033D1B5F5402F04D940F2024420460EB0A5
S21400804070BDB4F5402FF7D82544B5F5402FF3D8CA
S214008050204604F5005428F028FDAC4202D0002843
S214008060F6D1E9E70028E7D00024E7E70026B36A60
S214008070B3F5804F14D21B6BB3F5804F10D20A486D
S214008080FFF7B2FCB36A29461B6B2046DB6B9847AA
S21400809004460548FFF748FDD0E740F20444CDE724
S2140080A040F20114CAE700BF40370020BFF34F8FED
S2140080B00549064BCA6802F4E0621343CB60BFF37F
S2140080C04F8F00BFFDE700BF00ED00E00400FA059B
S2140080D070B5D0B1C9B10E4E431E013913F8014F29
S2140080E02046325D02F00302012A11F8012F08BF74
S2140080F004F12000B55C05F00305012D08BF203211
S214008100801A01D1002CE9D170BD0120FCE700BF28
S214008110C57604000348044A0449121A921028F04F
S21400812017BD00BF34410000D0420000E4650020C7
S21400813008B5154B83F30A8800F030F8FFF7EAFF1E
S214008140124B13498B4212D30020124B12498B421A
S21400815018D3FCF7C7FD186850F82240586840F856
S2140081602240013298688242F5D30C33EAE70022B7
S214008170F8E71C6844F8220001325C68A242F8D393
S2140081800833E4E70022F8E708000020649B0400B8
S214008190709B0400709B0400709B0400124B134AF3
S2140081A070B59A60D3F88820114D42F47002C3F877
S2140081B088206FF0010205F50054226641F2FF7236
S2140081C062660222C3F8D020BFF34F8FBFF36F8FD3
S2140081D04FF44036032004F065F90320E66004F00F
S2140081E045F92E6170BD00BF00ED00E000400000C4
S2140081F000800044014B1860704700BFB86800203C
S214008200054B1860054B1B6F03F00703032B01D1CA
S21400821030F0EEBC704700BFC06800200080005001
S2140082202DE9F04104464FF001080C250D4E0CB91F
S214008230BDE8F08194FAA4F0B0FA80F00F2808FAAE
S21400824000F2C8BF103824EA0204CABF05FB006269
S21400825005FB0062B4325768002FE8D09168C0B2C0
S214008260B847E4E75037002008B50C4832F006FC63
S214008270192004F009F928B1192004F013F919207F
S21400828004F0F4F81A2004F0FFF828B11A2004F0DD
S21400829009F91A2004F0EAF8002008BD5451040039
S2140082A02DE9F0410E461746054618B30F2923D888
S2140082B00378DBB1013BDBB2022B19D8104AD35C42
S2140082C06A78D340DB0717D50E4BD3F81043ACB90A
S2140082D032F036FB80463A462846314602F042FEE9
S2140082E0404632F028FB2046BDE8F0817F23E7E7D2
S2140082F00023E5E72224F6E72124F4E70224F2E748
S214008300444F040000C0035010B5044610B3037871
S214008310E3B1013BDBB2022B1AD8104AD35C627879
S214008320D340DB0718D532F00BFB012261782378A7
S2140083308A4030214B4341F2100103F1A04303F57C
S21400834070335A5032F0F7FA002010BD7F23E6E76C
S2140083500023E4E72220F8E72120F6E7444F040054
S21400836010B5044610B30378E3B1013BDBB2022B31
S2140083701AD8104AD35C6278D340DB0718D532F09F
S214008380DFFA0122617823788A4030214B4342F29B
S214008390100103F1A04303F570335A5032F0CBFAC4
S2140083A0002010BD7F23E6E70023E4E72220F8E75D
S2140083B02120F6E7444F040038B50D46044618B3AE
S2140083C011B30378E3B1013BDBB2022B1AD8104A93
S2140083D0D35C6278D340DB0718D532F0B1FA30228E
S2140083E02378534303F1A04303F570335B69627847
S2140083F0D34003F001032B7032F09DFA002038BD05
S2140084007F23E6E70023E4E72220F8E72120F6E7CB
S214008410444F04002DE9F0410D46164698460446A2
S21400842000284FD000294DD00178002940D04B1E9F
S214008430DBB2022B3ED8254AD25C6378DA40D207FC
S21400844001D4FF2940D1022E01D9042E3CD132F0AE
S21400845077FA23780746FF2B05D032462046296850
S21400846002F0C6FD28602B68013309D12378FF2B64
S21400847006D1174B6078D3F8241429F044F9286005
S21400848029684B1C18D00C23124A03FB0122069BBA
S214008490C2F8048093602378FF2B04D001230E4A91
S2140084A08B40C2F82434384632F045FA002007E004
S2140084B07F22C2E70022C0E7384632F03CFA2D2081
S2140084C0BDE8F0812220FBE72120F9E7444F0400B5
S2140084D000C003505037002000D0035008B502F00B
S2140084E037FD044B00F05530C3F82004BDE80840C3
S2140084F0FFF796BE00E0035008B502F029FD044BD6
S21400850000F0AA30C3F82004BDE80840FFF788BE94
S21400851000E003502DE9F04F144605460E469B46F4
S214008520C36B87B001225B6902A960689847EB6B52
S21400853001225B6903A93046984702A828F007FF86
S214008540074648B10023A37563754FF0FF33A36059
S214008550002007B0BDE8F08F03A828F005FF012330
S214008560A375237E04EBC303DE611F846368B342F6
S2140085700ED1206003A828F019FF4FF0FF332075B6
S214008580A360237D043B022B26D80023A375DFE7D8
S21400859023681A1A53425341A37503A828F006FF0E
S2140085A0237D834218BFA77503A828F0E1FE07467F
S2140085B002A828F0DDFE874218BF002303A818BFD4
S2140085C0A37528F0DDFE074602A828F0D9FE8742EC
S2140085D01CBF0023A375D4E703A828F0C9FE80B10A
S2140085E0EB6B022230465B6904A9984704A828F082
S2140085F0CEFE0346207D032839D8DFE800F0383861
S214008600040903A8F3E7CC22237E04EBC3031A84F1
S21400861001F06EFC109B187003A8277E28F09CFEC5
S21400862004EBC70787F82200237E03A804EBC303E6
S214008630B3F8209093F8227028F09AFE804603A89C
S21400864028F09EFE8246B8F1000F15D0EB6B022292
S21400865030465B6904A9984704A828F05DFE60755B
S214008660637D6BB90023A3754FF0000838E0227EC7
S21400867004EBC2021384CBE703A828F038FEEEE72B
S21400868094F81680B8F1000FEED0B9F1000F09D1BA
S214008690DFB10123E375637E002B4FD1012F42D15A
S2140086A0677614E06B6C06EB0A015A4286EA010014
S2140086B010421CBF0022A2755A1E0A409B1A9945FA
S2140086C0D0D8A37D002BE3D1CEE7E37D43B94FF0AE
S2140086D000084B4652463146284628F083FBA060E9
S2140086E0A27D12B123694B4423611A49237E09787F
S2140086F099422AD901332376BBF1000F27D032B333
S214008700E37D23B3B8F1000F21D1032F1FD0A1685A
S2140087104B1C1CD0109B2246009328460123FFF7D3
S214008720F9FEA07513E095F8343063B9EB6A0133AF
S214008730CFD1032FCDD10123A376C8E7012FCFD009
S214008740032FC4D1F7E79846C3E70023A375A07D9F
S214008750FFE600BF684F04002DE9F04F0E4698462E
S21400876000238BB004464FF0FF31104617468DF8B5
S214008770133001F0A7FBB6F5801F20D2314605AABC
S21400878004F1080028F035FD451C014603D1237C82
S214008790BBB92D2010E0384601F094FB0122394683
S2140087A020460DF1130328F06FFB0028EFD09DF84C
S2140087B0133088F8003000200BB0BDE8F08FB01CF6
S2140087C0E5D1E56A691C36D12046616A28F050FA80
S2140087D00546B31C18BF0123DFF8CC900193636AEB
S2140087E0626C0293236805A902FB053AE36B052237
S2140087F05B695046984705A828F044FE28F067FEB7
S214008800504628F06FFE4FF0000B824601464B1C88
S21400881005D0636C81EA0A025B42134211D02946F6
S214008820204628F025FA029BAB422CD0BBF1000F65
S2140088302CD10546D3E72368ED1A636CB5FBF3F538
S214008840C7E7484601F03EFB0DF1130349462046B4
S214008850019A28F019FB034690B1B21C03D0D9F850
S2140088600020B2420CD19DF8132003930D4B88F8DC
S214008870002049461A68384613F05AFA039B9B466E
S214008880D9F80810C3E7BBF1000F82D0B6F5801FF9
S21400889091D2314698F800307A6804F1080001F069
S2140088A03FFA88E7644F04002C3F00202DE9F3418F
S2140088B00446174698460E46184D816AE36A8B4270
S2140088C001D04B1C02D102B0BDE8F081284601F071
S2140088D0F9FA0122294620460DF1070328F0D4FABA
S2140088E038B14346294620469DF80720B847002859
S2140088F0E9D0A9684A1C04D16968204628F045FAE0
S2140089000146012EDAD16B6881EA0302636C5B4292
S2140089101A4218BF4FF0FF31D0E700BF003F0020DB
S2140089202DE9F04F4FF0FF334FF6FF720025044657
S21400893000F10806C0E909238BB0C362056205632F
S2140089403046884628F026FC204628F061F960BBB1
S2140089502046414628F0DCF9204628F059F960BB4D
S2140089605E200BB0BDE8F08F2368E26B606C576941
S21400897000FB0530052205A9B84705A828F082FDAA
S214008980012807460CD12946204628F092F9012FE7
S214008990024600D101322946204628F058F903E065
S2140089A028F09AFD0028EED10135E3699D42DBD31D
S2140089B0204628F02DF90028CAD000254FF0FF39B0
S2140089C04FF6FF73CA46A846C4E90853E3699845BC
S2140089D00AD3A5EB0905012D2CD84FF6FF72636A62
S2140089E093423CD16720BCE72368E26B606C576912
S2140089F000FB0830052205A9B84705A828F042FD67
S214008A00834605A828F015FD0746584628F05FFD62
S214008A1068B1574538BFC4F82480B94528BFB94661
S214008A20BD4238BF3D46BA46236A0133236208F189
S214008A300108CBE74FF6FF7300256362E3699D42AA
S214008A40CBD2676C2068E36B052207FB05005B69E9
S214008A5005A9984705A828F0ECFC0135EEE7E26B7F
S214008A60676C2068694607FB030055690522A8471E
S214008A70684628F0DEFC626A2368606C4B4D00FB9B
S214008A80023028F02FFD4FF0FF33A062E3622A4643
S214008A906FF00101204605ABFFF75EFE002846D1C9
S214008AA0AD6829462046E56228F08EF8206320B996
S214008AB02046E16A28F069F9E0622946204628F057
S214008AC064F90546A36A9D4233D1204628F04FF844
S214008AD000278046B946E36999453CD3B84559D93D
S214008AE02046616A28F0C4F80026054604F1400ACC
S214008AF0B74212D8626C2368694602FB0539E36BFD
S214008B0005225B6948469847684628F092FC53461B
S214008B1002464946E06B28F0E7FC2946204628F046
S214008B20A7F80136B0450546E2D1642019E7A56AE4
S214008B30B7E72946204628F047F8236B2946034422
S214008B4007462363204628F020F90546002FB9D1B2
S214008B50C4E90B07B6E7636C2568052203FB0955D5
S214008B60E36B05A95B692846984705A828F08AFCA8
S214008B7028F0ADFC58B1284628F0B4FC0146204643
S214008B8028F022F8636C143B984208BF013709F1BD
S214008B900109A0E7304628F0FDFA002320461946D2
S214008BA0034AFFF783FE0020DBE600BF583F0020A5
S214008BB0770E03002DE9F041036B9046826B076841
S214008BC09A4288BF8363426C436A90B002FB037785
S214008BD0C36B0E46052201A95B69044638469847D2
S214008BE001A828F04FFC01280146307057D0656C6C
S214008BF0E26B2368606AD2F814C005FB00300522D9
S214008C0006A9E04706A828F03DFC01284FF000051D
S214008C1023D0D4E90A3201219342CDE90B458DF8E1
S214008C2034800E958DF83C102AD11946204628F03F
S214008C30ACF8236B626C14339B1AE06223630C9BC4
S214008C4053B99DF83C303BB1626A616C2368E06BB7
S214008C5001FB023128F0CEFB0C9DE36B05225B691D
S214008C6001A93846984701A828F00CFC3070284621
S214008C70236BA26B9A4288BFA36310B0BDE8F08155
S214008C80237C33B91C490BAA04F1080001F096F8BE
S214008C90D5E72046194A0BABFFF708FECFE7237C43
S214008CA023BB2246164904F1080001F087F8616AE2
S214008CB0204627F0FEFF616A421C204627F0C7FFC9
S214008CC0054620B9236B626C1344143B236320468D
S214008CD0A16A28F05AF82368A062C01A636CB0FB39
S214008CE0F3F06062204628F093F8B6E700232046AB
S214008CF0044AFFF7DBFDDAE759940000D59300003D
S214008D00110F0300AD0E030073B50D46D11E4A4287
S214008D101C461B7E4A419A4226D1296823689942FE
S214008D2022D3636899421FD8114E0DF107033246CD
S214008D30FFF712FDC0B972686B689A4214D19DF8AD
S214008D400730DA1E53425341227E93420CD16369A8
S214008D5001336361D4E90323934205D22968A268EC
S214008D6042F8231001332361012002B070BD00BF1A
S214008D70583F00202DE9F04F9B4689B09DF84830BB
S214008D809046514A0193136907465B450D46C0F06D
S214008D909580D94653680093B9F1000F7BD0FB6BE2
S214008DA001225B6905A90098984705A828F0DCFA17
S214008DB0454B1B68984240F0848005A828F0E0FAEE
S214008DC00428064615D105A828F0E1FA009B0446BB
S214008DD01E44019B002B3ED1804512D91C46A8EBB1
S214008DE000083846009927F0D0FFA9EB0409009048
S214008DF0D2E7FB6B02225B69009806A9984706A893
S214008E00E2E7A0EB08045C4528BF5C46032C46441A
S214008E10ABEB040B1DD9FB6B294630465B69A208F9
S214008E20984724F0030304F0030A1E441D44DDF8AB
S214008E300480BAF1000FD4D0FB6B012206A930469D
S214008E405B6998475246284606A912F071FF5544BA
S214008E50C7E7A246EBE7824600F0030302932B180F
S214008E6003930644039BA6EB0A00A3EB0A05029BAA
S214008E709A4514D1BAF1000FB3D0FB6B012206A9B4
S214008E805B6998475246284606A913F00DF9002854
S214008E90DDD04FF03609484609B0BDE8F08FFB6BD1
S214008EA0012206A95B6998470422284606A913F002
S214008EB0FBF80028EDD1AAF1040AD3E74FF06309C6
S214008EC0E9E74FF06F09E6E7843F00202DE9F0411F
S214008ED00F4616469846044688B060B390F834505D
S214008EE0FDB1012127F089FE00210E9BCDE9051179
S214008EF0CDE902379DF83C30CDF804808DF81C3063
S214008F00237C04968BB90D4901AA04F1080000F0F1
S214008F1055FFDDE90553E06B002E08BF1D4628F01F
S214008F2005F8284608B0BDE8F0812046044A01ABA3
S214008F30FFF7BCFCEDE70546F3E700BFDB0E0300DA
S214008F40098D00007FB590F84260044601920DF14D
S214008F500B030A463046114927F0F0FF012E05465E
S214008F60E36B17D132465B6903A998479DF80B104F
S214008F70039B019A59B19BB243EA02430122284659
S214008F800393E36B03A99B69984704B070BD62F333
S214008F900F03F3E701229B6901A9F5E7843F002050
S214008FA02DE9F04F99B00E460D920A69416C0B936D
S214008FB01439D31DB3FBF1F3013302EBC302036B89
S214008FC004469342C0F001820023DFF8049408931D
S214008FD0E36A48461946059300F074FFD6E903375E
S214008FE007930B9B022B4DD1CC2F40F0D7810D9BC6
S214008FF03BB13146204627F0F7FF656C1490012000
S21400900044E00120079B656C1B68149300F0010088
S21400901000280CBF04230823782F0E9349D8059AFE
S2140090206B1E1340ED1A3B1D9D423CD2002F3DD0D7
S214009030082D3ED80023042506934FF0040A336813
S21400904006990B98C9F80030C9F8107028F0B2F9E4
S2140090504FEA9A030F93059B89F8140003930023A5
S21400906009930C9304930A93616C039B4A1E1A405F
S2140090708B1A27B35544AB4223D8236B5B1A134491
S21400908023632FE1782F656CB9D8F07D0D9B002BFC
S214009090BCD0E36B01225B69706816A9984716A8D6
S2140090A028F066F9B4E700250695C6E70425069776
S2140090B0C3E7012300254FF0080A0693BFE7534590
S2140090C0DBD3A3EB0A029742039BB84628BF904621
S2140090D09742534428D90122D9F8101089F817204E
S2140090E08F4226D10399C9F80410049299F81720E4
S2140090F00AB399F818100398CA1C09EBC20250600C
S21400910004980131A2F80880907289F81810B8F116
S214009110000F07D00B9A022A40F08180099A72B19C
S214009120012209929B46ABE0049A002A18BF03224C
S214009130DBE70222D9E7039AC9F80420E7E70C9A8E
S2140091404244032AEED9E26B1846956914A9012217
S2140091500993A847099B05460028E1D03D2D40F01D
S2140091601E8104F1080303932368059A606CA2EB42
S214009170030ABAFBF0FA00FB0A3028F0B3F9E16AFA
S2140091808046204627F001FEA26A824200F00F8148
S214009190626CD9F80830511E0B40216B2768891A7B
S2140091A00B442363089BE062DF1BB7FBF2F7BA456C
S2140091B040F0FA80059BB3EB080A12D0E36B4FEA47
S2140091C09A0241469B6998478346E36A059A534448
S2140091D0E362236B03989B1A4344236327F0DAFF6A
S2140091E0DA462368616CE06B01FB073128F0EFF884
S2140091F0204627F00DFD204627F00AFE2063BAF130
S214009200000F00F0D4803269616CD31D1439B3FBB3
S214009210F1F3013302EBC3029042A5D2BFE00D9AF0
S214009220002A77D1B8F1030F4FEA98026ED9E16BA6
S21400923018468D6907991093A847109B0546C0B934
S21400924018F0030515D0079A28F0030B02EB0B0164
S2140092509B444FF0FF3215A815922A46109312F041
S21400926067FDE26B5846956915A90122A847054691
S214009270109B9B46079A42440792002D40F08B8035
S214009280049B16A80193069B009399F81420434666
S214009290316800F0CDFDE36B0F9A9B69039816A921
S2140092A09847039A051E089B18BF13460893434623
S2140092B052462046039927F095FD236B08F10302DA
S2140092C0A3EB0A0322F003029B1AC9F808002363E3
S2140092D0002D7FF443AF0C9BA7EB080743440C9389
S2140092E0CDF80CB02046039927F04FFD00250390DB
S2140092F0002F7FF4B9AE364A3168936804F108004F
S214009300E36252680B9B00F00BFD49E09B46454626
S21400931007999EE79B4606F120021092F27D706840
S214009320A2B1002296F818C00A99D5B2AC4511D958
S214009330109D02F1010E35F832508D4228D90E9854
S21400934006EBC2020144D069084403E00E9A0A996B
S2140093500A441044E26B15A9556901221193A847E7
S214009360159A0A9B1392E26B0433956958460122BC
S21400937013A90A93A847119B054603EB0802A2EB24
S2140093800B02042A7FF679AF28B90BF1040BC5E768
S2140093907246491BC9E7CDF820B088E770252F46EE
S2140093A0384619B0BDE8F08F4FF0000A19E7326969
S2140093B0616CD31D1439B3FBF1F3013302EBC30226
S2140093C0236B9342BFF404AEE9E71C27E8E700BF2F
S2140093D02C3F0020032A2DE9F34106460D4617468A
S2140093E01C4606D1237A012B23D0012002B0BDE80B
S2140093F0F081DFF86080096842460DF10703FFF749
S214009400ABF960600028EDD19DF80720237A032A87
S214009410E8D0D8F804106A689142E3D1012B296994
S214009420D4F80CC007D172690CEB0103934202D941
S2140094302074207CDAE708316144E1603B46012273
S21400944029463046FFF7ACFD60600028CAD00020F1
S214009450CCE700BF583F00202DE9F341089C032AC3
S2140094601746266806D1237A012B24D0012002B0A5
S214009470BDE8F081DFF89080304642460DF10703E4
S214009480FFF76AF960600028EDD12568D8F8040077
S214009490A96AD5F844C04840CCF100031840227AA7
S2140094A0E1D1012A09D1E268D8F810301344726974
S2140094B0934202D92074207CD9E72868EB6A1B1AED
S2140094C0081AB3FBFCF3B0FBFCF083420BD1706CC4
S2140094D0F36A421E1340326B121A13442846336353
S2140094E027F053FCE862D8F81020E36808321344EB
S2140094F0E36001223B4604492068FFF751FD6060A7
S2140095000028B0D00020B2E7583F00202DE9F041F7
S2140095100025604B0E46D3F8008004461D6018B93F
S21400952021252846BDE8F08190F8347007B30A6814
S21400953003689A4240F0A3804A6843689A4240F023
S2140095409E808A6883689A4240F09980CA68C36899
S2140095509A4240F094800A6943699A4240F08F80AC
S2140095608A69C36B9A4240F08A804B698361D8E768
S21400957068223946856B12F04BFAD6E90212336838
S21400958004F1080023607368A56363603369636150
S2140095907369A36127F010FEB36904F14000E3632A
S2140095A09B68984720B9676C17B16368B3FBF7F7F9
S2140095B094F84330E761002BB2D00023656C236635
S2140095C0002D64D0002F62D02368B3FBF5F205FBB4
S2140095D01233002B55D16668B6FBF5F305FB136313
S2140095E0002B4ED1204627F0DFFAA369043303444C
S2140095F09E4248D340F634726369CC3B934244D8CB
S214009600B5F5805F43D30321204627F0F6FAD4E968
S2140096100001E36B1B6898470546E36B0220DB6896
S2140096209847CDB941462046FFF77AF964280546A3
S21400963004D141462046FFF773F90546666C5DB9CE
S214009640236A2046143E5E4327F0AEFAA36904332D
S21400965003449E4238BF5A25002D0CBF0123002329
S21400966084F8343007D1D4E900010B4A136801337B
S214009670136027F03BFEE06B27F058FC51E75D25B2
S2140096804FE759254DE75A254BE75F2549E75B2508
S21400969047E700BFBC380020B83800202DE9FF415E
S2140096A00C4616461F46054680B390F834307BB30A
S2140096B0B1F5801F2ED2DFF86080012127F09DFAD9
S2140096C02146424628460DF10F03FFF745F80446AB
S2140096D070B99DF80F30012B11D1D8F81030BB426D
S2140096E012D10246009031462846FFF743FB044657
S2140096F0E86B27F01BFC204604B0BDE8F081022B87
S21400970014BF2D246024F3E76324F1E72124F2E755
S2140097101124F0E72924EEE7843F00202DE9F043EA
S21400972085B00C4617461E460546DDF8308098B3D1
S21400973090F8343093B3B1F5801F31D2DFF86490DF
S214009740012127F05AFA21464A4628460DF10F0312
S214009750FFF702F8044688B99DF80F30012B14D1A4
S214009760D9F8102006EB08039A4213D3009043461C
S214009770324639462846FFF7FDFA0446E86B27F0DE
S214009780D5FB204605B0BDE8F083022B14BF2D2480
S2140097906024F3E76324F1E72124F2E71124F0E7DD
S2140097A02924EEE7843F002073B50C46164605468E
S2140097B030B390F834302BB3B1F5801F24D201219A
S2140097C027F01BFA21462846104A0DF10703FEF73C
S2140097D0C3FF044680B99DF80730032B0CD0022B3C
S2140097E00CD12846094927F0FFFB3060E86B27F0CC
S2140097F09DFB204602B070BD2D24F7E76124F5E7F7
S2140098002124F6E71124F4E72924F2E7843F002018
S2140098102DE9F3411E4600230C46174605463360E5
S21400982050B390F834304BB3B1F5801F28D2DFF830
S2140098305480012127F0E1F92146424628460DF1E1
S2140098400703FEF789FF0446A0B99DF80730032BEF
S21400985010D0022B03BF01233B600423D8F810303E
S21400986018BF38603360E86B27F060FB204602B014
S214009870BDE8F0812D24F6E72124F7E71124F5E76B
S2140098802924F3E7843F002073B50446056B27F0D0
S2140098908BF9636E03449D422CBF0023012385424F
S2140098A094BF00252D1A207C84F85030656584F816
S2140098B05800A8B100230C4E1A46194620460096BA
