S01B00006275696C642F72656C656173652F7A69676265652E73333714
S21400400008100020C98000005DC80000CD0A03002B
S214004010CD0A030065C800006DC80000CD0A030085
S214004020CD0A0300CD0A0300CD0A0300CD0A030023
S21400403071C800005C4E0400CD0A0300CD0A0300E0
S214004040CD0A0300CD0A0300CD0A0300E17B000081
S214004050CD0A0300CD0A0300CD0A0300CD0A0300F3
S214004060CD0A0300CD0A030071CD0000CD0A03007F
S214004070CD0A0300CD0A0300CD0A0300CD0A0300D3
S214004080CD0A0300CD0A0300CD0A0300CD0A0300C3
S214004090CD0A0300CD0A0300CD0A0300CD0A0300B3
S2140040A0CD0A03009184000075840000CD0A030049
S2140040B0CD0A0300CD0A0300CD0A030059210200F1
S2140040C0DF650300DB650300BD180200F56503002D
S2140040D0E365030019210200E76503004D050200B1
S2140040E099210200CD0A0300CD0A0300CD0A030081
S2140040F0CD0A0300CD0A0300CD0A0300CD0A030053
S214004100CD0A0300CD0A0300CD0A0300CD0A030042
S214004110CD0A0300CD0A0300CD0A0300CD0A030032
S214004120CD0A0300CD0A0300CD0A0300CD0A030022
S208004130CD0A0300AC
S214004134F0B5114A114C124E00F00105E3695F0711
S21400414413D40DB9334213D103EA00078F4207D1C3
S2140041540B4A1A40002A14BF6FF001000020F0BD7D
S214004164013AEBD16FF00200F9E74FF0FF30F6E7C3
S2140041746FF00100F3E700BF80969800000003503C
S214004184020001000B4B70B5D96911F480310DD1D2
S21400419401244FF48072084E084DF46020462C64C7
S2140041A41A61FFF7C5FF3464EC6070BD6FF0010060
S2140041B4FBE700BF0000035000100350002003502C
S2140041C438B541F6713301220C4C0021E569E363EE
S2140041D40B4B05F48035DA600223606121202361ED
S2140041E4FFF7A6FF10B92120FFF7A2FF0122054B17
S2140041F4DA600DB10023E36338BD00BF000003504E
S214004204001003500020035070B5134C6061E3693E
S2140042145B071ED40E4656F8043B8D18A361AE42C7
S2140042240BD10423002121202361FFF781FF58B915
S214004234BDE870402120FFF77BBF08210846FFF742
S21400424477FF10B10423236170BD56F8043BA361C5
S214004254E5E74FF0FF30F7E7000003502DE9F84399
S214004264154641F67132164B8946DF69DA63012238
S214004274064603F58053DFF8508007F48037DA608B
S21400428455B9284601220F4BDA601FB10022A3F568
S2140042940053DA63BDE8F88306F5005404EA08041C
S2140042A4A41BAC4228BF2C46494622463046FFF79C
S2140042B4ABFF0028E6D12644A1442D1BE0E700BF4F
S2100042C4000003500020035000E0FFFF45
S2140042D02DE9F04F4FF0FD0BC9B09A460DF11B09C2
S2140042E09DF8503108AFCDF80C90CDF808B0019786
S2140042F0059303890446009383790E4690464188C9
S2140043008288407812F074FC054650B10090A3886D
S214004310002062883A4912F0AFFF284649B0BDE84F
S214004320F08F99F800002FF0ACFC38B12846A3882F
S2140043306288344912F0A0FF8D25EEE75A463946CA
S21400434099F800002FF045FC8346002851D0529B78
S2140043501BB1BDF84C3198424BD8002399F8009019
S2140043600793A9F14102012A5FFA8BF123D8384658
S2140043700139254ADFF898C05FFA81FE734513DBE2
S214004380059B04210792C3B907AF18221F489FED6B
S2140043901A7B02FB060420460A460830394684ED9E
S2140043A0027B17F091FC11E010F8011F0133514019
S2140043B00CFB01F2E2E7059B33B123464A4638463A
S2140043C0009610F097FBA8E70829DED9B8F1000F91
S2140043D001D088F80090BAF1000F01D0AAF800B01A
S2140043E0529B002B99D05A46184608A917F06CFC29
S2140043F093E7012591E700BF0000000000000000E1
S2140044002EF7030063F70300C59D1C818010002073
S21400441093010001000000002DE9F04F93B0CDE9B4
S2140044200A32DDE91C530E9353EC102BCDE908013C
S214004430104619468DED060B1E9E16F0CFFE80B177
S214004440DDE906014FF0FF32C54B16F0EFFE40B92E
S214004450DDE906014FF0FF326FF4801316F0C8FE58
S21400446070B1DDE908019DED060B0E9B1E96CDE9A9
S2140044701C53DDE90A3213B0BDE8F04F00F088B9EE
S2140044800022DDE90601002316F0B2FE002800F047
S2140044903381DDE906A303F1004BCBF30A5016F493
S2140044A08063A0F2FF3008BF06250F9316F0C4FB0A
S2140044B09BA3D3E9002316F029FC9BA3D3E9002392
S2140044C016F06EFACBF31304894644F07F5180460B
S2140044D00022A44B504641F4401116F05FFA94A314
S2140044E0D3E9002316F012FC02460B464046494626
S2140044F016F056FA16F0A4FE044616F09DFB8EA3A0
S214004500D3E900238046894616F000FC0022964B2D
S21400451016F046FA16F094FE89A3D3E90023074660
S2140045204946404616F0F2FB80463846894616F065
S21400453083FB85A3D3E9002316F0E8FB02460B466F
S2140045404046494616F02AFA02460B46CDE90C23A9
S21400455016F0DCFBDDE90C2380468946104619463A
S21400456016F01EFA0022CDE91001804B404649465F
S21400457016F0F6FC00227E4B16F012FA02460B46A8
S2140045804046494616F0ECFC00227A4B16F008FA34
S21400459002460B464046494616F0E2FCDDE90C238F
S2140045A08046894600204FF0804116F0F7F9024613
S2140045B00B464046494616F0F3F902460B46DDE93F
S2140045C0100116F0CDFC07F2FF3700226A4B16F0FA
S2140045D0E7F900223B0516F099FB52465B468046FB
S2140045E0894616F023FE002840F08980CDE90C8924
S2140045F004F16303C62B8CBF0527042731051BD5A2
S21400460053A3D3E900235046594616F005FE00286A
S2140046107FD051A3D3E900235046594616F0E8FD53
S214004620002876D00027A542C6BF2C1B04F1FF3514
S21400463000253C4646F480660E9B9F422CBF4FF0FA
S2140046400008A3EB070816F0020903D0002F18BFD6
S2140046504FF000083CB1DDE90C235046594616F0F1
S2140046607FFC82468B46DDE906010022002316F019
S214004670BFFD10B10BF100439B46DDE9080126F4AF
S2140046800063CDE90183DDE90A324BEC10AB0095FF
S21400469000F07EF802465FB3DDE9091316F0200F3E
S2140046A000F10105089E0CBF65204520B047DDE9F6
S2140046B008010523002205930A23002CCDE90232C7
S2140046C007F1FF374FEAD473B8BF64422A46019316
S2140046D004970A9B009431F0F0F80246B9F1000FF7
S2140046E006D00B9BC41A0B9B1A190E9BA34245D8E7
S2140046F0104613B0BDE8F08FDDE906ABCDE600222C
S214004700404649461A4B16F02BFC013CCDE90C01FD
S2140047106EE7002D90D00F9B002B8DD0013D8BE7D0
S214004720FB799F501344D33FB3C8608B288AC63F9B
S21400473061436F63A787D23F71A379094F930A40FD
S2140047401655B5BBB16B0240EF39FAFE422EE63F76
S2140047502D431CEBE2361A3F0000000080842E41F9
S214004760FFFFEF7F0000F83F0000E03F00002C4016
S21400477000002440000018400000F03F2020DDE943
S2140047800913089DA8470134ADE700BF00000000EC
S2140047902DE9F04F5BEC10AB97B0CDE90501DDE9F4
S2140047A02058CDE90723504652465B465946229F7D
S2140047B016F014FD70B90323CDE902870193AA4BC6
S2140047C00093DDE90501DDE9072330F0A8FF17B007
S2140047D0BDE8F08F4FF0FF326FF480135046594615
S2140047E016F006FD28B10423CDE9028701939F4BFE
S2140047F0E6E74FF0FF32504659469D4B16F016FD41
S21400480068B19C4A07F00403002B08BF03229A4BAA
S2140048101CBF13460422CDE902870192D0E750461A
S2140048208DA3D3E90023594616F000FD38B98CA3B2
S214004830D3E900235046594616F0DAFC68B1DDE9A4
S2140048400723DDE905014BEC10ABCDE92187209568
S21400485017B0BDE8F04FFFF7DFBD0022002350463B
S214004860594616F0C5FC002800F091805B4652467B
S2140048700020002116F092F8012382468B46099309
S21400488017F4806400F08580092D40F285800024AE
S21400489030210EABA5F109020134202C03F8011BD0
S2140048A0A5EB040901D09442F6D15946504616F0BD
S2140048B0C7FC724B054603EBC90393ED007B8DEDF9
S2140048C00A7B16F0B9F902460B465046594616F0D2
S2140048D065F8DDE90A2316F019FA02460B46CDE91B
S2140048E00C2316F0D5FC064616F096F902460B4643
S2140048F0DDE90C0116F052F802460B46CDE90C2312
S21400490000225F4B16F092FC002848D00136304655
S21400491016F082F902460B46DDE90A0116F072FC33
S21400492008B100260135B9F1000F45D1284616F02A
S21400493083F902460B465046594616F02FF80022D9
S2140049404F4B16F055FC10B9E90700D501350A2182
S2140049500EAB1A19202C0AD095FBF1F001FB10556E
S214004960303502F8015B013405460028F2D107F025
S2140049700302012A55D1B8F1000F52D0099A12B994
S21400498017F00C0F01D008F1FF38302240E00990F4
S21400499076E74FF0060988E7A946002485E7002257
S2140049A0DDE90C01364B16F023FC0028BBD10EB116
S2140049B0F007B8D50136B6E70A210EAB1A19202C37
S2140049C00DD0B6FBF1F001FB1063092E03F13003A6
S2140049D009F1FF3904F1010402F8013B11D8302136
S2140049E0A1440EAA202CB2D04C4504F101030AD1F2
S2140049F004F158020DEB02042E2204F8202C1C466B
S214004A00A5E70646DBE7A1541C46EBE71A5501343A
S214004A10444506D2202CF9D1CDE9028701940EAB8D
S214004A20CEE6202CF8D0099B3BB12D2204F158038A
S214004A306B4403F8202C0134EEE77A0704D504F122
S214004A4058032B226B44F4E73B07E5D504F15803E3
S214004A5020226B44EDE700BF0000000065CDCD418D
S214004A600000000065CDCDC15114040055140400AB
S214004A70FFFFEF7F481404004D140400905D04000F
S214004A800000E03F0000000070B58EB02C22002130
S214004A9003A816F089FF64234FF002320893CDE98D
S214004AA005230B2301218DF834305B4B8DF8101055
S214004AB01D880D4040F0A980084634F059FF0A22B0
S214004AC0564B574C1A704FF42873ADF812304FF00F
S214004AD0FF332360534B54491B8820460B82534BAD
S214004AE0534A1B68CD828B61524B0D621B884B82EA
S214004AF0514B1B68CB611DF0C5FB20B14FF41B71F9
S214004B004E4835F0D0FF0521206831F0C9F820B1B5
S214004B1040F27D21494835F0C6FF206815F0FAFEC0
S214004B20474B2068196831F07EF90C2535F088FB74
S214004B306843099035F084FB68430DEB0501079048
S214004B40206817F0F3FD20B140F295213B4835F080
S214004B50AAFF25681FF0CEFD00220146284631F048
S214004B60DAF920B140F29721344835F09CFF40F244
S214004B700353344D344E2B80052396F90000AB705A
S214004B807F2801D11DF074FC3378EB7035F058FBAC
S214004B9000EB80008000A88035F052FB0023C000A8
S214004BA04FF0FF31E880AB604FF0FF3018A3D3E939
S214004BB0002335F02FF82549206831F065F9206884
S214004BC002A931F081FD20B14FF434711B4835F055
S214004BD06AFF042220680DEB020131F0F9F8042880
S214004BE004D040F2D721154835F05DFF01A9012019
S214004BF030F0FAFC07F076FE01201EF0BDF82CF02F
S214004C005DFD1EF0E3F81DF0CBFB0EB070BD00BFDF
S214004C100A0020FF42030000BE5D0020F264002070
S214004C20E45700203E770400A46B0020447704007D
S214004C30999903003C770400407704001A4D04005D
S214004C40EC680020D85700207A6E00200D9A0300EA
S214004C500348044B834202D0034B03B11847704706
S214004C60A86E0020A86E002000000000064B074932
S214004C70C91A891048BF0131491003D0044B0BB143
S214004C8001481847704700BFA86E0020A86E002095
S214004C900000000010B5064C237843B9FFF7D8FF94
S214004CA0044B13B10448AFF300800123237010BDFA
S214004CB0B015002000000000C49A040008B5044B9C
S214004CC01BB104490448AFF30080BDE80840CDE7B7
S214004CD000000000B4150020C49A0400A3F5803A32
S214004CE0704700BF154B002B08BF114B9D46FFF7C2
S214004CF0F5FF00218B460F461148124A121A16F08D
S214004D0053FE0C4B002B00D098470B4B002B00D0CB
S214004D1098470020002104000D000B4817F08AF980
S214004D2016F01AFE200029002BF001FC17F070F98F
S214004D30000008000000000000000000081000202E
S214004D4008100020486500209DC0010007B501211D
S214004D5020200DF1070201F0A9F858B10223012125
S214004D6020200DF107028DF8073001F0AFF803B0F0
S214004D705DF804FB9DF807100229F8D002220948C6
S214004D8015F000FD022301210DF1070220208DF809
S214004D90073001F09BF82BF024FB4FF4FA6000F08C
S214004DA0CFFEE4E7C8AE030038B502F05FF801F0C6
S214004DB01BFA012805D001F017FA022801D001F0ED
S214004DC039FA064D2B783BB901F00EFA0128044655
S214004DD002D12BF08FFB2C7038BD00BF9C5E0020EC
S214004DE010B5044600882BF0D0FAA37884F8440067
S214004DF0834202BF0123E3702371074B04F11C00BA
S214004E00C4E9073401F0A8F8224620880349BDE823
S214004E10104000F0E5BF00BFF3000300BD00030034
S214004E2070B5C37804460D461646002B34D1D1B172
S214004E30214815F0A7FC0123E370E36CA6600BB1D4
S214004E40E06D9847E368F61A63699E4221D2217E98
S214004E501A480131C9B2217615F094FCA36D13B13E
S214004E60217EE06D9847E5702BF0CEFA15B32379D6
S214004E7003BBA268238A801A83421BD801231048EA
S214004E80237115F07FFC236DA3B1E06DBDE8704083
S214004E90184701232376E6E70029E4D1094815F0F0
S214004EA071FC636DE660E5702571002BDBD0E06D6C
S214004EB09847D8E770BD00BFF0AE030001AF03000F
S214004EC02FAF03001CAF030010B50446054BC0E926
S214004ED003300C3001F040F82046BDE810402BF0BF
S214004EE060B900BF3F01030010B501790446B1FA6E
S214004EF081F1008849092BF0ABF921796088B1FA75
S214004F0081F149092BF0A4F9034B1A68A24204BFA9
S214004F1000221A6010BD00BFCC15002070B5437982
S214004F200446A3B100880E4E04F10805336813B199
S214004F300C4B1B786BB121792BF08AF964210A4B54
S214004F403460A3602846BDE870402BF054BA408811
S214004F50E9E7064815F016FC054B3221A360F1E799
S214004F60CC1500209D5E0020E94E000045AF0300F2
S214004F701D4F000010B50446E0B10F4815F002FCC6
S214004F8001236371A37953B9217920882BF060F946
S214004F90236B7BB1606B0121BDE8104018472046AB
S214004FA0FFF7A2FF04F108002BF02AFA2046FFF7CD
S214004FB0B5FFEDE710BD00BF7BAF030010B504469C
S214004FC0F8B1104815F0DEFB00236371A3796BB9C6
S214004FD021792088B1FA81F149092BF039F9236B40
S214004FE07BB1606B0021BDE8104018472046FFF7F4
S214004FF07BFF04F108002BF003FA2046FFF78EFF34
S214005000EDE710BD86AF030010B5044668B107484B
S21400501015F0B8FB637920461BB1BDE81040FFF7DA
S214005020CDBFBDE81040FFF7A5BF10BD92AF03008F
S21400503010B50E4C0E48214615F0A4FB82210D48F3
S21400504015F0A0FB82210220A21E00F03FFF0146C1
S21400505030B134F8022C0848BDE8104015F092BB79
S2140050600648BDE8104015F08DBB00BF2A59002049
S214005070A1AF0300BCAF0300C7AF03000BB0030033
S21400508038B5124C82212246022000F00FFFA51CE4
S214005090014698B122880E4815F074FB2A460D4B3F
S2140050A003F1280153F8040B8B4242F8040BF9D1A4
S2140050B019889B78118093702A23238035F8021C68
S2140050C0054A0648BDE8384015F05CBB2859002064
S2140050D016B0030096B003002A59002074B00300EF
S2140050E0034B1B781BB18B4201D82BF07AB9704763
S2140050F0206E002010B5044601460E4815F042FB0F
S214005100012C11D10C4B0D481A884FF6FF739A42AA
S2140051101EBF0022094B5A742BF080F802F008F8E4
S214005120BDE8104001F0DABE0448BDE810402BF0A0
S21400513077B800BFC1B00300D46D002078680020A7
S21400514070B500241A4D1B4E3378A3421BDC002496
S214005150194D1A4E3378A3421BDC0024184D194E05
S2140051603378A3421BDC01F03FF8012816481CD117
S2140051702BF054F801F0DCFF01F0B0FEBDE8704003
S214005180124801F051B82846FFF72AFE0134603570
S214005190DAE72846FFF798FE01343435DAE7284682
S2140051A02BF05BF801343835DAE72BF039F8E5E711
S2140051B0E0240020A45E002000290020A55E002038
S2140051C0B0220020A35E002078680020F550000082
S2140051D02DE9F04F87B0FFF753FFB84B05A80593AE
S2140051E02BF05FF8054616F0DBFAB54CC2B21F2A64
S2140051F0627004D9B34815F0C5FA00F095FC29464C
S214005200A01C16F061FD05A82BF04BF8054616F01D
S214005210C7FAC2B21F2A84F8212001D9AA48EAE7B1
S214005220294604F1220016F04FFD05A82BF039F8A8
S2140052303226044600272578002D40F0BC80A34F78
S214005240FFF77EFF3B78A24C01932378DFF8A8A2F5
S214005250DFF8C0829F4E00939AF8003098F800203E
S21400526031789D4815F08EFA307898F80020397815
S2140052709AF80070831824783B44984F2344AC4631
S2140052803C460B44DBB2A84200F35183002425467B
S2140052909348A14200F35683012B38BF0123914D5A
S2140052A002932A4600232C464FF482714FF6FF796C
S2140052B002980133984213705180A2F8049002F1CC
S2140052C00C02F5DC884B87497D48A36001F068F83E
S2140052D0E079A36800EB400003EB800000F030FEAE
S2140052E0E3790133E371814C23884B4503D07D4934
S2140052F07F4801F059F94FF6FF7322887949D21A90
S21400530018BF01227B4801F01DFD4FF00009764CC6
S21400531033784B4500F31F8300274FF00C09DFF866
S214005320F8B1704D98F800203178BA4200F3268321
S21400533002EB01090C2100274FF0940B01FB0951E9
S2140053406D4B18786D4AB84200F335830C214FF048
S21400535000094FF0700B98F8003037781F44074468
S21400536001FB07515A4B1878654A484500F33883C5
S21400537098F80030367800271E449AF800304FF030
S21400538068081E440C23064403FB06554F4B1B7847
S214005390BB4200F33B830299524800F05FFE059B38
S2140053A046491A468B4240F04583564807B0BDE84A
S2140053B0F04F15F0E7B9532D0FD163784C2B40F022
S2140053C05581A378502B40F0518101224E4B1A7024
S2140053D005A82AF066FF04462DE7442D13D163780E
S2140053E0303B092BF4D8601C2AF068FF474B484A2C
S2140053F01978002386B2994202F16002E8DD22F8AD
S214005400466C0133F7E7422D0CD16378542B40F0FD
S2140054108580A01C00F032FD344B188018462AF018
S2140054202AFED5E7582D33D8412DD1D9433D152D29
S214005430CED801A353F825F0A1580000D1530000A0
S214005440D1530000D1530000D1530000D1530000C7
S214005450BF550000D1530000D15300007155000025
S214005460A3540000D1530000D1530000D1530000D4
S214005470D15300001B5700006D560000D1530000AA
S214005480D1530000D1530000D1530000A1570000B3
S214005490692D9DD1601C2AF011FF80B22AF09DFF75
S2140054A096E70C4B0120197800230C4A994202F12A
S2140054B0A8028DDD02F8A60C0133F7E72A59002072
S2140054C08C670020E0B00300F7B00300A15E002068
S2140054D09E5E0020A25E002007B10300042000208C
S2140054E0641E00209816002058170020D46D002057
S2140054F048160020D01500209F5E0020A81B002024
S214005500581A00206AB103009D5E0020A45E0020A9
S214005510E0240020A05E0020641D0020601C00F037
S214005520ADFC0546E01C2AF041FF01210446024678
S21400553028462AF0F7FE6021C848DFF83CC3027808
S214005540A4F1030E51430CEB01032CF801504FF469
S214005550FA6119824FF44871DEF100045961C049BE
S21400556044EB0E0401325E8319659C7002702FE7CF
S214005570601C00F083FC00224FF034088146B94FCF
S21400558011462AF0CFFE3878B74D08FB00F325F811
S2140055900390EA18E3781046693B18BF012393701E
S2140055A0FFF792FC0021B14A3B785160012103FBD2
S2140055B008550B443B7015600F46117408E7601CD5
S2140055C000F05CFC0022114681462AF0ABFE342235
S2140055D0A44DDFF89482287802FB00F328F80390A5
S2140055E008EB0301E3780846693B18BF01238B707C
S2140055F0FFF76AFC9E4A00231046916B31BB00EB16
S214005600831034232A7802FB03838363994A00239A
S2140056101046D2F8A410F9B9A82202FB03003423DE
S2140056202A7802FB0383C0F8A4305FB98F4A3B4652
S214005630114652F8040BA8B93422287800FB0282DF
S21400564041F823202B7801332B70C1E60133042B5D
S21400565002F14002D1D1D9E70133042B02F1A802AE
S214005660D7D1E2E70133042BE3D1EBE7601C00F06F
S21400567005FC8046E01C2AF099FE012104460246FD
S21400568040462AF04FFE602274487B4D0178A4F114
S214005690030C4A43AB1825F802804FF44872DCF13D
S2140056A0000444EB0C049C70A8241A825A61DFF8AC
S2140056B0E4C1724A5E839A659CF80030DFF8B4E174
S2140056C05C430EEB04020EF804304FF40074548072
S2140056D003241471947101EB4104013101706821B7
S2140056E005EB4415322466480133DBB253718CF85F
S2140056F00030037882F8A0405943624C95606354AA
S2140057006218022151800521517143F2FF210133B5
S214005710DBB21371D18003705AE6601C00F0AEFB5A
S21400572000224FF0380A94F803908346B9F16909CD
S21400573018BF4FF00109DFF8608111462AF0F2FD2C
S21400574098F80030504D0AFB03F3EA1825F803B02A
S21400575082F80490E37883B1692B0ED0E01C00F049
S2140057608DFB0022114604462AF0DCFD012298F843
S21400577000300AFB03535C809A7144483C4A037825
S2140057809901535498F8001002EB8314C1EBC10240
S21400579005EBC2054A1C656388F800200133BAE7AA
S2140057A0601C00F06BFB8046E01C00F067FB0546C3
S2140057B0601D2AF0FBFD04460246012140462AF001
S2140057C0B1FD2246284601212AF0ACFD4FF0600CC0
S2140057D04FF4487EDFF88490274A99F800300CFB97
S2140057E003F0111822F80080E01EDFF89080444293
S2140057F04441A1F810E0C1F814E08C704E83C1F863
S2140058005880591CC9B20CFB01FC02EB0C008470DA
S214005810942422F80C501E4DA0F810E0C0F814E0B6
S2140058204683C0F85880981C89F800002878DFF86E
S2140058306CC0444303EB430302EB43130CEB040E30
S21400584001EB4101CEF8043002EB4112CEF80820FD
S2140058500CF8040001302870BAE500BFA45E0020F2
S2140058608D020300A55E0020002900207868002035
S214005870641D002004200020E0240020E1500000E9
S214005880A15E0020641E0020B0220020A05E002042
S2140058909F5E0020A25E0020A35E0020A81B0020C2
S2140058A0601C00F0EBFA8046E01C00F0E7FA0022ED
S2140058B064790546693C1146404618BF01242AF023
S2140058C031FD0022284611462AF02CFD3820DFF84C
S2140058D08CC15D4A9CF8003000FB03FE22F80E8067
S2140058E04FF0000802EB0E010C7181F80680591C7F
S2140058F0C9B2484302EB000E8EF8044070241552DD
S214005900524D981C8CF800002878DFF854C14443A8
S214005910C3EBC3038EF8068002EBC3030CEB040E46
S214005920C1EBC101CEF8043002EBC1028EE794F859
S21400593005E00135964584BF84F804C084F805C0A8
S214005940A834A0E490F804C00134944584BFC57020
S214005950057168309DE4B9F1000F06D015F8053CD6
S21400596003EB430304EB8304AC602946384601F09E
S21400597027FE09F10109A8370C35C9E479180AD0C1
S2140059804A1E09FB0252D27902EB420204EB820461
S21400599009FB01529460584609FB015101F05AFB7D
S2140059A031782B48394409FB015101F0B5F801372D
S2140059B00BF1400BB6E417EB090F18BF11F8050CF6
S2140059C003911EBF00EB400004EB80048C600BFBD1
S2140059D0072000F0B1FF03991E4B01370C31B0E4ED
S2140059E019EB070F18BF11F8050C03911EBF00EB4B
S2140059F0400004EB80048C600BFB092000F070FE76
S214005A000399124B09F101090C31ACE4F74218BFB7
S214005A1015F8053C29461CBF03EB430304EB83043F
S214005A200D4B18BFAC6008FB073001F00FFF0137C5
S214005A300C35ABE413F8011D00297FF4B1AC3B2113
S214005A4002F8011CACE400BFB02200209E5E0020DD
S214005A50A42200209F5E0020641E0020A35E00207B
S214005A60581A002007B5012121200DF1070200F089
S214005A701DFA18B99DF80720024B1A7003B05DF89E
S214005A8004FB00BF206E002007B5064B8DF807000C
S214005A90187001210DF10702212000F017FA03B05B
S214005AA05DF804FB206E002007B5022101200DF1F1
S214005AB0060200F0FBF938B9044814F063FEBDF89E
S214005AC0060003B05DF804FB0020FAE787B1030088
S214005AD007B50221ADF806000DF10602012000F020
S214005AE0F5F9014610B1034814F04CFE03B05DF81A
S214005AF004FB00BFA8B1030010B5FFF7D5FF0446AE
S214005B000146074814F03EFE0121064814F03AFE0E
S214005B1024B9BDE810400120FFF7DABF10BD00BF72
S214005B20D8B10300EAB1030008B5044814F02AFE11
S214005B3000F0DCF92AF055FC2AF050FC00B2030015
S214005B4038B50446084D094B28462B6000F004FA89
S214005B50002C18BF21462846BDE8384008BF4FF441
S214005B6096712AF048BC00BF042A0020DB0203001E
S214005B702DE9F043384D91B008AC0746894690466B
S214005B800FCD0FC495E80F00002684E80F0001250E
S214005B900323324C3248CDE90366CDE905668DF81D
S214005BA00E300796029534F027FF2E4834F024FF77
S214005BB032462D4920468DF8176004F02FFF3346F5
S214005BC032462A498DF81900009020468DF8239019
S214005BD0CDF82C808DF8216004F03AFF0A9020461C
S214005BE08DF8097004F09CFE204608AA05A904F06A
S214005BF055FF02AA204603A92BF0BCFC4FF4007206
S214005C001B4B5A62194BE560626A920510D46BB959
S214005C104FF40072164B11485A6204F081FE114888
S214005C2034F0EDFE002011B0BDE8F083013BEBE759
S214005C30002BEDD0094908A82BF0CFFC4FF40072DA
S214005C400B4B06485A6204F06BFE064834F0D7FE4B
S214005C50BDF82000E7E700BF144E04000040005ADD
S214005C60BC500400B850040080841E0040420F0060
S214005C700060005A0122034B1870034B1980034B37
S214005C801A707047A75E0020DC6D0020A65E00201C
S214005C90F8B5454B1B780BB90020F8BD434B1B7875
S214005CA0012B03D1BDE8F8402AF01ABB404B1C88F4
S214005CB04FF6FF739C42EFD03E4834F09DFE002323
S214005CC0260AE4B21A462146304604F0E9FD012EC3
S214005CD0354604F0010335D015D9B51E012DDBD8A5
S214005CE0002B0BBF4FF480754FF080754FF470613A
S214005CF04FF070610BBF01274FF480370F204FF431
S214005D0070202D4B11E0002B0BBF4FF480754FF029
S214005D1080754FF470614FF070610BBF01274FF430
S214005D2080370F204FF47020244B1A6802401CD096
S214005D30BA421AD01A680A4032D11A6822EA010218
S214005D402A4316E0002B0BBF4FF480754FF080758A
S214005D504FF470614FF070610BBF01274FF480372E
S214005D600F204FF47020164BDFE71A6822EA000275
S214005D703A431A602AF0B4FA054600288CD0083652
S214005D8044EA06102A460321C0B2FFF7F1FE40F6A9
S214005D90FF73684300F2FF70B0FBF3F080B27CE75D
S214005DA095427FF479AFC8E7A65E0020A75E002084
S214005DB0DC6D0020BC50040028C3035020C30350F1
S214005DC024C3035010B5044C237823B9034834F099
S214005DD013FE0123237010BDA95E0020BC500400F2
S214005DE02DE9F0431F4C85B0074688469146FFF7DD
S214005DF0E9FF23781BB902F003FA012323707BBA6C
S214005E00ADF80C3030220023174E02FB03F4315D50
S214005E10A51901BB012333554FF0FF3304F11000E1
S214005E2012493044AB606F80C5F80480C5F80C900A
S214005E3009F078FC04F10801042231440C4B00956B
S214005E4003A802F0B3FAA96802460A4814F09AFCBE
S214005E5005B0BDE8F0830133102BD6D1064814F008
S214005E6091FCF5E7A85E00202C2A0020050303001D
S214005E70170303000DB203003BB2030080B10278A3
S214005E80A2F14103032B0BD840783038C0B2082863
S214005E9006D8054B134413F8413C40EA03207047EC
S214005EA04FF6FF70704700BF344E040008B50B462F
S214005EB042B101460448006803F0BCFBBDE8084058
S214005EC02AF085BA022008BDE468002008B50B4613
S214005ED042B101460448006803F034FDBDE80840BE
S214005EE02AF075BA022008BDE4680020F0B5002646
S214005EF0124F8DB0FF2300930A223346386802A95A
S214005F002BF0F5F8C0B102AB1D4603EB800404E0AD
S214005F1055F8043BB34228BF5E1CAC423868E9D94A
S214005F20296803F095FE0028F2D02D28F0D00DB099
S214005F30BDE8F0402AF04BBA0DB0F0BDE468002092
S214005F4028B1034B0360034B436000238360704714
S214005F50190000038C680020FF2307B50021044ABF
S214005F600093083009F062FB03B05DF804FB00BF45
S214005F70F10303000B460449024608680349097802
S214005F8008B12AF05CBA7047382D0020AB5E0020BE
S214005F90F7B50C4618B12921194834F084FD246859
S214005FA023685E795F8830463946FFF7E3FFF0B135
S214005FB08568E5B1A089227D3946904291BF0020D0
S214005FC0801AA36880B294BF03469B18E27C0090B8
S214005FD03046A8470138032803D8DFE800F0080F4A
S214005FE00B0D002420462EF0B4FB204600E0812056
S214005FF003B0F0BD8024F5E79324F3E78724F1E7A8
S21400600063B20300F8B515460D4A044610680D4AFB
S2140060100B46117850B122462AF011FA034628B1F1
S21400602000210C27C678B14201DB0020F8BD07FB33
S21400603001F45A681019125BAA42F7D00131F2E750
S214006040382D0020AB5E002008B5034B1B6803B15B
S2140060509847002008BD00BF342D00202DE9F74FDB
S21400606004460D460026454B454F1860454B1970B3
S21400607033010021F85C013610F0A8FB0C2EF7D196
S2140060800C2D28BF0C254FF0000901953C4EDFF87B
S21400609000A13D4DDFF8FC80019B4B4502DC03B0C0
S2140060A0BDE8F08F23784FF0000B33706388738061
S2140060B0A388B380A379C6F80880B371E379C8F8DB
S2140060C0005088F804304FF00003A768A8F80630A0
S2140060D0E3795B450ADC012116F8100B10F076FB1D
S2140060E008F1080809F101090C34D5E74FF0000360
S2140060F038886B812880FB784FF0000C2B81BA78AB
S214006100C5F804A0002A00920CBF802240222A7301
S21400611079680AF10C02634513DC03EB43030AEBD0
S214006120830ABB6843B1009A4FF6FF71B2FA82F257
S214006130164B52092EF09DFA14350BF1010B0C3755
S214006140C6E7B1F800E00CF1010C22F80CEC91F86F
S21400615002E00C3202F816EC91F804E00C3102F87A
S21400616015EC11F809ECBEF1010F14BF4FF0100E3C
S2140061704FF0110E02F814ECCDE700BF382D0020CA
S214006180C8440020AB5E00203C330020915F000036
S2140061903C2D0020BC350020014B1860704700BF26
S2140061A0302D0020014B1860704700BF342D0020B2
S2140061B070B5128805460E46FFF724FF044670B1F8
S2140061C002790499806815F041FC064B1B680BB9F0
S2140061D0002070BD3146284622889847F8E786207A
S2140061E0F7E700BF302D002008B50FF08BFB022824
S2140061F006D0012806D0044B18784000C0B208BD6F
S2140062000120FCE70220FAE7AA5E0020054B10B545
S2140062101C682CB1FFF7E8FF2346BDE8104018477E
S21400622010BD00BF2C2D0020014B1860704700BF2A
S2140062302C2D0020034B1A781AB901221A700BF085
S214006240C1BB7047AA5E00200022024B1A70FFF7FF
S214006250DDBF00BFAA5E002037B50446002836D052
S2140062600FF050FB022834D160892EF0D4FDE0797F
S214006270237A003818BF0120012B637A08BF40F04C
S21400628008000BB140F0100063890BB140F0040029
S214006290257CA188A2790DB1E36893B90F4B10F065
S2140062A071FE2178084610F0E9FE2EF0DDF804466F
S2140062B010F0A2FE7CB100280CBF0020032003B023
S2140062C030BDCDE90035064B10F05CFEE9E7022054
S2140062D0F5E70120F3E72046F1E700BF7B03040063
S2140062E044D3030008B50DF0CBFC014630B104489A
S2140062F014F048FABDE808400EF066B808BD00BFC6
S214006300D5B20300034B044A5B7C012103201370C3
S214006310FFF7DCBD78680020AC5E002010B50446B0
S214006320FFF7F0FFB4F57F4F0BD100240F4B1A8810
S21400633013449C70FEF77CFE2046BDE81040FFF735
S214006340FFBB4FF601739C4204D1BDE810400848DD
S21400635029F04CBF4FF602739C4205D1BDE81040B1
S214006360044B1878FFF790BB10BD00BF28590020DB
S21400637078680020206E002010B5074C01212246C8
S2140063800320FFF793FD28B92378044A003B18BF83
S2140063900123537410BD00BFAC5E00207868002057
S2140063A0F8B5564B564C1A884FF6FF739A4218BFEC
S2140063B003234FF0080218BF2370524B32251A7081
S2140063C030229A705A71DA7139225D70DD70362586
S2140063D01A724FF400121D719D714B4D4264C564D4
S2140063E04A4D012205654A4D86188565494DC667A2
S2140063F0C565494D494E4566494D80F84820856635
S214006400484D80F854200567474D80F86020456762
S214006410202580F8785080F8845000F12105C0F8D7
S2140064208850424D80F86C20C0F88C50C0F88060D0
S21400643080F89020C0F89440C0F8B8303C4B3D4CF3
S214006440C0F8BC300223C0F898403B4C80F8C030FF
S214006450C0F8A4400F24394B80F8A840C0F8C430D8
S214006460374B384CC0F8C8308223C0F8AC40364CA6
S21400647080F8CC30C0F8B0400924344B344DC0F816
S214006480D030344B80F8B440C0F8D4302C7C324B3B
S21400649080F89C20C0F8A00080F8D820C0F8DC3037
S2140064A044B12E4B80F8E420C0F8E03005F111032B
S2140064B0C0F8E8304FF0000CCA798E6802EB420351
S2140064C09F00443006EB830326F807C0586001207F
S2140064D00D349870DC701318CB71FFF7C3FAFFF712
S2140064E04BFFFFF781FE012806D12B7C23B1BDE8C8
S2140064F0F840174829F07ABEF8BD00BFD46D0020DA
S214006500216E0020AD5E00204D4E040001002000EC
S2140065104C4E0400020020004B4E040005004200D2
S214006520030020004A4E040004004200070030002A
S214006530FDFF21001200100100404200484E0400FA
S21400654000FF4401384E040006004200285900208F
S2140065507868002002FF2001206E002001FF100155
S21400656013B504460E4829F091FD6422C0F30F438C
S214006570637083B2B3FBF2F3A0782370202200236B
S214006580012129F07EFFA07800232122012129F095
S21400659078FF0449201D02B0BDE8104029F02BBF4B
S2140065A0D46D0020E09304000B7870B583704CF631
S2140065B01E0303804FF02013C362012380F830309F
S2140065C080F83C30C3180364124B0446436402232D
S2140065D0114A80F84830114B8263C3644063CA791D
S2140065E08D6802EB420305EB830004F12C0646603F
S2140065F00B4E45F8236000238360531CCB71094B78
S214006600201DC4E90134FFF7A7FC2046BDE8704012
S214006610FFF7A6BFFDFF2100210020004E4E04001C
S2140066200100010361650000437B044A01211370E9
S21400663000781130C0B2FFF749BC00BFB75E00203B
S21400664038B504460078054D11302A460121C0B2FF
S214006650FFF72CFC08B92B78637338BDB75E0020B3
S214006660034B53F8200008B129F0E8BF704700BF7D
S2140066701C360020012908B506D0022907D049B9E2
S21400668029F0D3FF002008BD29F0D2FFFAE729F051
S214006690D2FFF7E7024814F075F80120F3E700BFD1
S2140066A002B3030010B4054C114654F820001A46F5
S2140066B0BDF804305DF8044BFFF7DCBF1C36002045
S2140066C0002310B5044683810364A0F844304830A4
S2140066D0FFF742FC014BC4E9123410BD2306030049
S2140066E038B504460B781A4A43700D4642F8230024
S2140066F0FFF7E6FF2046FFF7A3FF4FF440132361A2
S2140067000123144A2375A261134A84F82030E261FB
S214006710124A84F82C306262114A84F83830A26239
S21400672004F10C0222630F4A04F10D036263E36373
S214006730EA79A86802EB420300EB830110344C6050
S214006740094C40F82340094B8B60531CEB7138BD55
S2140067501C360020B65E002008002000226E0020B6
S21400676000FF300001FF100102010104A5660000D1
S21400677010B47024427B0D48013A012904FB020044
S21400678006D0022908D059B95DF8044B29F04DBF50
S2140067905DF8044B29F04CBF5DF8044B29F04BBF65
S2140067A003485DF8044B13F0EDBF00BF581A0020F5
S2140067B01EB30300B0F85C302DE9F0418B4204466E
S2140067C00E4639D0437B077C93B31C4A12789A4214
S2140067D02ED370251A4A013B05FB032390F80F8041
S2140067E01B7B424629F038FFB845054601D1FF28F5
S2140067F020D13A463146204694F8903029F02CFFB6
S2140068002F4605460123552212216078A4F85C60C5
S21400681029F037FEFF2F03D039462046FFF7A8FFA2
S214006820FF2D09D029462046BDE8F04129F054BF87
S214006830FF25DEE70746E5E7BDE8F0819E5E00201F
S214006840581A002041688268C978D27849B112B1D6
S2140068500321FFF7AFBF837B002B0CBF0121022172
S214006860F7E72AB1837B002B0CBF02210121F0E75A
S214006870014813F087BF00BF2FB30300037BD3B1DB
S2140068804368DA7812B18268D278A2B91B7933B13C
S214006890837B002B0CBF04210521FFF78BBF836889
S2140068A01B792BB1837B002B0CBF05210421F4E759
S2140068B0014813F067BF704761B30300084A437B83
S2140068C005211370837B5370C37B9370037CD37056
S2140068D0037B137100780E30C0B2FFF7F7BA00BF23
S2140068E0B85E002038B5044600780C4D0E302A46B7
S2140068F00521C0B2FFF7DAFA20B1BDE838400848F3
S21400690013F040BF2B7863736B78A373AB78E37395
S214006910EB7823742B79237338BD00BFB85E002054
S2140069209DB30300034B53F8200008B129F01EBFA7
S214006930704700BF44360020F8B504460B78424A3C
S21400694043700D4642F82300404E29F02FFFFFF714
S214006950C9FF6268A3683E483E49D6641165D4659F
S2140069605065C3E91410DE64DC654FF098730226A8
S2140069706361012304F10C01E161374910322162A1
S21400698004F10D01A16235492376E16204F10E019E
S2140069906163334984F82430A16304F10F01216454
S2140069A0304984F83030616404F11001E1642E4906
S2140069B084F83C3084F84830216584F85460A26539
S2140069C0E879A96800EB400201EB820704F1140C99
S2140069D0C7F804C04FF4817C244F41F82270C218D7
S2140069E0D2B202EB420241F822C001EB820700223B
S2140069F07A601F4A84F8703022661E4A84F888300F
S214006A00A2661D4A1D4BE2661D4AC4F88C306267BA
S214006A101C4A8319A26704F15C02C4F88020DBB22A
S214006A20194A03EB4303C4F8842084F8646084F8AE
S214006A307C6001EB830260345460144A033041F8F2
S214006A402320E871F8BD00BF4436002045680000EA
S214006A502F0703007D6800000100200102001001DE
S214006A6003003001040030010500210101FC01068D
S214006A704A002100504E040051001000524E0400FF
S214006A80534E0400550021006F0018001200010448
S214006A9070B50D460646144613460A4601461A4881
S214006AA013F070FE25B92046BDE87040FFF736BCEF
S214006AB0072D05D121463046BDE8704000F092BE55
S214006AC04FF601439D4205D121463046BDE8704051
S214006AD0FFF728BF062D05D121463046BDE8704099
S214006AE000F072BAB5F5817F05D121463046BDE883
S214006AF07040FFF7B5BD202D04D12046BDE870409C
S214006B0000F0ECB870BD00BFCCB303000148FFF73F
S214006B1043BB00BF916A00004FF4C01330B503605A
S214006B2001230371074B8C688360CA7902EB42032A
S214006B3004EB83056860044844F82300531CCB71BB
S214006B4030BD00BF544E0400040001010368064A2D
S214006B500C21136043685360038913814389222004
S214006B605381FFF7B3B900BF6C36002010B5036839
S214006B70044686B0FBB1114813F004FEA37B104A0E
S214006B808DF804304FF48273ADF806300123CDE95A
S214006B900223002301A804938DF81430FFF75CFB52
S214006BA02046618929F012FE2046FA2150F8143B4F
S214006BB0594329F020FC06B010BD00BFFFB3030008
S214006BC02000000110B5064C236843B1054813F0B9
S214006BD0D9FD2068BDE81040418929F0F7BD10BDF9
S214006BE07836002020B4030070B5364910460C688D
S214006BF0BDF81020002C5ED003285CD8DFE800F03B
S214006C00021E2745002B5AD0022A58D91D78B3F801
S214006C100160291E18BF012132462B4813F0B2FD31
S214006C202DB13146204629F0D1FD002070BDE57318
S214006C30FA206368584329F065FCF6E7234813F00A
S214006C40A1FDE37B002B38D00023E373F0E7002B95
S214006C5035D0032A33D91D681D48294613F092FD06
S214006C601C4B2A1F9A4201D90220DFE723680BB18A
S214006C709D42F9D823899D42F6D3E37B6560B3B97C
S214006C80FA20684329F03EFC11E0002BCED0012A02
S214006C90CCD91D881048294613F074FD002DE3D08A
S214006CA063689D42E0D8E37B2581002BE8D120462F
S214006CB0FFF74CFFB9E70120B8E70420B6E703204A
S214006CC0B4E700BF7836002043B403007AB403006C
S214006CD099B40300FCFF6D00C3B4030038B5154B30
S214006CE01C6834B3F0B92168134813F04BFD2368D1
S214006CF03BB16268934204D2104813F043FD6368C8
S214006D00236004F11405284629F07AFB236823B192
S214006D10FA212846594329F06EFB2046BDE8384044
S214006D20FFF714BF032804D16189054813F02AFD34
S214006D30F3E738BD78360020EEB403001BB5030039
S214006D4050B5030070B53E4B0D46044609781860F2
S214006D50002A6FD101231A46A1730021E173012195
S214006D60A1814FF46151C4E900132823354E2281D6
S214006D700C21324622206381FFF798F860B9D6E9E5
S214006D8000230AB19A4207D3318999429FBFC4E9CA
S214006D9000237389218163812B4B2C4AE3630423F0
S214006DA084F8403084F84C30E3182365284BA264FE
S214006DB06365022304F10802E265264A84F8583027
S214006DC0226604F10A02A266234A84F8643084F834
S214006DD0703004F10C03E26663676464EA79A868BD
S214006DE002EB420300EB830104F13C064E601B4EAF
S214006DF040F82360FA261A4B1A488B60531CEB7136
S214006E00FFF7D0F9208904F11405704329F07AFBC6
S214006E106189204629F0DAFC134B2846C4E905347C
S214006E20FFF79AF8216849B128467143BDE87040DB
S214006E3029F0E1BA4FF4F07302228DE770BD00BF6F
S214006E40783600206C360020000023010100230065
S214006E500200210003002101FDFF210020000105A2
S214006E60E96B0000C56B00006D6B0000194B10B598
S214006E701C686CB3E37B4BB329F0C6FA2369C01ACF
S214006E8000280ADBFFF7B0F9012814D029F0BCFA75
S214006E90FA22638902FB03002061E37BB3B12489F5
S214006EA0FA235C4329F039FBA04211D02046BDE806
S214006EB0104029F027BB084813F064FC0023FA2092
S214006EC0E3736368584329F01DFBE6E76468E7E769
S214006ED010BD00BF783600207DB5030038B500240D
S214006EE0044D55F8040B08B129F083FC01340A2C34
S214006EF0F7D138BD7C360020042908B50AD172B116
S214006F006BB113781BB929F0A0FC002008BD29F04E
S214006F1092FCFAE7034813F035FC0120F6E703205D
S214006F20F4E700BFB7B5030010B4054C114654F89B
S214006F3020001A46BDF804305DF8044BFFF7DCBFAE
S214006F407C3600200229024608B50ED004D839B98E
S214006F50104629F07AFC06E04029F9D0412907D1ED
S214006F60104629F068FC002008BD29F078FCFAE7F6
S214006F70024813F007FC0120F6E700BFD7B5030070
S214006F8010B4054C114654F820001A46BDF80430DB
S214006F905DF8044BFFF7D6BF7C360020426B094BEA
S214006FA052791A7082785A70C2789A70826B12B1CF
S214006FB090F83C20DA70007804210930014AC0B20B
S214006FC0FEF784BFBD5E0020024B53F8200029F078
S214006FD063BC00BF7C36002038B504460078084DF8
S214006FE009302A460421C0B2FEF760FF30B96B783C
S214006FF0A370AB78E370EB7884F83C3038BD00BF04
S214007000BD5E002038B504460078114D09302A468A
S2140070100421C0B2FEF74AFFC8B9A3782A78022B2B
S2140070200CD004D863B9204629F00FFC01E0FF2BF2
S2140070300AD02046BDE8384029F0DBBB002AF2D152
S214007040204629F0F8FBF4E7002AF9D1EBE738BD33
S214007050BD5E0020F8B504460B78284A0D4642F877
S21400706023004370FFF7B8FF636B254A5C631A631F
S2140070702046FFF7C7FF204629F0BBFB4FF48013DE
S21400708063600123626BA66B0532E2601D4A2372C1
S2140070902261A21C2375A26166B11B4A84F82030C7
S2140070A0E261E21C6262194A84F82C3004F13C0367
S2140070B0A26223630627EA79A96802EB4203002E40
S2140070C021F8237001EB83000CBF02230423C37056
S2140070D0012383700E4B04348360531C4460DBB280
S2140070E00C4C03EB430341F8234001EB83000023E1
S2140070F04360094B02328360EA71F8BD7C3600209B
S214007100730803000340300101FF300102FF100145
S214007110816F000008000100296F000028B1034BB2
S2140071201B78834234BF002001207047A05E0020F9
S21400713070B500250A4C0B4E3378AB4200DC70BDB0
S214007140D4F8A42042B123791BB16079FFF7E6FF9B
S21400715010B9104629F025F80135A834ECE700BF31
S21400716004200020A25E002008B5417902460846A9
S214007170FFF7D4FFA8B1D3780A480139042B00EBF7
S21400718081100ED8012B08D81BB9BDE8084029F09D
S21400719052BBBDE8084029F058BBBDE8084029F0BE
S2140071A05EBB08BD641D002008B54179024608464E
S2140071B0FFF7B4FFA8B1D3780A480139042B00EBD7
S2140071C081100ED8012B08D81BB9BDE8084029F05D
S2140071D03CBBBDE8084029F02EBBBDE8084029F0BE
S2140071E03EBB08BD641D002070B586B006460C4642
S2140071F01546FEF7F9FF01282DD1042C2BD8DFE821
S21400720004F01230320303002846FFF787FF50B31E
S214007210164B032C03EB851353F80C3C58791CD102
S214007220003818BF01204FF48273ADF806300623ED
S214007230ADF8083001234FF480728DF80B30002330
S2140072408DF80A0001A8CDE903238DF804608DF8B7
S2140072501430FFF701F806B070BDB0FA80F04009B0
S214007260E1E70020DFE70220DDE700BF641D002025
S2140072702DE9F0418AB005460C46FEF7B5FF012819
S21400728006462BD16B784FF4827800254FF4807732
S2140072908DF80030134B6846CDE90137ADF8028013
S2140072A003958DF81050FEF7D7FFBCB1637962786E
S2140072B0052B14BF032307238DF81420082205A8E6
S2140072C0CDE90775ADF81680ADF818208DF81A30A0
S2140072D08DF81B608DF82450FEF7BEFF0AB0BDE89F
S2140072E0F08100BF0800070110B583780446A3B9F3
S2140072F003790BB1FFF758FF204629F023FB042340
S2140073006078A4F86C3055220123122129F0B9F8D0
S2140073102046BDE8104029F0D2BAB0F86C30022BF7
S21400732017D00379032B01D1FFF71EFFA379032B98
S21400733004D16279E1786078FFF756FF0023607821
S214007340A4F86C305522BDE810400123122129F024
S21400735098B80A4A037812789A420DD90279022A16
S2140073600AD08279022A07D06822054903FB021157
S2140073702046FFF77DFFE1E70021F9E7A15E002048
S214007380641E002070B58AB004460D46FEF72CFF3A
S214007390012843D16378224E8DF800304FF4827373
S2140073A0ADF802304FF4807394F8A02094F8A11042
S2140073B072701C4A6846CDE9012302233170039699
S2140073C08DF81030FEF748FF0DB3AB79E879FF2B48
S2140073D008BF94F8A130697833704FF48273ADF823
S2140073E016300823ADF8183001238DF81B304FF403
S2140073F08073CDE9073602236A79707005A88DF888
S21400740014108DF81A208DF82430FEF725FF94F816
S214007410A130013B18BF012384F8A1300AB070BD2B
S214007420C15E00200800050170B583780446002B75
S21400743048D02549027809780379914217D9022B5A
S21400744017D08379022B1FD06823204D02FB0355EB
S214007450EB78022B19D12A791046FFF75FFEA0B110
S2140074601B48013A00EB821029F0F9F90DE0022BD7
S2140074700AD162791046FFF751FE28B11448013A46
S21400748000EB821029F0EBF90025A379022B04D13A
S2140074906279E1786078FFF7A7FE25B12A79A978A6
S2140074A06878FFF7A1FE29462046FFF76BFF022308
S2140074B06078A4F86C305522BDE870400123122194
S2140074C028F0DFBF70BD00BFA15E0020641E002054
S2140074D0641D00204388094A08211380838853804E
S2140074E083681B8A938090F8A03093718379D37158
S2140074F000780430C0B2FEF7E9BC00BFAA590020ED
S21400750038B50D4604460178114813F03BF94FF69E
S21400751002739D420ED10F4B1B782BB96371204628
S214007520BDE83840FFF7D6BF62790AB19342F6D27B
S2140075300123F3E7B5F57F4FF1D1204629F00DFA88
S214007540A378022B0CBF01220022A3689A70E6E7FC
S214007550F3B50300A05E002038B504460078144D4D
S21400756004302A460821C0B2FEF7A0FC20B1BDE8D0
S2140075703840104813F006B92B8863806B88E9788A
S214007580A380AA88A3681A82AB7984F8A030EB7926
S214007590A371094B1B780BB9637138BD09B19942C9
S2140075A0FBD9064813F0EEF823780133F4E700BF62
S2140075B0AA5900200DB60300A05E002036B60300D0
S2140075C0F8B504460B78474A0D4642F82300437048
S2140075D0FFF7C2FFA268444BD465D364434B022630
S2140075E05365434BA11C13654FF44013E36001231E
S2140075F06161E1623F49103221632265211D3E4AE6
S214007600A1633E483E49626504F1A002A061E163C1
S214007610E265E01C611D3B4A206261643A483B49D2
S2140076202266A21D2374237784F8283084F8343029
S21400763084F84030A16484F84C6084F8583084F8AC
S21400764064306062A266E879AA6800EB400102EB4B
S214007650810704F10C0CC7F804C04FF0060C2C4F41
S21400766042F82170C118C9B201EB410142F821C0AD
S21400767002EB810700217960264F84F88030276767
S214007680254F84F89830A767244F254BE767254F8A
S21400769084F8746084F88C60C4F89C3004F16C063E
S2140076A0831CC4F88470C4F890601F4F1F4EDBB272
S2140076B003EB4303C4F89460C4F8887002EB8306B7
S2140076C07034746008261A4C42F82340C31CDBB2A0
S2140076D003EB430302EB8304043042F8236061604B
S2140076E0E871F8BDE4360020F3080300E9720000F4
S2140076F02974000001FF300104FF20011000300152
S21400770002FF200105FF300100FF300103FF2101C9
S214007710070001084A002100564E040051001000E0
S214007720584E0400594E0400550021006F00180002
S214007730120001048378094A06211370C378537037
S214007740037993704379D37083791371C379537136
S21400775000781430C0B2FEF7B9BB00BFC35E00208D
S21400776038B50D46044601781C4813F00BF84FF662
S21400777002739D420ED11A4B1B782BB923712046FB
S214007780BDE83840FFF7D6BF22790AB19342F6D259
S2140077900123F3E74FF601739D4206D1E37813F019
S2140077A0FD0FECD00023E370E9E74FF609739D4226
S2140077B007D1637903F0FB03012BE0D00523637147
S2140077C0DDE74FF608739D42D9D1A379023BDBB2C1
S2140077D0FC2B9CBFFF23A371D1E700BF6BB6030051
S2140077E0A05E0020064A034652F8200008B1FFF7C4
S2140077F087BE044A52F8230008B1FFF7B1BF7047AE
S214007800E4360020A436002038B5044600780D4D36
S21400781014302A460621C0B2FEF748FB20B1BDE868
S2140078203840094812F0AEBF2B78A3706B78E3702F
S214007830AB782371EB7863712B79A3716B79E37165
S21400784038BD00BFC35E00208CB6030070B5314A59
S2140078500B78044642F8230043700D46FFF7D4FF2A
S2140078604FF440130221A822A3600123207823733B
S21400787012FB0012284923760A442261274A84F81C
S21400788024306261A21CE261254A84F8303022620C
S214007890244A84F83C30A262234A84F84830E262E4
S2140078A0E21C6263214A84F85430A263221D2264DB
S2140078B01F4A84F860306264621DE2641D4AE31D5C
S2140078C02265A21DA2651C4A6366E265E979AA687C
S2140078D001EB410302EB8300083444601748082696
S2140078E042F8230006204B1CDBB203EB430342F8AE
S2140078F02300002002EB83048B1CDBB203EB430364
S2140079006060033102EB830442F823606060E97133
S21400791070BD00BFA43600200420002010003001F7
S21400792005FF3000554E040001FF300102FF200124
S21400793009FF300108FF300104FF2001070001089D
S21400794000239B6AB3F5804F03D21968064A91421A
S21400795003D00023037083607047012202709A6888
S2140079609B694260F7E700BF07B0CD5E024B034A53
S2140079701A602AF017BC00BF0000002002020FF0B9
S21400798073B53F4B04461A781AB102221A7002B039
S21400799070BDCDE900220028F9D001261E7032F015
S2140079A08DFF384D384B186017F0CEFC2B785BB93E
S2140079B002F0F2F940B935480823354A35490068DF
S2140079C001F038FE00B92E70334B5A68E260334A35
S2140079D09A601A6E22605A6E6260D3F87021A260B6
S2140079E01B6E5C042CD52E4AD368D807FCD42D4BCE
S2140079F01A68531C29D04FF4801393402A4A136602
S214007A000423294C4FF0804223664FF4806323669C
S214007A10102323664FF400536846236601A92266A6
S214007A20636628F0B3FF009B2366019B63662B7892
S214007A30002BACD0164B1A6822665B686366A6E716
S214007A401A4AD368D907FCD4D1E7194B1B78002B08
S214007A50D6D1184B5A68144B12B94FF480121A66D6
S214007A60154A526812B94FF400121A66134B5B6837
S214007A70002BC5D14FF480020B4B1A66C0E700BF3F
S214007A80CA5E0020CB5E002034370020E468002069
S214007A9038370020007108000080004455CEAC0046
S214007AA000000440B068002000900044000004502D
S214007AB0C95E00200080055000C00550000006503A
S214007AC038B5224D04462B78012B02D001232B70AB
S214007AD038BD0028FCD028F07EFF013009D028F001
S214007AE07AFF40F20113984203D0194AD368DB07A5
S214007AF0FCD42268174B1A6662685A66A268C3F8F6
S214007B007021E268D40744BF00229A60124B1A68BC
S214007B10013213D1114A127882B911494968C8074F
S214007B2048BF1A600F4A5268D10744BF01221A6044
S214007B300D4A5268D20744BF02221A6017F00CFCA6
S214007B400A4B186832F0B5FE0023C0E7CA5E002074
S214007B500000044000800044B0680020C95E002099
S214007B600080055000C00550000006503437002045
S214007B7070B50024A36AB3F5804F23D21A68134B5E
S214007B809A421FD1124E337813F0FD0518D14FF4E8
S214007B9080341048FFF7F4FE032004F04FFC0E4B31
S214007BA00320DC6004F02EFC0C4B1C61AB6ADB6926
S214007BB0984704460748FFF783FF0CB90123337044
S214007BC0204670BD4FF48174FAE700BF07B0CD5E63
S214007BD0C95E00202437002000A000440090004426
S214007BE013B5204B1B7803B9FEE700231E4CCDE9E6
S214007BF000336A4608231D49206801F01BFDF8B9CA
S214007C001B4AD2F84031D2F840211F2B4FF0010317
S214007C1011D9203A9340019A1A43019208236A46E2
S214007C201249206801F08EFE124B134A1A602AF0A1
S214007C30B9FA02B010BD9340009A1A430092EDE7DD
S214007C402D28F1D10A4AD2F84031D2F840211F2B14
S214007C504FF0010385BF203A93409340019398BFAD
S214007C600093DBE7CA5E0020E4680020007108008D
S214007C7000800044000000200B020FF038B50025FD
S214007C80AB6A0446B3F5804F10D21B6BB3F5804F3A
S214007C900CD20748FFF774FEAB6A20461B6B5B6886
S214007CA09847BDE838400248FFF70ABF38BD00BF16
S214007CB04037002013B50024A36A0190B3F5804F27
S214007CC013D21B6BB3F5804F0FD20948FFF758FE4F
S214007CD0A36A01211B6B01A89B69984704460448C8
S214007CE0FFF7EEFE204602B010BD4FF48174F9E7B0
S214007CF04037002070B50026B36A0446B3F5804FBF
S214007D000D4612D21B6BB3F5804F0ED20848FFF714
S214007D1037FEB36A20461B6B29469B699847044684
S214007D200348FFF7CDFE204670BD4FF48174FAE796
S214007D304037002070B50026B36A0446B3F5804F7E
S214007D400D4612D21B6BB3F5804F0ED20848FFF7D4
S214007D5017FEB36A20461B6B2946DB699847044624
S214007D600348FFF7ADFE204670BD4FF48174FAE776
S214007D7040370020F8B50027BB6A0446B3F5804FAD
S214007D800D46164611D21B6B7BB10948FFF7F8FD6E
S214007D90BB6A20461B6B324629465B6A98470446F8
S214007DA00348FFF78DFE2046F8BD4FF40174FAE74E
S214007DB04037002070B50026B36A0446B3F5804FFE
S214007DC00D4612D21B6BB3F5804F0ED20848FFF754
S214007DD0D7FDB36A20461B6B29469B6A9847044624
S214007DE00348FFF76DFE204670BD4FF40174FAE7B6
S214007DF040370020F0B50027BB6A0446B3F5804F35
S214007E000D461646ADF5337D20D21B6BB3F5804F7D
S214007E101CD21048FFF7B4FDBB6A20461B6B40F22D
S214007E20C1225B6A01A99847044630B10948FFF7AA
S214007E3047FE20460DF5337DF0BD836A32461B6B48
S214007E402946DB6A01A898470446EFE74FF4017419
S214007E50EFE700BF4037002010B50024A36AB3F553
S214007E60804F10D21B6BB3F5804F0CD20748FFF73C
S214007E7087FDA36A1B6B1B6B984704460348FFF7F6
S214007E801FFE204610BD0124FBE700BF4037002040
S214007E90F0B58FB0044601A80E461546FFF7EEFE75
S214007EA09DF80C30012B12D1B5F5402F27D8B4F52C
S214007EB0402F24D86319B3F5402F20D821462A46F0
S214007EC0304613F001FF002420460FB0F0BD002717
S214007ED0BB6AB3F5804F15D21B6BB3F5804F11D23A
S214007EE00A48FFF74DFDBB6A2A461B6B3146204603
S214007EF05B6B984704460548FFF7E2FDE4E740F26F
S214007F000244E1E740F20114DEE700BF40370020FC
S214007F10F0B58FB0044601A80E461546FFF7AEFE34
S214007F209DF80C30012B1FD1B5F5402F06D8B4F5BF
S214007F30402F03D86319B3F5402F13D940F20244FB
S214007F4020460FB0F0BDE258013225D104339D42E1
S214007F50F9D82A463146204628F06DFD0028EDD097
S214007F600024EDE70023F2E70027BB6AB3F5804F55
S214007F7015D21B6BB3F5804F11D20A48FFF700FDF0
S214007F80BB6A2A461B6B314620469B6B98470446C5
S214007F900448FFF795FDD3E740F20344D0E740F2EC
S214007FA00114CDE74037002070B58EB0044601A816
S214007FB00D46FFF763FE9DF80C30012B22D144EAF4
S214007FC00503C3F30C03002B33D1B5F5402F04D9BA
S214007FD040F2024420460EB070BDB4F5402FF7D8EC
S214007FE02544B5F5402FF3D8204604F5005428F074
S214007FF01BFDAC4202D00028F6D1E9E70028E7D006
S2140080000024E7E70026B36AB3F5804F14D21B6B53
S214008010B3F5804F10D20A48FFF7B2FCB36A294680
S2140080201B6B2046DB6B984704460548FFF748FD68
S214008030D0E740F20444CDE740F20114CAE700BF9F
S21400804040370020BFF34F8F0549064BCA6802F43D
S214008050E0621343CB60BFF34F8F00BFFDE700BF66
S21400806000ED00E00400FA0570B5D0B1C9B10E4EBF
S214008070431E013913F8014F2046325D02F0030219
S214008080012A11F8012F08BF04F12000B55C05F0A5
S2140080900305012D08BF2032801A01D1002CE9D13A
S2140080A070BD0120FCE700BF2D7604000348044A9B
S2140080B00449121A921028F00ABD00BF344100008D
S2140080C0D0420000E465002008B5154B83F30A880B
S2140080D000F030F8FFF7EAFF124B13498B4212D339
S2140080E00020124B12498B4218D3FCF7FBFD186890
S2140080F050F82240586840F8224001329868824280
S214008100F5D30C33EAE70022F8E71C6844F82200AF
S21400811001325C68A242F8D30833E4E70022F8E7AD
S21400812008000020CC9A0400D89A0400D89A0400CC
S214008130D89A0400124B134A70B59A60D3F8882078
S214008140114D42F47002C3F888206FF0010205F565
S2140081500054226641F2FF7262660222C3F8D02003
S214008160BFF34F8FBFF36F8F4FF44036032004F0FA
S21400817065F90320E66004F045F92E6170BD00BF86
S21400818000ED00E00040000000800044014B186055
S214008190704700BFB8680020054B1860054B1B6F82
S2140081A003F00703032B01D130F0E0BC704700BF9B
S2140081B0C0680020008000502DE9F04104464FF0D2
S2140081C001080C250D4E0CB9BDE8F08194FAA4F018
S2140081D0B0FA80F00F2808FA00F2C8BF103824EA78
S2140081E00204CABF05FB006205FB0062B432576892
S2140081F0002FE8D09168C0B2B847E4E750370020B7
S21400820008B50C4832F0F8FB192004F009F928B13B
S214008210192004F013F9192004F0F4F81A2004F0D9
S214008220FFF828B11A2004F009F91A2004F0EAF839
S214008230002008BDBC5004002DE9F0410E4617464C
S214008240054618B30F2923D80378DBB1013BDBB210
S214008250022B19D8104AD35C6A78D340DB0717D5AF
S2140082600E4BD3F81043ACB932F028FB80463A46A2
S2140082702846314602F042FE404632F01AFB2046BF
S214008280BDE8F0817F23E7E70023E5E72224F6E751
S2140082902124F4E70224F2E7AC4E040000C00350A9
S2140082A010B5044610B30378E3B1013BDBB2022BF2
S2140082B01AD8104AD35C6278D340DB0718D532F060
S2140082C0FDFA0122617823788A4030214B4341F23F
S2140082D0100103F1A04303F570335A5032F0E9FA67
S2140082E0002010BD7F23E6E70023E4E72220F8E71E
S2140082F02120F6E7AC4E040010B5044610B3037810
S214008300E3B1013BDBB2022B1AD8104AD35C627889
S214008310D340DB0718D532F0D1FA012261782378F2
S2140083208A4030214B4342F2100103F1A04303F58B
S21400833070335A5032F0BDFA002010BD7F23E6E7B6
S2140083400023E4E72220F8E72120F6E7AC4E0400FD
S21400835038B50D46044618B311B30378E3B1013BB4
S214008360DBB2022B1AD8104AD35C6278D340DB0704
S21400837018D532F0A3FA30222378534303F1A043F2
S21400838003F570335B696278D34003F001032B700A
S21400839032F08FFA002038BD7F23E6E70023E4E7BB
S2140083A02220F8E72120F6E7AC4E04002DE9F04144
S2140083B00D4616469846044600284FD000294DD054
S2140083C00178002940D04B1EDBB2022B3ED8254A4E
S2140083D0D25C6378DA40D20701D4FF2940D1022E5E
S2140083E001D9042E3CD132F069FA23780746FF2BD8
S2140083F005D032462046296802F0C6FD28602B6864
S214008400013309D12378FF2B06D1174B6078D3F8B8
S214008410241429F037F9286029684B1C18D00C233F
S214008420124A03FB0122069BC2F80480936023785D
S214008430FF2B04D001230E4A8B40C2F82434384662
S21400844032F037FA002007E07F22C2E70022C0E7BA
S214008450384632F02EFA2D20BDE8F0812220FBE7C8
S2140084602120F9E7AC4E040000C00350503700202E
S21400847000D0035008B502F037FD044B00F055302D
S214008480C3F82004BDE80840FFF796BE00E003509E
S21400849008B502F029FD044B00F0AA30C3F820040A
S2140084A0BDE80840FFF788BE00E003502DE9F04F16
S2140084B0144605460E469B46C36B87B001225B6991
S2140084C002A960689847EB6B01225B6903A93046F6
S2140084D0984702A828F0FAFE074648B10023A3757D
S2140084E063754FF0FF33A360002007B0BDE8F08F40
S2140084F003A828F0F8FE0123A375237E04EBC3032C
S214008500DE611F846368B3420ED1206003A828F0A2
S2140085100CFF4FF0FF332075A360237D043B022B36
S21400852026D80023A375DFE723681A1A534253415F
S214008530A37503A828F0F9FE237D834218BFA7750C
S21400854003A828F0D4FE074602A828F0D0FE8742EB
S21400855018BF002303A818BFA37528F0D0FE07464F
S21400856002A828F0CCFE87421CBF0023A375D4E7E0
S21400857003A828F0BCFE80B1EB6B022230465B6994
S21400858004A9984704A828F0C1FE0346207D0328C6
S21400859039D8DFE800F03838040903A8F3E7CC221E
S2140085A0237E04EBC3031A8401F06EFC109B187044
S2140085B003A8277E28F08FFE04EBC70787F8220063
S2140085C0237E03A804EBC303B3F8209093F822702D
S2140085D028F08DFE804603A828F091FE8246B8F16A
S2140085E0000F15D0EB6B022230465B6904A9984752
S2140085F004A828F050FE6075637D6BB90023A37550
S2140086004FF0000838E0227E04EBC2021384CBE76A
S21400861003A828F02BFEEEE794F81680B8F1000FBA
S214008620EED0B9F1000F09D1DFB10123E375637E07
S214008630002B4FD1012F42D1677614E06B6C06EB0E
S2140086400A015A4286EA010010421CBF0022A275A7
S2140086505A1E0A409B1A9945D0D8A37D002BE3D119
S214008660CEE7E37D43B94FF000084B46524631460D
S214008670284628F076FBA060A27D12B123694B4401
S21400868023611A49237E097899422AD90133237631
S214008690BBF1000F27D032B3E37D23B3B8F1000F50
S2140086A021D1032F1FD0A1684B1C1CD0109B224643
S2140086B0009328460123FFF7F9FEA07513E095F80E
S2140086C0343063B9EB6A0133CFD1032FCDD1012308
S2140086D0A376C8E7012FCFD0032FC4D1F7E798467B
S2140086E0C3E70023A375A07DFFE600BFD04E0400BD
S2140086F02DE9F04F0E46984600238BB004464FF007
S214008700FF31104617468DF8133001F0A7FBB6F57B
S214008710801F20D2314605AA04F1080028F028FD63
S214008720451C014603D1237CBBB92D2010E03846FA
S21400873001F094FB0122394620460DF1130328F080
S21400874062FB0028EFD09DF8133088F80030002038
S2140087500BB0BDE8F08FB01CE5D1E56A691C36D1D8
S2140087602046616A28F043FA0546B31C18BF012369
S214008770DFF8CC900193636A626C0293236805A9C4
S21400878002FB053AE36B05225B695046984705A84D
S21400879028F037FE28F05AFE504628F062FE4FF0CA
S2140087A0000B824601464B1C05D0636C81EA0A0228
S2140087B05B42134211D02946204628F018FA029B45
S2140087C0AB422CD0BBF1000F2CD10546D3E7236873
S2140087D0ED1A636CB5FBF3F5C7E7484601F03EFBC0
S2140087E00DF1130349462046019A28F00CFB034678
S2140087F090B1B21C03D0D9F80020B2420CD19DF83B
S214008800132003930D4B88F8002049461A68384613
S21400881013F05AFA039B9B46D9F80810C3E7BBF13E
S214008820000F82D0B6F5801F91D2314698F80030FE
S2140088307A6804F1080001F03FFA88E7CC4E04009D
S2140088402C3F00202DE9F3410446174698460E4675
S214008850184D816AE36A8B4201D04B1C02D102B0EC
S214008860BDE8F081284601F0F9FA012229462046A3
S2140088700DF1070328F0C7FA38B1434629462046CB
S2140088809DF80720B8470028E9D0A9684A1C04D1FB
S2140088906968204628F038FA0146012EDAD16B685E
S2140088A081EA0302636C5B421A4218BF4FF0FF3145
S2140088B0D0E700BF003F00202DE9F04F4FF0FF3318
S2140088C04FF6FF720025044600F10806C0E90923AA
S2140088D08BB0C362056205633046884628F019FCF3
S2140088E0204628F054F960BB2046414628F0CFF9D0
S2140088F0204628F04CF960BB5E200BB0BDE8F08F38
S2140089002368E26B606C576900FB0530052205A9F9
S214008910B84705A828F075FD012807460CD129465A
S214008920204628F085F9012F024600D1013229465B
S214008930204628F04BF903E028F08DFD0028EED104
S2140089400135E3699D42DBD3204628F020F9002854
S214008950CAD000254FF0FF394FF6FF73CA46A84627
S214008960C4E90853E36998450AD3A5EB0905012D28
S2140089702CD84FF6FF72636A93423CD16720BCE75F
S2140089802368E26B606C576900FB0830052205A976
S214008990B84705A828F035FD834605A828F008FD49
S2140089A00746584628F052FD68B1574538BFC4F808
S2140089B02480B94528BFB946BD4238BF3D46BA46B1
S2140089C0236A0133236208F10108CBE74FF6FF73F1
S2140089D000256362E3699D42CBD2676C2068E36B37
S2140089E0052207FB05005B6905A9984705A828F03E
S2140089F0DFFC0135EEE7E26B676C2068694607FB33
S214008A00030055690522A847684628F0D1FC626A2B
S214008A102368606C4B4D00FB023028F022FD4FF0BF
S214008A20FF33A062E3622A466FF00101204605ABE1
S214008A30FFF75EFE002846D1AD6829462046E5626F
S214008A4028F081F8206320B92046E16A28F05CF916
S214008A50E0622946204628F057F90546A36A9D425B
S214008A6033D1204628F042F800278046B946E3690D
S214008A7099453CD3B84559D92046616A28F0B7F8DD
S214008A800026054604F1400AB74212D8626C2368F5
S214008A90694602FB0539E36B05225B694846984741
S214008AA0684628F085FC534602464946E06B28F0A7
S214008AB0DAFC2946204628F09AF80136B0450546E5
S214008AC0E2D1642019E7A56AB7E72946204628F0D0
S214008AD03AF8236B2946034407462363204628F0CA
S214008AE013F90546002FB9D1C4E90B07B6E7636C46
S214008AF02568052203FB0955E36B05A95B69284633
S214008B00984705A828F07DFC28F0A0FC58B1284618
S214008B1028F0A7FC0146204628F015F8636C143BA5
S214008B20984208BF013709F10109A0E7304628F04E
S214008B30F0FA002320461946034AFFF783FE00207A
S214008B40DBE600BF583F0020F50D03002DE9F0419D
S214008B50036B9046826B07689A4288BF8363426CB9
S214008B60436A90B002FB0377C36B0E46052201A949
S214008B705B6904463846984701A828F042FC01285D
S214008B800146307057D0656CE26B2368606AD2F895
S214008B9014C005FB0030052206A9E04706A828F009
S214008BA030FC01284FF0000523D0D4E90A32012119
S214008BB09342CDE90B458DF834800E958DF83C1028
S214008BC02AD11946204628F09FF8236B626C14338E
S214008BD09B1AE06223630C9B53B99DF83C303BB173
S214008BE0626A616C2368E06B01FB023128F0C1FB0E
S214008BF00C9DE36B05225B6901A93846984701A8DE
S214008C0028F0FFFB30702846236BA26B9A4288BF81
S214008C10A36310B0BDE8F081237C33B91C490BAACE
S214008C2004F1080001F096F8D5E72046194A0BAB88
S214008C30FFF708FECFE7237C23BB2246164904F144
S214008C40080001F087F8616A204627F0F1FF616AA4
S214008C50421C204627F0BAFF054620B9236B626CFB
S214008C601344143B23632046A16A28F04DF823687A
S214008C70A062C01A636CB0FBF3F06062204628F076
S214008C8086F8B6E700232046044AFFF7DBFDDAE75E
S214008C90F19300006D9300008F0E03002B0E03006F
S214008CA073B50D46D11E4A421C461B7E4A419A4267
S214008CB026D129682368994222D3636899421FD82F
S214008CC0114E0DF107033246FFF712FDC0B9726868
S214008CD06B689A4214D19DF80730DA1E534253410E
S214008CE0227E93420CD1636901336361D4E9032386
S214008CF0934205D22968A26842F823100133236103
S214008D00012002B070BD00BF583F00202DE9F04F93
S214008D109B4689B09DF848309046514A01931369A6
S214008D2007465B450D46C0F09580D94653680093CC
S214008D30B9F1000F7BD0FB6B01225B6905A9009897
S214008D40984705A828F0CFFA454B1B68984240F094
S214008D50848005A828F0D3FA0428064615D105A86D
S214008D6028F0D4FA009B04461E44019B002B3ED1FB
S214008D70804512D91C46A8EB00083846009927F013
S214008D80C3FFA9EB04090090D2E7FB6B02225B69E4
S214008D90009806A9984706A8E2E7A0EB08045C45F9
S214008DA028BF5C46032C4644ABEB040B1DD9FB6B7B
S214008DB0294630465B69A208984724F0030304F06E
S214008DC0030A1E441D44DDF80480BAF1000FD4D017
S214008DD0FB6B012206A930465B6998475246284637
S214008DE006A912F071FF5544C7E7A246EBE7824694
S214008DF000F0030302932B1803930644039BA6EB91
S214008E000A00A3EB0A05029B9A4514D1BAF1000F9B
S214008E10B3D0FB6B012206A95B69984752462846E9
S214008E2006A913F00DF90028DDD04FF036094846A4
S214008E3009B0BDE8F08FFB6B012206A95B69984775
S214008E400422284606A913F0FBF80028EDD1AAF163
S214008E50040AD3E74FF06309E9E74FF06F09E6E746
S214008E60843F00202DE9F0410F46164698460446FA
S214008E7088B060B390F83450FDB1012127F07CFE35
S214008E8000210E9BCDE90511CDE902379DF83C3057
S214008E90CDF804808DF81C30237C04968BB90D49E0
S214008EA001AA04F1080000F055FFDDE90553E06B68
S214008EB0002E08BF1D4627F0F8FF284608B0BDE87C
S214008EC0F0812046044A01ABFFF7BCFCEDE70546FF
S214008ED0F3E700BF590E0300A18C00007FB590F8A1
S214008EE04260044601920DF10B030A4630461149D2
S214008EF027F0E3FF012E0546E36B17D132465B6988
S214008F0003A998479DF80B10039B019A59B19BB291
S214008F1043EA0243012228460393E36B03A99B69B5
S214008F20984704B070BD62F30F03F3E701229B6914
S214008F3001A9F5E7843F00202DE9F04F99B00E46D1
S214008F400D920A69416C0B931439D31DB3FBF1F3F0
S214008F50013302EBC302036B04469342C0F0018266
S214008F600023DFF804940893E36A484619460593FD
S214008F7000F074FFD6E9033707930B9B022B4DD105
S214008F80CC2F40F0D7810D9B3BB13146204627F0D1
S214008F90EAFF656C1490012044E00120079B656C95
S214008FA01B68149300F0010000280CBF042308235C
S214008FB0782F0E9349D8059A6B1E1340ED1A3B1D69
S214008FC09D423CD2002F3DD0082D3ED800230425DC
S214008FD006934FF0040A336806990B98C9F80030D8
S214008FE0C9F8107028F0A5F94FEA9A030F93059B6D
S214008FF089F814000393002309930C9304930A93AF
S214009000616C039B4A1E1A408B1A27B35544AB4229
S21400901023D8236B5B1A134423632FE1782F656CE8
S214009020B9D8F07D0D9B002BBCD0E36B01225B69A9
S214009030706816A9984716A828F059F9B4E70025CD
S2140090400695C6E704250697C3E7012300254FF0DB
S214009050080A0693BFE75345DBD3A3EB0A02974201
S214009060039BB84628BF90469742534428D901220E
S214009070D9F8101089F817208F4226D10399C9F81D
S2140090800410049299F817200AB399F81810039858
S214009090CA1C09EBC202506004980131A2F808808D
S2140090A0907289F81810B8F1000F07D00B9A022AB0
S2140090B040F08180099A72B1012209929B46ABE08A
S2140090C0049A002A18BF0322DBE70222D9E7039A94
S2140090D0C9F80420E7E70C9A4244032AEED9E26B6B
S2140090E01846956914A901220993A847099B0546C5
S2140090F00028E1D03D2D40F01E8104F108030393C3
S2140091002368059A606CA2EB030ABAFBF0FA00FB30
S2140091100A3028F0A6F9E16A8046204627F0F4FDDA
S214009120A26A824200F00F81626CD9F80830511EA4
S2140091300B40216B2768891A0B442363089BE06267
S214009140DF1BB7FBF2F7BA4540F0FA80059BB3EB9E
S214009150080A12D0E36B4FEA9A0241469B69984789
S2140091608346E36A059A5344E362236B03989B1A8B
S2140091704344236327F0CDFFDA462368616CE06B37
S21400918001FB073128F0E2F8204627F000FD2046D4
S21400919027F0FDFD2063BAF1000F00F0D48032699D
S2140091A0616CD31D1439B3FBF1F3013302EBC30238
S2140091B09042A5D2BFE00D9A002A77D1B8F1030FEE
S2140091C04FEA98026ED9E16B18468D69079910939D
S2140091D0A847109B0546C0B918F0030515D0079A96
S2140091E028F0030B02EB0B019B444FF0FF3215A84F
S2140091F015922A46109312F067FDE26B5846956961
S21400920015A90122A8470546109B9B46079A42448B
S2140092100792002D40F08B80049B16A80193069BB6
S214009220009399F814204346316800F0CDFDE36BB7
S2140092300F9A9B69039816A99847039A051E089BE0
S21400924018BF13460893434652462046039927F014
S21400925088FD236B08F10302A3EB0A0322F0030246
S2140092609B1AC9F808002363002D7FF443AF0C9BBC
S214009270A7EB080743440C93CDF80CB0204603999F
S21400928027F042FD00250390002F7FF4B9AE364A42
S2140092903168936804F10800E36252680B9B00F0A3
S2140092A00BFD49E09B46454607999EE79B4606F11F
S2140092B020021092F27D7068A2B1002296F818C0C3
S2140092C00A99D5B2AC4511D9109D02F1010E35F8B8
S2140092D032508D4228D90E9806EBC2020144D0695E
S2140092E0084403E00E9A0A990A441044E26B15A952
S2140092F0556901221193A847159A0A9B1392E26BAF
S214009300043395695846012213A90A93A847119B6E
S214009310054603EB0802A2EB0B02042A7FF679AFA0
S21400932028B90BF1040BC5E77246491BC9E7CDF80F
S21400933020B088E770252F46384619B0BDE8F08F74
S2140093404FF0000A19E73269616CD31D1439B3FB7C
S214009350F1F3013302EBC302236B9342BFF404AE76
S214009360E9E71C27E8E700BF2C3F0020032A2DE989
S214009370F34106460D4617461C4606D1237A012BB6
S21400938023D0012002B0BDE8F081DFF860800968D4
S21400939042460DF10703FFF7ABF960600028EDD1F8
S2140093A09DF80720237A032AE8D0D8F804106A68C4
S2140093B09142E3D1012B2969D4F80CC007D1726918
S2140093C00CEB0103934202D92074207CDAE70831C3
S2140093D06144E1603B46012229463046FFF7ACFD7A
S2140093E060600028CAD00020CCE700BF583F0020AD
S2140093F02DE9F341089C032A1746266806D1237AEE
S214009400012B24D0012002B0BDE8F081DFF8908067
S214009410304642460DF10703FFF76AF96060002800
S214009420EDD12568D8F80400A96AD5F844C04840AC
S214009430CCF100031840227AE1D1012A09D1E26872
S214009440D8F8103013447269934202D92074207CF5
S214009450D9E72868EB6A1B1A081AB3FBFCF3B0FBC3
S214009460FCF083420BD1706CF36A421E1340326BE1
S214009470121A13442846336327F046FCE862D8F8ED
S2140094801020E36808321344E36001223B46044997
S2140094902068FFF751FD60600028B0D00020B2E7DA
S2140094A0583F00202DE9F0410025604B0E46D3F8CA
S2140094B0008004461D6018B921252846BDE8F081C5
S2140094C090F8347007B30A6803689A4240F0A380A5
S2140094D04A6843689A4240F09E808A6883689A4247
S2140094E040F09980CA68C3689A4240F094800A693E
S2140094F043699A4240F08F808A69C36B9A4240F073
S2140095008A804B698361D8E768223946856B12F0FA
S2140095104BFAD6E90212336804F108002360736838
S214009520A5636360336963617369A36127F003FE13
S214009530B36904F14000E3639B68984720B9676C01
S21400954017B16368B3FBF7F794F84330E761002B75
S214009550B2D00023656C2366002D64D0002F62D045
S2140095602368B3FBF5F205FB1233002B55D1666872
S214009570B6FBF5F305FB1363002B4ED1204627F010
S214009580D2FAA369043303449E4248D340F63472A9
S2140095906369CC3B934244D8B5F5805F43D303213F
S2140095A0204627F0E9FAD4E90001E36B1B689847E8
S2140095B00546E36B0220DB689847CDB94146204656
S2140095C0FFF77AF96428054604D141462046FFF79E
S2140095D073F90546666C5DB9236A2046143E5E4301
S2140095E027F0A1FAA369043303449E4238BF5A25E4
S2140095F0002D0CBF0123002384F8343007D1D4E9B2
S21400960000010B4A13680133136027F02EFEE06B4F
S21400961027F04BFC51E75D254FE759254DE75A25C6
S2140096204BE75F2549E75B2547E700BFBC380020CE
S214009630B83800202DE9FF410C4616461F46054661
S21400964080B390F834307BB3B1F5801F2ED2DFF8AC
S2140096506080012127F090FA2146424628460DF107
S2140096600F03FFF745F8044670B99DF80F30012B3D
S21400967011D1D8F81030BB4212D1024600903146C4
S2140096802846FFF743FB0446E86B27F00EFC20460F
S21400969004B0BDE8F081022B14BF2D246024F3E74C
S2140096A06324F1E72124F2E71124F0E72924EEE70A
S2140096B0843F00202DE9F04385B00C4617461E4631
S2140096C00546DDF8308098B390F8343093B3B1F5A2
S2140096D0801F31D2DFF86490012127F04DFA214631
S2140096E04A4628460DF10F03FFF702F8044688B9EC
S2140096F09DF80F30012B14D1D9F8102006EB080383
S2140097009A4213D300904346324639462846FFF71E
S214009710FDFA0446E86B27F0C8FB204605B0BDE816
S214009720F083022B14BF2D246024F3E76324F1E7B3
S2140097302124F2E71124F0E72924EEE7843F0020F5
S21400974073B50C461646054630B390F834302BB346
S214009750B1F5801F24D2012127F00EFA21462846B3
S214009760104A0DF10703FEF7C3FF044680B99DF8C3
S2140097700730032B0CD0022B0CD12846094927F0C2
S214009780F2FB3060E86B27F090FB204602B070BD1D
S2140097902D24F7E76124F5E72124F6E71124F4E702
S2140097A02924F2E7843F00202DE9F3411E460023DA
S2140097B00C4617460546336050B390F834304BB32A
S2140097C0B1F5801F28D2DFF85480012127F0D4F9A4
S2140097D02146424628460DF10703FEF789FF044658
S2140097E0A0B99DF80730032B10D0022B03BF01232E
S2140097F03B600423D8F8103018BF38603360E86B3D
S21400980027F053FB204602B0BDE8F0812D24F6E792
S2140098102124F7E71124F5E72924F3E7843F002005
S21400982073B50446056B27F07EF9636E03449D42CC
S2140098302CBF00230123854294BF00252D1A207CCF
S21400984084F85030656584F85800A8B100230C4EA3
S2140098501A4619462046009627F049FC002305467E
S2140098601A4619462046009627F04AFCE368284424
S214009870984294BF0020C01AE06502B070BD00BFD9
S214009880FFFF0F002DE9F3471E4643690446B34227
S214009890884617469DF828904ED300258DF8075029
S2140098A0204627F040F9D4F830A082450AD2236A31
S2140098B0B5EB430F06D2002220460DF10701FFF755
