S01B00006275696C642F72656C656173652F7A69676265652E73333714
S21400600008100020199E000039E60000656E0300A7
S214006010656E030041E6000049E60000656E030079
S214006020656E0300656E0300656E0300656E030013
S2140060304DE600006CB20400656E0300656E03005A
S214006040656E0300656E0300656E0300E998000048
S214006050656E0300656E0300656E0300656E0300E3
S214006060656E0300656E0300656E0300656E0300D3
S214006070B9EB0000656E0300656E0300656E0300F5
S214006080656E0300656E0300656E0300656E0300B3
S214006090656E0300656E0300656E0300656E0300A3
S2140060A0656E0300E5A10000C5A10000656E030053
S2140060B0656E0300912A0200656E0300F534020047
S2140060C065C7030061C70300D12C02007BC703002D
S2140060D069C70300C53402006DC7030035350200EA
S2140060E0A13B02009D180200A1350200656E030068
S2140060F0656E0300656E0300656E0300656E030043
S214006100656E0300656E0300656E0300656E030032
S214006110656E0300656E0300656E0300656E030022
S214006120656E0300656E0300656E0300656E030012
S214006130656E0300656E0300656E0300656E030002
S21400614082B030BF074BD3F8F030DB0704D500230E
S2140061500193019B052B01DD02B07047019B0133C3
S214006160F6E700BF00ED00E0F0B5114A114C124E04
S21400617000F00105E3695F0713D40DB9334213D16C
S21400618003EA00078F4207D10B4A1A40002A14BFC1
S2140061906FF001000020F0BD013AEBD16FF0020075
S2140061A0F9E74FF0FF30F6E76FF00100F3E700BFC6
S2140061B08096980000000350020001000B4B70B55B
S2140061C0D96911F480310DD101244FF48072084E44
S2140061D0084DF46020462C641A61FFF7C5FF34644E
S2140061E0EC6070BD6FF00100FBE700BF00000350DD
S2140061F000100350002003504FF4003238B50F4B08
S2140062000F4C9A6641F671330122E569E3630D4B44
S2140062100021DA60022360612120236105F48035C5
S214006220FFF7A2FF10B92120FFF79EFF0122064BC1
S214006230DA600DB10023E36338BD00BF0090005064
S21400624000000350001003500020035070B5134C9C
S2140062506061E3695B071ED40E4656F8043B8D1852
S214006260A361AE420BD10423002121202361FFF756
S2140062707BFF58B9BDE870402120FFF775BF0821A5
S2140062800846FFF771FF10B10423236170BD56F86E
S214006290043BA361E5E74FF0FF30F7E7000003504B
S2140062A02DE9F84315464FF40032184B89469A6696
S2140062B041F6713203F51C33DF69DA6301220646C4
S2140062C003F58053DFF84C8007F48037DA6055B961
S2140062D0284601220E4BDA601FB10022A3F50053B8
S2140062E0DA63BDE8F88306F5005404EA0804A41B44
S2140062F0AC4228BF2C46494622463046FFF7A6FF4A
S2140063000028E6D12644A1442D1BE0E7009000506B
S20C0063100020035000E0FFFF2F
S2140063182DE9F04F4FF0FD0BC9B09A460DF11B0959
S2140063289DF8503108AFCDF80C90CDF808B001971D
S214006338059303890446009383790E469046418860
S2140063488288407812F0E4F8054650B10090A38899
S214006358002062883A4912F01FFC284649B0BDE87A
S214006368F08F99F8000033F0D3FC38B12846A3889C
S2140063786288344912F010FC8D25EEE75A463946F5
S21400638899F8000033F06CFC8346002851D0529BE5
S2140063981BB1BDF84C3198424BD8002399F80090B1
S2140063A80793A9F14102012A5FFA8BF123D83846F0
S2140063B80139254ADFF898C05FFA81FE734513DB7A
S2140063C8059B04210792C3B907AF18221F489FED03
S2140063D81A7B02FB060420460A460830394684ED36
S2140063E8027B17F05BFA11E010F8011F01335140E9
S2140063F80CFB01F2E2E7059B33B123464A463846D2
S21400640800960FF0ADFFA8E70829DED9B8F1000F0F
S21400641801D088F80090BAF1000F01D0AAF800B0B1
S214006428529B002B99D05A46184608A917F036FAF8
S21400643893E7012591E700BF000000000000000078
S214006448F95B04002E5C0400C59D1C8180100020AA
S21400645893010001000000002DE9F04F93B0CDE94C
S2140064680A32DDE91C530E9353EC102BCDE90801D4
S214006478104619468DED060B1E9E16F099FC80B147
S214006488DDE906014FF0FF32C54B16F0B9FC40B9FE
S214006498DDE906014FF0FF326FF4801316F092FC28
S2140064A870B1DDE908019DED060B0E9B1E96CDE941
S2140064B81C53DDE90A3213B0BDE8F04F00F088B986
S2140064C80022DDE90601002316F07CFC002800F017
S2140064D83381DDE906A303F1004BCBF30A5016F42B
S2140064E88063A0F2FF3008BF06250F9316F08EF9DA
S2140064F89BA3D3E9002316F0F3F99BA3D3E9002363
S21400650816F038F8CBF31304894644F07F518046DA
S2140065180022A44B504641F4401116F029F894A3E3
S214006528D3E9002316F0DCF902460B4640464946F6
S21400653816F020F816F06EFC044616F067F98EA3DF
S214006548D3E900238046894616F0CAF90022964BFE
S21400655816F010F816F05EFC89A3D3E90023074668
S2140065684946404616F0BCF980463846894616F035
S2140065784DF985A3D3E9002316F0B2F902460B4677
S2140065884046494615F0F4FF02460B46CDE90C2373
S21400659816F0A6F9DDE90C2380468946104619460A
S2140065A815F0E8FF0022CDE91001804B4046494629
S2140065B816F0C0FA00227E4B15F0DCFF02460B46AA
S2140065C84046494616F0B6FA00227A4B15F0D2FF36
S2140065D802460B464046494616F0ACFADDE90C235F
S2140065E88046894600204FF0804115F0C1FF0246DC
S2140065F80B464046494615F0BDFF02460B46DDE908
S214006608100116F097FA07F2FF3700226A4B15F0CA
S214006618B1FF00223B0516F063F952465B468046FA
S214006628894616F0EDFB002840F08980CDE90C89F4
S21400663804F16303C62B8CBF0527042731051BD539
S21400664853A3D3E900235046594616F0CFFB00283B
S2140066587FD051A3D3E900235046594616F0B2FB23
S214006668002876D00027A542C6BF2C1B04F1FF35AC
S21400667800253C4646F480660E9B9F422CBF4FF092
S2140066880008A3EB070816F0020903D0002F18BF6E
S2140066984FF000083CB1DDE90C235046594616F089
S2140066A849FA82468B46DDE906010022002316F0E9
S2140066B889FB10B10BF100439B46DDE9080126F47F
S2140066C80063CDE90183DDE90A324BEC10AB009597
S2140066D800F07EF802465FB3DDE9091316F0200FD6
S2140066E800F10105089E0CBF65204520B047DDE98E
S2140066F808010523002205930A23002CCDE902325F
S21400670807F1FF374FEAD473B8BF64422A460193AD
S21400671804970A9B009435F069FA0246B9F1000F0F
S21400672806D00B9BC41A0B9B1A190E9BA34245D87E
S214006738104613B0BDE8F08FDDE906ABCDE60022C3
S214006748404649461A4B16F0F5F9013CCDE90C01CE
S2140067586EE7002D90D00F9B002B8DD0013D8BE768
S214006768FB799F501344D33FB3C8608B288AC63F33
S21400677861436F63A787D23F71A379094F930A4095
S2140067881655B5BBB16B0240EF39FAFE422EE63F0E
S2140067982D431CEBE2361A3F0000000080842E4191
S2140067A8FFFFEF7F0000F83F0000E03F00002C40AE
S2140067B800002440000018400000F03F2020DDE9DB
S2140067C80913089DA8470134ADE700BF0000000084
S2140067D82DE9F04F5BEC10AB97B0CDE90501DDE98C
S2140067E82058CDE90723504652465B465946229F15
S2140067F816F0DEFA70B90323CDE902870193AA4B97
S2140068080093DDE90501DDE9072335F021F917B026
S214006818BDE8F08F4FF0FF326FF4801350465946AC
S21400682816F0D0FA28B10423CDE9028701939F4BCE
S214006838E6E74FF0FF32504659469D4B16F0E0FA11
S21400684868B19C4A07F00403002B08BF03229A4B42
S2140068581CBF13460422CDE902870192D0E75046B2
S2140068688DA3D3E90023594616F0CAFA38B98CA383
S214006878D3E900235046594616F0A4FA68B1DDE974
S2140068880723DDE905014BEC10ABCDE92187209500
S21400689817B0BDE8F04FFFF7DFBD002200235046D3
S2140068A8594616F08FFA002800F091805B4652464B
S2140068B80020002115F05CFE012382468B460993D2
S2140068C817F4806400F08580092D40F28580002446
S2140068D830210EABA5F109020134202C03F8011B68
S2140068E8A5EB040901D09442F6D15946504616F055
S2140068F891FA724B054603EBC90393ED007B8DEDC9
S2140069080A7B15F083FF02460B465046594615F09B
S2140069182FFEDDE90A2315F0E3FF02460B46CDE914
S2140069280C2316F09FFA064615F060FF02460B4643
S214006938DDE90C0115F01CFE02460B46CDE90C23DA
S21400694800225F4B16F05CFA002848D00136304625
S21400695815F04CFF02460B46DDE90A0116F03CFA34
S21400696808B100260135B9F1000F45D1284615F0C3
S2140069784DFF02460B465046594615F0F9FD0022D3
S2140069884F4B16F01FFA10B9E90700D501350A2152
S2140069980EAB1A19202C0AD095FBF1F001FB105506
S2140069A8303502F8015B013405460028F2D107F0BD
S2140069B80302012A55D1B8F1000F52D0099A12B92C
S2140069C817F00C0F01D008F1FF38302240E009908C
S2140069D876E74FF0060988E7A946002485E70022EF
S2140069E8DDE90C01364B16F0EDF90028BBD10EB1E7
S2140069F8F007B8D50136B6E70A210EAB1A19202CCF
S214006A080DD0B6FBF1F001FB1063092E03F130033D
S214006A1809F1FF3904F1010402F8013B11D83021CD
S214006A28A1440EAA202CB2D04C4504F101030AD189
S214006A3804F158020DEB02042E2204F8202C1C4602
S214006A48A5E70646DBE7A1541C46EBE71A550134D2
S214006A58444506D2202CF9D1CDE9028701940EAB25
S214006A68CEE6202CF8D0099B3BB12D2204F1580322
S214006A786B4403F8202C0134EEE77A0704D504F1BA
S214006A8858032B226B44F4E73B07E5D504F158037B
S214006A9820226B44EDE700BF0000000065CDCD4125
S214006AA80000000065CDCDC1E8790400EC7904004B
S214006AB8FFFFEF7FDF790400E479040068C1040073
S214006AC80000E03F0000000070B58EB02C220021C8
S214006AD803A816F053FD64234FF002320893CDE95D
S214006AE805230B2301218DF834305B4B8DF81010ED
S214006AF81D880D4040F0A980084639F04BFB0A2255
S214006B08564B574C1A704FF42873ADF812304FF0A6
S214006B18FF332360534B54491B8820460B82534B44
S214006B28534A1B68CD828B61524B0D621B884B8281
S214006B38514B1B68CB611CF0FBFD20B14FF41B7159
S214006B484E483AF0FAFB0521206835F0ADFE20B134
S214006B5840F27D2149483AF0F0FB206815F0C4FC65
S214006B68474B2068196835F019FA0C2539F07AFF72
S214006B786843099039F076FF68430DEB05010790E6
S214006B88206817F097F920B140F295213B483AF073
S214006B98D4FB25681FF068FB00220146284635F01E
S214006BA875FA20B140F2972134483AF0C6FB40F215
S214006BB80353344D344E2B80052396F90000AB70F2
S214006BC87F2801D11DF09CF83378EB7039F04AFF26
S214006BD800EB80008000A88039F044FF0023C00046
S214006BE84FF0FF31E880AB604FF0FF3018A3D3E9D1
S214006BF8002339F021FC2549206835F000FA206882
S214006C0802A935F0F8FE20B14FF434711B483AF06B
S214006C1894FB042220680DEB020135F094F9042851
S214006C2804D040F2D72115483AF087FB01A9012085
S214006C3834F05FFD07F040FD01201DF0F3FC30F056
S214006C48FBFE1DF019FD1CF0F3FF0EB070BD00BF73
S214006C580A0020FF42030000725F0020D66600206C
S214006C68A45700208CDA0400D46D002094DA0400BF
S214006C78C50104008ADA040090DA040017B104009B
S214006C881C6B002098570020F07000203902040082
S214006C980348044B834202D0034B03B1184770479E
S214006CA8247100202471002000000000064B0749CC
S214006CB8C91A891048BF0131491003D0044B0BB1DB
S214006CC801481847704700BF24710020247100202F
S214006CD80000000010B5064C237843B9FFF7D8FF2C
S214006CE8044B13B10448AFF300800123237010BD92
S214006CF87016002000000000CC15050008B5044BEF
S214006D081BB104490448AFF30080BDE80840CDE74E
S214006D180000000074160020CC150500A3F5803A84
S214006D28704700BF154B002B08BF114B9D46FFF759
S214006D38F5FF00218B460F461148124A121A16F024
S214006D481DFC0C4B002B00D098470B4B002B00D09B
S214006D5898470020002104000D000B4816F054FF49
S214006D6816F0E4FB200029002FF0D3FD16F03AFFBA
S214006D7800000800000000000000000008100020C6
S214006D88081000203C67002079DC010007B50121C7
S214006D9820200DF1070201F097F850B101212020BC
S214006DA80DF107028DF8071001F09EF803B05DF8A4
S214006DB804FB9DF807100129F8D00122084815F0B1
S214006DC8BFFA01210DF1070220208DF8071001F007
S214006DD88BF82FF020FD4FF4FA6000F0BDFEE5E7D3
S214006DE89017040038B501F007FA012805D001F01D
S214006DF803FA022801D001F025FA064D2B783BB994
S214006E0801F0FAF90128044602D12FF079FD2C701A
S214006E1838BD00BF5E60002010B5044600882FF01D
S214006E28CEFCA37884F84400834202BF0123E370B3
S214006E382371074B04F11C00C4E9073401F09AF8E3
S214006E48224620880349BDE8104000F0D7BF00BF9F
S214006E582F650300F964030070B5C37804460D4631
S214006E681646002B34D1D1B1214815F069FA012312
S214006E78E370E36CA6600BB1E06D9847E368F61A1A
S214006E8863699E4221D2217E1A480131C9B2217611
S214006E9815F056FAA36D13B1217EE06D9847E5709C
S214006EA82FF0CCFC15B3237903BBA268238A801A7B
S214006EB883421BD801231048237115F041FA236D2D
S214006EC8A3B1E06DBDE87040184701232376E6E7D6
S214006ED80029E4D1094815F033FA636DE660E570D9
S214006EE82571002BDBD0E06D9847D8E770BD00BF52
S214006EF8B8170400C9170400F7170400E4170400BD
S214006F0810B50446054BC0E903300C3001F032F8E2
S214006F182046BDE810402FF05EBB00BF7B6503002F
S214006F2810B501790446B1FA81F1008849092FF0B5
S214006F38A9FB21796088B1FA81F149092FF0A2FBF3
S214006F48034B1A68A24204BF00221A6010BD00BF95
S214006F588C16002070B543790446A3B100880E4EFF
S214006F6804F10805336813B10C4B1B786BB1217913
S214006F782FF088FB64210A4B3460A3602846BDE8DE
S214006F8870402FF052BC4088E9E7064815F0D8F95B
S214006F98054B3221A360F1E78C1600205F600020C5
S214006FA8296F00000D1804005D6F000010B5044638
S214006FB8E0B10F4815F0C4F901236371A37953B9FA
S214006FC8217920882FF05EFB236B7BB1606B012153
S214006FD8BDE8104018472046FFF7A2FF04F1080056
S214006FE82FF028FC2046FFF7B5FFEDE710BD00BFE1
S214006FF84318040010B50446F8B1104815F0A0F977
S21400700800236371A3796BB921792088B1FA81F1DD
S21400701849092FF037FB236B7BB1606B0021BDE875
S214007028104018472046FFF77BFF04F108002FF0B2
S21400703801FC2046FFF78EFFEDE710BD4E18040052
S21400704810B5044668B1074815F07AF96379204602
S2140070581BB1BDE81040FFF7CDBFBDE81040FFF7F5
S214007068A5BF10BD5A18040010B50E4C0E48214690
S21400707815F066F982210D4815F062F98221022082
S214007088A21E00F031FF014630B134F8022C084841
S214007098BDE8104015F054B90648BDE8104015F094
S2140070A84FB900BFF6580020691804008418040079
S2140070B88F180400D318040038B5114C82212246D4
S2140070C8022000F001FFA51C014688B122880D4861
S2140070D815F036F92A460C4B03F12C0153F8040B2D
S2140070E88B4242F8040BF9D11B7813702C232380AB
S2140070F835F8021C054A0648BDE8384015F020B9A0
S214007108F4580020DE1804005E190400F658002023
S2140071183C190400034B1B781BB18B4201D82FF097
S2140071287ABB70479270002010B5044601460E4898
S21400713815F006F9012C11D10C4B0D481A884FF69C
S214007148FF739A421EBF0022094B5A742FF080FA2A
S21400715801F026FEBDE8104001F0F8BC0448BDE882
S21400716810402FF077BA00BF8B1904004470002037
S214007178A86A002070B500241A4D1B4E3378A34227
S2140071881BDC0024194D1A4E3378A3421BDC00245E
S214007198184D194E3378A3421BDC01F02DF8012850
S2140071A816481CD12FF054FA01F0FAFD01F0CEFC77
S2140071B8BDE87040124801F03FB82846FFF72CFE9D
S2140071C801346035DAE72846FFF79AFE013434358D
S2140071D8DAE728462FF05BFA01343835DAE72FF07D
S2140071E839FAE5E7282500206660002048290020AF
S2140071F867600020F822002065600020A86A00204A
S214007208317100002DE9F04F87B0FFF755FFB34BFB
S21400721805A805932FF05FFA054616F0ABF8B04CB4
S214007228C2B21F2A627004D9AE4815F089F800F079
S21400723887FC2946A01C16F031FB05A82FF04BFA50
S214007248054616F097F8C2B21F2A84F8212001D9FD
S214007258A548EAE7294604F1220016F01FFB05A810
S2140072682FF039FA3225044600262778002F40F0FA
S214007278B2809E4DFFF77EFF2B789D4C01932378B6
S214007288DFF890A2DFF8A8829A4E00939AF80030AA
S21400729898F800203178984815F052F8307898F821
S2140072A8002029789AF80050831824782B44934DA8
S2140072B82344BC462C460B44DBB2B84200F3438357
S2140072C8002427468E48A14200F34883012B38BF86
S2140072D801238C4F02933A4600233C464FF48271B2
S2140072E84FF6FF7902980133834213705180A2F853
S2140072F8049002F10C02F5DB834B82497848A360C0
S21400730801F056F8E079A36800EB400003EB800034
S21400731800F024FEE3790133E3717C4B1B884B4570
S21400732803D078497A4801F047F94FF00009764CBF
S21400733833784B4500F31B8300274FF00C09DFF822
S214007348F4B1704D98F800203178BA4200F32283E1
S21400735802EB01090C2100274FF0940B01FB0951A1
S2140073686C4B18786C4AB84200F331830C214FF006
S21400737800094FF0700B98F8003037781F44074420
S21400738801FB07515A4B1878644A484500F3348382
S21400739898F80030367800271E449AF800304FF0E8
S2140073A868081E440C23064403FB06554F4B1B78FF
S2140073B8BB4200F337830299524800F05DFE059BF6
S2140073C846491A468B4240F04183554807B0BDE807
S2140073D8F04F14F0B5BF532F0FD163784C2B40F005
S2140073E85181A378502B40F04D8101224D4B1A70E5
S2140073F805A82FF070F9044637E7442F13D16378B1
S214007408303B092BF4D8601C2FF072F9464B474ADC
S2140074181978002385B2994202F16002E8DD22F865
S214007428465C0133F7E7422F0CD16378542B40F0C3
S2140074388380A01C00F030FD344B188018462FF0CF
S21400744834F8D5E7582F33D8412FD1D9433F152FD5
S214007458CED801A353F827F0C1780000F9730000CE
S214007468F9730000F9730000F9730000F97300005F
S214007478E1750000F9730000F973000095750000C7
S214007488CB740000F9730000F9730000F97300006C
S214007498F97300003B7700008D760000F973000052
S2140074A8F9730000F9730000F9730000C177000053
S2140074B8692F9DD1601C2FF01BF980B22FF0A7F919
S2140074C896E70C4B0120197800230C4A994202F1E2
S2140074D8A8028DDD02F8A60C0133F7E7F65800205F
S2140074E8BC690020AA190400C119040063600020C2
S2140074F86060002064600020D11904004C20002041
S214007508AC1E0020E0160020A017002044700020C3
S2140075189016002061600020F01B0020A01A0020B2
S214007528341A04005F6000206660002028250020CA
S21400753862600020AC1D0020601C00F0ADFC074611
S214007548E01C2FF04DF901210446024638462FF07C
S21400755803F96021C748DFF838C30278A4F1030EA0
S21400756851430CEB01032CF801704FF4FA611982B1
S2140075784FF44871DEF100045961BF4944EB0E042C
S21400758801325D8319659C70027031E7601C00F05B
S21400759883FC00224FF034088146B84F11462FF07E
S2140075A8DBF83878B64E08FB00F326F80390F21896
S2140075B8E3781046693B18BF01239370FFF7A0FCD9
S2140075C83B78B04A03FB0866002116600126516026
S2140075D8167433443B700BE7601C00F05DFC002219
S2140075E8114681462FF0B8F83422A44FDFF890826F
S2140075F8387802FB00F328F8039008EB0301E378D9
S2140076080846693B18BF01238B70FFF779FC9E4A32
S21400761800231046916B29BB00EB831034233A787D
S21400762802FB03838363994A00231046D2F8A4100A
S214007638F1B9A82202FB030034233A7802FB03833D
S214007648C0F8A4305EB98F4A3346114652F8040B88
S214007658A0B93422387800FB028241F823203B7810
S2140076680133B7E70133042B02F14002D2D1DAE73F
S2140076780133042B02F1A802D8D1E3E70133042B27
S214007688E4D1ECE7601C00F007FC8046E01C2FF015
S214007698A7F801210446024640462FF05DF860220E
S2140076A874487B4F0178A4F1030C4A43BB1827F8AB
S2140076B802804FF44872DCF1000444EB0C049C7022
S2140076C8A8241A825A61DFF8E4C1724A5D839A6573
S2140076D89CF80030DFF8B4E15C430EEB04020EF8C9
S2140076E804304FF40074548003241471947101EB31
S2140076F8410401310170682107EB441732246648BB
S2140077080133DBB253718CF80030037882F8A0405E
S2140077185943624C976063546218022151800521D0
S214007728517143F2FF210133DBB21371D18003702C
S2140077385EE6601C00F0B0FB00224FF0380A94F8B2
S21400774803908346B9F1690918BF4FF00109DFF8BD
S214007758608111462FF000F898F80030504F0AFB69
S21400776803F3FA1827F803B082F80490E37883B195
S214007778692B0ED0E01C00F08FFB00221146044651
S2140077882EF0EAFF012298F800300AFB03735C80AB
S2140077989A7144483C4A03789901535498F8001063
S2140077A802EB8314C1EBC10207EBC2074A1C6763EE
S2140077B888F800200133BAE7601C00F06DFB8046AD
S2140077C8E01C00F069FB0746601D2FF009F8044628
S2140077D80246012140462EF0BFFF224638460121C8
S2140077E82EF0BAFF4FF0600C4FF4487EDFF8849016
S2140077F8274A99F800300CFB03F0111822F800808D
S214007808E01EDFF8908044424441A1F810E0C1F839
S21400781814E08C704D83C1F85880591CC9B20CFB13
S21400782801FC02EB0C008470942422F80C701E4FA6
S214007838A0F810E0C0F814E04583C0F85880981CFB
S21400784889F800003878DFF86CC0444303EB43033C
S21400785802EB43130CEB040E01EB4101CEF80430A7
S21400786802EB4112CEF808200CF8040001303870FC
S214007878BEE500BF66600020C9660300676000209A
S21400788848290020A86A0020AC1D00204C200020B3
S214007898282500201D71000063600020AC1E002013
S2140078A8F8220020626000206160002064600020EA
S2140078B865600020F01B0020601C00F0EDFA804692
S2140078C8E01C00F0E9FA002264790746693C114694
S2140078D8404618BF01242EF03FFF002238461146C6
S2140078E82EF03AFF3820DFF88CC15D4A9CF800304D
S2140078F800FB03FE22F80E804FF0000802EB0E0194
S2140079080C7181F80680591CC9B2484302EB000E78
S2140079188EF8044070241752524F981C8CF80000BA
S2140079283878DFF854C14443C3EBC3038EF80680A7
S21400793802EBC3030CEB040EC1EBC101CEF8043016
S21400794802EBC1028EE794F805E00137964584BF3E
S21400795884F804C084F805C0A834AEE490F804C0DF
S2140079680134944584BFC77007716830ABE4B9F139
S214007978000F06D017F8053C03EB430304EB83041B
S214007988BC603946284601F053FC09F10109A835C0
S2140079980C37CDE479180AD04A1E09FB0252D27970
S2140079A802EB420204EB820409FB0152946058463B
S2140079B809FB015101F086F931782B48394409FB57
S2140079C8015101F0A9F801370BF1400BBAE417EBA7
S2140079D8090F18BF11F8050C03911EBF00EB4000F5
S2140079E804EB80048C600BFB072000F0ADFF0399C6
S2140079F81E4B01370C31B4E419EB070F18BF11F80A
S214007A08050C03911EBF00EB400004EB80048C605D
S214007A180BFB092000F06CFE0399124B09F10109D3
S214007A280C31B0E4F74218BF15F8053C29461CBFD0
S214007A3803EB430304EB83040D4B18BFAC6008FB51
S214007A48073001F03BFD01370C35AFE413F8011D94
S214007A5800297FF4B5AC3B2102F8011CB0E400BF56
S214007A68F822002060600020EC22002061600020E0
S214007A78AC1E002065600020A01A002007B5012172
S214007A8821200DF1070200F01FFA18B99DF807200B
S214007A98024B1A7003B05DF804FB00BF927000201A
S214007AA807B5064B8DF80700187001210DF107027F
S214007AB8212000F019FA03B05DF804FB927000204C
S214007AC807B5022101200DF1060200F0FDF938B9CC
S214007AD8044814F035FCBDF8060003B05DF804FB56
S214007AE80020FAE7511A040007B50221ADF806008F
S214007AF80DF10602012000F0F7F9014610B103481F
S214007B0814F01EFC03B05DF804FB00BF721A0400F4
S214007B1810B5FFF7D5FF04460146074814F010FCD9
S214007B280121064814F00CFC24B9BDE810400120D9
S214007B38FFF7DABF10BD00BFA21A0400B41A04008B
S214007B4808B5044814F0FCFB00F0DEF92EF063FEDE
S214007B582EF05EFECA1A040038B50446084D094BD6
S214007B6828462B6000F006FA002C18BF2146284647
S214007B78BDE8384008BF4FF496712EF056BE00BFD9
S214007B884C2A0020176703002DE9F043394D93B0BF
S214007B9808AC0746894690460FCD0FC40FCD002681
S214007BA80FC495E803000323012584E80300324C3C
S214007BB83248CDE90366CDE905668DF80E3007969E
S214007BC8029539F054FB2E4839F051FB32462D49C0
S214007BD820468DF8176004F0D1FF334632462A490E
S214007BE88DF81900009020468DF82390CDF82C804B
S214007BF88DF8216004F0DCFF0A9020468DF80970A5
S214007C0804F03CFF204608AA05A904F0F7FF02AADC
S214007C18204603A92FF08EFE4FF400721B4B5A62C3
S214007C28194BE560626A920510D46BB94FF400727E
S214007C38164B11485A6204F021FF114839F01AFB16
S214007C48002013B0BDE8F083013BEBE7002BEDD036
S214007C58094908A82FF0A1FE4FF400720B4B0648FE
S214007C685A6204F00BFF064839F004FBBDF8200002
S214007C78E7E700BF1CB204000040005A6CB40400DA
S214007C8868B4040080841E0040420F000060005A5A
S214007C980122034B1870034B1980034B1A70704768
S214007CA8696000204C70002068600020F8B5454BDD
S214007CB81B780BB90020F8BD434B1B78012B03D16A
S214007CC8BDE8F8402EF026BD404B1C884FF6FF73E3
S214007CD89C42EFD03E4839F0CAFA0023260AE4B29E
S214007CE81A462146304604F089FE012E354604F031
S214007CF8010335D015D9B51E012DDBD8002B0BBFD7
S214007D084FF480754FF080754FF470614FF07061D6
S214007D180BBF01274FF480370F204FF470202D4BF0
S214007D2811E0002B0BBF4FF480754FF080754FF4B1
S214007D3870614FF070610BBF01274FF480370F203A
S214007D484FF47020244B1A6802401CD0BA421AD04E
S214007D581A680A4032D11A6822EA01022A4316E053
S214007D68002B0BBF4FF480754FF080754FF4706191
S214007D784FF070610BBF01274FF480370F204FF488
S214007D887020164BDFE71A6822EA00023A431A60A8
S214007D982EF0C0FC054600288CD0083644EA0610AB
S214007DA82A460321C0B2FFF7EFFE40F6FF7368438A
S214007DB800F2FF70B0FBF3F080B27CE795427FF4E8
S214007DC879AFC8E768600020696000204C70002022
S214007DD86CB4040028C3035020C3035024C30350C4
S214007DE810B5044C237823B9034839F040FA012328
S214007DF8237010BD6B6000206CB404002DE9F043BE
S214007E081F4C85B0074688469146FFF7E9FF23785A
S214007E181BB902F099F8012323707BBAADF80C3031
S214007E2830220023174E02FB03F4315DA51901BB6F
S214007E38012333554FF0FF3304F110001249304444
S214007E48AB606F80C5F80480C5F80C9009F074FB29
S214007E5804F10801042231440C4B009503A802F0F3
S214007E6849F9A96802460A4814F06AFA05B0BDE856
S214007E78F0830133102BD6D1064814F061FAF5E7E3
S214007E886A600020742A00204167030053670300D5
S214007E98D71A0400051B040080B10278A2F141033A
S214007EA8032B0BD840783038C0B2082806D8054BC4
S214007EB8134413F8413C40EA032070474FF6FF701E
S214007EC8704700BF44B2040008B50B4642B10146ED
S214007ED80448006803F056FABDE808402EF091BC46
S214007EE8022008BD146B002008B50B4642B10146B7
S214007EF80448006803F0CEFBBDE808402EF081BCBD
S214007F08022008BD146B0020F0B50026124F8DB075
S214007F18FF2300930A223346386802A92FF0AFFAE7
S214007F28C0B102AB1D4603EB800404E055F8043BE1
S214007F38B34228BF5E1CAC423868E9D9296803F00A
S214007F482FFD0028F2D02D28F0D00DB0BDE8F04067
S214007F582EF057BC0DB0F0BD146B002028B1034BB3
S214007F680360034B436000238360704719000003D7
S214007F78BC6A0020FF2307B50021044A0093083096
S214007F8809F05EFA03B05DF804FB00BF2D68030035
S214007F980B460449024608680349097808B12EF0DA
S214007FA854BC7047802D00206D600020F7B50C4645
S214007FB818B12921194839F0C0F9246823685E7970
S214007FC85F8830463946FFF7E3FFF0B18568E5B1CC
S214007FD8A089227D3946904291BF0020801AA36866
S214007FE880B294BF03469B18E27C00903046A847B0
S214007FF80138032803D8DFE800F0080F0B0D00242B
S214008008204632F0EFFB204600E0812003B0F0BDAA
S2140080188024F5E79324F3E78724F1E72D1B040073
S214008028F8B515460D4A044610680D4A0B461178F1
S21400803850B122462EF009FC034628B100210C2731
S214008048C678B14201DB0020F8BD07FB01F45A6888
S2140080581019125BAA42F7D00131F2E7802D0020F2
S2140080686D60002008B5034B1B6803B198470020D5
S21400807808BD00BF7C2D00202DE9F74F04460D46AD
S2140080880026454B454F1860454B197033010021B3
S214008098F85C013610F02AF80C2EF7D10C2D28BF04
S2140080A80C254FF0000901953C4EDFF800A13D4D28
S2140080B8DFF8FC80019B4B4502DC03B0BDE8F08F7F
S2140080C823784FF0000B337063887380A388B380DF
S2140080D8A379C6F80880B371E379C8F8005088F821
S2140080E804304FF00003A768A8F80630E3795B452C
S2140080F80ADC012116F8100B0FF0F8FF08F1080843
S21400810809F101090C34D5E74FF0000338886B8174
S2140081182880FB784FF0000C2B81BA78C5F804A0AD
S214008128002A00920CBF802240222A7379680AF13E
S2140081380C02634513DC03EB43030AEB830ABB68B4
S21400814843B1009A4FF6FF71B2FA82F2164B520903
S21400815832F0D8FA14350BF1010B0C37C6E7B1F834
S21400816800E00CF1010C22F80CEC91F802E00C325D
S21400817802F816EC91F804E00C3102F815EC11F848
S21400818809ECBEF1010F14BF4FF0100E4FF0110EA0
S21400819802F814ECCDE700BF802D0020C044002074
S2140081A86D60002084330020B57F0000842D0020F9
S2140081B804360020014B1860704700BF782D002059
S2140081C870B5128805460E46FFF72AFF044670B1BA
S2140081D802790499806815F023FA064B1B680BB9D8
S2140081E8002070BD3146284622889847F8E7862042
S2140081F8F7E700BF782D002008B50FF013F802281F
S21400820806D0012806D0044B18784000C0B208BD36
S2140082180120FCE70220FAE76C600020054B10B549
S2140082281C682CB1FFF7E8FF2346BDE81040184746
S21400823810BD00BF742D0020014B1860704700BFAA
S214008248742D0020034B1A781AB901221A700AF006
S214008258EFBF70476C6000200022024B1A70FFF7D1
S214008268DDBF00BF6C60002037B50446002836D056
S2140082780EF0D8FF022834D1608932F030FEE0795B
S214008288237A003818BF0120012B637A08BF40F014
S21400829808000BB140F0100063890BB140F00400F1
S2140082A8257CA188A2790DB1E36893B90F4B10F02D
S2140082B8F9FA2178084610F071FB32F01CF90446EA
S2140082C810F02AFB7CB100280CBF0020032003B066
S2140082D830BDCDE90035064B10F0E4FAE9E7022098
S2140082E8F5E70120F3E72046F1E700BF126904002E
S2140082F81538040008B50DF0F9F8014630B1044801
S21400830814F01EF8BDE808400DF094BC08BD00BF88
S2140083189F1B0400034B044A5B7C01210320137057
S214008328FFF7E2BDA86A00206E60002010B504467C
S214008338FFF7F0FFB4F57F4F0BD100240F4B1A88D8
S21400834813449C70FEF790FE2046BDE81040FFF7E9
S21400835803BC4FF601739C4204D1BDE810400848A0
S2140083682EF05EB94FF602739C4205D1BDE8104068
S214008378044B1878FFF794BB10BD00BFF4580020D4
S214008388A86A00209270002010B5074C01212246EA
S2140083980320FFF799FD28B92378044A003B18BF45
S2140083A80123537410BD00BF6E600020A86A002029
S2140083B8F8B5564B564C1A884FF6FF739A4218BFB4
S2140083C803234FF0080218BF2370524B32251A7049
S2140083D830229A705A71DA7139225D70DD7036254E
S2140083E81A724FF400121D719D714B4D4264C5649C
S2140083F84A4D012205654A4D86188565494DC6676A
S214008408C565494D494E4566494D80F848208566FC
S214008418484D80F854200567474D80F8602045672A
S214008428202580F8785080F8845000F12105C0F89F
S2140084388850424D80F86C20C0F88C50C0F8806098
S21400844880F89020C0F89440C0F8B8303C4B3D4CBB
S214008458C0F8BC300223C0F898403B4C80F8C030C7
S214008468C0F8A4400F24394B80F8A840C0F8C430A0
S214008478374B384CC0F8C8308223C0F8AC40364C6E
S21400848880F8CC30C0F8B0400924344B344DC0F8DE
S214008498D030344B80F8B440C0F8D4302C7C324B03
S2140084A880F89C20C0F8A00080F8D820C0F8DC30FF
S2140084B844B12E4B80F8E420C0F8E03005F11103F3
S2140084C8C0F8E8304FF0000CCA798E6802EB420319
S2140084D89F00443006EB830326F807C05860012047
S2140084E80D349870DC701318CB71FFF7C7FAFFF7D6
S2140084F84BFFFFF781FE012806D12B7C23B1BDE890
S214008508F84017482EF08CB8F8BD00BF447000201D
S214008518937000206F6000205DB204000100200008
S2140085285CB20400020020005BB2040005004200B2
S214008538030020005AB2040004004200070030007E
S214008548FDFF2100120010010040420058B204004E
S21400855800FF440148B2040006004200F458002018
S214008568A86A002002FF20019270002001FF100177
S21400857813B504460E482DF0A3FF6422C0F30F433C
S214008588637083B2B3FBF2F3A07823702022002333
S21400859801212EF07CF9A0780023212201212EF05B
S2140085A876F90449201D02B0BDE810402EF03DB90A
S2140085B844700020E09304000B7870B583704CF686
S2140085C81E0303804FF02013C362012380F8303067
S2140085D880F83C30C3180364124B044643640223F5
S2140085E8114A80F84830114B8263C3644063CA79E5
S2140085F88D6802EB420305EB830004F12C06466007
S2140086080B4E45F8236000238360531CCB71094B3F
S214008618201DC4E90134FFF7ADFC2046BDE87040D4
S214008628FFF7A6BFFDFF2100210020005EB2040070
S2140086380100010379850000437B044A0121137079
S21400864800781130C0B2FFF74FBC00BF7960002039
S21400865838B504460078054D11302A460121C0B2C7
S214008668FFF732FC08B92B78637338BD79600020B1
S214008678034B53F8200008B12EF0D2B9704700BF5C
S21400868864360020012908B506D0022907D049B962
S2140086982EF0BDF9002008BD2EF0BCF9FAE72EF042
S2140086A8BCF9F7E7024813F04BFE0120F3E700BFDA
S2140086B8CC1B040010B4054C114654F820001A468A
S2140086C8BDF804305DF8044BFFF7DCBF64360020C5
S2140086D8002310B5044683810364A0F8443048306C
S2140086E8FFF748FC014BC4E9123410BD0F6A0300BB
S2140086F838B504460B781A4A43700D4642F82300EC
S214008708FFF7E6FF2046FFF7A3FF4FF44013236169
S2140087180123144A2375A261134A84F82030E261C3
S214008728124A84F82C306262114A84F83830A26201
S21400873804F10C0222630F4A04F10D036263E3633B
S214008748EA79A86802EB420300EB830110344C6018
S214008758094C40F82340094B8B60531CEB7138BD1D
S21400876864360020786000200800200094700020FE
S21400877800FF300001FF100102010104BD86000061
S21400878810B47024427B0D48013A012904FB02000C
S21400879806D0022908D059B95DF8044B2EF037B92F
S2140087A85DF8044B2EF036B95DF8044B2EF035B95B
S2140087B803485DF8044B13F0C3BD00BFA01A0020A1
S2140087C8E81B0400B0F85C302DE9F0418B42044603
S2140087D80E4639D0437B077C93B31C4A12789A42DC
S2140087E82ED370251A4A013B05FB032390F80F8009
S2140087F81B7B42462EF022F9B845054601D1FF28D4
S21400880820D13A463146204694F890302EF016F994
S2140088182F4605460123552212216078A4F85C608D
S2140088282EF035F8FF2F03D039462046FFF7A8FF6D
S214008838FF2D09D029462046BDE8F0412EF03EB966
S214008848FF25DEE70746E5E7BDE8F0816060002023
S214008858A01A002041688268C978D27849B112B156
S2140088680321FFF7AFBF837B002B0CBF012102213A
S214008878F7E72AB1837B002B0CBF02210121F0E722
S214008888014813F05DBD00BFF91B0400037BD3B19C
S2140088984368DA7812B18268D278A2B91B7933B104
S2140088A8837B002B0CBF04210521FFF78BBF836851
S2140088B81B792BB1837B002B0CBF05210421F4E721
S2140088C8014813F03DBD70472B1C0400084A437B43
S2140088D805211370837B5370C37B9370037CD3701E
S2140088E8037B137100780E30C0B2FFF7FDBA00BFE5
S2140088F87A60002038B5044600780C4D0E302A46BB
S2140089080521C0B2FFF7E0FA20B1BDE838400848B4
S21400891813F016BD2B7863736B78A373AB78E37389
S214008928EB7823742B79237338BD00BF7A60002058
S214008938671C0400034B53F8200008B12EF008B952
S214008948704700BF8C360020F8B504460B78424ABC
S21400895843700D4642F82300404E2EF019F9FFF7F3
S214008968C9FF6268A3683E483E49D6641165D46567
S2140089785065C3E91410DE64DC654FF09873022670
S2140089886361012304F10C01E16137491032216269
S21400899804F10D01A16235492376E16204F10E0166
S2140089A86163334984F82430A16304F10F0121641C
S2140089B8304984F83030616404F11001E1642E49CE
S2140089C884F83C3084F84830216584F85460A26501
S2140089D8E879A96800EB400201EB820704F1140C61
S2140089E8C7F804C04FF4817C244F41F82270C2189F
S2140089F8D2B202EB420241F822C001EB8207002203
S214008A087A601F4A84F8703022661E4A84F88830D6
S214008A18A2661D4A1D4BE2661D4AC4F88C30626782
S214008A281C4A8319A26704F15C02C4F88020DBB2F2
S214008A38194A03EB4303C4F8842084F8646084F876
S214008A487C6001EB830260345460144A033041F8BA
S214008A582320E871F8BD00BF8C3600205D88000032
S214008A681B6B03009588000001002001020010011E
S214008A7803003001040030010500210101FC010655
S214008A884A00210060B204005100100062B20400DF
S214008A9863B20400550021006F001800120001049C
S214008AA870B50D460646144613460A46014616484D
S214008AB813F046FC25B92046BDE87040FFF736BCE3
S214008AC8072D05D121463046BDE8704000F0C2BCEF
S214008AD84FF601439D4205D121463046BDE8704019
S214008AE8FFF728BF062D05D121463046BDE8704061
S214008AF800F0A2B8B5F5817F05D121463046BDE81D
S214008B087040FFF7B5BD70BD961C04000148FFF71E
S214008B1851BB00BFA98A00004FF4C01330B50360EC
S214008B2801230371074B8C688360CA7902EB420302
S214008B3804EB83056860044844F82300531CCB7193
S214008B4830BD00BF64B204000400010138B500243B
S214008B58044D55F8040B08B12EF02AF801340A2CF7
S214008B68F7D138BDB4360020042908B50AD172B149
S214008B786BB113781BB92EF047F8002008BD2EF00D
S214008B8839F8FAE7034813F0DBFB0120F6E7032081
S214008B98F4E700BFC91C040010B4054C114654F88D
S214008BA820001A46BDF804305DF8044BFFF7DCBF1A
S214008BB8B43600200229024608B50ED004D839B9C2
S214008BC810462EF021F806E04029F9D0412907D1B1
S214008BD810462EF00FF8002008BD2EF01FF8FAE712
S214008BE8024813F0ADFB0120F6E700BFE91C0400BD
S214008BF810B4054C114654F820001A46BDF8043047
S214008C085DF8044BFFF7D6BFB4360020426B094B1D
S214008C1852791A7082785A70C2789A70826B12B13A
S214008C2890F83C20DA70007804210930014AC0B276
S214008C38FFF75AB97F600020024B53F820002EF049
S214008C480AB800BFB436002038B504460078084D88
S214008C5809302A460421C0B2FFF736F930B96B78D6
S214008C68A370AB78E370EB7884F83C3038BD00BF6F
S214008C787F60002038B504460078114D09302A4632
S214008C880421C0B2FFF720F9C8B9A3782A78022BC6
S214008C980CD004D863B920462DF0B6FF01E0FF2BB0
S214008CA80AD02046BDE838402DF082BF002AF2D10F
S214008CB820462DF09FFFF4E7002AF9D1EBE738BDF0
S214008CC87F600020F8B504460B78284A0D4642F81F
S214008CD823004370FFF7B8FF636B254A5C631A638B
S214008CE82046FFF7C7FF20462DF062FF4FF480139B
S214008CF863600123626BA66B0532E2601D4A23722D
S214008D082261A21C2375A26166B11B4A84F8203032
S214008D18E261E21C6262194A84F82C3004F13C03D2
S214008D28A26223630627EA79A96802EB4203002EAB
S214008D3821F8237001EB83000CBF02230423C370C1
S214008D48012383700E4B04348360531C4460DBB2EB
S214008D580C4C03EB430341F8234001EB830000234C
S214008D684360094B02328360EA71F8BDB4360020CE
S214008D78396C03000340300101FF300102FF100187
S214008D88F98B000008000100A18B000028B1034BF6
S214008D981B78834234BF00200120704762600020A1
S214008DA870B500250A4C0B4E3378AB4200DC70BD1C
S214008DB8D4F8A42042B123791BB16079FFF7E6FF07
S214008DC810B910462DF007FC0135A834ECE700BFB3
S214008DD84C2000206460002008B541790246084609
S214008DE8FFF7D4FFA8B1D3780A480139042B00EB63
S214008DF881100ED8012B08D81BB9BDE808402DF005
S214008E08F9BEBDE808402DF0FFBEBDE808402DF0CD
S214008E1805BF08BDAC1D002008B5417902460846C6
S214008E28FFF7B4FFA8B1D3780A480139042B00EB42
S214008E3881100ED8012B08D81BB9BDE808402DF0C4
S214008E48E3BEBDE808402DF0D5BEBDE808402DF0CD
S214008E58E5BE08BDAC1D002070B586B006460C46BB
S214008E681546FFF7C9F901282DD1042C2BD8DFE8C1
S214008E7804F01230320303002846FFF787FF50B38A
S214008E88164B032C03EB851353F80C3C58791CD16E
S214008E98003818BF01204FF48273ADF80630062359
S214008EA8ADF8083001234FF480728DF80B3000239C
S214008EB88DF80A0001A8CDE903238DF804608DF823
S214008EC81430FFF7D1F906B070BDB0FA80F040094B
S214008ED8E1E70020DFE70220DDE700BFAC1D002049
S214008EE82DE9F0418AB005460C46FFF785F90128BA
S214008EF806462BD16B784FF4827800254FF480779E
S214008F088DF80030134B6846CDE90137ADF802807E
S214008F1803958DF81050FFF7A7F9BCB1637962780E
S214008F28052B14BF032307238DF81420082205A851
S214008F38CDE90775ADF81680ADF818208DF81A300B
S214008F488DF81B608DF82450FFF78EF90AB0BDE83F
S214008F58F08100BF0800070110B583780446A3B95E
S214008F6803790BB1FFF758FF20462DF0CAFE0423FD
S214008F786078A4F86C305522012312212DF087FC66
S214008F882046BDE810402DF079BEB0F86C30022BB4
S214008F9817D00379032B01D1FFF71EFFA379032B04
S214008FA804D16279E1786078FFF756FF002360788D
S214008FB8A4F86C305522BDE81040012312212DF08C
S214008FC866BC0A4A037812789A420DD90279022AB0
S214008FD80AD08279022A07D06822054903FB0211C3
S214008FE82046FFF77DFFE1E70021F9E763600020F0
S214008FF8AC1E002070B58AB004460D46FFF7FCF894
S214009008012843D16378224E8DF800304FF48273DE
S214009018ADF802304FF4807394F8A02094F8A110AD
S21400902872701C4A6846CDE9012302233170039604
S2140090388DF81030FFF718F90DB3AB79E879FF2BE8
S21400904808BF94F8A130697833704FF48273ADF88E
S21400905816300823ADF8183001238DF81B304FF46E
S2140090688073CDE9073602236A79707005A88DF8F3
S21400907814108DF81A208DF82430FFF7F5F894F8B8
S214009088A130013B18BF012384F8A1300AB070BD97
S214009098836000200800050170B583780446002B1D
S2140090A848D02549027809780379914217D9022BC6
S2140090B817D08379022B1FD06823204D02FB035557
S2140090C8EB78022B19D12A791046FFF75FFEA0B17C
S2140090D81B48013A00EB82102DF0A0FD0DE0022B94
S2140090E80AD162791046FFF751FE28B11448013AB2
S2140090F800EB82102DF092FD0025A379022B04D1F7
S2140091086279E1786078FFF7A7FE25B12A79A97811
S2140091186878FFF7A1FE29462046FFF76BFF022373
S2140091286078A4F86C305522BDE8704001231221FF
S2140091382DF0ADBB70BD00BF63600020AC1E0020E4
S214009148AC1D00204388094A082113808388538071
S21400915883681B8A938090F8A03093718379D371C3
S21400916800780430C0B2FEF7BFBE00BF76590020B4
S21400917838B50D4604460178114813F0E1F84FF665
S21400918802739D420ED10F4B1B782BB96371204694
S214009198BDE83840FFF7D6BF62790AB19342F6D2E7
S2140091A80123F3E7B5F57F4FF1D120462DF0B4FD46
S2140091B8A378022B0CBF01220022A3689A70E6E768
S2140091C8051D04006260002038B504460078144D7A
S2140091D804302A460821C0B2FEF776FE20B1BDE864
S2140091E83840104813F0ACB82B8863806B88E97851
S2140091F8A380AA88A3681A82AB7984F8A030EB7992
S214009208A371094B1B780BB9637138BD09B1994234
S214009218FBD9064813F094F823780133F4E700BF27
S214009228765900201F1D040062600020481D0400B7
S214009238F8B504460B78474A0D4642F823004370B3
S214009248FFF7C2FFA268444BD465D364434B02269B
S2140092585365434BA11C13654FF44013E360012389
S2140092686161E1623F49103221632265211D3E4A51
S214009278A1633E483E49626504F1A002A061E1632D
S214009288E265E01C611D3B4A206261643A483B493E
S2140092982266A21D2374237784F8283084F8343095
S2140092A884F84030A16484F84C6084F8583084F818
S2140092B864306062A266E879AA6800EB400102EBB7
S2140092C8810704F10C0CC7F804C04FF0060C2C4FAD
S2140092D842F82170C118C9B201EB410142F821C019
S2140092E802EB810700217960264F84F880302767D3
S2140092F8254F84F89830A767244F254BE767254FF6
S21400930884F8746084F88C60C4F89C3004F16C06A9
S214009318831CC4F88470C4F890601F4F1F4EDBB2DD
S21400932803EB4303C4F89460C4F8887002EB830622
S2140093387034746008261A4C42F82340C31CDBB20B
S21400934803EB430302EB8304043042F823606160B6
S214009358E871F8BD1C370020B96C0300618F000067
S214009368A190000001FF300104FF20011000300129
S21400937802FF200105FF300100FF300103FF210135
S214009388070001084A00210066B2040051001000D8
S21400939868B2040069B20400550021006F00180086
S2140093A8120001048378094A06211370C3785370A3
S2140093B8037993704379D37083791371C3795371A2
S2140093C800781430C0B2FEF78FBD00BF856000205D
S2140093D838B50D46044601781C4812F0B1FF4FF622
S2140093E802739D420ED11A4B1B782BB92371204667
S2140093F8BDE83840FFF7D6BF22790AB19342F6D2C5
S2140094080123F3E74FF601739D4206D1E37813F084
S214009418FD0FECD00023E370E9E74FF609739D4291
S21400942807D1637903F0FB03012BE0D005236371B2
S214009438DDE74FF608739D42D9D1A379023BDBB22C
S214009448FC2B9CBFFF23A371D1E700BF7D1D040042
S21400945862600020064A034652F8200008B1FFF76B
S21400946887BE044A52F8230008B1FFF7B1BF704719
S2140094781C370020DC36002038B5044600780D4D31
S21400948814302A460621C0B2FEF71EFD20B1BDE8FC
S2140094983840094812F054BF2B78A3706B78E370F5
S2140094A8AB782371EB7863712B79A3716B79E371D1
S2140094B838BD00BF856000209E1D040070B5314A87
S2140094C80B78044642F8230043700D46FFF7D4FF96
S2140094D84FF440130221A822A360012320782373A7
S2140094E812FB0012284923760A442261274A84F888
S2140094F824306261A21CE261254A84F83030226278
S214009508244A84F83C30A262234A84F84830E2624F
S214009518E21C6263214A84F85430A263221D226446
S2140095281F4A84F860306264621DE2641D4AE31DC7
S2140095382265A21DA2651C4A6366E265E979AA68E7
S21400954801EB410302EB8300083444601748082601
S21400955842F8230006204B1CDBB203EB430342F819
S2140095682300002002EB83048B1CDBB203EB4303CF
S2140095786060033102EB830442F823606060E9719F
S21400958870BD00BFDC3600204C20002010003001E3
S21400959805FF300065B2040001FF300102FF20011C
S2140095A809FF300108FF300104FF20010700010809
S2140095B800239B6AB3F5C04F03D21968064A914246
S2140095C803D00023037083607047012202709A68F4
S2140095D89B694260F7E700BF07B0CD5E024B034ABF
S2140095E81A602EF0EABD00BF0000002002020FF04D
S2140095F873B5534B04461A781AB102221A7002B091
S21400960870BDCDE900220028F9D001261E7037F07B
S2140096180DFE4C4D4C4B186017F094F82B785BB940
S21400962802F062FA40B949480823494A494900689D
S21400963801F0A8FE00B92E70474B5A6E62619B6E09
S214009648464AA3614FF40043936603F1884359687A
S214009658E16143499960196E2160596E6160D3F8DB
S2140096687011A160196CE160596C21613D49086C64
S2140096781864496C5964012151664FF4005191668B
S2140096881A6E560436D53849CA68D407FCD45B6EB9
S2140096985A0434D5354AD36B13F0430FFBD1344BF9
S2140096A81A68531C31D04FF400139340314A13669E
S2140096B80423304C684623664FF4806323661023E1
S2140096C823664FF4005323664FF0804323664FF417
S2140096D8804301A963662DF038FB009B2366019B37
S2140096E863662B78002B8AD0194B1A6822665B684B
S2140096F8636684E72049CA68D007FCD4C7E71F4AD0
S214009708D36B13F0430FFBD1C9E71D4B1B78002B17
S214009718CED14FF48072114B5A661A4A52681AB95B
S2140097284FF40011134A11664FF400725A66164B2E
S2140097385B68002BBCD14FF480020E4B1A66B7E765
S2140097488C6000208D6000207C370020146B002081
S21400975880370020007108000080005000900050FC
S21400976855CEAC0000C00054000004400000024C77
S214009778E06A002000900044000004500000025CEC
S2140097888B60002000C005500000065070B52C4DB8
S21400979804462E78012E02D001232B7070BD0028B7
S2140097A8FCD02DF0F7FA01300BD02DF0F3FA40F28A
S2140097B80113984205D0234B234A5E66D368DE071A
S2140097C8FCD4224B22491B6E13F0040F4FF40053AF
S2140097D814BF1C4A1F4A9366CA6B12F04302FBD199
S2140097E821681A4B196661685966A168C3F8701132
S2140097F8E168196421695964E169C80748BF9A6035
S214009808154B1A6801320DD1144A127852B9144908
S2140098184968C90748BF1A60124A5268D20744BF47
S21400982801221A606269104B5A66A2699A6616F097
S21400983891FF0E4B186837F0F4FC0023ADE700BF25
S2140098488C60002000900040000004400080004427
S2140098580000024C00900050E06A00208B60002058
S21400986800C0055000000650008000507C370020DD
S21400987870B50024A36AB3F5C04F23D21A68134BF9
S2140098889A421FD1124E337813F0FD0518D14FF4C3
S21400989880341048FFF7ACFE032004F0B9FC0E4BEA
S2140098A80320DC6004F098FC0C4B1C61AB6ADB6997
S2140098B8984704460748FFF769FF0CB90123337039
S2140098C8204670BD4FF48174FAE700BF07B0CD5E3E
S2140098D88B6000205C37002000A000440090004405
S2140098E813B5204B1B7803B9FEE700231E4CCDE9C1
S2140098F800336A4608231D49206801F043FDF8B97D
S2140099081B4AD2F84031D2F840211F2B4FF00103F2
S21400991811D9203A9340019A1A43019208236A46BD
S2140099281249206801F0B6FE124B134A1A602EF050
S21400993844FC02B010BD9340009A1A430092EDE72B
S2140099482D28F1D10A4AD2F84031D2F840211F2BEF
S2140099584FF0010385BF203A93409340019398BF88
S2140099680093DBE78C600020146B00200071080071
S21400997800800044000000200B020FF038B50025D8
S214009988AB6A0446B3F5C04F10D21B6BB3F5C04F95
S2140099980CD20748FFF72CFEAB6A20461B6B5B68A9
S2140099A89847BDE838400248FFF7F0BE38BD00BF0C
S2140099B88837002013B50024A36A0190B3F5C04F7A
S2140099C813D21B6BB3F5C04F0FD20948FFF710FE32
S2140099D8A36A01211B6B01A89B69984704460448A3
S2140099E8FFF7D4FE204602B010BD4FF48174F9E7A5
S2140099F88837002070B50026B36A0446B3F5C04F12
S214009A080D4612D21B6BB3F5C04F0ED20848FFF7AF
S214009A18EFFDB36A20461B6B29469B6998470446A8
S214009A280348FFF7B3FE204670BD4FF48174FAE78B
S214009A388837002070B50026B36A0446B3F5C04FD1
S214009A480D4612D21B6BB3F5C04F0ED20848FFF76F
S214009A58CFFDB36A20461B6B2946DB699847044648
S214009A680348FFF793FE204670BD4FF48174FAE76B
S214009A7888370020F8B50027BB6A0446B3F5C04F00
S214009A880D46164611D21B6B7BB10948FFF7B0FD91
S214009A98BB6A20461B6B324629465B6A98470446D3
S214009AA80348FFF773FE2046F8BD4FF40174FAE743
S214009AB88837002070B50026B36A0446B3F5C04F51
S214009AC80D4612D21B6BB3F5C04F0ED20848FFF7EF
S214009AD88FFDB36A20461B6B29469B6A9847044647
S214009AE80348FFF753FE204670BD4FF40174FAE7AB
S214009AF888370020F0B50027BB6A0446B3F5C04F88
S214009B080D461646ADF5177D20D21B6BB3F5C04F34
S214009B181CD21048FFF76CFDBB6A20461B6B40F250
S214009B2851225B6A01A99847044630B10948FFF7F5
S214009B382DFE20460DF5177DF0BD836A32461B6B59
S214009B482946DB6A01A898470446EFE74FF40174F4
S214009B58EFE700BF8837002010B50024A36AB3F5E6
S214009B68C04F10D21B6BB3F5C04F0CD20748FFF797
S214009B783FFDA36A1B6B1B6B984704460348FFF719
S214009B8805FE204610BD0124FBE700BF88370020ED
S214009B98F0B58FB0044601A80E461546FFF7EEFE50
S214009BA89DF80C30012B12D1B5F5002F27D8B4F547
S214009BB8002F24D86319B3F5002F20D821462A464B
S214009BC8304613F06BFE002420460FB0F0BD002789
S214009BD8BB6AB3F5C04F15D21B6BB3F5C04F11D295
S214009BE80A48FFF705FDBB6A2A461B6B3146204626
S214009BF85B6B984704460548FFF7C8FDE4E740F264
S214009C080244E1E740F20114DEE700BF883700208F
S214009C18F0B58FB0044601A80E461546FFF7AEFE0F
S214009C289DF80C30012B1FD1B5F5002F06D8B4F5DA
S214009C38002F03D86319B3F5002F13D940F2024456
S214009C4820460FB0F0BDE258013225D104339D42BC
S214009C58F9D82A463146204600F082F80028EDD08A
S214009C680024EDE70023F2E70027BB6AB3F5C04FF0
S214009C7815D21B6BB3F5C04F11D20A48FFF7B8FCD4
S214009C88BB6A2A461B6B314620469B6B98470446A0
S214009C980448FFF77BFDD3E740F20344D0E740F2E1
S214009CA80114CDE78837002070B58EB0044601A8A9
S214009CB80D46FFF763FE9DF80C30012B22D144EACF
S214009CC80503C3F30C03002B33D1B5F5002F04D9D5
S214009CD840F2024420460EB070BDB4F5002FF7D807
S214009CE82544B5F5002FF3D8204604F5005400F0B7
S214009CF829F8AC4202D00028F6D1E9E70028E7D0D8
S214009D080024E7E70026B36AB3F5C04F14D21B6BEE
S214009D18B3F5C04F10D20A48FFF76AFCB36A294663
S214009D281B6B2046DB6B984704460548FFF72EFD5D
S214009D38D0E740F20444CDE740F20114CAE700BF7A
S214009D48883700204FF4003208B5044B9A6637F07F
S214009D580FFDB0FA80F0400908BD00BF0090005023
S214009D68134610B562B103439B070BD14FF400347A
S214009D78054B9C6637F000FDB0FA80F0400910BD30
S214009D880120FCE70020FAE700900050BFF34F8F51
S214009D980549064BCA6802F4E0621343CB60BFF37A
S214009DA84F8F00BFFDE700BF00ED00E00400FA0596
S214009DB870B5D0B1C9B10E4E431E013913F8014F24
S214009DC82046325D02F00302012A11F8012F08BF6F
S214009DD804F12000B55C05F00305012D08BF20320C
S214009DE8801A01D1002CE9D170BD0120FCE700BF24
S214009DF889D904000348044A0449121A92102DF01F
S214009E082EB800BF4061000018630000D867002025
S214009E1808B5154B83F30A8800F030F8FFF7EAFF19
S214009E28124B13498B4212D30020124B12498B4215
S214009E3818D3FCF777FF186850F82240586840F89F
S214009E482240013298688242F5D30C33EAE70022B2
S214009E58F8E71C6844F8220001325C68A242F8D38E
S214009E680833E4E70022F8E708000020D4150500C8
S214009E78E0150500E0150500E01505004FF4004163
S214009E88134B144A70B59A60D3F88820124D42F4E2
S214009E987002C3F88820114A05F5005491664FF001
S214009EA8FF3222664FF6DF7262660222C3F8D020BF
S214009EB8BFF34F8FBFF36F8F4FF44036032004F085
S214009EC8A7F90320E66004F087F92E6170BD00BF8D
S214009ED800ED00E0006000000080004400900050A4
S214009EE8054B1860054B1B6F03F00703032B01D1C6
S214009EF835F042BA704700BFF06A00200080005074
S214009F082DE9F04104464FF001080C250D4E0CB91A
S214009F18BDE8F08194FAA4F0B0FA80F00F2808FAA9
S214009F2800F2C8BF103824EA0204CABF05FB006264
S214009F3805FB0062B4325768002FE8D09168C0B2BB
S214009F48B847E4E7A837002008B50C4837F08FF97B
S214009F58192004F04FF928B1192004F059F91920EE
S214009F6804F03AF91A2004F045F928B11A2004F04A
S214009F784FF91A2004F030F9002008BD6CB404002C
S214009F882DE9F0410E461746054618B30F2923D883
S214009F980378DBB1013BDBB2022B19D8104AD35C3D
S214009FA86A78D340DB0717D50E4BD3F81043ACB905
S214009FB837F03CF980463A462846314603F064F8BE
S214009FC8404637F02EF92046BDE8F0817F23E7E7C4
S214009FD80023E5E72224F6E72124F4E70224F2E743
S214009FE8BCB2040000C0035010B5044610B3037892
S214009FF8E3B1013BDBB2022B1AD8104AD35C627875
S21400A008D340DB0718D537F011F901226178237899
S21400A0188A4030214B4341F2100103F1A04303F577
S21400A02870335A5037F0FDF8002010BD7F23E6E75E
S21400A0380023E4E72220F8E72120F6E7BCB2040074
S21400A04810B5044610B30378E3B1013BDBB2022B2C
S21400A0581AD8104AD35C6278D340DB0718D537F095
S21400A068E5F80122617823788A4030214B4342F292
S21400A078100103F1A04303F570335A5037F0D1F8B6
S21400A088002010BD7F23E6E70023E4E72220F8E758
S21400A0982120F6E7BCB2040038B50D46044618B3CE
S21400A0A811B30378E3B1013BDBB2022B1AD8104A8E
S21400A0B8D35C6278D340DB0718D537F0B7F8302280
S21400A0C82378534303F1A04303F570335B69627842
S21400A0D8D34003F001032B7037F0A3F8002038BDF7
S21400A0E87F23E6E70023E4E72220F8E72120F6E7C7
S21400A0F8BCB204002DE9F0410D46164698460446C3
S21400A10800284FD000294DD00178002940D04B1E9A
S21400A118DBB2022B3ED8254AD25C6378DA40D207F7
S21400A12801D4FF2940D1022E01D9042E3CD137F0A4
S21400A1387DF823780746FF2B05D032462046296847
S21400A14802F0E8FF28602B68013309D12378FF2B3B
S21400A15806D1174B6078D3F824142DF051FC2860EC
S21400A16829684B1C18D00C23124A03FB0122069BB5
S21400A178C2F8048093602378FF2B04D001230E4A8C
S21400A1888B40C2F82434384637F04BF8002007E0F6
S21400A1987F22C2E70022C0E7384637F042F82D2073
S21400A1A8BDE8F0812220FBE72120F9E7BCB20400D5
S21400A1B800C00350A837002000D0035008B502F0AE
S21400A1C859FF054B00F0553020F05020C3F8200406
S21400A1D8BDE80840FFF794BE00E0035008B502F05B
S21400A1E849FF054B00F0AA3020F0A020C3F8200451
S21400A1F8BDE80840FFF784BE00E003502DE9F04FA5
S21400A208144605460E469B46C36B87B001225B691B
S21400A21802A960689847EB6B01225B6903A9304680
S21400A228984702A82DF01AFA074648B10023A375E6
S21400A23863754FF0FF33A360002007B0BDE8F08FCA
S21400A24803A82DF018FA0123A375237E04EBC30395
S21400A258DE611F846368B3420ED1206003A82DF028
S21400A2682CFA4FF0FF332075A360237D043B022BA6
S21400A27826D80023A375DFE723681A1A53425341EA
S21400A288A37503A82DF019FA237D834218BFA77576
S21400A29803A82DF0F4F9074602A82DF0F0F9874236
S21400A2A818BF002303A818BFA3752DF0F0F90746BA
S21400A2B802A82DF0ECF987421CBF0023A375D4E74B
S21400A2C803A82DF0DCF980B1EB6B022230465B69FF
S21400A2D804A9984704A82DF0E1F90346207D032831
S21400A2E839D8DFE800F03838040903A8F3E7CC22A9
S21400A2F8237E04EBC3031A8401F06EFC109B1870CF
S21400A30803A8277E2DF0AFF904EBC70787F82200CD
S21400A318237E03A804EBC303B3F8209093F82270B7
S21400A3282DF0ADF9804603A82DF0B1F98246B8F1B4
S21400A338000F15D0EB6B022230465B6904A99847DC
S21400A34804A82DF070F96075637D6BB90023A375BA
S21400A3584FF0000838E0227E04EBC2021384CBE7F5
S21400A36803A82DF04BF9EEE794F81680B8F1000F25
S21400A378EED0B9F1000F09D1DFB10123E375637E92
S21400A388002B4FD1012F42D1677614E06B6C06EB99
S21400A3980A015A4286EA010010421CBF0022A27532
S21400A3A85A1E0A409B1A9945D0D8A37D002BE3D1A4
S21400A3B8CEE7E37D43B94FF000084B465246314698
S21400A3C828462CF096FEA060A27D12B123694B4465
S21400A3D823611A49237E097899422AD901332376BC
S21400A3E8BBF1000F27D032B3E37D23B3B8F1000FDB
S21400A3F821D1032F1FD0A1684B1C1CD0109B2246CE
S21400A408009328460123FFF7F9FEA07513E095F898
S21400A418343063B9EB6A0133CFD1032FCDD1012392
S21400A428A376C8E7012FCFD0032FC4D1F7E7984605
S21400A438C3E70023A375A07DFFE600BFE0B20400D3
S21400A4482DE9F04F0E46984600238BB004464FF091
S21400A458FF31104617468DF8133001F0A7FBB6F506
S21400A468801F20D2314605AA04F108002DF048F8CE
S21400A478451C014603D1237CBBB92D2010E0384685
S21400A48801F094FB0122394620460DF113032CF007
S21400A49882FE0028EFD09DF8133088F800300020A0
S21400A4A80BB0BDE8F08FB01CE5D1E56A691C36D163
S21400A4B82046616A2CF063FD0546B31C18BF0123CD
S21400A4C8DFF8CC900193636A626C0293236805A94F
S21400A4D802FB053AE36B05225B695046984705A8D8
S21400A4E82DF057F92DF07AF950462DF082F94FF0F5
S21400A4F8000B824601464B1C05D0636C81EA0A02B3
S21400A5085B42134211D0294620462CF038FD029BA8
S21400A518AB422CD0BBF1000F2CD10546D3E72368FD
S21400A528ED1A636CB5FBF3F5C7E7484601F03EFB4A
S21400A5380DF1130349462046019A2CF02CFE0346DB
S21400A54890B1B21C03D0D9F80020B2420CD19DF8C5
S21400A558132003930D4B88F8002049461A6838469E
S21400A56813F09CF9039B9B46D9F80810C3E7BBF188
S21400A578000F82D0B6F5801F91D2314698F8003089
S21400A5887A6804F1080001F03FFA88E7DCB20400B4
S21400A598843F00202DE9F3410446174698460E46A8
S21400A5A8184D816AE36A8B4201D04B1C02D102B077
S21400A5B8BDE8F081284601F0F9FA0122294620462E
S21400A5C80DF107032CF0E7FD38B14346294620462F
S21400A5D89DF80720B8470028E9D0A9684A1C04D186
S21400A5E8696820462CF058FD0146012EDAD16B68C2
S21400A5F881EA0302636C5B421A4218BF4FF0FF31D0
S21400A608D0E700BF583F00202DE9F04F4FF0FF334A
S21400A6184FF6FF720025044600F10806C0E9092334
S21400A6288BB0C36205620563304688462CF039FF56
S21400A63820462CF074FC60BB204641462CF0EFFC0C
S21400A64820462CF06CFC60BB5E200BB0BDE8F08F9B
S21400A6582368E26B606C576900FB0530052205A984
S21400A668B84705A82DF095F8012807460CD12946C5
S21400A67820462CF0A5FC012F024600D101322946BF
S21400A68820462CF06BFC03E02DF0ADF80028EED148
S21400A6980135E3699D42DBD320462CF040FC0028B8
S21400A6A8CAD000254FF0FF394FF6FF73CA46A846B2
S21400A6B8C4E90853E36998450AD3A5EB0905012DB3
S21400A6C82CD84FF6FF72636A93423CD16720BCE7EA
S21400A6D82368E26B606C576900FB0830052205A901
S21400A6E8B84705A82DF055F8834605A82DF028F894
S21400A6F8074658462DF072F868B1574538BFC4F873
S21400A7082480B94528BFB946BD4238BF3D46BA463B
S21400A718236A0133236208F10108CBE74FF6FF737B
S21400A72800256362E3699D42CBD2676C2068E36BC1
S21400A738052207FB05005B6905A9984705A82CF0C4
S21400A748FFFF0135EEE7E26B676C2068694607FB9A
S21400A758030055690522A84768462CF0F1FF626A8F
S21400A7682368606C4B4D00FB02302DF042F84FF02A
S21400A778FF33A062E3622A466FF00101204605AB6C
S21400A788FFF75EFE002846D1AD6829462046E562FA
S21400A7982CF0A1FB206320B92046E16A2CF07CFC53
S21400A7A8E062294620462CF077FC0546A36A9D42BF
S21400A7B833D120462CF062FB00278046B946E36971
S21400A7C899453CD3B84559D92046616A2CF0D7FB41
S21400A7D80026054604F1400AB74212D8626C236880
S21400A7E8694602FB0539E36B05225B6948469847CC
S21400A7F868462CF0A5FF534602464946E06B2CF007
S21400A808FAFF294620462CF0BAFB0136B045054625
S21400A818E2D1642019E7A56AB7E7294620462CF056
S21400A8285AFB236B294603440746236320462CF02D
S21400A83833FC0546002FB9D1C4E90B07B6E7636CAD
S21400A8482568052203FB0955E36B05A95B692846BD
S21400A858984705A82CF09DFF2CF0C0FF58B1284655
S21400A8682CF0C7FF014620462CF035FB636C143BE2
S21400A878984208BF013709F10109A0E730462CF0D5
S21400A88810FE002320461946034AFFF783FE0020E1
S21400A898DBE600BFB03F00208D7103002DE9F041D4
S21400A8A8036B9046826B07689A4288BF8363426C44
S21400A8B8436A90B002FB0377C36B0E46052201A9D4
S21400A8C85B6904463846984701A82CF062FF0128C1
S21400A8D80146307057D0656CE26B2368606AD2F820
S21400A8E814C005FB0030052206A9E04706A82CF090
S21400A8F850FF01284FF0000523D0D4E90A32012181
S21400A9089342CDE90B458DF834800E958DF83C10B2
S21400A9182AD1194620462CF0BFFB236B626C1433F1
S21400A9289B1AE06223630C9B53B99DF83C303BB1FD
S21400A938626A616C2368E06B01FB02312CF0E1FE71
S21400A9480C9DE36B05225B6901A93846984701A868
S21400A9582CF01FFF30702846236BA26B9A4288BFE4
S21400A968A36310B0BDE8F081237C33B91C490BAA59
S21400A97804F1080001F096F8D5E72046194A0BAB13
S21400A988FFF708FECFE7237C23BB2246164904F1CF
S21400A998080001F087F8616A20462CF011FB616A0E
S21400A9A8421C20462CF0DAFA054620B9236B626C66
S21400A9B81344143B23632046A16A2CF06DFB2368DE
S21400A9C8A062C01A636CB0FBF3F0606220462CF0FD
S21400A9D8A6FBB6E700232046044AFFF7DBFDDAE7C6
S21400A9E849B10000C5B0000027720300C371030018
S21400A9F873B50D46D11E4A421C461B7E4A419A42F2
S21400AA0826D129682368994222D3636899421FD8B9
S21400AA18114E0DF107033246FFF712FDC0B97268F2
S21400AA286B689A4214D19DF80730DA1E5342534198
S21400AA38227E93420CD1636901336361D4E9032310
S21400AA48934205D22968A26842F82310013323618D
S21400AA58012002B070BD00BFB03F00202DE9F04FC6
S21400AA689B4689B09DF848309046514A0193136931
S21400AA7807465B450D46C0F09580D9465368009357
S21400AA88B9F1000F7BD0FB6B01225B6905A9009822
S21400AA98984705A82CF0EFFD454B1B68984240F0F8
S21400AAA8848005A82CF0F3FD0428064615D105A8D1
S21400AAB82CF0F4FD009B04461E44019B002B3ED15F
S21400AAC8804512D91C46A8EB0008384600992CF099
S21400AAD8E3FAA9EB04090090D2E7FB6B02225B6954
S21400AAE8009806A9984706A8E2E7A0EB08045C4584
S21400AAF828BF5C46032C4644ABEB040B1DD9FB6B06
S21400AB08294630465B69A208984724F0030304F0F8
S21400AB18030A1E441D44DDF80480BAF1000FD4D0A1
S21400AB28FB6B012206A930465B69984752462846C1
S21400AB3806A912F0B3FE5544C7E7A246EBE78246DD
S21400AB4800F0030302932B1803930644039BA6EB1B
S21400AB580A00A3EB0A05029B9A4514D1BAF1000F26
S21400AB68B3D0FB6B012206A95B6998475246284674
S21400AB7806A913F04FF80028DDD04FF036094846EE
S21400AB8809B0BDE8F08FFB6B012206A95B69984700
S21400AB980422284606A913F03DF80028EDD1AAF1AC
S21400ABA8040AD3E74FF06309E9E74FF06F09E6E7D1
S21400ABB8DC3F00202DE9F0410F461646984604462D
S21400ABC888B060B390F83450FDB101212CF09CF9A0
S21400ABD800210E9BCDE90511CDE902379DF83C30E2
S21400ABE8CDF804808DF81C30237C04968BB90D496B
S21400ABF801AA04F1080000F055FFDDE90553E06BF3
S21400AC08002E08BF1D462CF018FB284608B0BDE8E5
S21400AC18F0812046044A01ABFFF7BCFCEDE7054689
S21400AC28F3E700BFF1710300F9A900007FB590F8BB
S21400AC384260044601920DF10B030A46304611495C
S21400AC482CF003FB012E0546E36B17D132465B69F1
S21400AC5803A998479DF80B10039B019A59B19BB21C
S21400AC6843EA0243012228460393E36B03A99B6940
S21400AC78984704B070BD62F30F03F3E701229B699F
S21400AC8801A9F5E7DC3F00202DE9F04F99B00E4604
S21400AC980D920A69416C0B931439D31DB3FBF1F37B
S21400ACA8013302EBC302036B04469342C0F00182F1
S21400ACB80023DFF804940893E36A48461946059388
S21400ACC800F074FFD6E9033707930B9B022B4DD190
S21400ACD8CC2F40F0D7810D9B3BB1314620462CF057
S21400ACE80AFB656C1490012044E00120079B656C04
S21400ACF81B68149300F0010000280CBF04230823E7
S21400AD08782F0E9349D8059A6B1E1340ED1A3B1DF3
S21400AD189D423CD2002F3DD0082D3ED80023042566
S21400AD2806934FF0040A336806990B98C9F8003062
S21400AD38C9F810702CF0C5FC4FEA9A030F93059BD0
S21400AD4889F814000393002309930C9304930A9339
S21400AD58616C039B4A1E1A408B1A27B35544AB42B4
S21400AD6823D8236B5B1A134423632FE1782F656C73
S21400AD78B9D8F07D0D9B002BBCD0E36B01225B6934
S21400AD88706816A9984716A82CF079FCB4E7002531
S21400AD980695C6E704250697C3E7012300254FF066
S21400ADA8080A0693BFE75345DBD3A3EB0A0297428C
S21400ADB8039BB84628BF90469742534428D9012299
S21400ADC8D9F8101089F817208F4226D10399C9F8A8
S21400ADD80410049299F817200AB399F818100398E3
S21400ADE8CA1C09EBC202506004980131A2F8088018
S21400ADF8907289F81810B8F1000F07D00B9A022A3B
S21400AE0840F08180099A72B1012209929B46ABE014
S21400AE18049A002A18BF0322DBE70222D9E7039A1E
S21400AE28C9F80420E7E70C9A4244032AEED9E26BF5
S21400AE381846956914A901220993A847099B05464F
S21400AE480028E1D03D2D40F01E8104F1080303934D
S21400AE582368059A606CA2EB030ABAFBF0FA00FBBB
S21400AE680A302CF0C6FCE16A804620462CF014F91D
S21400AE78A26A824200F00F81626CD9F80830511E2F
S21400AE880B40216B2768891A0B442363089BE062F2
S21400AE98DF1BB7FBF2F7BA4540F0FA80059BB3EB29
S21400AEA8080A12D0E36B4FEA9A0241469B69984714
S21400AEB88346E36A059A5344E362236B03989B1A16
S21400AEC8434423632CF0EDFADA462368616CE06BA2
S21400AED801FB07312CF002FC20462CF020F8204617
S21400AEE82CF01DF92063BAF1000F00F0D480326907
S21400AEF8616CD31D1439B3FBF1F3013302EBC302C3
S21400AF089042A5D2BFE00D9A002A77D1B8F1030F78
S21400AF184FEA98026ED9E16B18468D690799109327
S21400AF28A847109B0546C0B918F0030515D0079A20
S21400AF3828F0030B02EB0B019B444FF0FF3215A8D9
S21400AF4815922A46109312F0A9FCE26B58469569AA
S21400AF5815A90122A8470546109B9B46079A424416
S21400AF680792002D40F08B80049B16A80193069B41
S21400AF78009399F814204346316800F0CDFDE36B42
S21400AF880F9A9B69039816A99847039A051E089B6B
S21400AF9818BF1346089343465246204603992CF09A
S21400AFA8A8F8236B08F10302A3EB0A0322F00302B6
S21400AFB89B1AC9F808002363002D7FF443AF0C9B47
S21400AFC8A7EB080743440C93CDF80CB0204603992A
S21400AFD82CF062F800250390002F7FF4B9AE364AAD
S21400AFE83168936804F10800E36252680B9B00F02E
S21400AFF80BFD49E09B46454607999EE79B4606F1AA
S21400B00820021092F27D7068A2B1002296F818C04D
S21400B0180A99D5B2AC4511D9109D02F1010E35F842
S21400B02832508D4228D90E9806EBC2020144D069E8
S21400B038084403E00E9A0A990A441044E26B15A9DC
S21400B048556901221193A847159A0A9B1392E26B39
S21400B058043395695846012213A90A93A847119BF9
S21400B068054603EB0802A2EB0B02042A7FF679AF2B
S21400B07828B90BF1040BC5E77246491BC9E7CDF89A
S21400B08820B088E770252F46384619B0BDE8F08FFF
S21400B0984FF0000A19E73269616CD31D1439B3FB07
S21400B0A8F1F3013302EBC302236B9342BFF404AE01
S21400B0B8E9E71C27E8E700BF843F0020032A2DE9BC
S21400B0C8F34106460D4617461C4606D1237A012B41
S21400B0D823D0012002B0BDE8F081DFF8608009685F
S21400B0E842460DF10703FFF7ABF960600028EDD183
S21400B0F89DF80720237A032AE8D0D8F804106A684F
S21400B1089142E3D1012B2969D4F80CC007D17269A2
S21400B1180CEB0103934202D92074207CDAE708314D
S21400B1286144E1603B46012229463046FFF7ACFD04
S21400B13860600028CAD00020CCE700BFB03F0020DF
S21400B1482DE9F341089C032A1746266806D1237A78
S21400B158012B24D0012002B0BDE8F081DFF89080F2
S21400B168304642460DF10703FFF76AF9606000288B
S21400B178EDD12568D8F80400A96AD5F844C0484037
S21400B188CCF100031840227AE1D1012A09D1E268FD
S21400B198D8F8103013447269934202D92074207C80
S21400B1A8D9E72868EB6A1B1A081AB3FBFCF3B0FB4E
S21400B1B8FCF083420BD1706CF36A421E1340326B6C
S21400B1C8121A1344284633632BF066FFE862D8F851
S21400B1D81020E36808321344E36001223B46044922
S21400B1E82068FFF751FD60600028B0D00020B2E765
S21400B1F8B03F00202DE9F0410025604B0E46D3F8FD
S21400B208008004461D6018B921252846BDE8F0814F
S21400B21890F8347007B30A6803689A4240F0A3802F
S21400B2284A6843689A4240F09E808A6883689A42D1
S21400B23840F09980CA68C3689A4240F094800A69C8
S21400B24843699A4240F08F808A69C36B9A4240F0FD
S21400B2588A804B698361D8E768223946856B12F085
S21400B2688DF9D6E90212336804F108002360736882
S21400B278A5636360336963617369A3612CF023F97E
S21400B288B36904F14000E3639B68984720B9676C8C
S21400B29817B16368B3FBF7F794F84330E761002B00
S21400B2A8B2D00023656C2366002D64D0002F62D0D0
S21400B2B82368B3FBF5F205FB1233002B55D16668FD
S21400B2C8B6FBF5F305FB1363002B4ED120462BF097
S21400B2D8F2FDA369043303449E4248D340F6347211
S21400B2E86369CC3B934244D8B5F5805F43D30321CA
S21400B2F820462BF009FED4E90001E36B1B6898474B
S21400B3080546E36B0220DB689847CDB941462046E0
S21400B318FFF77AF96428054604D141462046FFF728
S21400B32873F90546666C5DB9236A2046143E5E438B
S21400B3382BF0C1FDA369043303449E4238BF5A2547
S21400B348002D0CBF0123002384F8343007D1D4E93C
S21400B35800010B4A1368013313602CF04EF9E06BBA
S21400B3682BF06BFF51E75D254FE759254DE75A252A
S21400B3784BE75F2549E75B2547E700BF1439002000
S21400B388103900202DE9FF410C4616461F46054693
S21400B39880B390F834307BB3B1F5801F2ED2DFF837
S21400B3A8608001212BF0B0FD2146424628460DF16B
S21400B3B80F03FFF745F8044670B99DF80F30012BC8
S21400B3C811D1D8F81030BB4212D10246009031464F
S21400B3D82846FFF743FB0446E86B2BF02EFF204673
S21400B3E804B0BDE8F081022B14BF2D246024F3E7D7
S21400B3F86324F1E72124F2E71124F0E72924EEE795
S21400B408DC3F00202DE9F04385B00C4617461E4663
S21400B4180546DDF8308098B390F8343093B3B1F52C
S21400B428801F31D2DFF8649001212BF06DFD214694
S21400B4384A4628460DF10F03FFF702F8044688B976
S21400B4489DF80F30012B14D1D9F8102006EB08030D
S21400B4589A4213D300904346324639462846FFF7A9
S21400B468FDFA0446E86B2BF0E8FE204605B0BDE87A
S21400B478F083022B14BF2D246024F3E76324F1E73E
S21400B4882124F2E71124F0E72924EEE7DC3F002028
S21400B49873B50C461646054630B390F834302BB3D1
S21400B4A8B1F5801F24D201212BF02EFD2146284617
S21400B4B8104A0DF10703FEF7C3FF044680B99DF84E
S21400B4C80730032B0CD0022B0CD1284609492BF049
S21400B4D812FF3060E86B2BF0B0FE204602B070BD5D
S21400B4E82D24F7E76124F5E72124F6E71124F4E78D
S21400B4F82924F2E7DC3F00202DE9F3411E4600230D
S21400B5080C4617460546336050B390F834304BB3B4
S21400B518B1F5801F28D2DFF8548001212BF0F4FC07
S21400B5282146424628460DF10703FEF789FF0446E2
S21400B538A0B99DF80730032B10D0022B03BF0123B8
S21400B5483B600423D8F8103018BF38603360E86BC7
S21400B5582BF073FE204602B0BDE8F0812D24F6E7F6
S21400B5682124F7E71124F5E72924F3E7DC3F002038
S21400B57873B50446056B2BF09EFC636E03449D4230
S21400B5882CBF00230123854294BF00252D1A207C5A
S21400B59884F85030656584F85800A8B100230C4E2E
S21400B5A81A461946204600962BF069FF00230546E2
S21400B5B81A461946204600962BF06AFFE368284488
S21400B5C8984294BF0020C01AE06502B070BD00BF64
S21400B5D8FFFF0F002DE9F3471E4643690446B342B2
S21400B5E8884617469DF828904ED300258DF80750B4
S21400B5F820462BF060FCD4F830A082450AD2236A95
S21400B608B5EB430F06D2002220460DF10701FFF7DF
S21400B61845F9B8B39DF80730012B05D1002220461E
S21400B6280DF10701FFF73AF9B9F1030F06D03146D5
S21400B63820462BF030FC256B854227D3144D4FF05F
S21400B648FF31284600F0B2FA4B462946002220462B
S21400B658C5E90376C5F80080FFF716FB236E054696
S21400B66863B12046FFF784FF94F8503013B994F876
S21400B67858301BB1236E04F150009847284602B094
S21400B688BDE8F0870135B3E76225F7E71C25F5E73F
S21400B698B03F00202DE9FF410F4690461E4605465E
S21400B6A898B390F8343093B3B1F5801F31D21A4C62
S21400B6B802212BF029FC2246394628460DF10F03B5
S21400B6C8FEF7BEFE024678B101234246009339468D
S21400B6D833462846FFF77EFF0446E86B2BF0ADFDA1
S21400B6E8204604B0BDE8F0819DF80F30012BEBD161
S21400B6F82169B142E8D10093414633462846FFF710
S21400B708ADF904460028DFD1E7E72124E8E711244D
S21400B718E6E72924E4E700BFDC3F00202DE9F047F0
S21400B72890F8423086B0012B05460391A1EB02073C
S21400B73840F0AA80FF2F03D81E464FF0640807E0A3
S21400B7480226012B14BF4FF032084FF0640801366A
S21400B75800244FF6FF79DFF844A195F84230012B14
S21400B76814BF322364239C4202D35FFA88F40DE0A8
S21400B77805AB2246514628462BF09BFD95F84230ED
S21400B788012B059B34D14B452DD1E4B295F84230B8
S21400B798012B14BF32226422121BB24217D3012E89
S21400B7A839D10022012B05978DF8132027D10822BE
S21400B7B805A90DF113002CF038F89DF81330059AFA
S21400B7C842EA032221462846FFF730FA40B1022310
S21400B7D8324900932846CC23096803AAFFF7FAFEE5
S21400B7E806B0BDE8F087DBB203B902340134B4E72B
S21400B7F8591CCAD09BB2002BF8D10134F6E71022A8
S21400B80805A90DF113002CF010F89DF81330059AD1
S21400B81842EA0342D6E7039A012B059223D108236E
S21400B828202205A90DF113008DF813302BF0FDFF2B
S21400B8389DF81320120221462846FFF7F7F995F8D7
S21400B8484230611C012BC9B21AD10028BFD1284644
S21400B858BDF81420FFF7EAF90028B8D10234BDF87D
S21400B8681620E1B2AFE71023202205A90DF1130038
S21400B8788DF813302BF0D9FF9DF813201204DAE761
S21400B8880028A4D1059A9EE7B7F5803F4FF0010639
S21400B898BFF457AF4FF032085AE700BFDC3F00202E
S21400B8A870B586B00E4605460392A0B390F83430BD
S21400B8B89BB3B1F5801F32D202212BF025FB31460F
