S01B00006275696C642F72656C656173652F7A69676265652E73333714
S21400600008100020E9A1000009EA00009F2B030009
S2140060109F2B030011EA000019EA00009F2B0300E3
S2140060209F2B03009F2B03009F2B03009F2B030037
S2140060301DEA00004C6D04009F2B03009F2B0300FD
S2140060409F2B03009F2B03009F2B0300B99C00008F
S2140060509F2B03009F2B03009F2B03009F2B030007
S2140060609F2B03009F2B03009F2B03009F2B0300F7
S21400607089EF00009F2B03009F2B03009F2B03003C
S2140060809F2B03009F2B03009F2B03009F2B0300D7
S2140060909F2B03009F2B03009F2B03009F2B0300C7
S2140060A09F2B0300B5A5000095A500009F2B0300BD
S2140060B09F2B0300F93202009F2B03005D3D020078
S2140060C0BF830300BB83030039350200D58303007A
S2140060D0C38303002D3D0200C78303009D3D0200DD
S2140060E00944020005210200093E02009F2B03001E
S2140060F09F2B03009F2B03009F2B03009F2B030067
S2140061009F2B03009F2B03009F2B03009F2B030056
S2140061109F2B03009F2B03009F2B03009F2B030046
S2140061209F2B03009F2B03009F2B03009F2B030036
S2140061309F2B03009F2B03009F2B03009F2B030026
S21400614082B030BF074BD3F8F030DB0704D500230E
S2140061500193019B052B01DD02B07047019B0133C3
S214006160F6E700BF00ED00E0F0B5114A114C124E04
S21400617000F00105E3695F0713D40DB9334213D16C
S21400618003EA00078F4207D10B4A1A40002A14BFC1
S2140061906FF001000020F0BD013AEBD16FF0020075
S2140061A0F9E74FF0FF30F6E76FF00100F3E700BFC6
S2140061B08096980000000350020001000B4B70B55B
S2140061C0D96911F480310DD101244FF48072084E44
S2140061D0084DF46020462C641A61FFF7C5FF34644E
S2140061E0EC6070BD6FF00100FBE700BF00000350DD
S2140061F000100350002003504FF4003238B50F4B08
S2140062000F4C9A6641F671330122E569E3630D4B44
S2140062100021DA60022360612120236105F48035C5
S214006220FFF7A2FF10B92120FFF79EFF0122064BC1
S214006230DA600DB10023E36338BD00BF0090005064
S21400624000000350001003500020035070B5134C9C
S2140062506061E3695B071ED40E4656F8043B8D1852
S214006260A361AE420BD10423002121202361FFF756
S2140062707BFF58B9BDE870402120FFF775BF0821A5
S2140062800846FFF771FF10B10423236170BD56F86E
S214006290043BA361E5E74FF0FF30F7E7000003504B
S2140062A02DE9F84315464FF40032184B89469A6696
S2140062B041F6713203F51C33DF69DA6301220646C4
S2140062C003F58053DFF84C8007F48037DA6055B961
S2140062D0284601220E4BDA601FB10022A3F50053B8
S2140062E0DA63BDE8F88306F5005404EA0804A41B44
S2140062F0AC4228BF2C46494622463046FFF7A6FF4A
S2140063000028E6D12644A1442D1BE0E7009000506B
S20C0063100020035000E0FFFF2F
S2140063182DE9F04F4FF0FD0BC9B09A460DF11B0959
S2140063289DF8503108AFCDF80C90CDF808B001971D
S214006338059303890446009383790E469046418860
S2140063488288407812F046FD054650B10090A38832
S214006358002062883A4913F081F8284649B0BDE81B
S214006368F08F99F800002FF034FB38B12846A38840
S2140063786288344913F072F88D25EEE75A46394696
S21400638899F800002FF0CDFA8346002851D0529B8A
S2140063981BB1BDF84C3198424BD8002399F80090B1
S2140063A80793A9F14102012A5FFA8BF123D83846F0
S2140063B80139254ADFF898C05FFA81FE734513DB7A
S2140063C8059B04210792C3B907AF18221F489FED03
S2140063D81A7B02FB060420460A460830394684ED36
S2140063E8027B17F08FFE11E010F8011F01335140B1
S2140063F80CFB01F2E2E7059B33B123464A463846D2
S214006408009610F069FCA8E70829DED9B8F1000F55
S21400641801D088F80090BAF1000F01D0AAF800B0B1
S214006428529B002B99D05A46184608A917F06AFEC0
S21400643893E7012591E700BF000000000000000078
S214006448181604004D160400C59D1C8180100020F7
S21400645893010001000000002DE9F04F93B0CDE94C
S2140064680A32DDE91C530E9353EC102BCDE90801D4
S214006478104619468DED060B1E9E17F0CDF880B116
S214006488DDE906014FF0FF32C54B17F0EDF840B9CD
S214006498DDE906014FF0FF326FF4801317F0C6F8F7
S2140064A870B1DDE908019DED060B0E9B1E96CDE941
S2140064B81C53DDE90A3213B0BDE8F04F00F088B986
S2140064C80022DDE90601002317F0B0F8002800F0E6
S2140064D83381DDE906A303F1004BCBF30A5016F42B
S2140064E88063A0F2FF3008BF06250F9316F0C2FDA2
S2140064F89BA3D3E9002316F027FE9BA3D3E900232A
S21400650816F06CFCCBF31304894644F07F518046A2
S2140065180022A44B504641F4401116F05DFC94A3AB
S214006528D3E9002316F010FE02460B4640464946BD
S21400653816F054FC17F0A2F8044616F09BFD8EA33E
S214006548D3E900238046894616F0FEFD0022964BC6
S21400655816F044FC17F092F889A3D3E900230746FF
S2140065684946404616F0F0FD80463846894616F0FD
S21400657881FD85A3D3E9002316F0E6FD02460B4607
S2140065884046494616F028FC02460B46CDE90C2341
S21400659816F0DAFDDDE90C238046894610461946D2
S2140065A816F01CFC0022CDE91001804B40464946F7
S2140065B816F0F4FE00227E4B16F010FC02460B4640
S2140065C84046494616F0EAFE00227A4B16F006FCCC
S2140065D802460B464046494616F0E0FEDDE90C2327
S2140065E88046894600204FF0804116F0F5FB0246AB
S2140065F80B464046494616F0F1FB02460B46DDE9D7
S214006608100116F0CBFE07F2FF3700226A4B16F091
S214006618E5FB00223B0516F097FD52465B46804692
S214006628894617F021F8002840F08980CDE90C89C2
S21400663804F16303C62B8CBF0527042731051BD539
S21400664853A3D3E900235046594617F003F8002809
S2140066587FD051A3D3E900235046594616F0E6FFEB
S214006668002876D00027A542C6BF2C1B04F1FF35AC
S21400667800253C4646F480660E9B9F422CBF4FF092
S2140066880008A3EB070816F0020903D0002F18BF6E
S2140066984FF000083CB1DDE90C235046594616F089
S2140066A87DFE82468B46DDE906010022002316F0B1
S2140066B8BDFF10B10BF100439B46DDE9080126F447
S2140066C80063CDE90183DDE90A324BEC10AB009597
S2140066D800F07EF802465FB3DDE9091316F0200FD6
S2140066E800F10105089E0CBF65204520B047DDE98E
S2140066F808010523002205930A23002CCDE902325F
S21400670807F1FF374FEAD473B8BF64422A460193AD
S21400671804970A9B009431F08CF80246B9F1000FF2
S21400672806D00B9BC41A0B9B1A190E9BA34245D87E
S214006738104613B0BDE8F08FDDE906ABCDE60022C3
S214006748404649461A4B16F029FE013CCDE90C0195
S2140067586EE7002D90D00F9B002B8DD0013D8BE768
S214006768FB799F501344D33FB3C8608B288AC63F33
S21400677861436F63A787D23F71A379094F930A4095
S2140067881655B5BBB16B0240EF39FAFE422EE63F0E
S2140067982D431CEBE2361A3F0000000080842E4191
S2140067A8FFFFEF7F0000F83F0000E03F00002C40AE
S2140067B800002440000018400000F03F2020DDE9DB
S2140067C80913089DA8470134ADE700BF0000000084
S2140067D82DE9F04F5BEC10AB97B0CDE90501DDE98C
S2140067E82058CDE90723504652465B465946229F15
S2140067F816F012FF70B90323CDE902870193AA4B5E
S2140068080093DDE90501DDE9072330F044FF17B002
S214006818BDE8F08F4FF0FF326FF4801350465946AC
S21400682816F004FF28B10423CDE9028701939F4B95
S214006838E6E74FF0FF32504659469D4B16F014FFD8
S21400684868B19C4A07F00403002B08BF03229A4B42
S2140068581CBF13460422CDE902870192D0E75046B2
S2140068688DA3D3E90023594616F0FEFE38B98CA34B
S214006878D3E900235046594616F0D8FE68B1DDE93C
S2140068880723DDE905014BEC10ABCDE92187209500
S21400689817B0BDE8F04FFFF7DFBD002200235046D3
S2140068A8594616F0C3FE002800F091805B46524613
S2140068B80020002116F090FA012382468B460993A1
S2140068C817F4806400F08580092D40F28580002446
S2140068D830210EABA5F109020134202C03F8011B68
S2140068E8A5EB040901D09442F6D15946504616F055
S2140068F8C5FE724B054603EBC90393ED007B8DED91
S2140069080A7B16F0B7FB02460B465046594616F069
S21400691863FADDE90A2316F017FC02460B46CDE9B2
S2140069280C2316F0D3FE064616F094FB02460B46DA
S214006938DDE90C0116F050FA02460B46CDE90C23A9
S21400694800225F4B16F090FE002848D001363046ED
S21400695816F080FB02460B46DDE90A0116F070FECB
S21400696808B100260135B9F1000F45D1284616F0C2
S21400697881FB02460B465046594616F02DFA002271
S2140069884F4B16F053FE10B9E90700D501350A211A
S2140069980EAB1A19202C0AD095FBF1F001FB105506
S2140069A8303502F8015B013405460028F2D107F0BD
S2140069B80302012A55D1B8F1000F52D0099A12B92C
S2140069C817F00C0F01D008F1FF38302240E009908C
S2140069D876E74FF0060988E7A946002485E70022EF
S2140069E8DDE90C01364B16F021FE0028BBD10EB1AE
S2140069F8F007B8D50136B6E70A210EAB1A19202CCF
S214006A080DD0B6FBF1F001FB1063092E03F130033D
S214006A1809F1FF3904F1010402F8013B11D83021CD
S214006A28A1440EAA202CB2D04C4504F101030AD189
S214006A3804F158020DEB02042E2204F8202C1C4602
S214006A48A5E70646DBE7A1541C46EBE71A550134D2
S214006A58444506D2202CF9D1CDE9028701940EAB25
S214006A68CEE6202CF8D0099B3BB12D2204F1580322
S214006A786B4403F8202C0134EEE77A0704D504F1BA
S214006A8858032B226B44F4E73B07E5D504F158037B
S214006A9820226B44EDE700BF0000000065CDCD4125
S214006AA80000000065CDCDC13B3304003F33040031
S214006AB8FFFFEF7F3233040037330400407C0400C6
S214006AC80000E03F0000000070B58EB02C220021C8
S214006AD803A817F087F964234FF002320893CDE92C
S214006AE805230B2301218DF834305B4B8DF81010ED
S214006AF81D880D4040F0A980084634F00BFF0A2296
S214006B08564B574C1A704FF42873ADF812304FF0A6
S214006B18FF332360534B54491B8820460B82534B44
S214006B28534A1B68CD828B61524B0D621B884B8281
S214006B38514B1B68CB611DF02FFA20B14FF41B7127
S214006B484E4835F014FF0521206831F0DAFC20B1F4
S214006B5840F27D21494835F00AFF206816F0F8F81B
S214006B68474B2068196831F046F80C2535F03AFB93
S214006B786843099035F036FB68430DEB050107902E
S214006B88206817F0CBFD20B140F295213B4835F040
S214006B98EEFE25681FF02AFE00220146284631F040
S214006BA8A2F820B140F29721344835F0E0FE40F2D2
S214006BB80353344D344E2B80052396F90000AB70F2
S214006BC87F2801D11DF0D0FC3378EB7035F00AFB36
S214006BD800EB80008000A88035F004FB0023C0008E
S214006BE84FF0FF31E880AB604FF0FF3018A3D3E9D1
S214006BF8002334F0E1FF2549206831F02DF820689D
S214006C0802A931F025FD20B14FF434711B4835F048
S214006C18AEFE042220680DEB020130F0C1FF042806
S214006C2804D040F2D721154835F0A1FE01A901206D
S214006C3830F082FB07F028FF01201EF019F92CF02F
S214006C4898FD1EF03FF91DF027FC0EB070BD00BF82
S214006C580A0020FF420300001E5D00205764002043
S214006C6844570020E09504004C6B0020E89504008B
S214006C7845B90300DE950400E4950400046C04009E
S214006C888C68002038570020206E0020B9B9030011
S214006C980348044B834202D0034B03B1184770479E
S214006CA84C6E00204C6E002000000000064B074982
S214006CB8C91A891048BF0131491003D0044B0BB1DB
S214006CC801481847704700BF4C6E00204C6E0020E5
S214006CD80000000010B5064C237843B9FFF7D8FF2C
S214006CE8044B13B10448AFF300800123237010BD92
S214006CF8B81500200000000000D1040008B5044BB9
S214006D081BB104490448AFF30080BDE80840CDE74E
S214006D1800000000BC15002000D10400A3F5803A4E
S214006D28704700BF154B002B08BF114B9D46FFF759
S214006D38F5FF00218B460F461148124A121A17F023
S214006D4851F80C4B002B00D098470B4B002B00D06B
S214006D5898470020002104000D000B4817F088FB18
S214006D6817F018F8200029002BF05DFC17F06EFBD2
S214006D7800000800000000000000000008100020C6
S214006D8808100020AC640020E1E4010007B50121EA
S214006D9820200DF1070201F0A9F858B102230121BD
S214006DA820200DF107028DF8073001F0AFF803B088
S214006DB85DF804FB9DF807100229F8D0022209485E
S214006DC815F0F2FE022301210DF1070220208DF8AE
S214006DD8073001F09BF82BF080FB4FF4FA6000F0C8
S214006DE8CDFEE4E7B0CD030038B502F05FF801F059
S214006DF81BFA012805D001F017FA022801D001F085
S214006E0839FA064D2B783BB901F00EFA01280446EC
S214006E1802D12BF0EBFB2C7038BD00BFFC5D0020C8
S214006E2810B5044600882BF02CFBA37884F84400A1
S214006E38834202BF0123E3702371074B04F11C0051
S214006E48C4E9073401F0A8F8224620880349BDE8BB
S214006E58104000F0E5BF00BFF3210300BD2103008A
S214006E6870B5C37804460D461646002B34D1D1B10A
S214006E78214815F099FE0123E370E36CA6600BB178
S214006E88E06D9847E368F61A63699E4221D2217E30
S214006E981A480131C9B2217615F086FEA36D13B1E2
S214006EA8217EE06D9847E5702BF02AFB15B3237911
S214006EB803BBA268238A801A83421BD80123104882
S214006EC8237115F071FE236DA3B1E06DBDE8704027
S214006ED8184701232376E6E70029E4D1094815F088
S214006EE863FE636DE660E5702571002BDBD0E06D10
S214006EF89847D8E770BD00BFD8CD0300E9CD03009A
S214006F0817CE030004CE030010B50446054BC0E9AF
S214006F1803300C3001F040F82046BDE810402BF056
S214006F28BCB900BF3F22030010B501790446B1FA88
S214006F3881F1008849092BF007FA21796088B1FAAF
S214006F4881F149092BF000FA034B1A68A24204BFE4
S214006F5800221A6010BD00BFD415002070B5437912
S214006F680446A3B100880E4E04F10805336813B131
S214006F780C4B1B786BB121792BF0E6F964210A4B90
S214006F883460A3602846BDE870402BF0B0BA40884D
S214006F98E9E7064815F008FE054B3221A360F1E73D
S214006FA8D4150020FD5D0020316F00002DCE0300B3
S214006FB8656F000010B50446E0B10F4815F0F4FD03
S214006FC801236371A37953B9217920882BF0BCF982
S214006FD8236B7BB1606B0121BDE810401847204643
S214006FE8FFF7A2FF04F108002BF086FA2046FFF709
S214006FF8B5FFEDE710BD00BF63CE030010B504462D
S214007008F8B1104815F0D0FD00236371A3796BB969
S21400701821792088B1FA81F149092BF095F9236B7B
S2140070287BB1606B0021BDE8104018472046FFF78B
S2140070387BFF04F108002BF05FFA2046FFF78EFF6F
S214007048EDE710BD6ECE030010B5044668B10748DC
S21400705815F0AAFD637920461BB1BDE81040FFF77E
S214007068CDBFBDE81040FFF7A5BF10BD7ACE030020
S21400707810B50E4C0E48214615F096FD82210D4897
S21400708815F092FD82210220A21E00F03FFF014665
S21400709830B134F8022C0848BDE8104015F084BD1D
S2140070A80648BDE8104015F07FBD00BF8A5800208E
S2140070B889CE0300A4CE0300AFCE0300F3CE0300B0
S2140070C838B5114C82212246022000F00FFFA51C7D
S2140070D8014688B122880D4815F066FD2A460C4BF5
S2140070E803F12C0153F8040B8B4242F8040BF9D138
S2140070F81B7813702C23238035F8021C054A064893
S214007108BDE8384015F050BD88580020FECE030074
S2140071187ECF03008A5800205CCF0300034B1B7801
S2140071281BB18B4201D82BF0D8B97047C86D002028
S21400713810B5044601460E4815F036FD012C11D14F
S2140071480C4B0D481A884FF6FF739A421EBF002252
S214007158094B5A742BF0DEF802F00AF8BDE8104026
S21400716801F0DCBE0448BDE810402BF0D5B800BFDF
S214007178ABCF03007C6D00201868002070B5002493
S2140071881A4D1B4E3378A3421BDC0024194D1A4EA9
S2140071983378A3421BDC0024184D194E3378A342DB
S2140071A81BDC01F041F8012816481CD12BF0B2F878
S2140071B801F0DEFF01F0B2FEBDE87040124801F0B3
S2140071C853B82846FFF72CFE01346035DAE7284620
S2140071D8FFF79AFE01343435DAE728462BF0B9F87B
S2140071E801343835DAE72BF097F8E5E7E82400208D
S2140071F8045E002008290020055E0020B822002032
S214007208035E002018680020397100002DE9F04F51
S21400721887B0FFF755FFB84B05A805932BF0BDF8C8
S214007228054616F0DBFCB54CC2B21F2A627004D9BC
S214007238B34815F0B9FC00F095FC2946A01C16F0DA
S21400724861FF05A82BF0A9F8054616F0C7FCC2B2E0
S2140072581F2A84F8212001D9AA48EAE7294604F11A
S214007268220016F04FFF05A82BF097F832260446A2
S21400727800272578002D40F0BC80A34FFFF77EFF3F
S2140072883B78A24C01932378DFF8A8A2DFF8C082E7
S2140072989F4E00939AF8003098F8002031789D4861
S2140072A815F082FC307898F8002039789AF8007043
S2140072B8831824783B44984F2344AC463C460B44FA
S2140072C8DBB2A84200F35183002425469348A14226
S2140072D800F35683012B38BF0123914D02932A46AB
S2140072E800232C464FF482714FF6FF79029801333B
S2140072F8984213705180A2F8049002F10C02F5DC53
S214007308884B87497D48A36001F06AF8E079A3684E
S21400731800EB400003EB800000F032FEE379013317
S214007328E371814C23884B4503D07D497F4801F0A3
S2140073385BF94FF6FF7322887949D21A18BF0122E3
S2140073487B4801F01FFD4FF00009764C33784B451B
S21400735800F31F8300274FF00C09DFF8F8B1704DD3
S21400736898F800203178BA4200F3268302EB010928
S2140073780C2100274FF0940B01FB09516D4B187830
S2140073886D4AB84200F335830C214FF000094FF0E0
S214007398700B98F8003037781F44074401FB0751F4
S2140073A85A4B1878654A484500F3388398F80030F1
S2140073B8367800271E449AF800304FF068081E44B6
S2140073C80C23064403FB06554F4B1B78BB4200F3C1
S2140073D83B830299524800F061FE059B46491A46CF
S2140073E88B4240F04583564807B0BDE8F04F15F08D
S2140073F8DBBB532D0FD163784C2B40F05581A37817
S214007408502B40F0518101224E4B1A7005A82AF0E5
S214007418C4FF04462DE7442D13D16378303B092B6F
S214007428F4D8601C2AF0C6FF474B484A1978002350
S21400743886B2994202F16002E8DD22F8466C013312
S214007448F7E7422D0CD16378542B40F08580A01CBA
S21400745800F034FD344B188018462AF088FED5E72D
S214007468582D33D8412DD1D9433D152DCED801A35B
S21400747853F825F0E5780000157400001574000030
S21400748815740000157400001574000003760000DB
S2140074981574000015740000B5750000E774000048
S2140074A815740000157400001574000015740000AB
S2140074B85F770000B17600001574000015740000B0
S2140074C81574000015740000E5770000692D9DD13D
S2140074D8601C2AF06FFF80B22AF0FBFF96E70C4B81
S2140074E80120197800230C4A994202F1A8028DDD82
S2140074F802F8A60C0133F7E78A5800202C6700200C
S214007508CACF0300E1CF0300015E0020FE5D002025
S214007518025E0020F1CF03000C2000206C1E002025
S214007528A0160020601700207C6D00205016002052
S214007538D8150020FF5D0020B01B0020601A002030
S21400754854D00300FD5D0020045E0020E8240020DF
S214007558005E00206C1D0020601C00F0AFFC054695
S214007568E01C2AF09FFF01210446024628462AF01E
S21400757855FF6021C848DFF83CC30278A4F1030E23
S21400758851430CEB01032CF801504FF4FA611982B1
S2140075984FF44871DEF100045961C04944EB0E040B
S2140075A801325E8319659C7002702FE7601C00F03C
S2140075B885FC00224FF034088146B94F11462AF060
S2140075C82DFF3878B74D08FB00F325F80390EA1826
S2140075D8E3781046693B18BF01239370FFF794FCC5
S2140075E80021B14A3B785160012103FB08550B4442
S2140075F83B7015600F46117408E7601C00F05EFCCF
S2140076080022114681462AF009FF3422A44DDFF8ED
S2140076189482287802FB00F328F8039008EB03010D
S214007628E3780846693B18BF01238B70FFF76CFCAC
S2140076389E4A00231046916B31BB00EB831034231F
S2140076482A7802FB03838363994A00231046D2F8FC
S214007658A410F9B9A82202FB030034232A7802FBF7
S2140076680383C0F8A4305FB98F4A3B46114652F8E8
S214007678040BA8B93422287800FB028241F823209C
S2140076882B7801332B70C1E60133042B02F140023C
S214007698D1D1D9E70133042B02F1A802D7D1E2E70A
S2140076A80133042BE3D1EBE7601C00F007FC8046AF
S2140076B8E01C2AF0F7FE01210446024640462AF05E
S2140076C8ADFE602274487B4D0178A4F1030C4A4352
S2140076D8AB1825F802804FF44872DCF1000444EB3E
S2140076E80C049C70A8241A825A61DFF8E4C1724A16
S2140076F85E839A659CF80030DFF8B4E15C430EEBD5
S21400770804020EF804304FF40074548003241471F5
S214007718947101EB410401310170682105EB4415B1
S214007728322466480133DBB253718CF80030037894
S21400773882F8A0405943624C95606354621802214F
S21400774851800521517143F2FF210133DBB21371D9
S214007758D18003705AE6601C00F0B0FB00224FF0A0
S214007768380A94F803908346B9F1690918BF4FF0B0
S2140077780109DFF8608111462AF050FE98F80030BB
S214007788504D0AFB03F3EA1825F803B082F8049074
S214007798E37883B1692B0ED0E01C00F08FFB002243
S2140077A8114604462AF03AFE012298F800300AFBF1
S2140077B803535C809A7144483C4A037899015354B1
S2140077C898F8001002EB8314C1EBC10205EBC20562
S2140077D84A1C656388F800200133BAE7601C00F08D
S2140077E86DFB8046E01C00F069FB0546601D2AF02C
S2140077F859FE04460246012140462AF00FFE22465C
S214007808284601212AF00AFE4FF0600C4FF4487E05
S214007818DFF88490274A99F800300CFB03F011181B
S21400782822F80080E01EDFF8908044424441A1F828
S21400783810E0C1F814E08C704E83C1F85880591CCB
S214007848C9B20CFB01FC02EB0C008470942422F8ED
S2140078580C501E4DA0F810E0C0F814E04683C0F89F
S2140078685880981C89F800002878DFF86CC04443D4
S21400787803EB430302EB43130CEB040E01EB41014D
S214007888CEF8043002EB4112CEF808200CF80400BB
S21400789801302870BAE500BF045E00208D2303007F
S2140078A8055E002008290020186800206C1D0020AE
S2140078B80C200020E824002025710000015E00202E
S2140078C86C1E0020B8220020005E0020FF5D00200D
S2140078D8025E0020035E0020B01B0020601C00F043
S2140078E8EDFA8046E01C00F0E9FA002264790546C5
S2140078F8693C1146404618BF01242AF08FFD002235
S214007908284611462AF08AFD3820DFF88CC15D4AE1
S2140079189CF8003000FB03FE22F80E804FF00008AB
S21400792802EB0E010C7181F80680591CC9B2484357
S21400793802EB000E8EF8044070241552524D981C27
S2140079488CF800002878DFF854C14443C3EBC3031F
S2140079588EF8068002EBC3030CEB040EC1EBC101E4
S214007968CEF8043002EBC1028EE794F805E0013544
S214007978964584BF84F804C084F805C0A834A0E4FB
S21400798890F804C00134944584BFC570057168300A
S2140079989DE4B9F1000F06D015F8053C03EB430348
S2140079A804EB8304AC602946384601F029FE09F149
S2140079B80109A8370C35C9E479180AD04A1E09FB0C
S2140079C80252D27902EB420204EB820409FB01520E
S2140079D89460584609FB015101F05CFB31782B484E
S2140079E8394409FB015101F0B7F801370BF1400B98
S2140079F8B6E417EB090F18BF11F8050C03911EBF64
S214007A0800EB400004EB80048C600BFB072000F0C2
S214007A18B3FF03991E4B01370C31B0E419EB070F7F
S214007A2818BF11F8050C03911EBF00EB400004EBCD
S214007A3880048C600BFB092000F072FE0399124B41
S214007A4809F101090C31ACE4F74218BF15F8053CFA
S214007A5829461CBF03EB430304EB83040D4B18BFF6
S214007A68AC6008FB073001F011FF01370C35ABE4BA
S214007A7813F8011D00297FF4B1AC3B2102F8011C64
S214007A88ACE400BFB8220020FE5D0020AC22002037
S214007A98FF5D00206C1E0020035E0020601A002098
S214007AA807B5012121200DF1070200F01FFA18B9C9
S214007AB89DF80720024B1A7003B05DF804FB00BF60
S214007AC8C86D002007B5064B8DF807001870012111
S214007AD80DF10702212000F019FA03B05DF804FB47
S214007AE8C86D002007B5022101200DF1060200F03E
S214007AF8FDF938B9044815F057F8BDF8060003B084
S214007B085DF804FB0020FAE771D0030007B50221F0
S214007B18ADF806000DF10602012000F0F7F901465F
S214007B2810B1034815F040F803B05DF804FB00BF39
S214007B3892D0030010B5FFF7D5FF04460146074864
S214007B4815F032F80121064815F02EF824B9BDE8DC
S214007B5810400120FFF7DABF10BD00BFC2D00300F7
S214007B68D4D0030008B5044815F01EF800F0DEF976
S214007B782AF0B3FC2AF0AEFCEAD0030038B5044677
S214007B88084D094B28462B6000F006FA002C18BF53
S214007B9821462846BDE8384008BF4FF496712AF0BB
S214007BA8A6BC00BF0C2A0020DB2303002DE9F04307
S214007BB8394D93B008AC0746894690460FCD0FC49A
S214007BC80FCD00260FC495E803000323012584E89B
S214007BD80300324C3248CDE90366CDE905668DF8D8
S214007BE80E300796029534F05CFE2E4834F059FEA7
S214007BF832462D4920468DF8176005F0A7F933461A
S214007C0832462A498DF81900009020468DF82390B0
S214007C18CDF82C808DF8216005F0B2F90A90204640
S214007C288DF8097005F012F9204608AA05A905F08E
S214007C38CDF902AA204603A92BF019FD4FF40072CD
S214007C481B4B5A62194BE560626A920510D46BB9F1
S214007C584FF40072164B11485A6205F0F7F81148AF
S214007C6834F022FE002013B0BDE8F083013BEBE7BA
S214007C78002BEDD0094908A82BF02CFD4FF4007214
S214007C880B4B06485A6205F0E1F8064834F00CFE3D
S214007C98BDF82000E7E700BFFC6C04000040005A6F
S214007CA84C6F0400486F040080841E0040420F009A
S214007CB80060005A0122034B1870034B1980034BCF
S214007CC81A707047075E0020846D0020065E00204C
S214007CD8F8B5454B1B780BB90020F8BD434B1B780D
S214007CE8012B03D1BDE8F8402AF076BB404B1C8830
S214007CF84FF6FF739C42EFD03E4834F0D2FD002387
S214007D08260AE4B21A462146304605F05FF8012EE8
S214007D18354604F0010335D015D9B51E012DDBD83C
S214007D28002B0BBF4FF480754FF080754FF47061D1
S214007D384FF070610BBF01274FF480370F204FF4C8
S214007D4870202D4B11E0002B0BBF4FF480754FF0C1
S214007D5880754FF470614FF070610BBF01274FF4C8
S214007D6880370F204FF47020244B1A6802401CD02E
S214007D78BA421AD01A680A4032D11A6822EA0102B0
S214007D882A4316E0002B0BBF4FF480754FF0807522
S214007D984FF470614FF070610BBF01274FF48037C6
S214007DA80F204FF47020164BDFE71A6822EA00020D
S214007DB83A431A602AF010FB054600288CD008368D
S214007DC844EA06102A460321C0B2FFF7EFFE40F643
S214007DD8FF73684300F2FF70B0FBF3F080B27CE7F5
S214007DE895427FF479AFC8E7065E0020075E00205C
S214007DF8846D00204C6F040028C3035020C3035032
S214007E0824C3035010B5044C237823B9034834F030
S214007E1848FD0123237010BD095E00204C6F040046
S214007E282DE9F0431F4C85B0074688469146FFF774
S214007E38E9FF23781BB902F06FFA012323707BBA97
S214007E48ADF80C3030220023174E02FB03F4315DE8
S214007E58A51901BB012333554FF0FF3304F1100079
S214007E6812493044AB606F80C5F80480C5F80C90A2
S214007E7809F04AFD04F10801042231440C4B009530
S214007E8803A802F01FFBA96802460A4814F08CFEF5
S214007E9805B0BDE8F0830133102BD6D1064814F0A0
S214007EA883FEF5E7085E0020342A00200524030038
S214007EB817240300F7D0030025D1030080B1027809
S214007EC8A2F14103032B0BD840783038C0B20828FB
S214007ED806D8054B134413F8413C40EA0320704784
S214007EE84FF6FF70704700BF246D040008B50B46B8
S214007EF842B101460448006803F02CFCBDE808407F
S214007F082AF0E1BA022008BD8468002008B50B46AE
S214007F1842B101460448006803F0A4FDBDE80840E5
S214007F282AF0D1BA022008BD84680020F0B50026E1
S214007F38124F8DB0FF2300930A223346386802A9F1
S214007F482BF03AF9C0B102AB1D4603EB800404E0FF
S214007F5855F8043BB34228BF5E1CAC423868E9D9E2
S214007F68296803F005FF0028F2D02D28F0D00DB0C0
S214007F78BDE8F0402AF0A7BA0DB0F0BD846800202E
S214007F8828B1034B0360034B4360002383607047AC
S214007F98190000032C680020FF2307B50021044AB7
S214007FA80093083009F034FC03B05DF804FB00BF0A
S214007FB8F12403000B460449024608680349097879
S214007FC808B12AF0B8BA7047402D00200B5E002092
S214007FD8F7B50C4618B12921194834F0C8FC2468AE
S214007FE823685E795F8830463946FFF7E3FFF0B1CD
S214007FF88568E5B1A089227D3946904291BF002068
S214008008801AA36880B294BF03469B18E27C00904F
S2140080183046A8470138032803D8DFE800F0080FE1
S2140080280B0D002420462EF03CFA204600E0812066
S21400803803B0F0BD8024F5E79324F3E78724F1E73F
S2140080484DD10300F8B515460D4A044610680D4A8A
S2140080580B46117850B122462AF06DFA034628B12D
S21400806800210C27C678B14201DB0020F8BD07FBCB
S21400807801F45A681019125BAA42F7D00131F2E7E8
S214008088402D00200B5E002008B5034B1B6803B18B
S2140080989847002008BD00BF3C2D00202DE9F74F6B
S2140080A804460D460026454B454F1860454B19704B
S2140080B833010021F85C013610F07AFC0C2EF7D15B
S2140080C80C2D28BF0C254FF0000901953C4EDFF813
S2140080D800A13D4DDFF8FC80019B4B4502DC03B058
S2140080E8BDE8F08F23784FF0000B337063887380F9
S2140080F8A388B380A379C6F80880B371E379C8F873
S214008108005088F804304FF00003A768A8F8063037
S214008118E3795B450ADC012116F8100B10F048FCE1
S21400812808F1080809F101090C34D5E74FF00003F7
S21400813838886B812880FB784FF0000C2B81BA7842
S214008148C5F804A0002A00920CBF802240222A7399
S21400815879680AF10C02634513DC03EB43030AEB68
S214008168830ABB6843B1009A4FF6FF71B2FA82F2EF
S214008178164B52092EF025F914350BF1010B0C3766
S214008188C6E7B1F800E00CF1010C22F80CEC91F807
S21400819802E00C3202F816EC91F804E00C3102F812
S2140081A815EC11F809ECBEF1010F14BF4FF0100ED4
S2140081B84FF0110E02F814ECCDE700BF402D00205A
S2140081C8F04400200B5E002044330020D97F0000D6
S2140081D8442D0020C4350020014B1860704700BFAE
S2140081E8382D0020014B1860704700BF3C2D00203A
S2140081F870B5128805460E46FFF724FF044670B190
S21400820802790499806815F03FFE064B1B680BB987
S214008218002070BD3146284622889847F8E7862011
S214008228F7E700BF382D002008B50FF05DFC0228E0
S21400823806D0012806D0044B18784000C0B208BD06
S2140082480120FCE70220FAE70A5E0020054B10B57D
S2140082581C682CB1FFF7E8FF2346BDE81040184716
S21400826810BD00BF342D0020014B1860704700BFBA
S214008278342D0020034B1A781AB901221A700BF015
S21400828893BC70470A5E00200022024B1A70FFF764
S214008298DDBF00BF0A5E002037B50446002836D08A
S2140082A80FF022FC022834D160892EF05CFCE079BD
S2140082B8237A003818BF0120012B637A08BF40F0E4
S2140082C808000BB140F0100063890BB140F00400C1
S2140082D8257CA188A2790DB1E36893B90F4B10F0FD
S2140082E843FF2178084610F0BBFF2DF065FF0446D3
S2140082F810F074FF7CB100280CBF0020032003B0E8
S21400830830BDCDE90035064B10F02EFFE9E7022018
S214008318F5E70120F3E72046F1E700BF65220400F1
S2140083282EF2030008B50DF09DFD014630B1044855
S21400833814F03AFCBDE808400EF038B908BD00BF96
S214008348BFD10300034B044A5B7C01210320137052
S214008358FFF7DCBD186800200C5E002010B5044648
S214008368FFF7F0FFB4F57F4F0BD100240F4B1A88A8
S21400837813449C70FEF77CFE2046BDE81040FFF7CD
S214008388FDBB4FF601739C4204D1BDE81040084877
S21400839829F0A8BF4FF602739C4205D1BDE81040ED
S2140083A8044B1878FFF78EBB10BD00BF8858002016
S2140083B818680020C86D002010B5074C0121224619
S2140083C80320FFF793FD28B92378044A003B18BF1B
S2140083D80123537410BD00BF0C5E002018680020EF
S2140083E8F8B5564B564C1A884FF6FF739A4218BF84
S2140083F803234FF0080218BF2370524B32251A7019
S21400840830229A705A71DA7139225D70DD7036251D
S2140084181A724FF400121D719D714B4D4264C5646B
S2140084284A4D012205654A4D86188565494DC66739
S214008438C565494D494E4566494D80F848208566CC
S214008448484D80F854200567474D80F860204567FA
S214008458202580F8785080F8845000F12105C0F86F
S2140084688850424D80F86C20C0F88C50C0F8806068
S21400847880F89020C0F89440C0F8B8303C4B3D4C8B
S214008488C0F8BC300223C0F898403B4C80F8C03097
S214008498C0F8A4400F24394B80F8A840C0F8C43070
S2140084A8374B384CC0F8C8308223C0F8AC40364C3E
S2140084B880F8CC30C0F8B0400924344B344DC0F8AE
S2140084C8D030344B80F8B440C0F8D4302C7C324BD3
S2140084D880F89C20C0F8A00080F8D820C0F8DC30CF
S2140084E844B12E4B80F8E420C0F8E03005F11103C3
S2140084F8C0F8E8304FF0000CCA798E6802EB4203E9
S2140085089F00443006EB830326F807C05860012016
S2140085180D349870DC701318CB71FFF7C1FAFFF7AB
S2140085284BFFFFF781FE012806D12B7C23B1BDE85F
S214008538F840174829F0D6BEF8BD00BF7C6D00206D
S214008548C96D00200D5E00203D6D0400010020006E
S2140085583C6D0400020020003B6D0400050042004C
S214008568030020003A6D04000400420007003000B3
S214008578FDFF21001200100100404200386D040083
S21400858800FF4401286D04000600420088580020B9
S2140085981868002002FF2001C86D002001FF1001A6
S2140085A813B504460E4829F0EDFD6422C0F30F43C8
S2140085B8637083B2B3FBF2F3A07823702022002303
S2140085C8012129F0DAFFA07800232122012129F0D1
S2140085D8D4FF0449201D02B0BDE8104029F087BF2B
S2140085E87C6D0020E09304000B7870B583704CF621
S2140085F81E0303804FF02013C362012380F8303037
S21400860880F83C30C3180364124B044643640223C4
S214008618114A80F84830114B8263C3644063CA79B4
S2140086288D6802EB420305EB830004F12C064660D6
S2140086380B4E45F8236000238360531CCB71094B0F
S214008648201DC4E90134FFF7A7FC2046BDE87040AA
S214008658FFF7A6BFFDFF2100210020003E6D0400A5
S21400866801000103A9850000437B044A0121137019
S21400867800781130C0B2FFF749BC00BF175E002073
S21400868838B504460078054D11302A460121C0B297
S214008698FFF72CFC08B92B78637338BD175E0020EB
S2140086A8034B53F8200008B12AF044B8704700BFBF
S2140086B824360020012908B506D0022907D049B972
S2140086C82AF02FF8002008BD2AF02EF8FAE72AF03C
S2140086D82EF8F7E7024814F067FA0120F3E700BF20
S2140086E8ECD1030010B4054C114654F820001A4685
S2140086F8BDF804305DF8044BFFF7DCBF24360020D5
S214008708002310B5044683810364A0F8443048303B
S214008718FFF742FC014BC4E9123410BD23270300BF
S21400872838B504460B781A4A43700D4642F82300BB
S214008738FFF7E6FF2046FFF7A3FF4FF44013236139
S2140087480123144A2375A261134A84F82030E26193
S214008758124A84F82C306262114A84F83830A262D1
S21400876804F10C0222630F4A04F10D036263E3630B
S214008778EA79A86802EB420300EB830110344C60E8
S214008788094C40F82340094B8B60531CEB7138BDED
S21400879824360020165E002008002000CA6D00203F
S2140087A800FF300001FF100102010104ED86000001
S2140087B810B47024427B0D48013A012904FB0200DC
S2140087C806D0022908D059B95DF8044B29F0A9BF8C
S2140087D85DF8044B29F0A8BF5DF8044B29F0A7BF45
S2140087E803485DF8044B14F0DFB900BF601A002098
S2140087F808D20300B0F85C302DE9F0418B420446FD
S2140088080E4639D0437B077C93B31C4A12789A42AB
S2140088182ED370251A4A013B05FB032390F80F80D8
S2140088281B7B424629F094FFB845054601D1FF2830
S21400883820D13A463146204694F8903029F088FFF1
S2140088482F4605460123552212216078A4F85C605D
S21400885829F093FEFF2F03D039462046FFF7A8FFDE
S214008868FF2D09D029462046BDE8F04129F0B0BFC3
S214008878FF25DEE70746E5E7BDE8F081FE5D002058
S214008888601A002041688268C978D27849B112B166
S2140088980321FFF7AFBF837B002B0CBF012102210A
S2140088A8F7E72AB1837B002B0CBF02210121F0E7F2
S2140088B8014814F079B900BF19D20300037BD3B17D
S2140088C84368DA7812B18268D278A2B91B7933B1D4
S2140088D8837B002B0CBF04210521FFF78BBF836821
S2140088E81B792BB1837B002B0CBF05210421F4E7F1
S2140088F8014814F059B970474BD20300084A437B25
S21400890805211370837B5370C37B9370037CD370ED
S214008918037B137100780E30C0B2FFF7F7BA00BFBA
S214008928185E002038B5044600780C4D0E302A46EE
S2140089380521C0B2FFF7DAFA20B1BDE8384008488A
S21400894814F032B92B7863736B78A373AB78E37340
S214008958EB7823742B79237338BD00BF185E00208C
S21400896887D20300034B53F8200008B129F07ABFDA
S214008978704700BF4C360020F8B504460B78424ACC
S21400898843700D4642F82300404E29F08BFFFFF750
S214008998C9FF6268A3683E483E49D6641165D46537
S2140089A85065C3E91410DE64DC654FF09873022640
S2140089B86361012304F10C01E16137491032216239
S2140089C804F10D01A16235492376E16204F10E0136
S2140089D86163334984F82430A16304F10F012164EC
S2140089E8304984F83030616404F11001E1642E499E
S2140089F884F83C3084F84830216584F85460A265D1
S214008A08E879A96800EB400201EB820704F1140C30
S214008A18C7F804C04FF4817C244F41F82270C2186E
S214008A28D2B202EB420241F822C001EB82070022D2
S214008A387A601F4A84F8703022661E4A84F88830A6
S214008A48A2661D4A1D4BE2661D4AC4F88C30626752
S214008A581C4A8319A26704F15C02C4F88020DBB2C2
S214008A68194A03EB4303C4F8842084F8646084F846
S214008A787C6001EB830260345460144A033041F88A
S214008A882320E871F8BD00BF4C3600208D88000012
S214008A982F280300C58800000100200102001001ED
S214008AA803003001040030010500210101FC010625
S214008AB84A002100406D040051001000426D040079
S214008AC8436D0400550021006F00180012000104D1
S214008AD870B50D460646144613460A4601461A4819
S214008AE814F062F825B92046BDE87040FFF736BC9A
S214008AF8072D05D121463046BDE8704000F092BEED
S214008B084FF601439D4205D121463046BDE87040E8
S214008B18FFF728BF062D05D121463046BDE8704030
S214008B2800F072BAB5F5817F05D121463046BDE81A
S214008B387040FFF7B5BD202D04D12046BDE8704033
S214008B4800F0ECB870BD00BFB6D203000148FFF7CE
S214008B5843BB00BFD98A00004FF4C01330B503608A
S214008B6801230371074B8C688360CA7902EB4203C2
S214008B7804EB83056860044844F82300531CCB7153
S214008B8830BD00BF446D0400040001010368064AB6
S214008B980C2113604368536003891381438922209C
S214008BA85381FFF7B3B900BF7436002010B50368C9
S214008BB8044686B0FBB1114813F0F6FFA37B104AB3
S214008BC88DF804304FF48273ADF806300123CDE9F2
S214008BD80223002301A804938DF81430FFF75CFBEA
S214008BE82046618929F06EFE2046FA2150F8143B8B
S214008BF8594329F07CFC06B010BD00BFE9D203003B
S214008C082000000110B5064C236843B1054813F050
S214008C18CBFF2068BDE81040418929F053BE10BD3F
S214008C28803600200AD3030070B5364910460C6813
S214008C38BDF81020002C5ED003285CD8DFE800F0D2
S214008C48021E2745002B5AD0022A58D91D78B3F899
S214008C580160291E18BF012132462B4813F0A4FFD5
S214008C682DB13146204629F02DFE002070BDE57353
S214008C78FA206368584329F0C1FCF6E7234813F046
S214008C8893FFE37B002B38D00023E373F0E7002B39
S214008C9835D0032A33D91D681D48294613F084FFAA
S214008CA81C4B2A1F9A4201D90220DFE723680BB122
S214008CB89D42F9D823899D42F6D3E37B6560B3B914
S214008CC8FA20684329F09AFC11E0002BCED0012A3E
S214008CD8CCD91D881048294613F066FF002DE3D02E
S214008CE863689D42E0D8E37B2581002BE8D12046C7
S214008CF8FFF74CFFB9E70120B8E70420B6E70320E2
S214008D08B4E700BF803600202DD3030064D30300E9
S214008D1883D30300FCFF6D00ADD3030038B5154BB5
S214008D281C6834B3F0B92168134813F03DFF236874
S214008D383BB16268934204D2104813F035FF63686B
S214008D48236004F11405284629F0D6FB236823B1CE
S214008D58FA212846594329F0CAFB2046BDE8384080
S214008D68FFF714BF032804D16189054813F01CFFD8
S214008D78F3E738BD80360020D8D3030005D40300B7
S214008D883AD4030070B53E4B0D4604460978186081
S214008D98002A6FD101231A46A1730021E17301212D
S214008DA8A1814FF46151C4E900132823354E22816E
S214008DB80C21324622206381FFF798F860B9D6E97D
S214008DC800230AB19A4207D3318999429FBFC4E962
S214008DD800237389218163812B4B2C4AE363042388
S214008DE884F8403084F84C30E3182365284BA26496
S214008DF86365022304F10802E265264A84F85830BF
S214008E08226604F10A02A266234A84F8643084F8CB
S214008E18703004F10C03E26663676464EA79A86854
S214008E2802EB420300EB830104F13C064E601B4E46
S214008E3840F82360FA261A4B1A488B60531CEB71CD
S214008E48FFF7D0F9208904F11405704329F0D6FB02
S214008E586189204629F036FD134B2846C4E90534B7
S214008E68FFF79AF8216849B128467143BDE8704073
S214008E7829F03DBB4FF4F07302228DE770BD00BFAA
S214008E8880360020743600200000230101002300ED
S214008E980200210003002101FDFF2100200001053A
S214008EA8318C00000D8C0000B58B0000194B10B5F6
S214008EB81C686CB3E37B4BB329F022FB2369C01A0A
S214008EC800280ADBFFF7B0F9012814D029F018FBB0
S214008ED8FA22638902FB03002061E37BB3B124898D
S214008EE8FA235C4329F095FBA04211D02046BDE842
S214008EF8104029F083BB084813F056FE0023FA20DA
S214008F08E3736368584329F079FBE6E76468E7E7A4
S214008F1810BD00BF8036002067D4030038B5002493
S214008F28044D55F8040B08B129F0DFFC01340A2C6F
S214008F38F7D138BD84360020042908B50AD172B1A5
S214008F486BB113781BB929F0FCFC002008BD29F08A
S214008F58EEFCFAE7034813F027FE0120F6E70320A5
S214008F68F4E700BFA1D4030010B4054C114654F82A
S214008F7820001A46BDF804305DF8044BFFF7DCBF46
S214008F88843600200229024608B50ED004D839B91E
S214008F98104629F0D6FC06E04029F9D0412907D129
S214008FA8104629F0C4FC002008BD29F0D4FCFAE7D6
S214008FB8024813F0F9FD0120F6E700BFC1D403000C
S214008FC810B4054C114654F820001A46BDF8043073
S214008FD85DF8044BFFF7D6BF84360020426B094B7A
S214008FE852791A7082785A70C2789A70826B12B167
S214008FF890F83C20DA70007804210930014AC0B2A3
S214009008FEF784BF1D5E0020024B53F8200029F0AF
S214009018BFBC00BF8436002038B504460078084D2B
S21400902809302A460421C0B2FEF760FF30B96B78D3
S214009038A370AB78E370EB7884F83C3038BD00BF9B
S2140090481D5E002038B504460078114D09302A46C2
S2140090580421C0B2FEF74AFFC8B9A3782A78022BC3
S2140090680CD004D863B9204629F06BFC01E0FF2B2E
S2140090780AD02046BDE8384029F037BC002AF2D18D
S214009088204629F054FCF4E7002AF9D1EBE738BD6E
S2140090981D5E0020F8B504460B78284A0D4642F8AF
S2140090A823004370FFF7B8FF636B254A5C631A63B7
S2140090B82046FFF7C7FF204629F017FC4FF4801319
S2140090C863600123626BA66B0532E2601D4A237259
S2140090D82261A21C2375A26166B11B4A84F820305F
S2140090E8E261E21C6262194A84F82C3004F13C03FF
S2140090F8A26223630627EA79A96802EB4203002ED8
S21400910821F8237001EB83000CBF02230423C370ED
S214009118012383700E4B04348360531C4460DBB217
S2140091280C4C03EB430341F8234001EB8300002378
S2140091384360094B02328360EA71F8BD843600202A
S214009148732903000340300101FF300102FF1001BC
S214009158C98F000008000100718F000028B1034B7A
S2140091681B78834234BF002001207047005E002031
S21400917870B500250A4C0B4E3378AB4200DC70BD48
S214009188D4F8A42042B123791BB16079FFF7E6FF33
S21400919810B9104629F081F80135A834ECE700BF6D
S2140091A80C200020025E002008B5417902460846D9
S2140091B8FFF7D4FFA8B1D3780A480139042B00EB8F
S2140091C881100ED8012B08D81BB9BDE8084029F035
S2140091D8AEBBBDE8084029F0B4BBBDE8084029F09E
S2140091E8BABB08BD6C1D002008B541790246084682
S2140091F8FFF7B4FFA8B1D3780A480139042B00EB6F
S21400920881100ED8012B08D81BB9BDE8084029F0F4
S21400921898BBBDE8084029F08ABBBDE8084029F09D
S2140092289ABB08BD6C1D002070B586B006460C4675
S2140092381546FEF7F9FF01282DD1042C2BD8DFE8B8
S21400924804F01230320303002846FFF787FF50B3B6
S214009258164B032C03EB851353F80C3C58791CD19A
S214009268003818BF01204FF48273ADF80630062385
S214009278ADF8083001234FF480728DF80B300023C8
S2140092888DF80A0001A8CDE903238DF804608DF84F
S2140092981430FFF701F806B070BDB0FA80F0400948
S2140092A8E1E70020DFE70220DDE700BF6C1D0020B5
S2140092B82DE9F0418AB005460C46FEF7B5FF0128B1
S2140092C806462BD16B784FF4827800254FF48077CA
S2140092D88DF80030134B6846CDE90137ADF80280AB
S2140092E803958DF81050FEF7D7FFBCB16379627806
S2140092F8052B14BF032307238DF81420082205A87E
S214009308CDE90775ADF81680ADF818208DF81A3037
S2140093188DF81B608DF82450FEF7BEFF0AB0BDE836
S214009328F08100BF0800070110B583780446A3B98A
S21400933803790BB1FFF758FF204629F07FFB04237B
S2140093486078A4F86C3055220123122129F015F90B
S2140093582046BDE8104029F02EBBB0F86C30022B32
S21400936817D00379032B01D1FFF71EFFA379032B30
S21400937804D16279E1786078FFF756FF00236078B9
S214009388A4F86C305522BDE810400123122129F0BC
S214009398F4B80A4A037812789A420DD90279022A52
S2140093A80AD08279022A07D06822054903FB0211EF
S2140093B82046FFF77DFFE1E70021F9E7015E002080
S2140093C86C1E002070B58AB004460D46FEF72CFFCA
S2140093D8012843D16378224E8DF800304FF482730B
S2140093E8ADF802304FF4807394F8A02094F8A110DA
S2140093F872701C4A6846CDE9012302233170039631
S2140094088DF81030FEF748FF0DB3AB79E879FF2BDF
S21400941808BF94F8A130697833704FF48273ADF8BA
S21400942816300823ADF8183001238DF81B304FF49A
S2140094388073CDE9073602236A79707005A88DF81F
S21400944814108DF81A208DF82430FEF725FF94F8AE
S214009458A130013B18BF012384F8A1300AB070BDC3
S214009468215E00200800050170B583780446002BAD
S21400947848D02549027809780379914217D9022BF2
S21400948817D08379022B1FD06823204D02FB035583
S214009498EB78022B19D12A791046FFF75FFEA0B1A8
S2140094A81B48013A00EB821029F055FA0DE0022B12
S2140094B80AD162791046FFF751FE28B11448013ADE
S2140094C800EB821029F047FA0025A379022B04D175
S2140094D86279E1786078FFF7A7FE25B12A79A9783E
S2140094E86878FFF7A1FE29462046FFF76BFF0223A0
S2140094F86078A4F86C305522BDE87040012312212C
S21400950829F03BB870BD00BF015E00206C1E00202D
S2140095186C1D00204388094A0821138083885380DD
S21400952883681B8A938090F8A03093718379D371EF
S21400953800780430C0B2FEF7E9BC00BF0A59002024
S21400954838B50D4604460178114813F02DFB4FF642
S21400955802739D420ED10F4B1B782BB963712046C0
S214009568BDE83840FFF7D6BF62790AB19342F6D213
S2140095780123F3E7B5F57F4FF1D1204629F069FAC4
S214009588A378022B0CBF01220022A3689A70E6E794
S214009598DDD40300005E002038B504460078144D7C
S2140095A804302A460821C0B2FEF7A0FC20B1BDE868
S2140095B83840104813F0F8BA2B8863806B88E9782F
S2140095C8A380AA88A3681A82AB7984F8A030EB79BE
S2140095D8A371094B1B780BB9637138BD09B1994261
S2140095E8FBD9064813F0E0FA23780133F4E700BF06
S2140095F80A590020F7D40300005E002020D5030097
S214009608F8B504460B78474A0D4642F823004370DF
S214009618FFF7C2FFA268444BD465D364434B0226C7
S2140096285365434BA11C13654FF44013E3600123B5
S2140096386161E1623F49103221632265211D3E4A7D
S214009648A1633E483E49626504F1A002A061E16359
S214009658E265E01C611D3B4A206261643A483B496A
S2140096682266A21D2374237784F8283084F83430C1
S21400967884F84030A16484F84C6084F8583084F844
S21400968864306062A266E879AA6800EB400102EBE3
S214009698810704F10C0CC7F804C04FF0060C2C4FD9
S2140096A842F82170C118C9B201EB410142F821C045
S2140096B802EB810700217960264F84F880302767FF
S2140096C8254F84F89830A767244F254BE767254F22
S2140096D884F8746084F88C60C4F89C3004F16C06D6
S2140096E8831CC4F88470C4F890601F4F1F4EDBB20A
S2140096F803EB4303C4F89460C4F8887002EB83064F
S2140097087034746008261A4C42F82340C31CDBB237
S21400971803EB430302EB8304043042F823606160E2
S214009728E871F8BDEC360020F329030031930000F9
S2140097387194000001FF300104FF20011000300181
S21400974802FF200105FF300100FF300103FF210161
S214009758070001084A002100466D04005100100069
S214009768486D0400496D0400550021006F0018007C
S214009778120001048378094A06211370C3785370CF
S214009788037993704379D37083791371C3795371CE
S21400979800781430C0B2FEF7B9BB00BF235E0020C5
S2140097A838B50D46044601781C4813F0FDF94FF607
S2140097B802739D420ED11A4B1B782BB92371204693
S2140097C8BDE83840FFF7D6BF22790AB19342F6D2F1
S2140097D80123F3E74FF601739D4206D1E37813F0B1
S2140097E8FD0FECD00023E370E9E74FF609739D42BE
S2140097F807D1637903F0FB03012BE0D005236371DF
S214009808DDE74FF608739D42D9D1A379023BDBB258
S214009818FC2B9CBFFF23A371D1E700BF55D50300DF
S214009828005E0020064A034652F8200008B1FFF7FB
S21400983887BE044A52F8230008B1FFF7B1BF704745
S214009848EC360020AC36002038B5044600780D4DBE
S21400985814302A460621C0B2FEF748FB20B1BDE800
S2140098683840094813F0A0B92B78A3706B78E370DA
S214009878AB782371EB7863712B79A3716B79E371FD
S21400988838BD00BF235E002076D5030070B5314A88
S2140098980B78044642F8230043700D46FFF7D4FFC2
S2140098A84FF440130221A822A360012320782373D3
S2140098B812FB0012284923760A442261274A84F8B4
S2140098C824306261A21CE261254A84F830302262A4
S2140098D8244A84F83C30A262234A84F84830E2627C
S2140098E8E21C6263214A84F85430A263221D226473
S2140098F81F4A84F860306264621DE2641D4AE31DF4
S2140099082265A21DA2651C4A6366E265E979AA6813
S21400991801EB410302EB830008344460174808262D
S21400992842F8230006204B1CDBB203EB430342F845
S2140099382300002002EB83048B1CDBB203EB4303FB
S2140099486060033102EB830442F823606060E971CB
S21400995870BD00BFAC3600200C200020100030017F
S21400996805FF3000456D040001FF300102FF2001AD
S21400997809FF300108FF300104FF20010700010835
S21400998800239B6AB3F5C04F03D21968064A914272
S21400999803D00023037083607047012202709A6820
S2140099A89B694260F7E700BF07B0CD5E024B034AEB
S2140099B81A602AF09FBA00BF0000002002020FF0CB
S2140099C873B5534B04461A781AB102221A7002B0BD
S2140099D870BDCDE900220028F9D001261E7032F0AD
S2140099E83FFF4C4D4C4B186017F0E0FA2B785BB9EC
S2140099F802F062FA40B949480823494A49490068CA
S214009A0801F0A8FE00B92E70474B5A6E62619B6E35
S214009A18464AA3614FF40043936603F188435968A6
S214009A28E16143499960196E2160596E6160D3F807
S214009A387011A160196CE160596C21613D49086C90
S214009A481864496C5964012151664FF400519166B7
S214009A581A6E560436D53849CA68D407FCD45B6EE5
S214009A685A0434D5354AD36B13F0430FFBD1344B25
S214009A781A68531C31D04FF400139340314A1366CA
S214009A880423304C684623664FF48063236610230D
S214009A9823664FF4005323664FF0804323664FF443
S214009AA8804301A9636628F0EDFF009B2366019BAF
S214009AB863662B78002B8AD0194B1A6822665B6877
S214009AC8636684E72049CA68D007FCD4C7E71F4AFC
S214009AD8D36B13F0430FFBD1C9E71D4B1B78002B44
S214009AE8CED14FF48072114B5A661A4A52681AB988
S214009AF84FF40011134A11664FF400725A66164B5B
S214009B085B68002BBCD14FF480020E4B1A66B7E791
S214009B182A5E00202B5E00204C3700208468002038
S214009B285037002000710800008000500090005058
S214009B3855CEAC0000C00054000004400000024CA3
S214009B485068002000900044000004500000025CAA
S214009B58295E002000C005500000065070B52C4D48
S214009B6804462E78012E02D001232B7070BD0028E3
S214009B78FCD028F0ACFF01300BD028F0A8FF40F24C
S214009B880113984205D0234B234A5E66D368DE0746
S214009B98FCD4224B22491B6E13F0040F4FF40053DB
S214009BA814BF1C4A1F4A9366CA6B12F04302FBD1C5
S214009BB821681A4B196661685966A168C3F870115E
S214009BC8E168196421695964E169C80748BF9A6061
S214009BD8154B1A6801320DD1144A127852B9144935
S214009BE84968C90748BF1A60124A5268D20744BF74
S214009BF801221A606269104B5A66A2699A6617F0C3
S214009C08DDF90E4B186832F026FE0023ADE700BFDC
S214009C182A5E0020009000400000044000800044B7
S214009C280000024C0090005050680020295E00207A
S214009C3800C0055000000650008000504C37002039
S214009C4870B50024A36AB3F5C04F23D21A68134B25
S214009C589A421FD1124E337813F0FD0518D14FF4EF
S214009C6880341048FFF7ACFE032004F0B9FC0E4B16
S214009C780320DC6004F098FC0C4B1C61AB6ADB69C3
S214009C88984704460748FFF769FF0CB90123337065
S214009C98204670BD4FF48174FAE700BF07B0CD5E6A
S214009CA8295E00202C37002000A0004400900044C5
S214009CB813B5204B1B7803B9FEE700231E4CCDE9ED
S214009CC800336A4608231D49206801F043FDF8B9A9
S214009CD81B4AD2F84031D2F840211F2B4FF001031F
S214009CE811D9203A9340019A1A43019208236A46EA
S214009CF81249206801F0B6FE124B134A1A602AF081
S214009D08F9F802B010BD9340009A1A430092EDE7A6
S214009D182D28F1D10A4AD2F84031D2F840211F2B1B
S214009D284FF0010385BF203A93409340019398BFB4
S214009D380093DBE72A5E0020846800200071080094
S214009D4800800044000000200B020FF038B5002504
S214009D58AB6A0446B3F5C04F10D21B6BB3F5C04FC1
S214009D680CD20748FFF72CFEAB6A20461B6B5B68D5
S214009D789847BDE838400248FFF7F0BE38BD00BF38
S214009D885837002013B50024A36A0190B3F5C04FD6
S214009D9813D21B6BB3F5C04F0FD20948FFF710FE5E
S214009DA8A36A01211B6B01A89B69984704460448CF
S214009DB8FFF7D4FE204602B010BD4FF48174F9E7D1
S214009DC85837002070B50026B36A0446B3F5C04F6E
S214009DD80D4612D21B6BB3F5C04F0ED20848FFF7DC
S214009DE8EFFDB36A20461B6B29469B6998470446D5
S214009DF80348FFF7B3FE204670BD4FF48174FAE7B8
S214009E085837002070B50026B36A0446B3F5C04F2D
S214009E180D4612D21B6BB3F5C04F0ED20848FFF79B
S214009E28CFFDB36A20461B6B2946DB699847044674
S214009E380348FFF793FE204670BD4FF48174FAE797
S214009E4858370020F8B50027BB6A0446B3F5C04F5C
S214009E580D46164611D21B6B7BB10948FFF7B0FDBD
S214009E68BB6A20461B6B324629465B6A98470446FF
S214009E780348FFF773FE2046F8BD4FF40174FAE76F
S214009E885837002070B50026B36A0446B3F5C04FAD
S214009E980D4612D21B6BB3F5C04F0ED20848FFF71B
S214009EA88FFDB36A20461B6B29469B6A9847044673
S214009EB80348FFF753FE204670BD4FF40174FAE7D7
S214009EC858370020F0B50027BB6A0446B3F5C04FE4
S214009ED80D461646ADF5177D20D21B6BB3F5C04F61
S214009EE81CD21048FFF76CFDBB6A20461B6B40F27D
S214009EF851225B6A01A99847044630B10948FFF722
S214009F082DFE20460DF5177DF0BD836A32461B6B85
S214009F182946DB6A01A898470446EFE74FF4017420
S214009F28EFE700BF5837002010B50024A36AB3F542
S214009F38C04F10D21B6BB3F5C04F0CD20748FFF7C3
S214009F483FFDA36A1B6B1B6B984704460348FFF745
S214009F5805FE204610BD0124FBE700BF5837002049
S214009F68F0B58FB0044601A80E461546FFF7EEFE7C
S214009F789DF80C30012B12D1B5F5002F27D8B4F573
S214009F88002F24D86319B3F5002F20D821462A4677
S214009F98304614F0B7F8002420460FB0F0BD00276E
S214009FA8BB6AB3F5C04F15D21B6BB3F5C04F11D2C1
S214009FB80A48FFF705FDBB6A2A461B6B3146204652
S214009FC85B6B984704460548FFF7C8FDE4E740F290
S214009FD80244E1E740F20114DEE700BF58370020EC
S214009FE8F0B58FB0044601A80E461546FFF7AEFE3C
S214009FF89DF80C30012B1FD1B5F5002F06D8B4F507
S21400A008002F03D86319B3F5002F13D940F2024482
S21400A01820460FB0F0BDE258013225D104339D42E8
S21400A028F9D82A463146204600F082F80028EDD0B6
S21400A0380024EDE70023F2E70027BB6AB3F5C04F1C
S21400A04815D21B6BB3F5C04F11D20A48FFF7B8FC00
S21400A058BB6A2A461B6B314620469B6B98470446CC
S21400A0680448FFF77BFDD3E740F20344D0E740F20D
S21400A0780114CDE75837002070B58EB0044601A805
S21400A0880D46FFF763FE9DF80C30012B22D144EAFB
S21400A0980503C3F30C03002B33D1B5F5002F04D901
S21400A0A840F2024420460EB070BDB4F5002FF7D833
S21400A0B82544B5F5002FF3D8204604F5005400F0E3
S21400A0C829F8AC4202D00028F6D1E9E70028E7D004
S21400A0D80024E7E70026B36AB3F5C04F14D21B6B1B
S21400A0E8B3F5C04F10D20A48FFF76AFCB36A294690
S21400A0F81B6B2046DB6B984704460548FFF72EFD8A
S21400A108D0E740F20444CDE740F20114CAE700BFA6
S21400A118583700204FF4003208B5044B9A6632F0E0
S21400A12837FEB0FA80F0400908BD00BF0090005026
S21400A138134610B562B103439B070BD14FF40034A6
S21400A148054B9C6632F02CFEB0FA80F0400910BD34
S21400A1580120FCE70020FAE700900050BFF34F8F7D
S21400A1680549064BCA6802F4E0621343CB60BFF3A6
S21400A1784F8F00BFFDE700BF00ED00E00400FA05C2
S21400A18870B5D0B1C9B10E4E431E013913F8014F50
S21400A1982046325D02F00302012A11F8012F08BF9B
S21400A1A804F12000B55C05F00305012D08BF203238
S21400A1B8801A01D1002CE9D170BD0120FCE700BF50
S21400A1C8DD9404000348044A0449121A921028F041
S21400A1D8E3BC00BF4061000018630000486500202B
S21400A1E808B5154B83F30A8800F030F8FFF7EAFF46
S21400A1F8124B13498B4212D30020124B12498B4242
S21400A20818D3FCF78FFD186850F82240586840F8B5
S21400A2182240013298688242F5D30C33EAE70022DE
S21400A228F8E71C6844F8220001325C68A242F8D3BA
S21400A2380833E4E70022F8E70800002008D1040005
S21400A24814D1040014D1040014D104004FF40041C2
S21400A258134B144A70B59A60D3F88820124D42F40E
S21400A2687002C3F88820114A05F5005491664FF02D
S21400A278FF3222664FF6DF7262660222C3F8D020EB
S21400A288BFF34F8FBFF36F8F4FF44036032004F0B1
S21400A298A7F90320E66004F087F92E6170BD00BFB9
S21400A2A800ED00E0006000000080004400900050D0
S21400A2B8054B1860054B1B6F03F00703032B01D1F2
S21400A2C830F01ABC704700BF60680020008000505D
S21400A2D82DE9F04104464FF001080C250D4E0CB947
S21400A2E8BDE8F08194FAA4F0B0FA80F00F2808FAD6
S21400A2F800F2C8BF103824EA0204CABF05FB006291
S21400A30805FB0062B4325768002FE8D09168C0B2E7
S21400A318B847E4E77837002008B50C4832F0C1FAA9
S21400A328192004F04FF928B1192004F059F919201A
S21400A33804F03AF91A2004F045F928B11A2004F076
S21400A3484FF91A2004F030F9002008BD4C6F0400BD
S21400A3582DE9F0410E461746054618B30F2923D8AF
S21400A3680378DBB1013BDBB2022B19D8104AD35C69
S21400A3786A78D340DB0717D50E4BD3F81043ACB931
S21400A38832F06EFA80463A462846314603F064F8BC
S21400A398404632F060FA2046BDE8F0817F23E7E7C2
S21400A3A80023E5E72224F6E72124F4E70224F2E76F
S21400A3B89C6D040000C0035010B5044610B3037823
S21400A3C8E3B1013BDBB2022B1AD8104AD35C6278A1
S21400A3D8D340DB0718D532F043FA01226178237898
S21400A3E88A4030214B4341F2100103F1A04303F5A4
S21400A3F870335A5032F02FFA002010BD7F23E6E75C
S21400A4080023E4E72220F8E72120F6E79C6D040005
S21400A41810B5044610B30378E3B1013BDBB2022B58
S21400A4281AD8104AD35C6278D340DB0718D532F0C6
S21400A43817FA0122617823788A4030214B4342F28A
S21400A448100103F1A04303F570335A5032F003FAB3
S21400A458002010BD7F23E6E70023E4E72220F8E784
S21400A4682120F6E79C6D040038B50D46044618B35F
S21400A47811B30378E3B1013BDBB2022B1AD8104ABA
S21400A488D35C6278D340DB0718D532F0E9F930227E
S21400A4982378534303F1A04303F570335B6962786E
S21400A4A8D34003F001032B7032F0D5F9002038BDF5
S21400A4B87F23E6E70023E4E72220F8E72120F6E7F3
S21400A4C89C6D04002DE9F0410D4616469846044654
S21400A4D800284FD000294DD00178002940D04B1EC7
S21400A4E8DBB2022B3ED8254AD25C6378DA40D20724
S21400A4F801D4FF2940D1022E01D9042E3CD132F0D6
S21400A508AFF923780746FF2B05D032462046296840
S21400A51802F0E8FF28602B68013309D12378FF2B67
S21400A52806D1174B6078D3F8241429F006F928606A
S21400A53829684B1C18D00C23124A03FB0122069BE1
S21400A548C2F8048093602378FF2B04D001230E4AB8
S21400A5588B40C2F82434384632F07DF9002007E0F4
S21400A5687F22C2E70022C0E7384632F074F92D2071
S21400A578BDE8F0812220FBE72120F9E79C6D040066
S21400A58800C003507837002000D0035008B502F00A
S21400A59859FF054B00F0553020F05020C3F8200432
S21400A5A8BDE80840FFF794BE00E0035008B502F087
S21400A5B849FF054B00F0AA3020F0A020C3F820047D
S21400A5C8BDE80840FFF784BE00E003502DE9F04FD1
S21400A5D8144605460E469B46C36B87B001225B6948
S21400A5E802A960689847EB6B01225B6903A93046AD
S21400A5F8984702A828F0CFFE074648B10023A3755F
S21400A60863754FF0FF33A360002007B0BDE8F08FF6
S21400A61803A828F0CDFE0123A375237E04EBC3030D
S21400A628DE611F846368B3420ED1206003A828F059
S21400A638E1FE4FF0FF332075A360237D043B022B19
S21400A64826D80023A375DFE723681A1A5342534116
S21400A658A37503A828F0CEFE237D834218BFA775EE
S21400A66803A828F0A9FE074602A828F0A5FE8742F8
S21400A67818BF002303A818BFA37528F0A5FE074631
S21400A68802A828F0A1FE87421CBF0023A375D4E7C2
S21400A69803A828F091FE80B1EB6B022230465B6976
S21400A6A804A9984704A828F096FE0346207D0328A8
S21400A6B839D8DFE800F03838040903A8F3E7CC22D5
S21400A6C8237E04EBC3031A8401F06EFC109B1870FB
S21400A6D803A8277E28F064FE04EBC70787F8220045
S21400A6E8237E03A804EBC303B3F8209093F82270E4
S21400A6F828F062FE804603A828F066FE8246B8F177
S21400A708000F15D0EB6B022230465B6904A9984708
S21400A71804A828F025FE6075637D6BB90023A37531
S21400A7284FF0000838E0227E04EBC2021384CBE721
S21400A73803A828F000FEEEE794F81680B8F1000F9C
S21400A748EED0B9F1000F09D1DFB10123E375637EBE
S21400A758002B4FD1012F42D1677614E06B6C06EBC5
S21400A7680A015A4286EA010010421CBF0022A2755E
S21400A7785A1E0A409B1A9945D0D8A37D002BE3D1D0
S21400A788CEE7E37D43B94FF000084B4652463146C4
S21400A798284628F04BFBA060A27D12B123694B44E3
S21400A7A823611A49237E097899422AD901332376E8
S21400A7B8BBF1000F27D032B3E37D23B3B8F1000F07
S21400A7C821D1032F1FD0A1684B1C1CD0109B2246FA
S21400A7D8009328460123FFF7F9FEA07513E095F8C5
S21400A7E8343063B9EB6A0133CFD1032FCDD10123BF
S21400A7F8A376C8E7012FCFD0032FC4D1F7E7984632
S21400A808C3E70023A375A07DFFE600BFC06D040064
S21400A8182DE9F04F0E46984600238BB004464FF0BD
S21400A828FF31104617468DF8133001F0A7FBB6F532
S21400A838801F20D2314605AA04F1080028F0FDFC46
S21400A848451C014603D1237CBBB92D2010E03846B1
S21400A85801F094FB0122394620460DF1130328F037
S21400A86837FB0028EFD09DF8133088F8003000201A
S21400A8780BB0BDE8F08FB01CE5D1E56A691C36D18F
S21400A8882046616A28F018FA0546B31C18BF01234B
S21400A898DFF8CC900193636A626C0293236805A97B
S21400A8A802FB053AE36B05225B695046984705A804
S21400A8B828F00CFE28F02FFE504628F037FE4FF002
S21400A8C8000B824601464B1C05D0636C81EA0A02DF
S21400A8D85B42134211D02946204628F0EDF9029B28
S21400A8E8AB422CD0BBF1000F2CD10546D3E723682A
S21400A8F8ED1A636CB5FBF3F5C7E7484601F03EFB77
S21400A9080DF1130349462046019A28F0E1FA03465A
S21400A91890B1B21C03D0D9F80020B2420CD19DF8F1
S21400A928132003930D4B88F8002049461A683846CA
S21400A93813F0E8FB039B9B46D9F80810C3E7BBF166
S21400A948000F82D0B6F5801F91D2314698F80030B5
S21400A9587A6804F1080001F03FFA88E7BC6D040045
S21400A968543F00202DE9F3410446174698460E4604
S21400A978184D816AE36A8B4201D04B1C02D102B0A3
S21400A988BDE8F081284601F0F9FA0122294620465A
S21400A9980DF1070328F09CFA38B1434629462046AD
S21400A9A89DF80720B8470028E9D0A9684A1C04D1B2
S21400A9B86968204628F00DFA0146012EDAD16B6840
S21400A9C881EA0302636C5B421A4218BF4FF0FF31FC
S21400A9D8D0E700BF283F00202DE9F04F4FF0FF33A7
S21400A9E84FF6FF720025044600F10806C0E9092361
S21400A9F88BB0C362056205633046884628F0EEFBD6
S21400AA08204628F029F960BB2046414628F0A4F9DC
S21400AA18204628F021F960BB5E200BB0BDE8F08F19
S21400AA282368E26B606C576900FB0530052205A9B0
S21400AA38B84705A828F04AFD012807460CD129463C
S21400AA48204628F05AF9012F024600D1013229463D
S21400AA58204628F020F903E028F062FD0028EED111
S21400AA680135E3699D42DBD3204628F0F5F8002837
S21400AA78CAD000254FF0FF394FF6FF73CA46A846DE
S21400AA88C4E90853E36998450AD3A5EB0905012DDF
S21400AA982CD84FF6FF72636A93423CD16720BCE716
S21400AAA82368E26B606C576900FB0830052205A92D
S21400AAB8B84705A828F00AFD834605A828F0DDFC57
S21400AAC80746584628F027FD68B1574538BFC4F8EA
S21400AAD82480B94528BFB946BD4238BF3D46BA4668
S21400AAE8236A0133236208F10108CBE74FF6FF73A8
S21400AAF800256362E3699D42CBD2676C2068E36BEE
S21400AB08052207FB05005B6905A9984705A828F0F4
S21400AB18B4FC0135EEE7E26B676C2068694607FB14
S21400AB28030055690522A847684628F0A6FC626A0D
S21400AB382368606C4B4D00FB023028F0F7FC4FF0A2
S21400AB48FF33A062E3622A466FF00101204605AB98
S21400AB58FFF75EFE002846D1AD6829462046E56226
S21400AB6828F056F8206320B92046E16A28F031F923
S21400AB78E0622946204628F02CF90546A36A9D423D
S21400AB8833D1204628F017F800278046B946E369EF
S21400AB9899453CD3B84559D92046616A28F08CF8BF
S21400ABA80026054604F1400AB74212D8626C2368AC
S21400ABB8694602FB0539E36B05225B6948469847F8
S21400ABC8684628F05AFC534602464946E06B28F089
S21400ABD8AFFC2946204628F06FF80136B0450546F2
S21400ABE8E2D1642019E7A56AB7E72946204628F087
S21400ABF80FF8236B2946034407462363204628F0AC
S21400AC08E8F80546002FB9D1C4E90B07B6E7636C28
S21400AC182568052203FB0955E36B05A95B692846E9
S21400AC28984705A828F052FC28F075FC58B1284625
S21400AC3828F07CFC0146204627F0EAFF636C143BAC
S21400AC48984208BF013709F10109A0E7304628F005
S21400AC58C5FA002320461946034AFFF783FE00205C
S21400AC68DBE600BF803F0020C72E03002DE9F04139
S21400AC78036B9046826B07689A4288BF8363426C70
S21400AC88436A90B002FB0377C36B0E46052201A900
S21400AC985B6904463846984701A828F017FC01283F
S21400ACA80146307057D0656CE26B2368606AD2F84C
S21400ACB814C005FB0030052206A9E04706A828F0C0
S21400ACC805FC01284FF0000523D0D4E90A320121FB
S21400ACD89342CDE90B458DF834800E958DF83C10DF
S21400ACE82AD11946204628F074F8236B626C143370
S21400ACF89B1AE06223630C9B53B99DF83C303BB12A
S21400AD08626A616C2368E06B01FB023128F096FBEF
S21400AD180C9DE36B05225B6901A93846984701A894
S21400AD2828F0D4FB30702846236BA26B9A4288BF63
S21400AD38A36310B0BDE8F081237C33B91C490BAA85
S21400AD4804F1080001F096F8D5E72046194A0BAB3F
S21400AD58FFF708FECFE7237C23BB2246164904F1FB
S21400AD68080001F087F8616A204627F0C6FF616A86
S21400AD78421C204627F08FFF054620B9236B626CDD
S21400AD881344143B23632046A16A28F022F823685C
S21400AD98A062C01A636CB0FBF3F06062204628F02D
S21400ADA85BF8B6E700232046044AFFF7DBFDDAE740
S21400ADB819B5000095B40000612F0300FD2E0300AE
S21400ADC873B50D46D11E4A421C461B7E4A419A421E
S21400ADD826D129682368994222D3636899421FD8E6
S21400ADE8114E0DF107033246FFF712FDC0B972681F
S21400ADF86B689A4214D19DF80730DA1E53425341C5
S21400AE08227E93420CD1636901336361D4E903233C
S21400AE18934205D22968A26842F8231001332361B9
S21400AE28012002B070BD00BF803F00202DE9F04F22
S21400AE389B4689B09DF848309046514A019313695D
S21400AE4807465B450D46C0F09580D9465368009383
S21400AE58B9F1000F7BD0FB6B01225B6905A900984E
S21400AE68984705A828F0A4FA454B1B68984240F076
S21400AE78848005A828F0A8FA0428064615D105A84F
S21400AE8828F0A9FA009B04461E44019B002B3ED1DD
S21400AE98804512D91C46A8EB00083846009927F0CA
S21400AEA898FFA9EB04090090D2E7FB6B02225B69C6
S21400AEB8009806A9984706A8E2E7A0EB08045C45B0
S21400AEC828BF5C46032C4644ABEB040B1DD9FB6B32
S21400AED8294630465B69A208984724F0030304F025
S21400AEE8030A1E441D44DDF80480BAF1000FD4D0CE
S21400AEF8FB6B012206A930465B69984752462846EE
S21400AF0806A913F0FFF85544C7E7A246EBE78246C2
S21400AF1800F0030302932B1803930644039BA6EB47
S21400AF280A00A3EB0A05029B9A4514D1BAF1000F52
S21400AF38B3D0FB6B012206A95B69984752462846A0
S21400AF4806A913F09BFA0028DDD04FF036094846CC
S21400AF5809B0BDE8F08FFB6B012206A95B6998472C
S21400AF680422284606A913F089FA0028EDD1AAF18A
S21400AF78040AD3E74FF06309E9E74FF06F09E6E7FD
S21400AF88AC3F00202DE9F0410F4616469846044689
S21400AF9888B060B390F83450FDB1012127F051FE17
S21400AFA800210E9BCDE90511CDE902379DF83C300E
S21400AFB8CDF804808DF81C30237C04968BB90D4997
S21400AFC801AA04F1080000F055FFDDE90553E06B1F
S21400AFD8002E08BF1D4627F0CDFF284608B0BDE85E
S21400AFE8F0812046044A01ABFFF7BCFCEDE70546B6
S21400AFF8F3E700BF2B2F0300C9AD00007FB590F81C
S21400B0084260044601920DF10B030A463046114988
S21400B01827F0B8FF012E0546E36B17D132465B6969
S21400B02803A998479DF80B10039B019A59B19BB248
S21400B03843EA0243012228460393E36B03A99B696C
S21400B048984704B070BD62F30F03F3E701229B69CB
S21400B05801A9F5E7AC3F00202DE9F04F99B00E4660
S21400B0680D920A69416C0B931439D31DB3FBF1F3A7
S21400B078013302EBC302036B04469342C0F001821D
S21400B0880023DFF804940893E36A484619460593B4
S21400B09800F074FFD6E9033707930B9B022B4DD1BC
S21400B0A8CC2F40F0D7810D9B3BB13146204627F088
S21400B0B8BFFF656C1490012044E00120079B656C77
S21400B0C81B68149300F0010000280CBF0423082313
S21400B0D8782F0E9349D8059A6B1E1340ED1A3B1D20
S21400B0E89D423CD2002F3DD0082D3ED80023042593
S21400B0F806934FF0040A336806990B98C9F800308F
S21400B108C9F8107028F07AF94FEA9A030F93059B4E
S21400B11889F814000393002309930C9304930A9365
S21400B128616C039B4A1E1A408B1A27B35544AB42E0
S21400B13823D8236B5B1A134423632FE1782F656C9F
S21400B148B9D8F07D0D9B002BBCD0E36B01225B6960
S21400B158706816A9984716A828F02EF9B4E70025AF
S21400B1680695C6E704250697C3E7012300254FF092
S21400B178080A0693BFE75345DBD3A3EB0A029742B8
S21400B188039BB84628BF90469742534428D90122C5
S21400B198D9F8101089F817208F4226D10399C9F8D4
S21400B1A80410049299F817200AB399F8181003980F
S21400B1B8CA1C09EBC202506004980131A2F8088044
S21400B1C8907289F81810B8F1000F07D00B9A022A67
S21400B1D840F08180099A72B1012209929B46ABE041
S21400B1E8049A002A18BF0322DBE70222D9E7039A4B
S21400B1F8C9F80420E7E70C9A4244032AEED9E26B22
S21400B2081846956914A901220993A847099B05467B
S21400B2180028E1D03D2D40F01E8104F10803039379
S21400B2282368059A606CA2EB030ABAFBF0FA00FBE7
S21400B2380A3028F07BF9E16A8046204627F0C9FDE7
S21400B248A26A824200F00F81626CD9F80830511E5B
S21400B2580B40216B2768891A0B442363089BE0621E
S21400B268DF1BB7FBF2F7BA4540F0FA80059BB3EB55
S21400B278080A12D0E36B4FEA9A0241469B69984740
S21400B2888346E36A059A5344E362236B03989B1A42
S21400B2984344236327F0A2FFDA462368616CE06B19
S21400B2A801FB073128F0B7F8204627F0D5FC2046E2
S21400B2B827F0D2FD2063BAF1000F00F0D48032697F
S21400B2C8616CD31D1439B3FBF1F3013302EBC302EF
S21400B2D89042A5D2BFE00D9A002A77D1B8F1030FA5
S21400B2E84FEA98026ED9E16B18468D690799109354
S21400B2F8A847109B0546C0B918F0030515D0079A4D
S21400B30828F0030B02EB0B019B444FF0FF3215A805
S21400B31815922A46109312F0F5FEE26B5846956988
S21400B32815A90122A8470546109B9B46079A424442
S21400B3380792002D40F08B80049B16A80193069B6D
S21400B348009399F814204346316800F0CDFDE36B6E
S21400B3580F9A9B69039816A99847039A051E089B97
S21400B36818BF13460893434652462046039927F0CB
S21400B3785DFD236B08F10302A3EB0A0322F0030228
S21400B3889B1AC9F808002363002D7FF443AF0C9B73
S21400B398A7EB080743440C93CDF80CB02046039956
S21400B3A827F017FD00250390002F7FF4B9AE364A24
S21400B3B83168936804F10800E36252680B9B00F05A
S21400B3C80BFD49E09B46454607999EE79B4606F1D6
S21400B3D820021092F27D7068A2B1002296F818C07A
S21400B3E80A99D5B2AC4511D9109D02F1010E35F86F
S21400B3F832508D4228D90E9806EBC2020144D06915
S21400B408084403E00E9A0A990A441044E26B15A908
S21400B418556901221193A847159A0A9B1392E26B65
S21400B428043395695846012213A90A93A847119B25
S21400B438054603EB0802A2EB0B02042A7FF679AF57
S21400B44828B90BF1040BC5E77246491BC9E7CDF8C6
S21400B45820B088E770252F46384619B0BDE8F08F2B
S21400B4684FF0000A19E73269616CD31D1439B3FB33
S21400B478F1F3013302EBC302236B9342BFF404AE2D
S21400B488E9E71C27E8E700BF543F0020032A2DE918
S21400B498F34106460D4617461C4606D1237A012B6D
S21400B4A823D0012002B0BDE8F081DFF8608009688B
S21400B4B842460DF10703FFF7ABF960600028EDD1AF
S21400B4C89DF80720237A032AE8D0D8F804106A687B
S21400B4D89142E3D1012B2969D4F80CC007D17269CF
S21400B4E80CEB0103934202D92074207CDAE708317A
S21400B4F86144E1603B46012229463046FFF7ACFD31
S21400B50860600028CAD00020CCE700BF803F00203B
S21400B5182DE9F341089C032A1746266806D1237AA4
S21400B528012B24D0012002B0BDE8F081DFF890801E
S21400B538304642460DF10703FFF76AF960600028B7
S21400B548EDD12568D8F80400A96AD5F844C0484063
S21400B558CCF100031840227AE1D1012A09D1E26829
S21400B568D8F8103013447269934202D92074207CAC
S21400B578D9E72868EB6A1B1A081AB3FBFCF3B0FB7A
S21400B588FCF083420BD1706CF36A421E1340326B98
S21400B598121A13442846336327F01BFCE862D8F8CF
S21400B5A81020E36808321344E36001223B4604494E
S21400B5B82068FFF751FD60600028B0D00020B2E791
S21400B5C8803F00202DE9F0410025604B0E46D3F859
S21400B5D8008004461D6018B921252846BDE8F0817C
S21400B5E890F8347007B30A6803689A4240F0A3805C
S21400B5F84A6843689A4240F09E808A6883689A42FE
S21400B60840F09980CA68C3689A4240F094800A69F4
S21400B61843699A4240F08F808A69C36B9A4240F029
S21400B6288A804B698361D8E768223946856B12F0B1
S21400B638D9FBD6E90212336804F108002360736860
S21400B648A5636360336963617369A36127F0D8FDF6
S21400B658B36904F14000E3639B68984720B9676CB8
S21400B66817B16368B3FBF7F794F84330E761002B2C
S21400B678B2D00023656C2366002D64D0002F62D0FC
S21400B6882368B3FBF5F205FB1233002B55D1666829
S21400B698B6FBF5F305FB1363002B4ED1204627F0C7
S21400B6A8A7FAA369043303449E4248D340F634728B
S21400B6B86369CC3B934244D8B5F5805F43D30321F6
S21400B6C8204627F0BEFAD4E90001E36B1B689847CA
S21400B6D80546E36B0220DB689847CDB9414620460D
S21400B6E8FFF77AF96428054604D141462046FFF755
S21400B6F873F90546666C5DB9236A2046143E5E43B8
S21400B70827F076FAA369043303449E4238BF5A25C5
S21400B718002D0CBF0123002384F8343007D1D4E968
S21400B72800010B4A13680133136027F003FEE06B31
S21400B73827F020FC51E75D254FE759254DE75A25A8
S21400B7484BE75F2549E75B2547E700BFE43800205D
S21400B758E03800202DE9FF410C4616461F460546F0
S21400B76880B390F834307BB3B1F5801F2ED2DFF863
S21400B7786080012127F065FA2146424628460DF1E9
S21400B7880F03FFF745F8044670B99DF80F30012BF4
S21400B79811D1D8F81030BB4212D10246009031467B
S21400B7A82846FFF743FB0446E86B27F0E3FB2046F2
S21400B7B804B0BDE8F081022B14BF2D246024F3E703
S21400B7C86324F1E72124F2E71124F0E72924EEE7C1
S21400B7D8AC3F00202DE9F04385B00C4617461E46C0
S21400B7E80546DDF8308098B390F8343093B3B1F559
S21400B7F8801F31D2DFF86490012127F022FA214613
S21400B8084A4628460DF10F03FFF702F8044688B9A2
S21400B8189DF80F30012B14D1D9F8102006EB080339
S21400B8289A4213D300904346324639462846FFF7D5
S21400B838FDFA0446E86B27F09DFB204605B0BDE8F8
S21400B848F083022B14BF2D246024F3E76324F1E76A
S21400B8582124F2E71124F0E72924EEE7AC3F002084
S21400B86873B50C461646054630B390F834302BB3FD
S21400B878B1F5801F24D2012127F0E3F92146284696
S21400B888104A0DF10703FEF7C3FF044680B99DF87A
S21400B8980730032B0CD0022B0CD12846094927F079
S21400B8A8C7FB3060E86B27F065FB204602B070BD2A
S21400B8B82D24F7E76124F5E72124F6E71124F4E7B9
